:1000000000400020CD1B0000151C0000171C000044
:1000100000000000000000000000000000000000E0
:10002000000000000000000000000000191C00009B
:1000300000000000000000001B1C00001D1C000050
:100040001F1C00001F1C00001F1C0000D10E000020
:100050001F1C000000000000A50B00001F1C00007A
:100060001F1C00001F1C00001F1C00001F1C0000A4
:100070001F1C00001F1C00001F1C00001F1C000094
:100080001F1C0000590200001F1C00001F1C000064
:10009000450300001F1C00001F1C00001F1C000067
:1000A0001F1C00001F1C00000000000000000000DA
:1000B0000000000000000000000000000000000040
:1000C000164B002B00D1144B9D46402292029A1AE7
:1000D000924600218B460F461348144A121A00F02C
:1000E00067F80F4B002B00D098470E4B002B00D029
:1000F00098470020002104000D000D48002802D080
:100100000C4800E000BF00F02DF82000290001F0AD
:10011000B7FC00F011F8C0460000080000400020C5
:1001200000000000000000006400002054030020D4
:100130000000000000000000084B10B5041C002B5C
:1001400002D0002100E000BF054B1868836A002B35
:1001500000D09847201C00F033F8C0460000000093
:100160006425000070B50E4B0E4D0024ED1AAD1045
:100170001E1CAC4204D0A300F35898470134F8E7A2
:1001800002F0E2F9084B094D0024ED1AAD101E1CD7
:10019000AC4204D0A300F35898470134F8E770BD8F
:1001A000640000206400002064000020640000203F
:1001B000031C8218934202D019700133FAE770478A
:1001C000FEE7C046BFF34F8F024A034BDA60BFF32E
:1001D0004F8FFEE70400FA0500ED00E01A4A802187
:1001E00089028023D150194B8022D22152028900EA
:1001F0005A50C22189005A5001225A602F200138DA
:10020000C046C046C046C046C046C046C046C046BE
:10021000C046C046C046C046F1D19A600C4B002291
:100220001A602F200138C046C046C046C046C046AE
:10023000C046C046C046C046C046C046C046F1D1D2
:10024000044B1A707047C04600E100E00010014006
:10025000640000208C000020F0B5304BA02100226B
:100260004900474680B45A50A22149005A50A4215F
:1002700049005A50A62149005A50802149005A503D
:10028000822149005A50264A1468601C37D0254AFA
:1002900000269D58244B254A1B68254FED1A2D0238
:1002A0002D0A904601E0621C1AD0E3001B19386841
:1002B0009B00C3185A68AA4212D84046AD1AB61815
:1002C0001C6A9A69D9690368002B1BD0101C9847D7
:1002D0000028E8D000220021FFF774FF621CE4D15F
:1002E000144B15491A780B789A420ED0134A9B008A
:1002F0009E5080218023124A49035B00D15004BCE8
:100300009046F0BD081C9047CDE7531CDBB2022B92
:1003100001D00B70EAE700230B70E7E70010014003
:100320007C0000200405000064000020680000201C
:100330006C0000207800002079000020840000205C
:1003400000E100E0F0B55F4656464D464446F0B445
:10035000BA48BB4BBB4900681A7809788BB0069045
:10036000914200D134E20132D2B2022A00D1FDE141
:100370001A70B54B9200D2580699039253181B027B
:10038000AE4A1B0A136001230793111CAF4EB04BFA
:10039000B04FB14C36681B78B0483F680968247884
:1003A000026804960293019709910894B146059654
:1003B0009B460020351C5B46013BDBB29B46FF2B76
:1003C00072D05F460199FE008E1974783378A44686
:1003D0006345F0D05C007768E418B1780133DBB294
:1003E000E4003C19C91A4F1EB941277849420B4015
:1003F000022F15D0032F10D1291C6C1C0DD0CC005E
:100400006118890051180875096A4C1CF7D1757874
:100410008946AC460C1C251CDAE72C1C251CD7E7AA
:100420006168CF007C18A400A418BA46277DA046B6
:100430002C1C002FEFD06F1C14D0A94200D183E1F7
:100440009C462F1C0B1C009502E0A34210D0271CD9
:10045000F900C919890051180C6A651CF5D1009D75
:1004600063462C1C454628757778251CBC46AFE7AB
:100470000C1C009D191C6346A4468F4200D14FE11D
:1004800054466718BF00D7192C1C396A7D68674627
:1004900039624F1CE6D0CC006118890051184C68B5
:1004A00065194D604C46DDE7684F4E4605953E6048
:1004B00009986249089D684C079E08602570002EC7
:1004C00000D055E105980499431A5A1E9341DBB2B6
:1004D000069301235B429C465E4E604F3668574848
:1004E00004965D4C594E3D68076824783668BB46D3
:1004F0000021059F039400968946029B013BDBB2D5
:100500000293FF2B00D1ADE0049CDB00E418A2466F
:10051000644601343FD06646F4006444A4002C19BC
:10052000216AA368E068E0468C465E469A1B4C4907
:100530001202120A8A4263D81018606001214E46E6
:1005400001204942A660E660207521627A1C6DD0C8
:10055000F900C91989006918626848683E1C82421E
:1005600008D855E0D900C918890069184868904230
:1005700059D21E1C0B6A121A581CF3D12362F300C5
:100580009E19B600AE19414662603B1C31621F1CC9
:1005900064460134BFD15646337872789A42ACD063
:1005A0005A0056465446D21864680133B178D200D6
:1005B000DBB2A218337099423CD051683B1C88468C
:1005C00011780129E3D14346DC004444A4002C19EE
:1005D000217D3B1C0029DAD19368A360D068E060DC
:1005E000166926615269E261039A002A9DD00023B0
:1005F0005E46A1609A1B1A491202120A8A429BD9CE
:10060000F31A1B021B0A83420AD2C01A606095E7E4
:10061000821A4A6043462762444600941F1CB7E78B
:100620004B4663608AE7801A4860A7E74346009319
:100630001F1CADE748463070BFE7C046640000208D
:100640007800002079000020840000207C00002039
:100650007000002074000020800000206C0000204A
:10066000FEFF7F0000986349059A0860974200D119
:100670006EE07C1C00D1BAE05F4DFA002B68D71900
:10068000BF00DB195C685D4A5D4B5E4E9A5831686D
:100690005D4D571A3F023F0A28780337B8460028B5
:1006A00021D18020D1264002B6009851C126B60043
:1006B0009851C02755488026B6027F00C651066073
:1006C000012018602F200138C046C046C046C046F1
:1006D000C046C046C046C046C046C046C046C046EA
:1006E000F1D101232B704346A34200D2231C5B1897
:1006F0001B024349A8201B0AC0000B503F489B1A0D
:1007000009581B02891A0902090A03311B0A994276
:1007100022D9802180233D4A89025B00D1501BE011
:10072000E900491989005118271C096A4C1C02D09C
:1007300089460C1CA9E6324C0125A56089460C1C93
:10074000002108950991A0E647464146C446ECE7DA
:10075000069B002B00D08CE72D4C002323700BB0A0
:100760003CBC90469946A246AB46F0BD0022FFE550
:10077000214A012317685B424A46059D0024002652
:10078000181CBC461BE0EB005B199B0063445968D6
:10079000039FB94222D87A1A03921F6A1A69641811
:1007A0005E601E75B846002A07D006991862671861
:1007B0003F023F0A9F60DA60281C454642466B1C98
:1007C000E1D10C4C0595012584462260069583E60F
:1007D00000240025039407950A49D7E5C91B8446E0
:1007E00004485960012102600595069174E6FFF7FF
:1007F000F5FCB1E77C0000206C000020040500003F
:1008000000100140640000208C00002000E100E0A6
:1008100080000020F0B557464E464546E0B481467C
:100820008A4690461F1C0720990704D01CBC90469E
:100830009946A246F0BD002BF8D0FFF7CFFC314B14
:10084000089A50461A60304B514618702F4B1F6063
:10085000002955D05146CA0053189B003C1C002566
:10086000002624352670267524349D42F9D1524441
:100870009200274BBF1803221A70264B391C1F60A9
:1008800043465A0042441831D200796089188A18C8
:10089000F9607A610121204A494211601F4A002310
:1008A00013701F4A3B7013707B703B727B723B74FA
:1008B0007B7480221B4BC021404652034900B87014
:1008C000B872B8745A50C52189005858FF24A04303
:1008D000C024204358501A60A121134AC900484639
:1008E0005050C42189005C5810482040C024240284
:1008F000204358500E4B0020D2580E4B1A6095E7FB
:100900000022B4E7680000207A0000206C0000207C
:1009100070000020740000207C000020780000207F
:100920007900002000E100E000100140FF00FFFF1F
:100930000405000064000020F0B5174B94461C68C5
:10094000002C1CD0002A18D0002816D0134B1E787B
:10095000002E10D02378002B13D02434002307E07E
:10096000271C2434251C243D2D781A1C002D0AD068
:100970000133B342F4DB0420F0BD0720FCE708207C
:10098000FAE7271C002201233B7063467970BB61A4
:1009900002600020F0E7C0466C0000207A000020D2
:1009A000F0B5474680B43D4B1C68002C47D03C4B0B
:1009B0001D780723854203D8181C04BC9046F0BD5F
:1009C0000429F9D9C3001B189B00E41825780823D3
:1009D000012DF1D16378012B33D000239846314BA0
:1009E0005C681023E405E40D2FD12F4C2668F6181F
:1009F0007378B4785D1C2C1B671EBC416442254093
:100A00003478AC421FD05C00E4187368E4001C1911
:100A10000423002CD0D0012323706060234B244892
:100A20004746C358E160A360626180218023214A68
:100A30005B00490327617570D1500023BCE7082390
:100A4000BAE78846CBE70423B6E7103CE3B25DB2D1
:100A5000002D13DBAD08C035164BAD00EB58032558
:100A60002C40E400E3401C06A40FE4B20023012C58
:100A7000BBD00823032CB8D01023B6E70F241C40AA
:100A8000083C0D4DA408A4006419032564682B409C
:100A9000AB40DC40E4B2A409E7E7C0466C000020AC
:100AA0007A00002000ED00E0740000200405000042
:100AB0000010014000E100E018ED00E030B5334BDC
:100AC0001A68002A35D0324B19780723814201D8A1
:100AD000181C30BDC3001B189B009A5C0823012A18
:100AE000F6D12C4B5A681023D205D20D25D12A4AB3
:100AF0001168C9184B788C785A1C141B651EAC41C0
:100B0000644222400C78944215D05C00E4184B6893
:100B1000E4001C190423002CDAD002232370606047
:100B200080234A7080211D4A5B004903D150002375
:100B3000CEE70823CCE70423CAE7103AD1B24BB280
:100B4000002B13DB9908C031144B8900CB580321CB
:100B50000A40D200D3401A06920FD2B20023012AD3
:100B6000C5D00823032AC2D01023C0E70F230B40AF
:100B7000083B0B4A9B089B009B185A6803231940AB
:100B80009940CA40D2B29209E7E7C0466C00002003
:100B90007A00002000ED00E07400002000E100E099
:100BA00018ED00E0F0B544465F4656464D46F0B4B9
:100BB000824A85B013680024012B68D0804B1968E5
:100BC000012900D170E07F4B1A68012A00D17BE037
:100BD0007D4B1E68012E00D186E07C4B00261968F3
:100BE000012900D191E022070BD0E30700D5A2E054
:100BF000A10700D5AEE0620700D5B9E0230700D514
:100C00008DE0002C06DB05B03CBC90469946A24620
:100C1000AB46F0BD6E4D4D21E0232C1C4919DB0085
:100C200048348846C027AA46994601962178081C70
:100C3000B8432B1828331B785BB2032B19DD9B00BC
:100C400053445B68002B14D0A0268909F605820066
:100C50000291921949465658B103890F01268B46D5
:100C6000311C019E81400E4207D15E46032E00D109
:100C70008EE001344445D9D1C5E759460229F8D15F
:100C8000029E032E00D196E002999847F1E7C12118
:100C90005048890041580B4290D0494B1460196864
:100CA0000124012900D08EE7C1224A4992008958C7
:100CB00002220A4200D186E700211960414B144309
:100CC0001A68012A00D083E7C1224249920089585C
:100CD00004220A4200D17BE7002119603A4B1443F9
:100CE0001E68012E00D078E7C1223A499200895847
:100CF00008220A4200D170E700211960334B1443E7
:100D000019680026012900D06DE71E6080231B06AC
:100D10001C43A022A223DB00D205D65863E72D4A4C
:100D20002D4BD058D1582A4BC0048903C00E890FCF
:100D30001B69984765E7274AA223DB00D058D158A2
:100D4000234BC0048903890FC00E5B689847A10735
:100D500000D450E71F4A214BD058D1581C4BC00437
:100D60008903C00E890F9B689847620700D445E746
:100D7000184AA323DB00D058D158154BC00489036F
:100D8000DB68C00E890F9847230700D439E7C6E710
:100D90000299032900D077E702210391494656586A
:100DA0000F490E404946565056580399090431439D
:100DB0004E46915168E7029E0396EFE700610040BE
:100DC00004610040086100400C6100407C6100400B
:100DD00090000020006000401C0500001405000089
:100DE000FFFFFCFF1F23184001238340181C024B08
:100DF000186000207047C04600E100E01F23184043
:100E000001238340024A181C8023D05000207047E1
:100E100000E100E01F23184001238340181C034A0F
:100E2000C0235B00D05000207047C04600E100E0C6
:100E300070B5002815DB8208154B9200D2180324E8
:100E4000C0239B002040FF24C000D558261C8640AC
:100E50008901B5430C408440281C2043D050002019
:100E600070BDC0B20F230340083B0A4A9B089B0099
:100E70009B1803221040FF22C000DD69141C84402F
:100E80008901A5430A408240281C1043D861E6E747
:100E900000E100E000ED00E010B572B6044B1A78F6
:100EA000111C4C1EA141013201701A70002010BDAE
:100EB000E0000020054B1A78002803D1187062B6B4
:100EC00000207047013A1A70FAE7C046E00000209F
:100ED00070B5394B84225200995882B0012901D053
:100EE00002B070BDC120800018584407F8D5334CBB
:100EF00000209850638B01339BB263832523E25C0F
:100F0000D2B2002A4AD02268A323DB00D05823693A
:100F1000A28A91B2E28A92B2002B07D0914205D9FF
:100F2000E28A92B2511C89B2E1829854A168A389E5
:100F3000E28998B2238B92B29BB29A420BD2266876
:100F40000025002901D0904226D81D4AB550E289DB
:100F5000013292B2E281628B9342C1D8207F01229A
:100F6000131C8340181CA021A123DB00C905C85015
:100F7000E389022198B20023A360A3812361A382A5
:100F80002423E154236A002BAAD06B461A705880A0
:100F90000098236A9847A3E78D5CD6E7E154638BFA
:100FA00099B2236A002BAED06B461A705980009814
:100FB000236A9847A7E7C04600300040E4000020BD
:100FC0001C05000070B50C1E00D189E0002800D17E
:100FD0006BE0002000210022FFF7F4F800252369D0
:100FE0000120011C9940A122A023DB05D2009950C9
:100FF00026690321C136FF36B600F1502669B0409C
:1010000098506068C130FF308000C150E068C13046
:10101000FF308000C150A0680021C130FF30800047
:10102000C150237C2B772B68606898502A68E6684B
:10103000344BD6502A68A068A223DB00D0502A681F
:101040002668314BD650A07E637E40009B0018433B
:10105000237E2A6818432D4BD0502A6884235B00D6
:10106000D150287940B2FFF7D5FE002844D1287925
:10107000217D40B2FFF7DCFE002838D100232B622F
:101080002A68C12304219B00D150287940B2FFF780
:10109000A9FE002826D12A68A023DB000121D15017
:1010A00002222423EA54002070BDCA7E184D531E2C
:1010B0009A41184B24212B6003232B710023A86035
:1010C000A881E8812861A882E882688328832B7739
:1010D00028626B5425216B54D2B22623EA547EE752
:1010E0000E20E1E700210022FFF76CF8D3E7002192
:1010F0000022FFF767F8C1E700210022FFF762F83E
:10110000B5E7C0460C0500002405000054050000AA
:10111000E40000200030004010B50C1C002802D173
:10112000044B1C6210BD002000210022FFF74AF88A
:101130000023F6E7E4000020F0B54E46574645464A
:10114000E0B482B099460AAB8846161C1F88002876
:1011500000D0A6E0684C00236A4613702623E35CA7
:10116000002B25D06846FFF797FE002826D12423C0
:10117000E05C112502282AD02623E35C002B0CD04A
:101180006B461878FFF796FE00280CD1281C02B099
:101190001CBC90469946A246F0BD207940B2FFF7AC
:1011A00021FE0028F2D000210022FFF70BF8EDE726
:1011B000207940B2FFF722FE0028D8D0002100227B
:1011C000FFF700F82423E05C11250228D4D1331C5A
:1011D000BE4200D23B1C9AB20725002ACCD0012186
:1011E0002422A1540022628300212522A1542383BA
:1011F0000C231B19251C221C9A460E35083275D06B
:101200005346002B6CD0002D64D042464346A2606A
:101210005A1E93415B421E400023A681251CE38198
:10122000261C231C1436163510334DD0002E45D005
:10123000002D3DD04A464B4622615A1E93415B42E7
:101240001F400023A782E382237F01219940A0222F
:101250002A4BD205D150A268A189E08989B280B217
:1012600025680023002A02D0814200D9135C24485B
:101270002B50E389002501339BB2E381208B83420D
:1012800000D379E725680020002A02D0994200D9CE
:10129000D05C1B4BE850E389002501339BB2E3810E
:1012A0006AE7002000210022FEF78CFF002452E7AD
:1012B000002000210022FEF785FFBBE7002000216F
:1012C0000022FEF77FFFB3E7002000210022FEF797
:1012D00079FFABE7002000210022FEF773FF94E7BF
:1012E000002000210022FEF76DFF8CE70020002186
:1012F0000022FEF767FF83E7E40000200C050000F2
:101300001C05000010B5074AA023DB059958802270
:101310001203141CA1208C43C0001C5002480A4038
:101320001A5010BD040500000C050000F8B5864BEE
:101330001B68DA0700D4F8BD844B1C78172CFAD848
:101340008349A2008A5897468248A023A12180247D
:10135000DB050022C90024035A501A501C505A5071
:10136000E9E77D4D2868FFF7A9FB11231C1B49D035
:10137000002847D1012C0CD0C8206421604300F024
:101380004FFC764B2D68196800224143281CFFF75B
:1013900007FB704AA0238021DB0509039950A12295
:1013A0000021D2009950C6E76D4AA023DB05995869
:1013B00080221203141CA120C0008C431C506548DD
:1013C0000A401A50674B00221868644B1968FFF7EF
:1013D000E7FAB0E7624AA023DB059958802212039E
:1013E000141CA1208C43C0001C505A480A401A50BB
:1013F0005C4B00221868594B1B689900C918FFF70D
:10140000CFFA98E7A0238021A122DB050903D200AF
:101410009950504A002199508DE7A022A1204D4DAE
:10142000D20500214E4EC0001150515197598026CF
:10143000360337406FD1165057512822022C67D0FF
:101440001C7012E0A022A120424CD2050021444D84
:10145000C00011501151565980252D032E4062D1E4
:10146000155003211651082219703E4B18683B4B4A
:10147000196851430022FFF793FA5CE7A023A121EA
:10148000DB050022C9005A5032495A5053E7A022C6
:10149000A120304CD2050021314DC0001150115116
:1014A000565980252D032E404AD11550165106223B
:1014B0001A7087E7A022A120264CD2050021284DD2
:1014C000C00011501151565980252D032E4032D1A4
:1014D0001550042116512822C6E7A022A1201D4C38
:1014E000D20500211E4DC0001150115156598025C2
:1014F0002D032E401CD11550165105221A70194B80
:1015000000221868154B19684900FFF749FA12E7DD
:1015100012221C70A9E7565111500422022C8FD1BF
:1015200002221C70A1E715511150022203219BE7F2
:1015300015511150E1E7155111500422042193E790
:1015400015511150B3E7C0460C01002018010020CE
:10155000682500000C050000140100201001002087
:10156000040500001C01002070B5BA4B041C1B6868
:101570000020DA0700D470BD172CFCD8B64AA300AF
:10158000D3589F46B54AA023DB0599588022120301
:10159000141CA1208C43C0001C50B1480A401A50B2
:1015A000B04B00221868B04B1B689900C918FFF7B0
:1015B000F7F9E0E7A94AA023DB0599588022120336
:1015C000141CA120C0008C431C50A5480A401A508E
:1015D000A44B00221868A44B1968FFF7E1F9CAE789
:1015E000A24D2868FFF76AFA11231C1B00D10DE1F8
:1015F000002800D00AE1012C0CD0C82064216043EF
:1016000000F00EFB984B2D68196800224143281CFE
:10161000FFF7C6F9924AA0238021DB050903995000
:10162000A1220021D2009950A5E7A0238021A12268
:10163000DB050903D2009950894A002199508C4B4F
:1016400012221A70002096E78548A023A121802449
:10165000DB050022C90024035A501A501C505A506E
:10166000834B13221A70002085E77D4AA023802136
:10167000DB0509039950A1220021D20099507C4B2F
:1016800000201C7077E7A022A121D2050023C90009
:101690005350734900205350754A13706BE7A023D1
:1016A000A1216F48DB0500226C4DC9005A501A5029
:1016B0005E5980252D032E4000D0BAE05D501E50AB
:1016C0002823022C00D1C3E0694A1470654A1068CF
:1016D000654A116800225943FFF762F94BE7604AF7
:1016E000A0238021DB0509039950A1220021D2000B
:1016F000995000203FE75A48A023A1218024DB0510
:101700000022C90024035A501A501C505A50584BFA
:1017100014221A7000202EE7A023A1215048DB05D7
:1017200000224E4CC9005A501A501D5980242403DF
:10173000254076D15C501D500321082311E0A023E1
:10174000A1214748DB050022444CC9005A501A50D9
:101750001D5980242403254073D15C501D5028233B
:101760000421434A1170B1E73D48A023A121802400
:10177000DB050022C90024035A501A501C505A504D
:101780003B4B07221A700020F5E63548A023A12123
:101790008024DB050022C90024035A501A501C5033
:1017A0005A50334B15221A700020E4E6A023A121E1
:1017B0002B48DB050022294CC9005A501A501D59EC
:1017C00080242403254031D15C501D50284B052234
:1017D0001A70244B00221868234B19684900FFF740
:1017E000DFF8C8E6A023A1211D48DB0500221B4C21
:1017F000C9005A501A501D5980242403254024D171
:101800005C501D501A4B06221A70E1E6A02380217D
:10181000A122DB050903D2009950114A00219950F9
:10182000A9E61C505A50022303219AE71C505A5033
:10183000CCE71D505A500423022C00D044E7022369
:1018400042E71C505A5004238AE71C505A50D9E7EB
:10185000122339E70C010020C82500000405000010
:101860000C0500001C0100201001002014010020C4
:101870001801002008B5104B1960104B1860C30701
:101880000CD5A0238022A121DB051203C9005A50E8
:101890000B4900205850A321C9005A500948002183
:1018A000094AFFF749F8002804D108480121084AED
:1018B000FFF742F808BDC046100100200C010020CF
:1018C0000C0500001C0100202D1300001401002055
:1018D0000513000000B5C3B283B00190012B01D005
:1018E00003B000BD0A20FFF73FFE002803D1044BE0
:1018F00001221A70F4E700210022FEF763FCF6E7EC
:101900006200002000B58021A322C9050123D20076
:101910008B50822252000020885083B08B608B58FD
:10192000002BFCD0002300930020022103220B4B4C
:10193000FEF770FF00280CD1012009490022FFF7B3
:1019400099FF002803D000210022FEF73BFC03B0E2
:1019500000BD00210022FEF735FCEDE7C4010020A8
:10196000CD0C0000F0B5474680B43E4F00233B70DD
:101970003B78400082B08046012B00D164E03A4BB6
:101980001A5A90231105090D1B020B431B0A374EEF
:10199000374D337000232B706B7002237270002060
:1019A0000093311C02222B1CFFF7C6FB002800D03D
:1019B00053E0304C2278002AFCD00023237001230E
:1019C0003B703B78012B35D0274B41465A5A902328
:1019D0001105090D1B020B431B0A337000232B70EA
:1019E0006B700223727000200093311C02222B1CAA
:1019F000FFF7A2FB002803D000210022FEF7E2FB44
:101A00002378002BFCD0002323701B4B188880B256
:101A10000138C046C046C046C046C046C046C04663
:101A2000C046C046C046C046C046F1D102B004BC64
:101A30009046F0BD114B41465A5A80231105090DBD
:101A40005B010B431B0AC8E70C4B1A5A8023110594
:101A5000090D5B010B431B0A99E700210022FEF7E9
:101A6000B1FBA6E770010020200100204C030020FC
:101A7000500300206200002060000020740100205C
:101A800070B5294D88B00024201C00F0EBFB2749DD
:101A900000F02EF900F014F9013428800235282CCA
:101AA000F2D1234D0024201C00F0DCFB1F4900F084
:101AB0001FF9011C1F4800F045FA00F001F901343C
:101AC00028800235282CEED1FFF71CFF01A91A4A05
:101AD0000B1C31CA31C331CA31C3126800201A60ED
:101AE00008234B600B238B600923CB600A230B6117
:101AF000FFF768FA002811D100201049FFF70CFB0E
:101B0000002427260025201C0134A4B2FFF72AFF59
:101B10002B1CA6426B415B421C40F4E700210022D3
:101B2000FEF750FBE8E7C046200100200000CC4251
:101B30007401002000F07F4528260000D518000021
:101B40001B4B1B78012B00D070471A4B1B681A07E0
:101B5000FAD1194AF02312681A4003D0102A01D092
:101B6000302A03D1154A12681A4210D0124AF023C3
:101B700012681A40402AE7D1104A12681A42E3D18B
:101B8000C12380220121DB00D205D150DCE70C4AC1
:101B90000C4B1A600C4B802212021A60044B1B780B
:101BA000012BD1D1034B1B681A07DFD0CCE7C0460D
:101BB000E00F00F0E40F00F0E80F00F0EC0F00F091
:101BC000DFFF07C004050040186C004003210A48ED
:101BD00002680A430260094802680A430260084931
:101BE000084A094B9B1A03DD043BC858D050FBDC64
:101BF0000648804706480047240500405405004039
:101C00008C2600000000002064000020411B000022
:101C1000C1000000FEE7FEE7FEE7FEE7FEE7FEE7A5
:101C2000002934D00123002210B488422CD301248F
:101C30002407A14204D2814202D209011B01F8E724
:101C4000E400A14204D2814202D249005B00F8E7DD
:101C5000884201D3401A1A434C08A04202D3001B09
:101C60005C0822438C08A04202D3001B9C0822433C
:101C7000CC08A04202D3001BDC082243002803D07A
:101C80001B0901D00909E3E7101C10BC70470028AC
:101C900001D00020C04307B4024802A140180290BE
:101CA00003BDC046190000000029F0D003B5FFF7BE
:101CB000B9FF0EBC4243891A1847C0467047C04658
:101CC0009E2110B5C905041C00F058FB002803D163
:101CD000201C00F0A7FA10BD9E21C905201C00F0B1
:101CE00031F900F09FFA80231B06C018F3E7C046C5
:101CF000F0B55F4656464D464446F0B444024600B1
:101D000083B00F1C640A360EC50F002E41D0FF2E83
:101D100022D080231B0400201C43E4007F3E824627
:101D20008046391C4B007F02C90F7F0A1B0E8B4671
:101D30003BD0FF2B34D0802212041743FF007F3B9F
:101D400000215A466A40019252460A430F2A63D83C
:101D50007A48920082589746002C3FD108220223ED
:101D600092469846DDE70195404602282AD1019A1D
:101D700001251540FF2300246402DB05600AED07FE
:101D80001843284303B03CBC90469946A246AB4654
:101D9000F0BD002C27D10420012282469046C0E7E6
:101DA000391C4A1E91410231CBE70121002FC8D0D6
:101DB000381C00F0EDFA431F9F4076235B421B1A4C
:101DC0000021BEE7032800D1AEE001284FD10198E1
:101DD00042461040C5B200230024CDE70C23032067
:101DE0009A4680469DE7201C00F0D2FA7626431FD3
:101DF0009C4076420023361A9A46984691E7802402
:101E00000025E403FF23B7E75B463C1C01938846AB
:101E1000AAE73C1C8846A7E7250C24043A0C240CAE
:101E20003F04F6183F0C211C231C794353436F4396
:101E30005543FB180A0C9B18B1469F4202D98022D9
:101E40005202AD1809041A04090C521894011B0C13
:101E5000611E8C41920EED181443AD012C432301F9
:101E600005D5012263080120144081441C434B46E0
:101E70007F33002B2DDD600704D00F222240042A7F
:101E800000D00434220103D52D4B1C404B46803337
:101E9000FE2B17DD019B01251D400024FF236BE76E
:101EA0008020C003044208D0074206D1041C3C43F2
:101EB0006402640A5D46FF235EE704436402640A29
:101EC000FF2359E70198A4010125640ADBB205400C
:101ED00052E77E235B424A469B1A1B2B05DD019B82
:101EE00001251D400024002346E7221CDA404B4612
:101EF0009E339C40231C5C1EA3411343580704D00F
:101F00000F221A40042A00D004335A0105D5019B40
:101F100001251D40002401232EE701989C01012585
:101F2000640A0540002327E78027FF03019B3C4309
:101F3000640201251D40640AFF231DE744260000BA
:101F4000FFFFFFF7F8B5C20F430244004D024800FF
:101F5000240E161C9B09000EC90FAD09FF2800D1E5
:101F60007EE0012779408A4258D0221A002A00DCFC
:101F700089E000281BD1002D00D075E0580704D05F
:101F80000F221A40042A00D00433590138D50134F5
:101F9000FF2C00D183E09B0101225B0AE0B23240BA
:101FA0005B02C405580AD20720431043F8BDFF2C3A
:101FB000E4D08021C9040D431B2A00DD2DE1291C3A
:101FC0002020D140821A95406A1E95410D435B1B2B
:101FD0005801D3D59B019F09381C00F0D9F9421F45
:101FE0009740944260DC141B1F231B1B3A1C9F402C
:101FF000611C3B1CCA405F1EBB4113430024BDE76C
:102000000122DB08E0B23240FF2C04D1002B7ED04D
:102010008021C9030B435B025B0AC1E7211A002937
:1020200046DD002826D0FF2CA8D08020C004054320
:102030001B2900DDEFE0281C2027C840791A8D40BD
:10204000691E8D4105435B19590197D50134FF2C59
:102050005CD0734901221A400B405B0813438DE7A3
:10206000002D00D07FE77CE7013A002AAFD0FF2C9B
:10207000A2D183E7002D00D180E701390029E2D009
:10208000FF2CD5D17AE7002A1ED1621CD2B2012AD8
:102090004EDD5F1B7A0126D5EF1A0E1C9CE701224C
:1020A0003240FF2000237BE75D4BA41A3B4065E7ED
:1020B000002946D1611CC8B201282ADDFF2925D09C
:1020C000EB185B080C1C59E7002C13D0FF2818D024
:1020D0008024E404524223431B2A4DDD0123EB1AE2
:1020E000041C0E1C74E7002F00D075E700220020AE
:1020F000002390E7002B3BD0D243002AEFD0FF28EB
:10210000EAD12B1CFF240E1C38E70022FF200023FD
:1021100046E7002C5AD1002B77D0002D00D12DE7B7
:102120005B19580100D429E73D4A0124134025E7F3
:10213000002C15D1002B2FD1002DD7D02B1C0E1C1D
:102140001CE7002C21D1002B53D0C943002904D017
:10215000FF284BD01B294FDD01235B19041C73E7BB
:10216000002B22D1002DD0D02B1C0E1CFF2405E704
:102170002B1C041C0E1C01E71C1C2026D440B21A88
:1021800093405A1E93412343A9E7FF282ED0802471
:10219000E40449422343DDE7002D00D1EEE65A1B5B
:1021A000500134D5EB1A0E1CE8E6FF24002D00D1B7
:1021B000E4E68022DB08D203134204D0ED08154286
:1021C00001D12B1C0E1CDB00FF24D7E6002B0DD009
:1021D000FF24002D00D1D1E68022DB08D203134278
:1021E000F1D0ED081542EED12B1CECE72B1CFF249F
:1021F000C4E62B1C041CC1E61C1C2027CC40791A09
:102200008B40591E8B412343A7E72B1CB6E6131EB8
:1022100000D0B3E66AE7012515E70125D7E6C046F9
:10222000FFFFFFFB4302590A4300C20F1B0E0020B1
:102230007E2B0DDD9D2B0CDC802000040143952BB3
:102240000ADC9620C31AD9404842002A00D1081C53
:102250007047034BD018FBE7963B9940F4E7C04624
:10226000FFFFFF7F70B5041E3CD0C60F00D0444274
:10227000201C00F08DF89E23251C1B1A962B0CDCCD
:10228000083884406402640ADBB2321C6402DB0555
:10229000600AD2071843104370BD992B0ADD05224E
:1022A000121A211CD1400A1C011C1B318D40691ED1
:1022B0008D411543052801DD421F9540164C2C40E9
:1022C0006A0704D00F221540042D00D004346101A8
:1022D0000CD59F23181AFF281AD0A401640AC3B290
:1022E000321CD3E7002200230024CFE7E408FF2BB1
:1022F00004D06402640ADBB2321CC7E7002C04D0AD
:102300008020C00304436402640A321CFF23BDE73B
:10231000321CFF230024B9E7FFFFFFFB8446081CA3
:102320006146FFE71FB500F0C3F8002801D4002183
:10233000C8421FBD10B500F049F84042013010BD41
:1023400010B500F0B5F8002801DB002010BD012019
:1023500010BDC04610B500F0ABF8002801DD00202C
:1023600010BD012010BDC04610B500F059F800287E
:1023700001DC002010BD012010BDC04610B500F0EA
:102380004FF8002801DA002010BD012010BDC04622
:102390001C2101231B04984201D3000C10391B0A95
:1023A000984201D3000A08391B09984201D3000959
:1023B000043902A2105C40187047C04604030202B0
:1023C0000101010100000000000000004A02430278
:1023D00070B55C0A550A43004A001B0EC60F120E68
:1023E000C90FFF2B05D0FF2A08D0012093420BD044
:1023F00070BD0120002CFBD1FF2AF6D10120002D59
:10240000F6D101209342F3D1AC42F1D18E4205D0F6
:10241000002BEDD1201C441EA041E9E70020E7E796
:102420004A024302F0B55C0A550A43004A001B0EFB
:10243000C60F120EC90FFF2B31D0FF2A34D0002B4C
:1024400016D1604260418446002A14D0002820D171
:102450008E4217D1934215DC04DBAC4212D8002027
:10246000AC4212D2704270414042012318430CE04A
:10247000002AEDD194466F426F416046002805D195
:10248000002FE5D0704201231843F0BD0020002F3B
:10249000FBD148424841404201231843F5E7002C54
:1024A000CBD002204042F0E7002DC8D0F9E7C0466B
:1024B0004A024302F0B55C0A550A43004A001B0E6B
:1024C000C60F120EC90FFF2B27D0FF2A29D0002BD1
:1024D00010D0002A15D194466F426F416046002803
:1024E00015D00020002F04D148424841404201232A
:1024F0001843F0BD604260418446002AECD00028B9
:10250000F2D18E4211D0704201231843F1E7002F1F
:10251000F7D0704201231843EBE70220002CE8D1EA
:10252000D3E70220002DE4D1D1E79342EBDC04DBBA
:10253000AC42E8D80020AC42DBD27042704140424D
:1025400001231843D5E7C046F8B5C046F8BC08BC1F
:102550009E467047F8B5C046F8BC08BC9E4670471A
:1025600043000000000000207C1400001A1400004A
:102570001A14000044140000B4140000DA1400001F
:102580008E14000048130000A8130000D4130000AC
:10259000A8130000D413000092130000621300007F
:1025A0006213000062130000621300006213000057
:1025B00004140000481300004813000048130000F2
:1025C0009213000092130000861600009E16000071
:1025D0009E160000181700003E170000AC17000000
:1025E000E417000068170000B4150000841500000F
:1025F000B415000084150000DE160000E015000090
:10260000E0150000E0150000E0150000E0150000F6
:102610002A16000048160000F61600008A1700006F
:102620006A1600006A16000000000080FFFFFFFF2E
:10263000FFFFFFFFFFFFFFFFFFFFFFFF03000000A3
:1026400000000000181E0000121E0000121E0000F4
:10265000081E0000681D0000681D0000FE1D00002F
:10266000081E0000681D0000FE1D0000681D00001F
:10267000081E0000661D0000661D0000661D0000AB
:04268000A01E000098
:082684003CDAFF7F01000000B9
:10268C00000000000000000000000000000000003E
:10269C00000000000000000000000000000000002E
:1026AC006025000000000000000000000000000099
:1026BC00000000000000000000000000000000000E
:1026CC0000000000000000000000000000000000FE
:1026DC0000000000000000000000000000000000EE
:0426EC00AA0001003F
:0400000300001BCD11
:00000001FF
