:020000021000EC
:10D0000000400020091802005118020053180200C5
:10D010000000000000000000000000000000000010
:10D020000000000000000000000000005518020091
:10D03000000000000000000057180200591802000C
:10D040005B1802005B18020089DC010055E001005A
:10D050005B1802000000000029DD01005B180200DF
:10D060005B1802005B1802007DDF01005B18020004
:10D070005B1802005B1802005B1802005B180200DC
:10D080005B180200A5D201005B1802005B180200C9
:10D0900091D301005B180200E11702005B18020047
:10D0A0005B1802005B180200000000000000000096
:10D0B0000000000000000000000000000000000070
:10D0C000164B002B00D1144B9D46402292029A1A17
:10D0D000924600218B460F461348144A121A00F05C
:10D0E00067F80F4B002B00D098470E4B002B00D059
:10D0F00098470020002104000D000D48002802D0B0
:10D100000C4800E000BF00F02DF82000290002F0DC
:10D1100021FD00F011F8C04600000800004000208A
:10D120000000000000000000642800205C2F0020A8
:10D130000000000000000000084B10B5041C002B8C
:10D1400002D0002100E000BF054B1868836A002B65
:10D1500000D09847201C00F033F8C04600000000C3
:10D160004819020070B50E4B0E4D0024ED1AAD109B
:10D170001E1CAC4204D0A300F35898470134F8E7D2
:10D1800004F0D4FB084B094D0024ED1AAD101E1C11
:10D19000AC4204D0A300F35898470134F8E770BDBF
:10D1A00064280020642800206428002064280020CF
:10D1B000031C8218934202D019700133FAE77047BA
:10D1C000FEE7C046BFF34F8F024A034BDA60BFF35E
:10D1D0004F8FFEE70400FA0500ED00E010B5031CD8
:10D1E0009A888068DC68241A0420A24200D210BD0C
:10D1F000D868024018688154DA6800200132DA6089
:10D20000F5E7C04610B58468C268031C0520944247
:10D2100009D098689A8802401868825C00200A70D9
:10D220009A6801329A6010BD1A4A802189028023CF
:10D23000D150194B8022D221520289005A50C2216A
:10D2400089005A5001225A602F200138C046C0463A
:10D25000C046C046C046C046C046C046C046C0469E
:10D26000C046C046F1D19A600C4B00221A602F20B4
:10D270000138C046C046C046C046C046C046C0464B
:10D28000C046C046C046C046C046F1D1044B1A70E5
:10D290007047C04600E100E0001001406428002013
:10D2A0008C280020F0B5304BA021002249004746D1
:10D2B00080B45A50A22149005A50A42149005A5022
:10D2C000A62149005A50802149005A508221490024
:10D2D0005A50264A1468601C37D0254A00269D58AB
:10D2E000244B254A1B68254FED1A2D022D0A904626
:10D2F00001E0621C1AD0E3001B1938689B00C318B8
:10D300005A68AA4212D84046AD1AB6181C6A9A69E1
:10D31000D9690368002B1BD0101C98470028E8D05F
:10D3200000220021FFF74EFF621CE4D1144B154987
:10D330001A780B789A420ED0134A9B009E50802197
:10D340008023124A49035B00D15004BC9046F0BDD3
:10D35000081C9047CDE7531CDBB2022B01D00B70A9
:10D36000EAE700230B70E7E7001001407C2800206B
:10D370000405000064280020682800206C28002094
:10D3800078280020792800208428002000E100E08F
:10D39000F0B55F4656464D464446F0B4BA48BB4BDE
:10D3A000BB4900681A7809788BB00690914200D189
:10D3B00034E20132D2B2022A00D1FDE11A70B54B3B
:10D3C0009200D2580699039253181B02AE4A1B0AC8
:10D3D000136001230793111CAF4EB04BB04FB14CFB
:10D3E00036681B78B0483F6809682478026804965C
:10D3F0000293019709910894B14605969B46002037
:10D40000351C5B46013BDBB29B46FF2B72D05F466F
:10D410000199FE008E1974783378A4466345F0D0E4
:10D420005C007768E418B1780133DBB2E4003C19A2
:10D43000C91A4F1EB941277849420B40022F15D017
:10D44000032F10D1291C6C1C0DD0CC006118890051
:10D4500051180875096A4C1CF7D175788946AC4695
:10D460000C1C251CDAE72C1C251CD7E76168CF00B3
:10D470007C18A400A418BA46277DA0462C1C002FB7
:10D48000EFD06F1C14D0A94200D183E19C462F1C21
:10D490000B1C009502E0A34210D0271CF900C9190B
:10D4A000890051180C6A651CF5D1009D63462C1C3F
:10D4B000454628757778251CBC46AFE70C1C009DB7
:10D4C000191C6346A4468F4200D14FE154466718A9
:10D4D000BF00D7192C1C396A7D68674639624F1C1A
:10D4E000E6D0CC006118890051184C6865194D6070
:10D4F0004C46DDE7684F4E4605953E600998624907
:10D50000089D684C079E08602570002E00D055E1EC
:10D5100005980499431A5A1E9341DBB206930123DE
:10D520005B429C465E4E604F3668574804965D4CA1
:10D53000594E3D68076824783668BB460021059F30
:10D54000039400968946029B013BDBB20293FF2BBA
:10D5500000D1ADE0049CDB00E418A246644601342F
:10D560003FD06646F4006444A4002C19216AA368E5
:10D57000E068E0468C465E469A1B4C491202120A4D
:10D580008A4263D81018606001214E46012049424A
:10D59000A660E660207521627A1C6DD0F900C91979
:10D5A00089006918626848683E1C824208D855E0C4
:10D5B000D900C918890069184868904259D21E1CC0
:10D5C0000B6A121A581CF3D12362F3009E19B6009D
:10D5D000AE19414662603B1C31621F1C6446013437
:10D5E000BFD15646337872789A42ACD05A0056462C
:10D5F0005446D21864680133B178D200DBB2A21865
:10D60000337099423CD051683B1C884611780129FF
:10D61000E3D14346DC004444A4002C19217D3B1C8B
:10D620000029DAD19368A360D068E06016692661AA
:10D630005269E261039A002A9DD000235E46A160F0
:10D640009A1B1A491202120A8A429BD9F31A1B0228
:10D650001B0A83420AD2C01A606095E7821A4A60A8
:10D6600043462762444600941F1CB7E74B4663605D
:10D670008AE7801A4860A7E7434600931F1CADE77E
:10D6800048463070BFE7C046642800207828002054
:10D6900079280020842800207C2800207028002081
:10D6A00074280020802800206C280020FEFF7F00C6
:10D6B00000986349059A0860974200D16EE07C1C8F
:10D6C00000D1BAE05F4DFA002B68D719BF00DB1913
:10D6D0005C685D4A5D4B5E4E9A5831685D4D571AE5
:10D6E0003F023F0A28780337B846002821D180201E
:10D6F000D1264002B6009851C126B6009851C027E5
:10D7000055488026B6027F00C65106600120186089
:10D710002F200138C046C046C046C046C046C0465D
:10D72000C046C046C046C046C046C046F1D10123EF
:10D730002B704346A34200D2231C5B181B024349B3
:10D74000A8201B0AC0000B503F489B1A09581B0217
:10D75000891A0902090A03311B0A994222D9802138
:10D7600080233D4A89025B00D1501BE0E900491942
:10D7700089005118271C096A4C1C02D089460C1CD0
:10D78000A9E6324C0125A56089460C1C00210895AC
:10D790000991A0E647464146C446ECE7069B002BAC
:10D7A00000D08CE72D4C002323700BB03CBC90467E
:10D7B0009946A246AB46F0BD0022FFE5214A01236F
:10D7C00017685B424A46059D00240026181CBC468B
:10D7D0001BE0EB005B199B0063445968039FB9424F
:10D7E00022D87A1A03921F6A1A6964185E601E753D
:10D7F000B846002A07D00699186267183F023F0A08
:10D800009F60DA60281C454642466B1CE1D10C4CF7
:10D810000595012584462260069583E600240025AF
:10D82000039407950A49D7E5C91B84460448596003
:10D83000012102600595069174E6FFF7F5FCB1E75A
:10D840007C2800206C280020040500000010014006
:10D85000642800208C28002000E100E080280020BF
:10D86000F0B557464E464546E0B481468A46904656
:10D870001F1C0720990704D01CBC90469946A2465D
:10D88000F0BD002BF8D0FFF7CFFC314B089A504683
:10D890001A60304B514618702F4B1F60002955D02D
:10D8A0005146CA0053189B003C1C00250026243515
:10D8B0002670267524349D42F9D152449200274B9C
:10D8C000BF1803221A70264B391C1F6043465A00AA
:10D8D00042441831D200796089188A18F9607A6157
:10D8E0000121204A494211601F4A002313701F4A38
:10D8F0003B7013707B703B727B723B747B74802235
:10D900001B4BC021404652034900B870B872B8742E
:10D910005A50C52189005858FF24A043C0242043F1
:10D9200058501A60A121134AC90048465050C421DA
:10D9300089005C5810482040C024240220435850DD
:10D940000E4B0020D2580E4B1A6095E70022B4E728
:10D95000682800207A2800206C28002070280020E9
:10D96000742800207C2800207828002079280020B6
:10D9700000E100E000100140FF00FFFF040500008F
:10D9800064280020F0B5174B94461C68002C1CD06E
:10D99000002A18D0002816D0134B1E78002E10D065
:10D9A0002378002B13D02434002307E0271C2434D1
:10D9B000251C243D2D781A1C002D0AD00133B342BA
:10D9C000F4DB0420F0BD0720FCE70820FAE7271C61
:10D9D000002201233B7063467970BB610260002026
:10D9E000F0E7C0466C2800207A280020F0B54746B2
:10D9F00080B43D4B1C68002C47D03C4B1D7807235E
:10DA0000854203D8181C04BC9046F0BD0429F9D9FE
:10DA1000C3001B189B00E41825780823012DF1D1C1
:10DA20006378012B33D000239846314B5C68102378
:10DA3000E405E40D2FD12F4C2668F6187378B478DE
:10DA40005D1C2C1B671EBC41644225403478AC42EF
:10DA50001FD05C00E4187368E4001C190423002C38
:10DA6000D0D0012323706060234B24484746C3581D
:10DA7000E160A360626180218023214A5B00490349
:10DA800027617570D1500023BCE70823BAE78846A8
:10DA9000CBE70423B6E7103CE3B25DB2002D13DB05
:10DAA000AD08C035164BAD00EB5803252C40E40003
:10DAB000E3401C06A40FE4B20023012CBBD00823D2
:10DAC000032CB8D01023B6E70F241C40083C0D4DA2
:10DAD000A408A4006419032564682B40AB40DC4013
:10DAE000E4B2A409E7E7C0466C2800207A280020A9
:10DAF00000ED00E074280020040500000010014043
:10DB000000E100E018ED00E030B5334B1A68002A60
:10DB100035D0324B19780723814201D8181C30BD0B
:10DB2000C3001B189B009A5C0823012AF6D12C4BDA
:10DB30005A681023D205D20D25D12A4A1168C91876
:10DB40004B788C785A1C141B651EAC4164422240F1
:10DB50000C78944215D05C00E4184B68E4001C1962
:10DB60000423002CDAD002232370606080234A70E3
:10DB700080211D4A5B004903D1500023CEE70823D2
:10DB8000CCE70423CAE7103AD1B24BB2002B13DB27
:10DB90009908C031144B8900CB5803210A40D200A8
:10DBA000D3401A06920FD2B20023012AC5D008230F
:10DBB000032AC2D01023C0E70F230B40083B0B4AB7
:10DBC0009B089B009B185A68032319409940CA4040
:10DBD000D2B29209E7E7C0466C2800207A280020DC
:10DBE00000ED00E07428002000E100E018ED00E006
:10DBF00010B5204C84B02378DBB2002B0CD0022B64
:10DC00000CD9032B08D11C4B012100222270D960B2
:10DC10005960A021C9005A5004B010BD174882684D
:10DC2000C3689A421AD02378022B02D0124B0122E9
:10DC30009A6069460731FFF7E5FA00280ED10E4BCE
:10DC4000C221802289005A506946C8790C4958502F
:10DC500002212170C12189005A50DDE7064A0123C3
:10DC6000D36002A8237003230370064B1B689847F8
:10DC7000D2E7C046A42800200020004094280020BD
:10DC80001C0500009028002010B5244B842252006F
:10DC9000995882B0002920D1204A8E235B00D158A8
:10DCA000002915D11D4B92225200995800290DD000
:10DCB000002199509021C9005A5868465A500223B1
:10DCC00069460B70164B01921B68984702B010BD55
:10DCD0000021D150FFF78CFFE4E700219950A322E7
:10DCE000D20099580F4CC9B2201CFFF777FA0028D0
:10DCF0000BD1A368E268D31A012BCDD1084B6A4639
:10DD000010701B6868469847C6E7012369460B7088
:10DD1000034B01901B6868469847BDE70020004010
:10DD200090280020A8280020F0B544465F465646BB
:10DD30004D46F0B4874A85B013680024012B6AD0A1
:10DD4000854B1968012900D173E0844B1A68012AB8
:10DD500000D17EE0824B1968012900D189E0814B16
:10DD6000002219689046012900D194E022070BD0C7
:10DD7000E30700D5A6E0A10700D5B2E0620700D511
:10DD8000BDE0230700D591E0002C06DB05B03CBCCC
:10DD900090469946A246AB46F0BD734DE0232C1C3D
:10DDA0002F1CDB004C345237C026AA46994606E0A9
:10DDB0005B46032B00D1B2E00134BC42E6D02178AF
:10DDC000081CB0432B1828331B795BB2032BF3DDFF
:10DDD0009B0053445B680093002BEDD089090291AE
:10DDE000A0218200C90551184A468B580191012291
:10DDF0009903890F131C8B46834041461942D7D0A3
:10DE00005A46022AD8D10299032900D19EE00299EC
:10DE1000009A9047D0E7C1215448890041580B42ED
:10DE200000D18DE74C4B146019680124012900D002
:10DE30008BE7C1224D499200895802220A4200D143
:10DE400083E700211960454B14431A68012A00D06A
:10DE500080E7C12245499200895804220A4200D134
:10DE600078E7002119603E4B14431968012900D05E
:10DE700075E7C1223D499200895808220A4200D123
:10DE80006DE700211960374B144319680022904652
:10DE9000012900D06AE71A6080231B061C43A022D8
:10DEA000A223DB00D205D15888465FE72F4A304BCA
:10DEB000D058D1582C4BC0048903C00E890F1B6960
:10DEC000984761E7294AA223DB00D058D158264B56
:10DED000C0048903890FC00E5B689847A10700D46E
:10DEE0004CE7224A234BD058D1581F4BC00489031A
:10DEF000C00E890F9B689847620700D441E71B4A10
:10DF0000A323DB00D058D158174BC0048903DB682A
:10DF1000C00E890F9847230700D435E7C6E7029B58
:10DF2000032B00D073E702210391019B49465A5805
:10DF3000114B111C1940019B4A4699509958039A5C
:10DF40004B4612040A430199CA5060E7029A0392B1
:10DF5000EBE7C046006100400461004008610040FA
:10DF60000C6100407C610040B82800200060004047
:10DF70001C05000014050000FFFFFCFF08B5284B3E
:10DF80001A68002A05D0C122264992008A58D10376
:10DF900028D4254B1A68002A05D0C12221499200B5
:10DFA0008A58910328D4214B1A68002A05D0C1222F
:10DFB0001C4992008A58510328D41D4B1A68002A24
:10DFC00005D0C122174992008A58110300D408BD18
:10DFD00000221A60174BA6201968174B40001B68D7
:10DFE0009847F4E700221A60124BA0201968124BE0
:10DFF00040001B689847CCE700221A600D4BA22016
:10E0000019680D4B40001B689847CCE700221A6046
:10E01000084BA4201968084B40001B689847CCE7C0
:10E0200040A1004000A0004044A1004048A10040A1
:10E030004CA10040102900200C2900202EDF704741
:10E040002FDF704732DF704733DF704736DF7047AE
:10E0500037DF704770B5394B84225200995882B02F
:10E06000012901D002B070BDC120800018584407BA
:10E07000F8D5334C00209850638B01339BB26383F7
:10E080002523E25CD2B2002A4AD02268A323DB0017
:10E09000D0582369A28A91B2E28A92B2002B07D0AB
:10E0A000914205D9E28A92B2511C89B2E182985418
:10E0B000A168A389E28998B2238B92B29BB29A425B
:10E0C0000BD226680025002901D0904226D81D4A8F
:10E0D000B550E289013292B2E281628B9342C1D89B
:10E0E000207F0122131C8340181CA021A123DB00E8
:10E0F000C905C850E389022198B20023A360A38117
:10E100002361A3822423E154236A002BAAD06B4607
:10E110001A7058800098236A9847A3E78D5CD6E769
:10E12000E154638B99B2236A002BAED06B461A7010
:10E1300059800098236A9847A7E7C04600300040FE
:10E14000142900201C05000070B50C1E00D189E0C8
:10E15000002800D16BE0002000210022FFF732F8F8
:10E16000002523690120011C9940A122A023DB0581
:10E17000D200995026690321C136FF36B600F1500E
:10E180002669B04098506068C130FF308000C150AF
:10E19000E068C130FF308000C150A0680021C1306C
:10E1A000FF308000C150237C2B772B68606898502B
:10E1B0002A68E668344BD6502A68A068A223DB00A0
:10E1C000D0502A682668314BD650A07E637E40002E
:10E1D0009B001843237E2A6818432D4BD0502A6891
:10E1E00084235B00D150287940B2FFF72BFF002831
:10E1F00044D12879217D40B2FFF726FF002838D18D
:10E2000000232B622A68C12304219B00D150287966
:10E2100040B2FFF713FF002826D12A68A023DB00B5
:10E220000121D15002222423EA54002070BDCA7E6D
:10E23000184D531E9A41184B24212B6003232B7138
:10E240000023A860A881E8812861A882E882688309
:10E2500028832B7728626B5425216B54D2B2262356
:10E26000EA547EE70E20E1E700210022FEF7AAFF34
:10E27000D3E700210022FEF7A5FFC1E7002100221D
:10E28000FEF7A0FFB5E7C0460C050000240500001E
:10E2900054050000142900200030004010B50C1C6B
:10E2A000002802D1044B1C6210BD00200021002276
:10E2B000FEF788FF0023F6E714290020F0B54E464C
:10E2C00057464546E0B482B099460AAB8846161CCC
:10E2D0001F88002800D0A6E0684C00236A4613700F
:10E2E0002623E35C002B25D06846FFF7AFFE00280D
:10E2F00026D12423E05C112502282AD02623E35CC2
:10E30000002B0CD06B461878FFF7A2FE00280CD12A
:10E31000281C02B01CBC90469946A246F0BD20794C
:10E3200040B2FFF78BFE0028F2D000210022FEF75A
:10E3300049FFEDE7207940B2FFF782FE0028D8D0F0
:10E3400000210022FEF73EFF2423E05C1125022875
:10E35000D4D1331CBE4200D23B1C9AB20725002AFE
:10E36000CCD001212422A154002262830021252245
:10E37000A15423830C231B19251C221C9A460E35FD
:10E38000083275D05346002B6CD0002D64D0424625
:10E390004346A2605A1E93415B421E400023A68161
:10E3A000251CE381261C231C1436163510334DD052
:10E3B000002E45D0002D3DD04A464B4622615A1EC4
:10E3C00093415B421F400023A782E382237F012108
:10E3D0009940A0222A4BD205D150A268A189E08998
:10E3E00089B280B225680023002A02D0814200D978
:10E3F000135C24482B50E389002501339BB2E38151
:10E40000208B834200D379E725680020002A02D0C0
:10E41000994200D9D05C1B4BE850E38900250133B9
:10E420009BB2E3816AE7002000210022FEF7CAFECA
:10E43000002452E7002000210022FEF7C3FEBBE7C4
:10E44000002000210022FEF7BDFEB3E700200021DE
:10E450000022FEF7B7FEABE7002000210022FEF706
:10E46000B1FE94E7002000210022FEF7ABFE8CE70E
:10E47000002000210022FEF7A5FE83E714290020DA
:10E480000C0500001C05000029DF704728DF7047DD
:10E49000F8B54F464646C0B46F4C8146257888464D
:10E4A000161C1F1C002D15D1131C3B4319D1022330
:10E4B00023704046FFF7EAFF002835D1002E00D038
:10E4C000C6E0002F00D0B8E049460B78042B00D0FE
:10E4D000AEE049E0062D00D9ADE0604BAD005B59E0
:10E4E0009F46012323705E4B586980235B05411CC6
:10E4F00000D1A5E019690904090C03F0AFF98023E4
:10E500005B051D6919691A69431E2804000C09047A
:10E510005843090C434692B259439208FFF7B4FF9F
:10E52000002801D1022323700CBC90469946F8BD07
:10E530004B4B586980235B05411C00D186E019696B
:10E540000904090C03F08AF980235B051A6919692B
:10E55000431E1004000C09045843090C03F07EF913
:10E56000FFF794FF0028DFD107232370DCE7802327
:10E570005B05186993000004000C484318184B46CB
:10E580005A8819699208FFF77FFF0028CCD13E43D3
:10E59000EAD006232370C7E780235B051D69304A54
:10E5A0002D0450692D0C4D43411C4DD019690904AF
:10E5B000090C03F053F980235B051969013809043C
:10E5C000090C4143321C281CFFF75EFF0028ABD129
:10E5D000002F32D14A461378042B29D1D9E7802362
:10E5E0005B051A6941461204120C4A434588B6007D
:10E5F0005219921990461A4A5069421C22D0196940
:10E600000904090C03F02AF980235B051969013814
:10E610000904090C41437619711840463A1CFFF76A
:10E6200033FF002800D07FE749460B78042BB0D099
:10E630000523237078E7032076E70423237073E72C
:10E6400058695CE75869DFE75869B4E758697BE7C0
:10E650000323237068E7C046212A00204C190200DA
:10E6600000100010F8B5384D2B789A00D3189B0095
:10E67000EB181C1D1B79E668042B38D0052B14D031
:10E680000F20022B00D0F8BD304B20691B88628818
:10E690009B02C118A088D21A8619F0182C4B9A42F6
:10E6A0003AD89208FFF7F0FE1CE080277F05396911
:10E6B000301C0904090C03F0D1F8A388011C9E1931
:10E6C0003A693B691204120C1B04481C4A431B0C98
:10E6D00043436088B21A86199B1B92089B08201C32
:10E6E000FFF7D6FE0028CED10123AB70CBE7A2689E
:10E6F00018491301CB18198958895B68B34210D0A7
:10E70000022A12D080277F053969301C0904090CC0
:10E7100003F0A4F8011CD3E780225200FFF7B4FEF7
:10E72000E0E7414363889942EAD180235B05196998
:10E73000301C0904090C03F091F8044B1B88C01825
:10E74000FFF7A4FECEE7C0463C290020222A002085
:10E75000FF030000082A0020F8B506AC2488071C37
:10E76000A446144C042066780A2E1BD0257875190F
:10E77000EDB2092D01D90A3DEDB2A8004519AD0051
:10E78000651900206A612A1C68712F710C3281C9D9
:10E7900081C260462881EB80A3780020002B02D044
:10E7A00001366670F8BDFFF75DFF66781128F7D176
:10E7B0000020F5E73C290020F0B544465F46564668
:10E7C0004D46F0B4634C85B0A378002B27D0624B44
:10E7D00000221978A270082928D0022844D00328E2
:10E7E0001DD123789A00D3189B00E418251D6B785F
:10E7F0000133DBB26B70032B00D19DE0FFF732FFDA
:10E80000021E0CD011280AD0AB68201C21796C881C
:10E810001E012B690094514C0C303459A04705B0AF
:10E820003CBC90469946A246AB46F0BD022800D0BB
:10E830004B4B1A706378002BF1D0FFF713FF021EC9
:10E84000EDD01128EBD023789900CB189B00E41869
:10E85000E76821796369201CE4883E0100943F4CFD
:10E860000C303459A047DAE72578A8004619B600DD
:10E87000A6190296321C3B4E834637880120B846C3
:10E880008044B2464646B6B25746B0463E80029EE7
:10E8900004323679022E42D0052E3AD0042E3AD1D7
:10E8A000072906D0568840468002B04228DB00295E
:10E8B00026D100211970534619806378013B63709B
:10E8C0006B1CDBB2092B01D92B1C093B237096680A
:10E8D0001369101C029F5288397900921F4A360131
:10E8E0000830B6580022B047584643199B00E31839
:10E8F000002201201A71DA80D8601A615A611A81E7
:10E900006378002B00D18AE7A378002B00D086E73C
:10E9100093E70729CDD000210029F1D0C9E750881D
:10E920004746BF020390B846039E4146FF17C00FFB
:10E93000B1424741391CEFE7A9686A880E012B698B
:10E9400021790092054A201C0C30B4580D22A047B2
:10E9500065E7C0463C290020212A0020082A002023
:10E96000202A0020222A002010B5554C00222C20FD
:10E970002254402000232254422023524420235278
:10E9800050495420225456200B80235201215820F4
:10E9900022706270A2702271E3802361636123811F
:10E9A000227663836362A362A383E385A363E36345
:10E9B0002386E3642365E16021626163A164E1650C
:10E9C0002352682022546A2023526C2023527C2038
:10E9D00022547E20235284202150882023508C20D2
:10E9E000235080202352902022549220235298209A
:10E9F00021509C202350A020235094202352A42057
:10EA00002254A6202352AC202150B0202350B42001
:10EA10002350A8202352B8202254BA22A352C02245
:10EA2000A150C422A350C822A350BC22A352264AFC
:10EA3000236663666367A36721671380234B586966
:10EA4000431C36D080235B0519690904090C02F0C8
:10EA500005FF802149050A69831E1004000C5843F4
:10EA60001B4B002218601B4B1A601A819A815A8135
:10EA7000194B08221A70154B5869431C1DD009699F
:10EA80000904090C02F0EAFE80235B051A69196982
:10EA9000431E1004000C09045843090C02F0DEFE6A
:10EAA000FFF7F4FC002803D10C4A0123A370137074
:10EAB00010BD80235B055869CBE74869E4E7C04691
:10EAC0003C290020222A0020182A002000100010D3
:10EAD0001C2A0020082A0020212A0020202A0020A9
:10EAE000F8B556464D4644465F46F0B4454B051CC6
:10EAF0001B780E1C0824002B06D1201C3CBC904621
:10EB00009946A246AB46F8BD002873D0002971D0C3
:10EB1000016800296ED080235B051A69878892B24C
:10EB200007249742E9D80F2FE7D9C288002AE4D0FA
:10EB30007A439246344AD34611689146334A88460E
:10EB40005069C344421C57D019690904090C02F0EA
:10EB500085FE80235B051A69411E1204120C4A438C
:10EB600007249345C9D81A6992B2524507DA186941
:10EB7000391C80B202F0B6FE89B20029BDD107244B
:10EB8000BB07BAD1224904248C4609880129B4D094
:10EB90004346204F736031600E01BB1942465A60F4
:10EBA0002A684446BA51AA881A81E88858814243A3
:10EBB00080200023400509E005692D042D0C521B1F
:10EBC00005692D042D0C6419002A17D0056901333D
:10EBD000ADB29BB29542EFD380225205126992B238
:10EBE000A4184A461460BE19B381013163461980E6
:10EBF000002482E70E2480E75869AAE74A46146099
:10EC0000F1E7C046202A00201C2A00200010001036
:10EC1000182A0020082A002030B5114B1C78082340
:10EC2000002C01D1181C30BD002806D0002A04D0C9
:10EC30000368002B03D00723F4E70E23F2E7094C07
:10EC40002568002DF7D02589406869430918608937
:10EC5000454360682D18A942EDD213605160E1E789
:10EC6000202A0020082A0020F0B5474680B41E4C18
:10EC7000051C247882B00E1C171C0820002C03D120
:10EC800002B004BC9046F0BD00292BD0002D29D045
:10EC9000296807200029F3D1144A1468002CEFD00A
:10ECA000696854898846118952684C43A446624475
:10ECB0009045E5D2002FE3D0B942E1D3FA18914252
:10ECC000DEDB1020B107DBD103221342D8D144464A
:10ECD0001442D5D10093291C321C3B1C0220FFF7A3
:10ECE0003BFDCDE70E20CBE7202A0020082A00209C
:10ECF000F0B5474680B41E4C051C247882B00E1C2B
:10ED0000171C0820002C03D102B004BC9046F0BDB3
:10ED100000292BD0002D29D0296807200029F3D104
:10ED2000144A1468002CEFD0696854898846118908
:10ED300052684C43A44662449045E5D2002FE3D08C
:10ED4000B942E1D3FA189142DEDB1020B107DBD1E2
:10ED500003221342D8D144461442D5D10093291C32
:10ED6000321C3B1C0520FFF7F7FCCDE70E20CBE75C
:10ED7000202A0020082A0020F0B5454657464E4676
:10ED8000E0B4264C82B02578071C0E1C904608245F
:10ED9000002D06D1201C02B01CBC90469946A2460C
:10EDA000F0BD002906D0002804D00C68002C03D048
:10EDB0000724EFE70E24EDE7194D28680028F7D067
:10EDC0002A89688949685043844668688444614553
:10EDD000EED240460028EBD04245E9D39C46C444DD
:10EDE0006245E5DBBA0701D01024D3E70320814652
:10EDF000021C0342F8D10A409246F5D15918424606
:10EE0000381C02F08AFD3068424603010092ED583A
:10EE1000301C494652463B1CA847BBE7202A00202D
:10EE2000082A002070B5174A041C127882B00D1C05
:10EE30000820002A01D102B070BD002C20D0226829
:10EE40000720002AF7D1104B1A68002AF3D05E6819
:10EE500019895B8962684B439B199A42EBD2102057
:10EE60009307E8D1901B02F03DFD07200029E2D175
:10EE700000910022211C2B1C0420FFF76DFCDAE717
:10EE80000E20D8E7202A0020082A0020074B1A78F5
:10EE90000823002A01D1181C7047002804D0044B15
:10EEA0005B7803600023F6E70E23F4E7202A0020B6
:10EEB0003C29002010B5074AA023DB059958802281
:10EEC0001203141CA1208C43C0001C5002480A40AD
:10EED0001A5010BD040500000C050000F8B5A34B46
:10EEE0001B68DA0700D4F8BDA14B1C78172CFAD8A0
:10EEF000A049A2008A5897469F4AA023DB0599584B
:10EF000080221202141CA1208C43C0001C509B487C
:10EF10000A401A509A4B002218689A4B1B689900B5
:10EF2000C918FEF763FDDEE7A0239749DB05934A86
:10EF30009950A1220021D2009950D4E78E4AA023F3
:10EF4000DB05995880221202141CA120C0008C43BA
:10EF50001C508A480A401A50894B00221868894B75
:10EF60001968FEF743FDBEE7A022A1218020D2054B
:10EF70000002C9005050814800267F4C1650145999
:10EF8000814D65408024254000D1E6E05450165064
:10EF90000321082219707A4B18687A4B196851437B
:10EFA0000022FEF723FD9EE7A022A1218020D205AA
:10EFB0000002C9005050714800266F4C1650145979
:10EFC000714D65408024254000D1C1E05450165059
:10EFD00004212822DEE7A023A1228821DB05D2001C
:10EFE0000903664899508024002119501C509950FB
:10EFF00079E7664D2868FEF787FD11231C1B00D1B9
:10F0000096E0002800D093E0012C0CD0C8206421A9
:10F01000604302F023FC5B4B2D68196800224143DA
:10F02000281CFEF7E3FCA0238021DB0509037EE713
:10F03000A0235749DB05A122D20099504F4A002155
:10F04000995050E7A022A1218020D2050002C900DA
:10F0500050504A480027484D175055594A4E6E4067
:10F0600080252E4069D0555017502822022C5CD0A4
:10F070001C7090E7A023A1228021DB05D2000903A8
:10F080003E48434C9950002119501C5099502AE792
:10F090004049A023A122DB05D200384880249950A2
:10F0A0002402002119501C5099501CE7A023DB05B5
:10F0B0003549C0E7A023A1228021DB05D200090247
:10F0C0008FE7A022A1218020D2050002C900505064
:10F0D0002A480026284C165014592B4D6540802490
:10F0E000254032D05450165005221A70244B00226D
:10F0F0001868244B19684900FEF778FCF3E6A02253
:10F10000A1218020D2050002C90050501B480026D2
:10F11000194C165014591C4D65408024254021D0AF
:10F120005450165006221A7016E712221C7032E74D
:10F13000A0238021DB0509037DE7155056500422EA
:10F14000022C95D102221C7025E714505550CBE7B4
:10F1500014505550042204211CE71450555002222B
:10F16000032117E714505550DCE7C046242A00203D
:10F17000302A002068190200040500000C05000078
:10F18000342A0020282A0020808008002C2A002011
:10F190008080000080000800002300200B70704772
:10F1A00070B5C34B041C1B680020DA0700D470BD87
:10F1B000172CFCD8BF4AA300D3589F46BE4AA023B1
:10F1C000DB05995880221202141CA1208C43C00038
:10F1D0001C50BA480A401A50B94B00221868B94B63
:10F1E0001B689900C918FEF701FCE0E7B24AA023AA
:10F1F000DB05995880221202141CA120C0008C4308
:10F200001C50AE480A401A50AD4B00221868AD4B56
:10F210001968FEF7EBFBCAE7AB4D2868FEF774FCF4
:10F2200011231C1B00D11FE1002800D01CE1012C80
:10F230000CD0C8206421604302F010FBA14B2D6864
:10F24000196800224143281CFEF7D0FB9B4AA023EB
:10F250008021DB0509039950A1220021D200995099
:10F26000A5E79A49A023A122DB05D2009950934A31
:10F2700000219950964B12221A70002097E7A02384
:10F28000A1228821DB05D2008C48090399508024F3
:10F29000002119501C5099508D4B13221A700020D8
:10F2A00085E78A49854AA023DB059950A1220021E0
:10F2B000D2009950864B00201C7078E78549A02227
:10F2C000A123D205DB00D1507C4900235350804A52
:10F2D000002013706BE7A023A1228021DB05090227
:10F2E000D20099507549002673485E501858774DE2
:10F2F00045408020054000D1C9E098505E50282349
:10F30000022C00D1D2E0724A14706D4A10686D4A26
:10F31000116800225943FEF769FB48E76B49674AC9
:10F32000A023DB059950A1220021D2009950002092
:10F330003DE76949A023A122DB05D2005F48802474
:10F3400099502402002119501C509950604B1422EE
:10F350001A7000202BE7A023A1228021DB050902DF
:10F36000D20099505549002553485D501858574CC4
:10F3700044408020044000D181E098505D50082333
:10F38000032114E0A023A1228021DB050902D20081
:10F3900099504A49002548485D5018584B4C444004
:10F3A000802004407BD098505D5028230421484A97
:10F3B0001170AAE7A023A1228021DB05D2003F48DB
:10F3C000090299508024002119501C509950404B3B
:10F3D00007221A700020EAE6A023A1228021DB0583
:10F3E000D200364809033B4C9950002119501C505B
:10F3F0009950374B15221A700020D8E6A023A1227D
:10F400008021DB050902D20099502C4900252A48A9
:10F410005D5018582D4C44408020044034D0985002
:10F420005D502B4B05221A70254B00221868254B86
:10F4300019684900FEF7DAFAB9E6A023A122802173
:10F44000DB050902D20099501C4900251A485D507D
:10F4500018581E4C44408020044024D098505D50E1
:10F460001B4B06221A70CFE6A0238021A122DB05C8
:10F470000903D2009950114A0021995097E658503B
:10F480009C500321022392E758509C50C9E75850E2
:10F490009D500423022C00D035E7022333E7585057
:10F4A0009C50042382E758509C50D9E712232AE746
:10F4B000242A0020C8190200040500000C050000E1
:10F4C000342A0020282A00202C2A002080800800CE
:10F4D000302A0020808000008000080008B50F4B13
:10F4E00019600F4B1860C3070BD50E4AA023A1214A
:10F4F000DB05C9005A500C4900205850A321C9000F
:10F500005A500A4800210A4AFEF73CFA002804D162
:10F5100008480121084AFEF735FA08BD282A0020CC
:10F52000242A0020808008000C050000342A0020D6
:10F53000DDEE01002C2A0020B5EE01000720704707
:10F540000620704708B50320FFF7FAFF031C0020D0
:10F55000002B04D0981F421E90414042184008BD25
:10F5600010B50388102B08D0112B05D1294A136838
:10F57000013B1360002B07D010BD264C2368002BE5
:10F5800011D001332360F7E7002002210122FFF7A9
:10F59000D5FF00282BD0072829D01F4B1B68002B34
:10F5A000EAD09847E8E7002000210122FFF7C6FFD4
:10F5B000002808D0072806D0174B1B68002B00D066
:10F5C00098472368DDE7012002210722FFF7B6FFF5
:10F5D000002801D00728EFD1002002210422FFF7E4
:10F5E000ADFF0028EDD00728E6D12368C9E7012048
:10F5F00002210722FFF7A2FF002801D00728CCD163
:10F60000002000210A22FFF799FF0028B4D0072824
:10F61000C3D1B1E73C2A0020382A002010B5234B83
:10F6200084B00C1C186016D000206946FFF7B4FDAA
:10F63000002801D004B010BD012002A9FFF7ACFDE5
:10F640000028F7D16A46137A002B29D16A4613782D
:10F65000002B28D12370164B00201B68002BE9D10A
:10F6600002210122FFF76AFF002801D00728E1D11B
:10F67000012002210722FFF761FF002801D007289F
:10F68000D8D1002000210A22FFF758FF031C0020D8
:10F69000002BCFD0D81F421E904140421840C9E7EE
:10F6A00002232370D7E70B232370D4E7382A0020E6
:10F6B0003C2A00203CDF704748DF704775DF704709
:10F6C00076DF704786DF704787DF704788DF7047D7
:10F6D00060DF704700B5C3B283B00190012B01D049
:10F6E00003B000BD0A20FFF75BFD002803D1044BE7
:10F6F00001221A70F4E700210022FDF763FDF6E70E
:10F700006028002000B597B06846FFF7BFFB0028CF
:10F710002ED1009B002B04D01D4B01221A7017B074
:10F7200000BD02A90B7306AB0822029319480EAB69
:10F730000A718B6001F090FC002823D11648FC234D
:10F74000027813400370A0230381502343810023D8
:10F7500043608381FFF7B6FF00280ED10120FFF739
:10F760001FFD0028DBD000210022FDF72BFDD6E78E
:10F7700000210022FDF726FDCBE700210022FDF746
:10F7800021FDEBE700210022FDF71CFDD6E7C04676
:10F790008C2C0020452A00207C2C002010B5041C55
:10F7A000023CFFF709F8012C03D8054B1A78002A10
:10F7B00000D110BD00221A70FFF7A4FFF9E7C04680
:10F7C0008C2C0020F8B5041C01F0AEFC4248211C32
:10F7D00000F0BAFD4148211C00F00AFB201CFFF795
:10F7E000BFFE23881B2B15D01D2B08D0192B00D052
:10F7F000F8BDA379022BFBD1FFF784FFF8E7A088BF
:10F80000A11DFFF75BFF0028F2D000210022FDF7C9
:10F81000D9FCEDE7A57B221C0F32ED08E8D0E67B92
:10F82000277C311C0023022F05D150E0D0184078EE
:10F83000D15C022811D001315B189D42F6D8032F0C
:10F8400048D0002304E0D1184978D65C032934D08D
:10F8500001369B199D42F6D8CAE702330139D21806
:10F8600089B24908C4D0537810781D4E1B02034357
:10F87000B3420ED00232002307E0577815783F02DA
:10F88000381C02322843B04203D001338B42F4D3F8
:10F89000AEE7FFF719FF0020FFF782FC002811D127
:10F8A000104902220B78A01D93430F4A0B70FFF7FB
:10F8B0000DFF0E4B00221A709AE70233711ED21808
:10F8C00089B2CEE700210022FDF77CFCE8E7311C7D
:10F8D0000223C3E70223F1E7902C00204C2A0020EA
:10F8E000B32A00007C2C0020901A0200442A002039
:10F8F00070B50B78061C113BDBB20C1C122B13D815
:10F900002A4D9B00EB589F46294800216222FDF7B3
:10F910004FFC0020FFF744FC00283DD1254C237804
:10F92000012B3ED0013B2370002070BD002AFBD08C
:10F93000101C00210022FDF745FCF5E71E4801F0F0
:10F94000EDFA0028F0D0F4E70720FFF729FC0028A3
:10F950001DD16468194B2288311C1A801648042274
:10F9600001F0DBFF2188124800F0B6FC002809D125
:10F97000104A13780133DBB21370002BD4D1FFF798
:10F98000C1FED1E700210022FDF71CFCF0E70021B9
:10F990000022FDF717FCDCE700210022FDF712FC36
:10F9A000BCE7FFF7AFFE2378BCE7C046281A020089
:10F9B000902C0020582A0020F42C00208E2C0020AF
:10F9C00008B5072820D00A2810D0042800D008BD88
:10F9D000144B13211888FFF773FE0823021C9A4367
:10F9E000F5D000210022FDF7EDFBF0E70020FFF746
:10F9F000D7FB002811D1FFF7A5FD002808D1FFF79C
:10FA000059FE0028E3D0ECE7074B01221A70DEE72D
:10FA100000210022FDF7D6FBF1E700210022FDF7CF
:10FA2000D1FBE8E78E2C0020442A002010B50B788B
:10FA300082B0041C002B2CD0012B28D14A78224BF9
:10FA40001A801A88120192B21A8019881F4A9142AC
:10FA50002DD91F4A1A801888C02380B20205120DC2
:10FA60009B011C4913431B0A0B701B4B00221A708D
:10FA70005A700222487000920020FEF71FFC0028F6
:10FA800018D1164A1378002BFCD00023137002B053
:10FA900010BD00F043FA002811D1201C00F0FCF941
:10FAA0000028F4D000210022FDF78CFBEFE71A8834
:10FAB00092B2CFE700210022FDF784FBE1E70021AD
:10FAC0000022FDF77FFBE8E75A2A0020FE0F000026
:10FAD000FF0F0000482A0020402A00206028002054
:10FAE00008B5031C0A1C0248191CFDF76BFB08BD76
:10FAF000EFBEADDE00B58021A322C9050123D200EF
:10FB00008B50822252000020885083B08B608B582B
:10FB1000002BFCD0002300930020042103220B4B78
:10FB2000FDF79EFE00280CD1012009490022FFF7B5
:10FB3000D5FC002803D000210022FDF743FB03B0D1
:10FB400000BD00210022FDF73DFBEDE75C2A00200F
:10FB5000CD0C000030B58BB0FFF7CCFF032064491B
:10FB6000644AFFF7BBFC002803D000210022FDF708
:10FB700029FB02AC0020211CFFF750FD002803D018
:10FB800000210022FDF71EFB25780820023D6B4274
:10FB90005D41594948220023EDB201F0E7FD0028FC
:10FBA00003D000210022FDF70DFB0222201C0021C2
:10FBB000FDF7FEFA637801229343227863700323F2
:10FBC0009A4302231343201C2370FFF781FD002872
:10FBD00003D000210022FDF7F5FA484801F0ECFDC2
:10FBE000002803D000210022FDF7ECFA444801F080
:10FBF000EDFD002803D000210022FDF7E3FA68465E
:10FC00000570FEF7B1FE002803D000210022FDF7A9
:10FC1000D9FA684601F0BAF8002803D00021002282
:10FC2000FDF7D0FA6846002105220D30FDF7C0FA35
:10FC300002226079334B2271012210430293C0B239
:10FC400002231843E32108400C210843CF2101403F
:10FC500061710721A1711021E171217A2A480A43BB
:10FC60001343211C237201F02BF9002803D000213B
:10FC70000022FDF7A7FA00F0F1FA002803D00021D6
:10FC80000022FDF79FFA214B2148211C029300F02E
:10FC90008DF8002803D000210022FDF793FA1D4AB9
:10FCA000231C23CA23C323CA23C3126800201A605B
:10FCB000082363600B23A3600923E360211C0A234C
:10FCC0002361FEF741FA002803D000210022FDF74E
:10FCD00079FA00201049FEF7E1FAFFF713FDFFF76C
:10FCE000EBFC0028FBD000210022FDF76BFAF6E7C1
:10FCF000CD0C0000C1F90100342C0020C5F7010033
:10FD00009DF70100F1F80100452A00202DFA0100BD
:10FD10004C2A0020741A0200D5F6010095DF7047C6
:10FD200097DF704710B5037882B0002B05D141688A
:10FD30001B4B0A02120A9A4201D002B010BD194BA5
:10FD400042881B681A80027A002A0DD0164944891D
:10FD50008C4222D0012A07D9C48A8C421BD0022AA5
:10FD600002D9428C8A4206D0002269460A70181CC9
:10FD70009A689047E1E7022251008A1892008018A1
:10FD8000828A69465A80428A181C9A8000220A7028
:10FD90009A689047D1E70122EEE70022ECE7C046DF
:10FDA0000F180100A02D0020192A000000B5031C27
:10FDB00083B00E20002B13D0002911D001A80122FE
:10FDC0008270084A0280084A1360012252421A8057
:10FDD00000225A809A8009689960044900F052FA1A
:10FDE00003B000BD0F180000A02D002025FD01006C
:10FDF00030B583B000280DD000290BD00B88352BEF
:10FE00000FD009D9372B18D0382B03D18A89838892
:10FE10009A4231D003B030BD102BFBD18B880380C8
:10FE2000F8E78A8983889A4207D102236A461370C9
:10FE30008B7C6946537083689847144C144B256833
:10FE40001B689D42E6D0AA00124B521992009918E5
:10FE5000887800280AD0D05A0831FFF761FF0028BF
:10FE6000D8D1013507231D402560D3E7D05A8988B2
:10FE70000022FFF753FFF2E76A46012313708B7CE1
:10FE80006946537083689847C4E7C046FC2C00203D
:10FE9000F82C0020002D0020031C70B50E20002B34
:10FEA0002FD01B495D880A681C8893009B1819484D
:10FEB0009B00C3180132072632405D8100250A608D
:10FEC0005D710221144DD981191D19611C80002119
:10FED0002C6899810121197219719970A24211D06F
:10FEE000A3001B199B00C1188A78185A002A0BD14D
:10FEF0008988FFF713FF002804D1013407231C4031
:10FF00002C6070BD0020FCE70831FFF709FFF2E725
:10FF1000F82C0020002D0020FC2C002070B5164984
:10FF200007240B68154D9A00D218013323400B604B
:10FF300081889200AA189180114E0188346811803E
:10FF400000219170A34210D0A3001B199B00E91857
:10FF50008A78585B002A0AD00831FFF7E1FE0028B2
:10FF600003D1013407231C403460002070BD898810
:10FF7000FFF7D4FEF3E7C046F82C0020002D002048
:10FF8000FC2C002090DF704792DF704793DF7047B2
:10FF9000F0B55F464D4644465646F0B46023C35C18
:10FFA0002E255D43354F85B03C688C46019345193D
:10FFB000002C09D0324BAA789E7896420BD0012CA7
:10FFC00002D99E7A96420CD005B03CBC9046994628
:10FFD000A246AB46F0BD19882E88B142EFD100226F
:10FFE00004E01E892A889642EED10122D2009B1895
:10FFF0005A689246002AE7D0224E3568012DE3D890
:020000022000DC
:100000005C23C35A2049EA009B46531B8846DB0009
:1000100003934344191C02935B464B80614691460F
:10002000002925D0039B002241465A5401992E23D2
:100030005943029A41180432101C2E2201F06DFC23
:100040004A46531BDB004344514601355963356032
:10005000A542B9D14046426B90473B68012B04D979
:10006000404641463830CB6E984700233360ABE7BB
:10007000039B022241465A54E2E7C046302E00203C
:100080001C2E0020182E0020A82D0020F0B5474679
:1000900080B46023C35C2E255D435F23C35C451998
:1000A0005A00D2189200AA188846911D2A795C1C21
:1000B00082B0944239D0AC465F2793422DD2541E71
:1000C000A3421AD001335E00F618B600AE19063608
:1000D0000C89F2880134944219D06B46013A1C8095
:1000E0005A80002241460A705C22805A6946FFF716
:1000F0004DFF02B004BC9046F0BD63460E899C8D56
:10010000A6420FD06B4601361E805C80E9E7311CA9
:10011000DBB2C3552A799A42D1D8012341460B70EC
:100120000020E6E70021131CF2E70C89AA8D944217
:10013000F3D06B4601341C805A80D2E7F8B556469E
:100140004D4644465F46F0B43F4A404E136835681A
:100150000133041C1360AB4208D300226123C25454
:100160003CBC90469946A246AB46F8BD00215F23B1
:10017000E15460238946C15C2E220131C9B2171CAB
:100180004F43C1549846324BC7199A46C90051444F
:100190009346381C042201F0C0FB494639715C23A8
:1001A000E05A01213A1CFFF7EDFE0028D8D0612368
:1001B0004A46E2544346E25C5F467A435746A218F9
:1001C0009378B978994238D0012DC9D95746B97A70
:1001D0009942C5D1398913889942C1D10123DB00E5
:1001E000534459688C460029BAD01A4F3B68012BFA
:1001F000B6D8D9005C22A25AC91A174CC900904639
:100200008946221C4A44A246444654800121644641
:1002100001331170506054633B609D42A0D1504641
:10022000416B88473368012B04D950465246383019
:10023000D36E984700233B6092E73F8811888F4236
:10024000C2D10023CBE7C046A42D0020302E0020D1
:100250001C2E0020182E0020A82D0020054A002367
:100260001360054A01211170044A00201360044AFA
:1002700013607047302E00202C2E0020A42D00206B
:10028000182E0020F8B5021C0C1C002807D00029ED
:1002900005D00E4B08201978002902D1F8BD0E2098
:1002A000FCE70B4E06203568022DF7D00420012D07
:1002B000F4D8084FEB00FF18111C381C042201353C
:1002C00001F02BFB7C6035600020E7E72C2E00203E
:1002D000302E00201C2E002070B5041C0D1C0028A0
:1002E00025D0144B08201B78002B00D170BD124B79
:1002F0001B68002BFAD06126A35D1120002BF5D1DD
:100300000E4A201C13600E4A13606022A3545C2323
:10031000E15204220B4901F000FB281C0121221CA0
:10032000FFF730FE0028E1D10123A355DEE70E20C0
:10033000DCE7C0462C2E0020302E0020A42D00200B
:10034000182E00201C2E0020F0B54D4644465F4676
:100350005646F0B4041C83B00D1C002873D000294D
:1003600071D0C94B1B78002B6DD00B88103B9BB212
:10037000232B68D8C54A9B00D3589F4600235A00B8
:10038000D3185B00ED187B00DB19EA899B006344FE
:100390001A825F23E75C00256846057061460B7989
:1003A00001379F4200D1B9E15F23E754201C694621
:1003B000FFF76CFE002800D180E16123E554602343
:1003C000E35C2E215943B24A611813689046002B12
:1003D00039D0B04D8A78AE78964200D155E2012BE3
:1003E00031D9AE7A96422ED12E890A8896422AD1E8
:1003F0000122D200AD1869688946002923D0A64F92
:100400003A68012A1FD85C21615AD500A34CAD1A65
:100410008C46ED00611966464E8001266655013214
:100420004860484648633A6093420CD1201C616B97
:10043000884742461368012B03D9201C3830E36EED
:10044000984700233B6003B03CBC90469946A246C7
:10045000AB46F0BD6023C35C2E2253431B189C4661
:100460005F23C75CCB88002B95D18889002800D1F9
:1004700091E78B4E0B8AB34200D17FE70A1C1632FC
:10048000002305E00632911F0988B14200D176E7CA
:1004900001339842F6D87EE76023C25CCB88002BFC
:1004A00000D001E12E275743C7193E790B7BF31883
:1004B000032B00DD3CE1DBB2984641463971B34283
:1004C00036D973009B199B00DB19181C291C99460F
:1004D0000A2206300E3101F020FA4B4600221A8221
:1004E000731C9146984500D82FE15A00D3189B0001
:1004F000DB19181C291C9A46183106300A2201F013
:100500000CFA534649461982B31C434500D31CE1FB
:100510005A00D3189B00DB19181C291C9A460A2282
:100520000630223101F0F9F953464A461A82033661
:10053000013E60237200E35C96192E225343B600FD
:10054000BF19E318F9899A8D914200D3ACE0404677
:10055000032800D1A8E05F2246464046A654002862
:1005600000D099E15A8D69460A809B8D4B805C23AF
:10057000E05AFFF709FD002800D164E7002261235B
:10058000E2546023E35C2E225A43414BA218984662
:100590001B68002B00D156E73E4D9178AE788E4215
:1005A00000D192E1012B00D84DE7AE7A8E4200D007
:1005B00049E729891288914200D044E70122D200FC
:1005C000AD1869688C46002900D13CE7324F3A6883
:1005D000012A00D937E75C21615A3824261C56438A
:1005E0002E4D8946B246A919A34601264C464C8099
:1005F000B14654462E554A444860604648633A60C6
:100600009A4200D01FE700245E46414609688C42AA
:1006100000D316E7301C60432818436B9847013419
:10062000F3E762220021FCF7C3FD012252425C2362
:10063000E25208E7CB88002B46D06023C35C2E2112
:100640005943134B411898461B68002B00D12EE1EB
:10065000104D8A78A878904200D1D4E0012B00D8C0
:100660002AE1A87A1E1C904200D107E10D4A1368C6
:1006700001331360B3426AD300226123E254E2E6FD
:100680008A885C23C252DEE62C2E0020981A0200D3
:10069000302E00201C2E0020182E0020A82D002017
:1006A00002290000A42D002000255F23E554201C12
:1006B0006946FFF7EBFC002800D07EE66E463378F3
:1006C000002B00D1BFE62BE06027C35D2E267343CD
:1006D0001B189846181C0E31042201F01EF94046E2
:1006E000291C2A301231042201F017F9E35D5E4320
:1006F0005F23E35CA619002B1DD1738D6846038030
:10070000B38D694643805C23E05AFFF73DFC002827
:1007100000D198E600226123E25450E601230370E1
:10072000201C0121FFF734FC201CFFF707FD8AE69F
:1007300003239846C1E6013BDBB25A00D3189B0065
:10074000F318DB8901339BB2D8E71E1CF0E60021C9
:100750005F23E1546023181C9946E35C8A46013309
:100760002E21DBB20F1C5F432354E719DB00042268
:100770008B46381CE91801F0D0F852463A715C23D8
:10078000E05A01213A1CFFF7FDFB002800D15AE690
:1007900061235146E1544B46E25C59464A43A21854
:1007A0009378A978994200D188E0012E00D84AE6D2
:1007B000A97A994200D046E629891388994200D047
:1007C00041E60123DB00ED186A689146002A00D15A
:1007D00039E6414F3B68012B00D934E65C22A25A2E
:1007E000DD003E4CED1A9446ED00621961465180E1
:1007F0000121615501335060484650633B60B3426C
:1008000000D020E612E62E880888864200D025E730
:100810000022D200AA1850681E1C8446002800D16D
:1008200024E72D4F3A68012A00D91FE7D0005C2148
:10083000615A2A4E801AC0008A468346311C5944A8
:10084000B14656464E800220664601324E6308701D
:100850003A601E1C9A4200D008E74846416B884720
:1008600042461668012E06D94E4648463830F36E89
:1008700098474046066800233B60F7E628890A88C7
:10088000904200D0F2E60122C3E72F880E88B742DB
:1008900000D0A4E50022ACE54246013AD2B25100B4
:1008A0008A1892009A18D289013292B25BE60C4BF8
:1008B0001A6801321A60DFE60126D7E62F88118810
:1008C0008F4200D071E700237CE72F881688B7425B
:1008D00000D067E6002272E6182E0020A82D002026
:1008E000A42D00207EDF70477FDF704781DF7047D7
:1008F000A9DF7047AADF70470020704700207047CB
:10090000002070470020704700207047002070478B
:10091000F8B54378114D5800C11889004A59002A8A
:1009200008D00F4C6618B67A77B2002F10DB002281
:10093000002102E00A4C00220021C3189B00E418A9
:1009400020890323FFF7D4FF002800D00548F8BD15
:100950007706ECD46918043192B2EEE72C2F002010
:10096000542E00204180000000207047F0B585B073
:100970000623061C684603804B78274D5A00D3187F
:100980009B00EB180C1C188902A96A460323FFF789
:10099000B1FF002802D0002005B0F0BD63781F4FE2
:1009A0005800C0188000694638180A88043002A927
:1009B00000F0A4FF637800281ED05900CA189200E6
:1009C000D259002A25D0164D68460288CB189B00C4
:1009D000FA50637802A95800C01880003818043013
:1009E00000F09BFF6378301C5900C9188900791802
:1009F0000C223423A847CEE75A00D3189B00ED18E9
:100A0000AA7A9007C7D4F81800210C22FCF7D0FB73
:100A1000C1E7044DD8E7C046542E00202C2F0020FB
:100A2000F1EC010069EC010038B54B78021C58006C
:100A3000C0180A4C80000D1C2018111C34230C22F5
:100A4000FEF79AF9002806D16B785A00D3189B005C
:100A50001A59013200D038BD1851FCE72C2F002064
:100A6000F0B55F4656464D464446F0B4504F8A4670
:100A7000396891B081469346984600294AD01A9A1F
:100A80005C2A47D84B4B6946009300230B741A9B92
:100A90004246099208930024474E02E00134072C95
:100AA00012D0A5B2301C291C02AAFEF7B5F8002806
:100AB000F4D1484602A9082200F020FF0028EDD119
:100AC000E4B26D46AC7003E06D46AC78FF2C21D0EB
:100AD0005146042930D0394B4146CB1AA72B20D997
:100AE000374B4146CB1A1B2B33D800236B700AAB14
:100AF00009931823089320235246032A52D0022236
:100B000013436A46137407AB059368463B6804A910
:100B10005A46984711B03CBC90469946A246AB460F
:100B2000F0BD5A46274B002A0DD01A680121A1407A
:100B30008A431A602023DFE71A9A5C2A30D04323C5
:100B400069460B74DFE701211A68A1400A42E1D02F
:100B5000ECE71D480B1A0B2B0FD91C4B9845EED018
:100B60001B4BA200D3589845D4D11A4BDA7A4023B4
:100B7000A242C1D100226A70BEE7302369460B74DD
:100B800000236B700123EB70124B9A7A302391078C
:100B9000B2D40C220021FCF70BFB6A46137CABE7B6
:100BA0002323CDE70122134369460B74ABE7C0460C
:100BB0003C2F002000FFFFFF082F0020602E0020A8
:100BC000102F0020382F00202C2F0020581B02004F
:100BD000342E0020542E002038B54B78021C5800CB
:100BE000C0180A4C80000D1C2018111C34230C2244
:100BF000FEF7C2F8002806D16B785A00D3189B0084
:100C00001A59013200D038BD1851FCE72C2F0020B2
:100C1000F8B54378114D5800C11889004A59002A87
:100C200008D00F4C6618B67A77B2002F10DB00227E
:100C3000002102E00A4C00220021C3189B00E418A6
:100C400020890323FFF754FE002800D00548F8BD93
:100C50007706ECD46918043192B2EEE72C2F00200D
:100C6000542E002041800000F0B585B00623061CFC
:100C7000684603804B78274D5A00D3189B00EB1829
:100C80000C1C188902A96A460323FFF733FE0028CB
:100C900002D0002005B0F0BD63781F4F5800C01887
:100CA0008000694638180A88043002A900F026FE40
:100CB000637800281ED05900CA189200D259002A21
:100CC00025D0164D68460288CB189B00FA506378F1
:100CD00002A95800C01880003818043000F01DFE2A
:100CE0006378301C5900C918890079180C22342304
:100CF000A847CEE75A00D3189B00ED18AA7A9007B0
:100D0000C7D4F81800210C22FCF752FAC1E7044DB1
:100D1000D8E7C046542E00202C2F0020F1EC010013
:100D200069EC010070B54378164D5A00D3189B004A
:100D3000041CEB1818892378134E5900C918890030
:100D400071180431FFF7CEFD00281AD123785A001C
:100D5000D3189B00F618727A0123134373726378D9
:100D60005A00D3189B00EB18997A04220A439A720E
:100D700063785A00D3189B00ED18AB7A2022934376
:100D8000AB7270BD542E00203C2F0020F0B55646AB
:100D90005F464D464446F0B4824685B0002869D08F
:100DA0003D4B00223D481A605A729A7201238372A9
:100DB0005B420381C37200210722FCF7F9F900218D
:100DC0000C223748FCF7F4F93649374A0123374FEC
:100DD0008B460C1C00259146FF269846201C0021BE
:100DE00006221130FCF7E4F9201C00211022FCF748
:100DF000DFF939684346AB4099433960AB000022C4
:100E0000494601352674E675CA501834072DE5D1D8
:100E10005C236A46264E9380264B6846311CD5805B
:100E20000093FDF75DFE00281DD1234901230B70BF
:100E3000884651460B78002B1ED15D460024A1B296
:100E4000301C02AAFDF7E8FE071E1ED1281C02A9CD
:100E500018220023FDF790FF00281AD1013418351D
:100E6000072CECD1002005B03CBC90469946A24628
:100E7000AB46F0BD1148F6E76A46D1889388301C2E
:100E8000594389B2FDF7CEFFEDE7002341460B70D1
:100E9000E9E742461770E6E73C2F0020542E002079
:100EA0002C2F0020602E0020342E0020382F002010
:100EB000082F0020610A0200502E00200E80000042
:100EC000F8B5114B051C1B780C1C002B01D10F48E9
:100ED000F8BD00280AD0002908D00B68002B05D0E7
:100EE0000B4E3768002F03D00A48F1E70A48EFE7B6
:100EF000301C08C00531052200F00FFD23790020C9
:100F0000B3722F70E4E7C046502E00200880000026
:100F10003C2F0020048000000E800000F8B5454BF7
:100F20001B78002B01D14448F8BD00280BD0037872
:100F3000002BF8D1414B1A68002AF4D04278002ADD
:100F400003D03F48F0E73F48EEE73F4A917A012956
:100F5000F7D08C07E7D58178FF2908D0D17A817046
:100F600010893A4A111C1231FFF7C0FCDCE7D17A34
:100F7000FF29F4D1364CE17DFF2919D02F21615C86
:100F8000FF2954D04721615CFF294ED05F21615C6D
:100F9000FF2948D07721615CFF2942D08F21615C15
:100FA000FF293CD0A721615CFF2936D02948BBE747
:100FB00000211578022D2ED018264E431768A61949
:100FC0003761351C9688AE829679AE75FD25182658
:100FD0004E43A419E57545780C246543C9B25519EB
:100FE000E9728170017861435918497ACD070FD5AC
:100FF0004178202561435218917A294391720278F1
:10100000022154431B195A7A00200A435A728BE773
:10101000FFF788FE88E7FE25D9E70621C9E7052105
:10102000C7E70421C5E70321C3E70221C1E7012186
:10103000BFE7C046502E0020088000003C2F002053
:10104000108000000E800000542E0020102F002081
:10105000602E002043800000F0B55F4656464D46A6
:101060004446F0B42A4B1B78002B06D129483CBCDF
:1010700090469946A246AB46F0BD002840D00029D4
:101080003ED00B68002B3BD08E68002E38D0037802
:10109000002BEBD1204B1B68002BE7D01F4A00240C
:1010A0000220012610320023A3461D4D8146B4467E
:1010B0001EE0087BA0420AD9D7796046384206D1A3
:1010C00010277F428868A600BF183750013408797E
:1010D000834509D2D0794E46064205D15F460E6857
:1010E000B80001278251BB4401331832072B09D0C5
:1010F000E87A9842DDD1A87A4E460642D9D0F3E785
:101100000848B4E75F460F710C730020AFE7C04694
:10111000502E0020088000003C2F0020602E002070
:10112000542E00200E800000F0B557464E4645462E
:10113000E0B4A34B8CB01B78002B2FD0A14D2F68AF
:10114000002F2BD0FF23694602AC4B708B70CB7005
:10115000031D63602A232381038800220A70102B59
:1011600000D188E0984E8288B17A9246FF22894663
:101170009046890707D595498A4500D10BE1328908
:10118000524500D107E1172B42D00DD91C2B00D1BD
:10119000A1E0522B00D197E0182B24D00CB01CBC3E
:1011A00090469946A246F0BD112B47D0132BF5D19E
:1011B000874A002309930A930B930692F27A00213F
:1011C000500082188348D200821807920893504634
:1011D000002206ABFFF788FB0028DFD1B27A042398
:1011E0001343B372DAE78379112B00D1BAE080237D
:1011F0005B424A461A4315232370B272AA7A764B91
:101200009200D3586846984700222F68904666E0BF
:101210006B7A01218B436B724A4604239A43142351
:10122000B27223708379002B00D098E0C3795907FC
:1012300000D5D9E001210022884650E0022349462A
:10124000994308274A460B1CB17217405ED04AB238
:10125000002A00DA62E1002188465A0704D56B7A39
:10126000012293436B7290461023B37212232370B2
:101270002F68002233E0544EB37AD90700D48DE7AB
:101280000223B372112323706B465A708388063091
:1012900081463381301C4946072200F03EFB4D4B0E
:1012A00000271033984640464946072200F026FBA7
:1012B000002800D114E1182301379844072FF2D1F8
:1012C00000222F6890460AE0AA7A434B9200D35836
:1012D0006846984762E713230022237090466846C9
:1012E000211CB8472378122B5CD04246002A00D13B
:1012F00054E76B7A02221A4200D14FE7B17A2024D8
:101300000C4200D0DBE093436B7247E74046FF2876
:10131000A1D043002F494344DB009946081C8A466C
:10132000484400210622D1441130FBF741FF00213F
:1013300010224846FBF73CFFFF234846274A037428
:10134000C3750121404681401068884310604246C1
:101350009100234A68468F508370B37A7BE71A1C4A
:101360008846BCE74A46120700D440E71D480622DB
:1013700004300021FBF71CFF16232370B27A602390
:101380001343B3726A7A022313436B7201232F68EB
:1013900000229846A3E7F17A6A46884691700021B8
:1013A0005170F0E6B37A012B9FD00123B3725B42F8
:1013B0003381F372301C00210722FBF7F9FE94E71A
:1013C000502E00203C2F0020542E0020FFFF000054
:1013D000102F0020602E0020481B0200382F002014
:1013E000342E00202C2F00204346FF2B00D1D8E0C4
:1013F00008231A43B272837A9B07DB0F012B00D1BB
:10140000D7E0F37AFF2B00D1CFE03378022B10D056
:1014100041464B0043446F4A3068DB00D2181061EC
:10142000131CB28802219A82B2799A75DA7D8A43B6
:10143000DA7506AF684841463A1CFDF7EDFB002817
:1014400038D169464B785A00D3189B00F3189B7A21
:101450005A0600D4B7E0614B984669468B785D49DF
:101460005A00D318DB00C918381C18220023C047C3
:10147000002812D16A46537840205A00D2189200B0
:10148000B218917A81439172DA00D31A54499B00C1
:10149000C918381C1C221823C047684603786946BF
:1014A0005A00D3189B00EB189A7A4E4B9200D358EF
:1014B000381C984701212F68002288460FE73089A1
:1014C000291DFFF70FFA002800D067E66A7A01238A
:1014D00013436B72B37A0422A3431343B3725DE6E2
:1014E000B17A08220A43FBB2B2726A469370F37271
:1014F000B9B2394806AAFDF78FFB002800D0DFE615
:1015000006A91C2218233648FDF736FCAA7A364B6A
:101510009200D35806A869469847D1E606AF2E48F0
:1015200041463A1CFDF778FB002800D015E76846D5
:1015300043785A00D3189B00F3189B7A590645D577
:10154000264A90466846837822495A00D318DB0021
:10155000C918381C18220023C047002812D1694638
:101560004B7840205A00D2189200B218917A8143E9
:101570009172DA00D31A1A499B00C918381C1C2230
:101580001823C0476A461378381C5A00D3189B00AA
:10159000EB189A7A134B9200D35869469847B37A5E
:1015A00059E601230022984699E601200022804650
:1015B00095E64046420007494244D2008A18D17D50
:1015C0009943D1751DE70948804646E7084B984680
:1015D000B8E7C046602E0020082F0020F1EC010083
:1015E000102F0020281B0200381B020069EC0100AC
:1015F000F90802001B4B1B78012B00D070471A4BD7
:101600001B681A07FAD1194AF02312681A4003D04E
:10161000102A01D0302A03D1154A12681A4210D07C
:10162000124AF02312681A40402AE7D1104A126881
:101630001A42E3D1C12380220121DB00D205D1501F
:10164000DCE70C4A0C4B1A600C4B802212021A6029
:10165000044B1B78012BD1D1034B1B681A07DFD039
:10166000CCE7C046E00F00F0E40F00F0E80F00F018
:10167000EC0F00F0DFFF07C004050040186C0040CD
:101680002EDF704751DF704710DF704761DF704712
:1016900008B5081C111CFEF723FA08BDF0B55F461B
:1016A00056464D464446F0B42B4B83B01B78002B76
:1016B00014D02A492A4E0A68894655425541294B79
:1016C000EDB2196898464B424B41274ADBB29A4625
:1016D0009346002D0DD0514600291CD003B03CBCD0
:1016E00090469946A246AB46F0BD002DF6D10122A8
:1016F000924668466C46FFF7C5FF052829D00028AA
:101700001DD000210022FBF75DFD5146002903D0CA
:10171000002DE3D1EDE76C465A4637681388381C34
:1017200069462380FFF7B2FF0528DED000280BD0E2
:1017300000210022FBF746FD00239A46C9E74B46ED
:1017400000981B689847E0E74346381C1B68984799
:10175000F2E70125D9E7C046482F0020502F00208E
:101760004C2F0020542F00204A2F002038B5041C95
:101770000720002901D08D0700D038BD094801603D
:101780000949201C0A80094A09491360FFF77CFFB8
:101790000028F2D1074B012216201A70FFF770FFC4
:1017A000EBE7C0464C2F00204A2F0020582F002086
:1017B00091160200482F0020002803D0024B186029
:1017C000002070470E20FCE7542F0020002803D093
:1017D000024B1860002070470E20FCE7502F0020BD
:1017E00008B5084B1B68002B08D09847002800D18B
:1017F00008BD00210022FBF7E5FCF9E7FFF74EFFEB
:10180000F6E7C046582F002003210A4802680A4321
:101810000260094802680A4302600849084A094B05
:101820009B1A03DD043BC858D050FBDC06488047B8
:10183000064800472405004054050040C41B020030
:101840000028002064280020F5150200C1D0010006
:10185000FEE7FEE7FEE7FEE7FEE7FEE7002934D0FD
:101860000123002210B488422CD301242407A14272
:1018700004D2814202D209011B01F8E7E400A1422F
:1018800004D2814202D249005B00F8E7884201D3CA
:10189000401A1A434C08A04202D3001B5C082243A2
:1018A0008C08A04202D3001B9C082243CC08A04213
:1018B00002D3001BDC082243002803D01B0901D0FF
:1018C0000909E3E7101C10BC7047002801D0002074
:1018D000C04307B4024802A14018029003BDC046AD
:1018E000190000000029F0D003B5FFF7B9FF0EBCC6
:1018F0004243891A1847C0467047C04630B5002396
:10190000934208D0C55C0133CC18013C2478A54231
:10191000F6D0281B00E0002030BD10B50023934214
:1019200003D0CC5CC4540133F9E710BDF8B5C04610
:10193000F8BC08BC9E467047F8B5C046F8BC08BC69
:101940009E467047430000000028002036E6010054
:10195000E6E40100B2E4010098E50100DEE50100E3
:101960006EE5010030E5010030F0010044F00100B7
:1019700044F0010068EF0100A8EF0100C2F001008F
:10198000FEF00100B4F001003CEF0100F8EE0100B0
:101990003CEF0100F8EE010028EF0100F2EF01003A
:1019A000F2EF0100F2EF0100F2EF0100F2EF0100AF
:1019B000ACF00100D6EF010090F0010074F00100DE
:1019C00028EF010028EF0100BCF20100D6F201006F
:1019D000D6F2010056F3010084F30100FCF301008C
:1019E0003AF40100B4F30100ECF10100BCF1010094
:1019F000ECF10100BCF101001CF3010018F2010040
:101A000018F2010018F2010018F2010018F20100AA
:101A100062F201007EF2010032F30100D8F301000E
:101A2000A2F20100A2F2010048F9010008F9010048
:101A30003CF9010028F9010028F9010028F901000A
:101A400028F9010028F9010028F9010028F901000E
:101A500028F9010028F9010028F9010028F90100FE
:101A600028F9010028F901002CF901002CF90100E6
:101A70002CF9010000000080FFFFFFFFFFFFFFFFC8
:101A8000FFFFFFFFFFFFFFFF03000000000000005B
:101A900006000800000090018006020022060200F5
:101AA0004604020046040200460402004604020006
:101AB00046040200460402004604020046040200F6
:101AC00046040200460402004604020046040200E6
:101AD00046040200460402004604020046040200D6
:101AE00046040200460402004604020046040200C6
:101AF00046040200460402004604020046040200B6
:101B000046040200460402004604020046040200A5
:101B100046040200460402003406020046040200A5
:101B20009804020054040200FD0802006D0902003E
:101B300001090200690C020005090200290A0200DD
:101B400009090200D90B02000D0902001109020067
:101B500069090200110C0200FFFFFFFF00000000F6
:101B60000000000000000000000000000000000075
:101B70000000000000000000000000000000000065
:101B80000000000000000000000000000000000055
:101B90000000000000000000000000000000000045
:101BA0000000000000000000000000000000000035
:0C1BB00000000000000000000000000029
:081BBC0004B5FF7F01000000E9
:101BC400000000005C1B02007C1B02009C1B020046
:101BD4000000000000000000000000000000000001
:101BE4004419020000000000000000000000000092
:101BF40000000000000000000000000000000000E1
:101C040000000000000000000000000000000000D0
:101C140000000000000000000000000000000000C0
:041C240001000000BB
:0400000320001809B8
:00000001FF
