:020000021000EC
:1080000000400020F1D6010039D701003BD7010024
:108010000000000000000000000000000000000060
:108020000000000000000000000000003DD701003B
:1080300000000000000000003FD7010041D7010010
:1080400043D7010043D701004D8E010043D7010003
:1080500043D70100000000004996010061AC010017
:1080600043D7010043D7010043D7010043D70100A4
:1080700043D7010043D7010043D7010043D7010094
:1080800043D70100CD82010043D7010043D701004F
:10809000B983010043D70100C9D6010043D70100CD
:1080A00043D7010043D7010000000000000000009A
:1080B00000000000000000000000000000000000C0
:1080C000164B002B00D1144B9D46402292029A1A67
:1080D000924600218B460F461348144A121A00F0AC
:1080E00067F80F4B002B00D098470E4B002B00D0A9
:1080F00098470020002104000D000D48002802D000
:108100000C4800E000BF00F02DF82000290002F02C
:1081100013FE00F011F8C0460000080000400020E7
:1081200000000000000000007020002078290020DE
:108130000000000000000000084B10B5041C002BDC
:1081400002D0002100E000BF054B1868836A002BB5
:1081500000D09847201C00F033F8C0460000000013
:10816000F0EE010070B50E4B0E4D0024ED1AAD106F
:108170001E1CAC4204D0A300F35898470134F8E722
:1081800006F0A8FE084B094D0024ED1AAD101E1C88
:10819000AC4204D0A300F35898470134F8E770BD0F
:1081A000702000207020002070200020702000200F
:1081B000031C8218934202D019700133FAE770470A
:1081C000FEE7C046BFF34F8F024A034BDA60BFF3AE
:1081D0004F8FFEE70400FA0500ED00E010B500291E
:1081E0000DD00923002A01D1181C10BD541E2240B5
:1081F000FAD1826001608480C2600023F4E70E231C
:10820000F2E7C04610B5031C9A888068DC68241A1F
:108210000420A24200D210BDD868024018688154E0
:10822000DA6800200132DA60F5E7C04610B58468EC
:10823000C268031C0520944209D098689A880240BD
:108240001868825C00200A709A6801329A6010BD3A
:108250001A4A802189028023D150194B8022D221D1
:10826000520289005A50C22189005A5001225A6094
:108270002F200138C046C046C046C046C046C04652
:10828000C046C046C046C046C046C046F1D19A600E
:108290000C4B00221A602F200138C046C046C04651
:1082A000C046C046C046C046C046C046C046C0469E
:1082B000C046F1D1044B1A707047C04600E100E09F
:1082C000001001407020002098200020F0B5304BB5
:1082D000A02100224900474680B45A50A2214900FB
:1082E0005A50A42149005A50A62149005A508021D1
:1082F00049005A50822149005A50264A1468601C8D
:1083000037D0254A00269D58244B254A1B68254F07
:10831000ED1A2D022D0A904601E0621C1AD0E300EE
:108320001B1938689B00C3185A68AA4212D84046E5
:10833000AD1AB6181C6A9A69D9690368002B1BD05C
:10834000101C98470028E8D000220021FFF73AFFD0
:10835000621CE4D1144B15491A780B789A420ED05E
:10836000134A9B009E5080218023124A49035B00E0
:10837000D15004BC9046F0BD081C9047CDE7531C7B
:10838000DBB2022B01D00B70EAE700230B70E7E7AA
:10839000001001408820002004050000702000200B
:1083A00074200020782000208420002085200020D8
:1083B0009020002000E100E0F0B55F4656464D46B3
:1083C0004446F0B4BA48BB4BBB4900681A780978F8
:1083D0008BB00690914200D134E20132D2B2022A2F
:1083E00000D1FDE11A70B54B9200D2580699039264
:1083F00053181B02AE4A1B0A136001230793111C7A
:10840000AF4EB04BB04FB14C36681B78B0483F68A8
:1084100009682478026804960293019709910894E8
:10842000B14605969B460020351C5B46013BDBB2FE
:108430009B46FF2B72D05F460199FE008E1974781F
:108440003378A4466345F0D05C007768E418B178CF
:108450000133DBB2E4003C19C91A4F1EB941277839
:1084600049420B40022F15D0032F10D1291C6C1C40
:108470000DD0CC006118890051180875096A4C1C90
:10848000F7D175788946AC460C1C251CDAE72C1C04
:10849000251CD7E76168CF007C18A400A418BA4651
:1084A000277DA0462C1C002FEFD06F1C14D0A942B2
:1084B00000D183E19C462F1C0B1C009502E0A342D7
:1084C00010D0271CF900C919890051180C6A651CC5
:1084D000F5D1009D63462C1C454628757778251CF0
:1084E000BC46AFE70C1C009D191C6346A4468F4296
:1084F00000D14FE154466718BF00D7192C1C396AC8
:108500007D68674639624F1CE6D0CC00611889004F
:1085100051184C6865194D604C46DDE7684F4E4672
:1085200005953E6009986249089D684C079E086061
:108530002570002E00D055E105980499431A5A1E63
:108540009341DBB2069301235B429C465E4E604F33
:108550003668574804965D4C594E3D680768247844
:108560003668BB460021059F039400968946029B0E
:10857000013BDBB20293FF2B00D1ADE0049CDB009A
:10858000E418A246644601343FD06646F4006444D1
:10859000A4002C19216AA368E068E0468C465E4678
:1085A0009A1B4C491202120A8A4263D81018606062
:1085B00001214E4601204942A660E66020752162F5
:1085C0007A1C6DD0F900C919890069186268486879
:1085D0003E1C824208D855E0D900C91889006918A4
:1085E0004868904259D21E1C0B6A121A581CF3D1CB
:1085F0002362F3009E19B600AE19414662603B1C2F
:1086000031621F1C64460134BFD1564633787278FC
:108610009A42ACD05A0056465446D2186468013388
:10862000B178D200DBB2A218337099423CD05168C5
:108630003B1C884611780129E3D14346DC004444C1
:10864000A4002C19217D3B1C0029DAD19368A3607A
:10865000D068E060166926615269E261039A002AD7
:108660009DD000235E46A1609A1B1A491202120A8D
:108670008A429BD9F31A1B021B0A83420AD2C01AF0
:10868000606095E7821A4A60434627624446009438
:108690001F1CB7E74B4663608AE7801A4860A7E76C
:1086A000434600931F1CADE748463070BFE7C04605
:1086B00070200020842000208520002090200020B1
:1086C000882000207C200020802000208C2000209A
:1086D00078200020FEFF7F0000986349059A08601B
:1086E000974200D16EE07C1C00D1BAE05F4DFA00E9
:1086F0002B68D719BF00DB195C685D4A5D4B5E4E85
:108700009A5831685D4D571A3F023F0A287803375F
:10871000B846002821D18020D1264002B6009851C9
:10872000C126B6009851C02755488026B6027F0062
:10873000C6510660012018602F200138C046C0468F
:10874000C046C046C046C046C046C046C046C046F9
:10875000C046C046F1D101232B704346A34200D24C
:10876000231C5B181B024349A8201B0AC0000B50A6
:108770003F489B1A09581B02891A0902090A03314A
:108780001B0A994222D9802180233D4A89025B003D
:10879000D1501BE0E900491989005118271C096ACA
:1087A0004C1C02D089460C1CA9E6324C0125A56060
:1087B00089460C1C002108950991A0E647464146D0
:1087C000C446ECE7069B002B00D08CE72D4C002321
:1087D00023700BB03CBC90469946A246AB46F0BD18
:1087E0000022FFE5214A012317685B424A46059DA6
:1087F00000240026181CBC461BE0EB005B199B0004
:1088000063445968039FB94222D87A1A03921F6AB7
:108810001A6964185E601E75B846002A07D006996A
:10882000186267183F023F0A9F60DA60281C4546BD
:1088300042466B1CE1D10C4C059501258446226013
:10884000069583E600240025039407950A49D7E599
:10885000C91B8446044859600121026005950691B0
:1088600074E6FFF7F5FCB1E78820002078200020AF
:108870000405000000100140702000209820002016
:1088800000E100E08C200020F0B557464E464546FA
:10889000E0B481468A4690461F1C0720990704D001
:1088A0001CBC90469946A246F0BD002BF8D0FFF7BD
:1088B000CFFC314B089A50461A60304B5146187025
:1088C0002F4B1F60002955D05146CA0053189B00FA
:1088D0003C1C0025002624352670267524349D4234
:1088E000F9D152449200274BBF1803221A70264B2D
:1088F000391C1F6043465A0042441831D200796047
:1089000089188A18F9607A610121204A4942116068
:108910001F4A002313701F4A3B7013707B703B7219
:108920007B723B747B7480221B4BC02140465203F8
:108930004900B870B872B8745A50C52189005858A7
:10894000FF24A043C024204358501A60A121134A99
:10895000C90048465050C42189005C581048204046
:10896000C0242402204358500E4B0020D2580E4BF6
:108970001A6095E70022B4E77420002086200020CA
:10898000782000207C2000208020002088200020EB
:10899000842000208520002000E100E0001001403C
:1089A000FF00FFFF0405000070200020F0B5174B0A
:1089B00094461C68002C1CD0002A18D0002816D021
:1089C000134B1E78002E10D02378002B13D02434A4
:1089D000002307E0271C2434251C243D2D781A1C75
:1089E000002D0AD00133B342F4DB0420F0BD072090
:1089F000FCE70820FAE7271C002201233B706346AE
:108A00007970BB6102600020F0E7C046782000204A
:108A100086200020F0B5474680B43D4B1C68002CF2
:108A200047D03C4B1D780723854203D8181C04BC53
:108A30009046F0BD0429F9D9C3001B189B00E41827
:108A400025780823012DF1D16378012B33D0002341
:108A50009846314B5C681023E405E40D2FD12F4C70
:108A60002668F6187378B4785D1C2C1B671EBC4111
:108A7000644225403478AC421FD05C00E41873682F
:108A8000E4001C190423002CD0D001232370606063
:108A9000234B24484746C358E160A36062618021AC
:108AA0008023214A5B00490327617570D150002360
:108AB000BCE70823BAE78846CBE70423B6E7103CB7
:108AC000E3B25DB2002D13DBAD08C035164BAD002F
:108AD000EB5803252C40E400E3401C06A40FE4B24D
:108AE0000023012CBBD00823032CB8D01023B6E7F9
:108AF0000F241C40083C0D4DA408A4006419032554
:108B000064682B40AB40DC40E4B2A409E7E7C04610
:108B1000782000208620002000ED00E0802000204A
:108B2000040500000010014000E100E018ED00E045
:108B300030B5334B1A68002A35D0324B19780723E9
:108B4000814201D8181C30BDC3001B189B009A5CE1
:108B50000823012AF6D12C4B5A681023D205D20DD6
:108B600025D12A4A1168C9184B788C785A1C141BD5
:108B7000651EAC41644222400C78944215D05C00E2
:108B8000E4184B68E4001C190423002CDAD00223FB
:108B90002370606080234A7080211D4A5B00490376
:108BA000D1500023CEE70823CCE70423CAE7103ACC
:108BB000D1B24BB2002B13DB9908C031144B8900A2
:108BC000CB5803210A40D200D3401A06920FD2B2EA
:108BD0000023012AC5D00823032AC2D01023C0E7EE
:108BE0000F230B40083B0B4A9B089B009B185A68BD
:108BF000032319409940CA40D2B29209E7E7C04620
:108C0000782000208620002000ED00E08020002059
:108C100000E100E018ED00E070B5161C0C1C8D188A
:108C2000002A05DD2078013400F086FAAC42F9D143
:108C3000301C70BD10B50C1C201C00F075FA052806
:108C4000FAD0012010BDC0460B7B002B04D10B686D
:108C500001220271036070474B680022F9E7C046A9
:108C600030B51F4C85B02378DBB2002B05D0032B29
:108C700001D10223237005B030BD1A4BA02204217C
:108C8000D2009950184801221A608568C1688D4247
:108C900018D02178022900D09A6069460731FFF781
:108CA000C5FA002810D10F4BC221802289005A50EA
:108CB0006946C8790D49585002212170C1218900A7
:108CC0005A50D8E72270D6E7064A0123D36002A89B
:108CD000237003230370064B1B689847CBE7C046FD
:108CE000B020002000200040A02000201C05000033
:108CF0009C20002010B5204C84B02378DBB2002BE0
:108D00000CD0022B0CD9032B08D11C4B01210022C3
:108D10002270D9605960A021C9005A5004B010BD1A
:108D200017488268C3689A421AD02378022B02D06F
:108D3000124B01229A6069460731FFF777FA002843
:108D40000ED10E4BC221802289005A506946C87943
:108D50000C49585002212170C12189005A50DDE789
:108D6000064A0123D36002A8237003230370064B35
:108D70001B689847D2E7C046B02000200020004082
:108D8000A02000201C0500009C20002030B585B0EC
:108D900000F050FC00282FD1274C2378DBB2002BA9
:108DA00005D0032B01D10223237005B030BD234B26
:108DB000A0220421D2009950214801221A6085681E
:108DC000C1688D4222D02178022900D09A6069467C
:108DD0000731FFF72BFA002823D1184BC22180223C
:108DE00089005A506946C8791649585002212170A5
:108DF000C12189005A50D8E70F4A1378DBB2012B02
:108E000006D0022BD1D103231370CEE72270CCE71A
:108E100000211170094AD3605360A023DB00D150B8
:108E2000C3E7064A0123D36002A82370032303701B
:108E3000054B1B689847B8E7B02000200020004091
:108E4000A02000201C0500009C20002010B5244B11
:108E500084225200995882B0002920D1204A8E23C2
:108E60005B00D158002915D11D4B92225200995810
:108E700000290DD0002199509021C9005A58684608
:108E80005A50022369460B70164B01921B68984793
:108E900002B010BD0021D150FFF72CFFE4E7002104
:108EA0009950A322D20099580F4CC9B2201CFFF749
:108EB000A9F900280BD1A368E268D31A012BCDD100
:108EC000084B6A4610701B6868469847C6E701233E
:108ED00069460B70034B01901B6868469847BDE7D5
:108EE000002000409C200020B4200020F0B5574610
:108EF0004E464546E0B47F4D0C1C002129707E494A
:108F0000061C82B01F1C0A600720002C06D0A28815
:108F10007A482168FFF762F9002805D002B01CBC2E
:108F200090469946A246F0BDA168A2897448FFF711
:108F300055F9041C002CF1D17278A023C132FF3204
:108F4000DB0592000321D1503278C132FF3292000A
:108F5000D45071786B4B6C4A995031786B4A995068
:108F6000B1686B4A99507279002A4CD0694A0E2137
:108F700099503379022B65D0012B47D0614BA02249
:108F80000421D20099508421002249005A508E2198
:108F900049005A505F4901225858904358500121C6
:108FA000A1204942C0001950A220C00019509A6067
:108FB0001A602A700A990B88002B05D1564A13783B
:108FC000591C11700A9A13804E4B0121C22249424A
:108FD00092009950A121C1228900920099504F4BD3
:108FE000C021042249005A50C02189005D58FF2049
:108FF000BF0107404A4C38042F1C274007435F50ED
:1090000000201A608AE743495A50B2E73D4AA0213E
:109010000420C900505084200021400011508E20AF
:10902000400011503B49505818435050F078A2214D
:10903000C9005050B078A121C9005050936013600E
:109040002B70B7E700F058F9002804D100F01CF9A4
:10905000002800D062E76A46002313800024012321
:1090600094705370B0786946984600F04DF9002826
:1090700000D053E7234AA223914601224946524297
:10908000DB00CA50B278A123DB00CA50214BCA587A
:1090900041460A434946CA5001A903220A704C704E
:1090A0008C70CC709046F0781E4A00F095F982469C
:1090B000002800D032E7F078012100F06FFAF07854
:1090C00000F0B8FA002809D02B78DBB2012B08D0C9
:1090D000022B00D06EE743462B706BE7FFF7C0FD15
:1090E00068E749462C70CB604B60A023DB005246FA
:1090F000CA505FE7B02000209C200020B420002050
:10910000A0200020002000400C05000014050000F5
:10911000240500006C0500006420002000E100E050
:10912000FFFF00FF8D8D010008B5011C0148FFF70E
:109130007DF808BDB420002070B51A4D011C84B024
:10914000281CFFF75FF8184C061C2378DBB2012BB4
:1091500002D0301C04B070BD2278022A01D0134A1C
:1091600093606946281C0731FFF760F800280ED18C
:109170000E4BC221802289005A506946C8790C4999
:10918000585002212170C12189005A50E1E7074A55
:109190000123D36002A8237003230370054B1B68CF
:1091A0009847D6E7A0200020B020002000200040F3
:1091B0001C0500009C20002010B5436860215A0166
:1091C0001140027803242240114342781C2092006F
:1091D00002401143C0229202134000D01943084BB1
:1091E000084A09489C5820409850A0200024C000FC
:1091F0001C509C58FF20000220400143995010BD94
:109200000070004004050000FF00FFFFF0B50028DB
:109210001FDB82081A4B9200D218C0B2C02303246D
:109220009B00FF250440E400D6582F1CA74089016D
:10923000BE430D40A540341C2C43D4501F2318407E
:1092400001238340181CC0220D4B52009850186017
:10925000F0BDC0B20F230340083B0A4A9B089B00A5
:109260009B180322FF240240D200DE69251C954092
:109270008901AE430C409440321C2243DA61DDE7A1
:1092800000E100E000ED00E038B5194C082023783B
:10929000002B00D038BD01256D42201C291C202246
:1092A0002C30FEF785FF4C23E554FF224D23E2547A
:1092B0004E23E5544F23E5545023E5540620512313
:1092C0000121E5546560A560E56025616561A561E2
:1092D000E56125626562A562FFF798FF8021C123E1
:1092E000044A9B000906D150012323700020D1E7D6
:1092F000C420002000600040024B1878431E9841B3
:10930000C0B27047C4200020F0B52F4B04251C18B4
:1093100028346557021C0820013500D0F0BD88783C
:10932000002830D05868013047D09C68013446D0BE
:10933000D868013045D01C6904200134EED10320E7
:109340009C182834207180001B1800245C601F4B7F
:109350001F4CC018A223DB00C5584E782C400F7854
:10936000C4508024640336052640C0243F04A40270
:109370003C402643F82417026401C5583C4034435E
:109380002C43C45001E0FE232371E0246400101933
:10939000A023DB0580000324C4504978012906D0AE
:1093A000012191400A1C0B4900205A50B6E7A12028
:1093B000C000914019500020B0E70020C0E7012014
:1093C000BEE70220BCE7C046C42000200060004089
:1093D000FFE0ECFF0C050000F0B5454657464E4651
:1093E000E0B46B4B041C18182830057908207F2D39
:1093F00004D81CBC90469946A246F0BDC878824667
:1094000000286CD10425AC4604200A258700B94603
:109410009846C8444646776801376AD0461CB0462D
:10942000B5425AD9B600B4469C44664677680137BF
:109430005AD0861CB046B5424FD9B600B4469C44BB
:109440006646776801374FD0C61CB046B54244D94E
:10945000B600B4469C4466467768013744D0061D82
:10946000B046B54239D9B600B4469C4466467768E2
:10947000013739D0461DB046B5422ED9B600B446A4
:109480009C446646776801372ED0861DB046B542AB
:1094900023D9B600B4469C4466467768013723D08A
:1094A000C61DB046B54218D9B600B4469C446646BF
:1094B0007768013718D008263618B046B5420CD95F
:1094C000B600B4469C446646776801370CD0093034
:1094D000854202D9986A01303ED0042089E70026EF
:1094E000B4460020042591E74046C6B28700B44642
:1094F000B9461D192E1C283665464F463571DE19B2
:1095000072605246002A02D11818443004718A78D9
:10951000002A16D1E0264D787600A019A022AD00D1
:109520008000D2058550CA78002A17D165466AB2F4
:109530009B1844330A78197992010A431A71002062
:1095400057E7A025ED05A000E0224019D20085587C
:109550000226B5438550E6E70920C6E767460D4871
:109560007AB29200A2231218DB00D0580D780A4973
:1095700024020140F82040010440C020D1502D04B5
:109580008002D158284004430C43D450002030E7D7
:10959000C420002000600040FFE0FCFF30B5224CFA
:1095A000231828331A7953B2032B17DDE3184433F9
:1095B0001B799B09032B2AD0012B31D0C0229202A8
:1095C000A023DB058000C018E023DB00C458174946
:1095D0002140C150C1580A43C25030BD032AFCD8B3
:1095E000134A98008018A222D200855801242543EE
:1095F0008550181C403080000D4A80B200258550EF
:109600000029EAD0C1219C4089005450E5E7A223FB
:10961000A022DB00D205D258012383401A42CDD1CB
:1096200080229202CCE7C046C4200020FFFFFCFF4E
:1096300000600040A223A022D205DB00D358C34023
:10964000181C012318407047F0B544465F46564643
:109650004D46F0B4874A85B013680024012B6AD0C8
:10966000854B1968012900D173E0844B1A68012ADF
:1096700000D17EE0824B1968012900D189E0814B3D
:10968000002219689046012900D194E022070BD0EE
:10969000E30700D5A6E0A10700D5B2E0620700D538
:1096A000BDE0230700D591E0002C06DB05B03CBCF3
:1096B00090469946A246AB46F0BD734DE0232C1C64
:1096C0002F1CDB004C345237C026AA46994606E0D0
:1096D0005B46032B00D1B2E00134BC42E6D02178D6
:1096E000081CB0432B1828331B795BB2032BF3DD26
:1096F0009B0053445B680093002BEDD089090291D5
:10970000A0218200C90551184A468B5801910122B7
:109710009903890F131C8B46834041461942D7D0C9
:109720005A46022AD8D10299032900D19EE0029913
:10973000009A9047D0E7C1215448890041580B4214
:1097400000D18DE74C4B146019680124012900D029
:109750008BE7C1224D499200895802220A4200D16A
:1097600083E700211960454B14431A68012A00D091
:1097700080E7C12245499200895804220A4200D15B
:1097800078E7002119603E4B14431968012900D085
:1097900075E7C1223D499200895808220A4200D14A
:1097A0006DE700211960374B144319680022904679
:1097B000012900D06AE71A6080231B061C43A022FF
:1097C000A223DB00D205D15888465FE72F4A304BF1
:1097D000D058D1582C4BC0048903C00E890F1B6987
:1097E000984761E7294AA223DB00D058D158264B7D
:1097F000C0048903890FC00E5B689847A10700D495
:109800004CE7224A234BD058D1581F4BC004890340
:10981000C00E890F9B689847620700D441E71B4A36
:10982000A323DB00D058D158174BC0048903DB6851
:10983000C00E890F9847230700D435E7C6E7029B7F
:10984000032B00D073E702210391019B49465A582C
:10985000114B111C1940019B4A4699509958039A83
:109860004B4612040A430199CA5060E7029A0392D8
:10987000EBE7C04600610040046100400861004021
:109880000C6100407C610040C4200020006000406A
:109890001C05000014050000FFFFFCFF29DF7047D6
:1098A00028DF7047F8B54F464646C0B46F4C814636
:1098B00025788846161C1F1C002D15D1131C3B4310
:1098C00019D1022323704046FFF7EAFF002835D163
:1098D000002E00D0C6E0002F00D0B8E049460B783B
:1098E000042B00D0AEE049E0062D00D9ADE0604B7E
:1098F000AD005B599F46012323705E4B586980235E
:109900005B05411C00D1A5E019690904090C03F0AD
:1099100019FF80235B051D6919691A69431E280414
:10992000000C09045843090C434692B2594392086B
:10993000FFF7B4FF002801D1022323700CBC90462E
:109940009946F8BD4B4B586980235B05411C00D1FB
:1099500086E019690904090C03F0F4FE80235B0515
:109960001A691969431E1004000C09045843090CB4
:1099700003F0E8FEFFF794FF0028DFD107232370F0
:10998000DCE780235B05186993000004000C484362
:1099900018184B465A8819699208FFF77FFF00286C
:1099A000CCD13E43EAD006232370C7E780235B0572
:1099B0001D69304A2D0450692D0C4D43411C4DD07A
:1099C00019690904090C03F0BDFE80235B051969C0
:1099D00001380904090C4143321C281CFFF75EFFC3
:1099E0000028ABD1002F32D14A461378042B29D15D
:1099F000D9E780235B051A6941461204120C4A43D9
:109A00004588B6005219921990461A4A5069421C6C
:109A100022D019690904090C03F094FE80235B0528
:109A2000196901380904090C414376197118404637
:109A30003A1CFFF733FF002800D07FE749460B7838
:109A4000042BB0D00523237078E7032076E70423A6
:109A5000237073E758695CE75869DFE75869B4E732
:109A600058697BE70323237068E7C046FD21002087
:109A7000F4EE010000100010F8B5384D2B789A0074
:109A8000D3189B00EB181C1D1B79E668042B38D0FB
:109A9000052B14D00F20022B00D0F8BD304B2069CD
:109AA0001B8862889B02C118A088D21A8619F018F8
:109AB0002C4B9A423AD89208FFF7F0FE1CE0802720
:109AC0007F053969301C0904090C03F03BFEA388AB
:109AD000011C9E193A693B691204120C1B04481CB4
:109AE0004A431B0C43436088B21A86199B1B920899
:109AF0009B08201CFFF7D6FE0028CED10123AB70B7
:109B0000CBE7A26818491301CB18198958895B68FB
:109B1000B34210D0022A12D080277F053969301C49
:109B20000904090C03F00EFE011CD3E78022520049
:109B3000FFF7B4FEE0E7414363889942EAD180230E
:109B40005B051969301C0904090C03F0FBFD044B8B
:109B50001B88C018FFF7A4FECEE7C04618210020DE
:109B6000FE210020FF030000E4210020F8B506AC30
:109B70002488071CA446144C042066780A2E1BD0A7
:109B800025787519EDB2092D01D90A3DEDB2A8006D
:109B90004519AD00651900206A612A1C68712F7192
:109BA0000C3281C981C260462881EB80A3780020F5
:109BB000002B02D001366670F8BDFFF75DFF6678B6
:109BC0001128F7D10020F5E718210020F0B5444610
:109BD0005F4656464D46F0B4634C85B0A378002BE3
:109BE00027D0624B00221978A270082928D00228B9
:109BF00044D003281DD123789A00D3189B00E41881
:109C0000251D6B780133DBB26B70032B00D19DE017
:109C1000FFF732FF021E0CD011280AD0AB68201CBF
:109C200021796C881E012B690094514C0C303459F9
:109C3000A04705B03CBC90469946A246AB46F0BD55
:109C4000022800D04B4B1A706378002BF1D0FFF73D
:109C500013FF021EEDD01128EBD023789900CB180A
:109C60009B00E418E76821796369201CE4883E01C1
:109C700000943F4C0C303459A047DAE72578A8000F
:109C80004619B600A6190296321C3B4E8346378809
:109C90000120B8468044B2464646B6B25746B04662
:109CA0003E80029E04323679022E42D0052E3AD0F2
:109CB000042E3AD1072906D0568840468002B04289
:109CC00028DB002926D100211970534619806378BA
:109CD000013B63706B1CDBB2092B01D92B1C093BC8
:109CE000237096681369101C029F5288397900927C
:109CF0001F4A36010830B6580022B047584643196B
:109D00009B00E318002201201A71DA80D8601A61E2
:109D10005A611A816378002B00D18AE7A378002B5F
:109D200000D086E793E70729CDD000210029F1D0A4
:109D3000C9E750884746BF020390B846039E414694
:109D4000FF17C00FB1424741391CEFE7A9686A8885
:109D50000E012B6921790092054A201C0C30B45861
:109D60000D22A04765E7C04618210020FD210020F4
:109D7000E4210020FC210020FE21002010B5554CDC
:109D800000222C202254402000232254422023521F
:109D90004420235250495420225456200B802352F1
:109DA0000121582022706270A2702271E380236129
:109DB00063612381227663836362A362A383E38565
:109DC000A363E3632386E3642365E1602162616347
:109DD000A164E1652352682022546A2023526C203A
:109DE00023527C2022547E2023528420215088201C
:109DF00023508C20235080202352902022549220E4
:109E00002352982021509C202350A020235094209E
:109E10002352A4202254A6202352AC202150B0204B
:109E20002350B4202350A8202352B8202254BA2211
:109E3000A352C022A150C422A350C822A350BC22C6
:109E4000A352264A236663666367A367216713806C
:109E5000234B5869431C36D080235B0519690904DC
:109E6000090C03F06FFC802149050A69831E100468
:109E7000000C58431B4B002218601B4B1A601A81C0
:109E80009A815A81194B08221A70154B5869431C44
:109E90001DD009690904090C03F054FC80235B05FB
:109EA0001A691969431E1004000C09045843090C6F
:109EB00003F048FCFFF7F4FC002803D10C4A01230F
:109EC000A370137010BD80235B055869CBE7486908
:109ED000E4E7C04618210020FE210020F4210020E4
:109EE00000100010F8210020E4210020FD210020B6
:109EF000FC210020F8B556464D4644465F46F0B476
:109F0000454B051C1B780E1C0824002B06D1201C79
:109F10003CBC90469946A246AB46F8BD002873D09B
:109F2000002971D0016800296ED080235B051A6971
:109F3000878892B207249742E9D80F2FE7D9C288C1
:109F4000002AE4D07A439246344AD34611689146B7
:109F5000334A88465069C344421C57D019690904E2
:109F6000090C03F0EFFB80235B051A69411E120404
:109F7000120C4A4307249345C9D81A6992B2524534
:109F800007DA1869391C80B203F020FC89B2002975
:109F9000BDD10724BB07BAD1224904248C460988C5
:109FA0000129B4D04346204F736031600E01BB19C4
:109FB00042465A602A684446BA51AA881A81E888FB
:109FC0005881424380200023400509E005692D04A3
:109FD0002D0C521B05692D042D0C6419002A17D075
:109FE00005690133ADB29BB29542EFD38022520591
:109FF000126992B2A4184A461460BE19B3810131A5
:10A0000063461980002482E70E2480E75869AAE796
:10A010004A461460F1E7C046FC210020F8210020E8
:10A0200000100010F4210020E421002030B5114B75
:10A030001C780823002C01D1181C30BD002806D044
:10A04000002A04D00368002B03D00723F4E70E2373
:10A05000F2E7094C2568002DF7D02589406869434F
:10A0600009186089454360682D18A942EDD2136034
:10A070005160E1E7FC210020E4210020F0B54746D3
:10A0800080B41E4C051C247882B00E1C171C0820BE
:10A09000002C03D102B004BC9046F0BD00292BD0A7
:10A0A000002D29D0296807200029F3D1144A14680B
:10A0B000002CEFD0696854898846118952684C4356
:10A0C000A44662449045E5D2002FE3D0B942E1D3E3
:10A0D000FA189142DEDB1020B107DBD103221342D4
:10A0E000D8D144461442D5D10093291C321C3B1CC4
:10A0F0000220FFF73BFDCDE70E20CBE7FC2100203F
:10A10000E4210020F0B5474680B41E4C051C24789D
:10A1100082B00E1C171C0820002C03D102B004BC16
:10A120009046F0BD00292BD0002D29D029680720AA
:10A130000029F3D1144A1468002CEFD069685489BF
:10A140008846118952684C43A44662449045E5D242
:10A15000002FE3D0B942E1D3FA189142DEDB1020A0
:10A16000B107DBD103221342D8D144461442D5D1E2
:10A170000093291C321C3B1C0520FFF7F7FCCDE7A0
:10A180000E20CBE7FC210020E4210020F0B545465D
:10A1900057464E46E0B4264C82B02578071C0E1C6C
:10A1A00090460824002D06D1201C02B01CBC90460D
:10A1B0009946A246F0BD002906D0002804D00C68BC
:10A1C000002C03D00724EFE70E24EDE7194D286893
:10A1D0000028F7D02A89688949685043844668680E
:10A1E00084446145EED240460028EBD04245E9D395
:10A1F0009C46C4446245E5DBBA0701D01024D3E78E
:10A2000003208146021C0342F8D10A409246F5D150
:10A2100059184246381C03F034FF306842460301A7
:10A220000092ED58301C494652463B1CA847BBE7FC
:10A23000FC210020E421002070B5174A041C12788C
:10A2400082B00D1C0820002A01D102B070BD002C84
:10A2500020D022680720002AF7D1104B1A68002A64
:10A26000F3D05E6819895B8962684B439B199A42F7
:10A27000EBD210209307E8D1901B03F0A7FA072038
:10A280000029E2D100910022211C2B1C0420FFF7A1
:10A290006DFCDAE70E20D8E7FC210020E421002045
:10A2A000074B1A780823002A01D1181C7047002890
:10A2B00004D0044B5B7803600023F6E70E23F4E739
:10A2C000FC2100201821002010B5074AA023DB053F
:10A2D000995880221203141CA1208C43C0001C50EA
:10A2E00002480A401A5010BD040500000C05000089
:10A2F000F8B5864B1B68DA0700D4F8BD844B1C7890
:10A30000172CFAD88349A2008A5897468248A0237E
:10A31000A1218024DB050022C90024035A501A50D1
:10A320001C505A50E9E77D4D2868FEF701FC1123C7
:10A330001C1B49D0002847D1012C0CD0C820642117
:10A34000604303F0FFF9764B2D6819680022414302
:10A35000281CFEF75FFB704AA0238021DB05090360
:10A360009950A1220021D2009950C6E76D4AA0233E
:10A37000DB05995880221203141CA120C0008C43D5
:10A380001C5065480A401A50674B00221868644BFD
:10A390001968FEF73FFBB0E7624AA023DB05995836
:10A3A00080221203141CA1208C43C0001C505A4868
:10A3B0000A401A505C4B00221868594B1B689900E0
:10A3C000C918FEF727FB98E7A0238021A122DB050F
:10A3D0000903D2009950504A002199508DE7A022DC
:10A3E000A1204D4DD20500214E4EC00011505151BB
:10A3F00097598026360337406FD11650575128227F
:10A40000022C67D01C7012E0A022A120424CD20581
:10A410000021444DC00011501151565980252D0383
:10A420002E4062D1155003211651082219703E4B5F
:10A4300018683B4B196851430022FEF7EBFA5CE7C2
:10A44000A023A121DB050022C9005A5032495A50ED
:10A4500053E7A022A120304CD2050021314DC0008D
:10A4600011501151565980252D032E404AD11550B7
:10A47000165106221A7087E7A022A120264CD20589
:10A480000021284DC00011501151565980252D032F
:10A490002E4032D11550042116512822C6E7A022A1
:10A4A000A1201D4CD20500211E4DC000115011519C
:10A4B000565980252D032E401CD1155016510522CA
:10A4C0001A70194B00221868154B19684900FEF7DD
:10A4D000A1FA12E712221C70A9E75651115004226A
:10A4E000022C8FD102221C70A1E7155111500222BB
:10A4F00003219BE715511150E1E71551115004223A
:10A50000042193E715511150B3E7C0460022002003
:10A510000C22002010EF01000C0500000822002092
:10A520000422002004050000102200200023002047
:10A530000B70704770B5BA4B041C1B680020DA071B
:10A5400000D470BD172CFCD8B64AA300D3589F4640
:10A55000B54AA023DB05995880221203141CA120C0
:10A560008C43C0001C50B1480A401A50B04B002226
:10A570001868B04B1B689900C918FEF74BFAE0E762
:10A58000A94AA023DB05995880221203141CA1209C
:10A59000C0008C431C50A5480A401A50A44B00220E
:10A5A0001868A44B1968FEF735FACAE7A24D286867
:10A5B000FEF7BEFA11231C1B00D10DE1002800D0CC
:10A5C0000AE1012C0CD0C8206421604303F0BAF8E2
:10A5D000984B2D68196800224143281CFEF71AFA8F
:10A5E000924AA0238021DB0509039950A122002172
:10A5F000D2009950A5E7A0238021A122DB05090301
:10A60000D2009950894A002199508C4B12221A701D
:10A61000002096E78548A023A1218024DB050022A5
:10A62000C90024035A501A501C505A50834B13220D
:10A630001A70002085E77D4AA0238021DB050903ED
:10A640009950A1220021D20099507C4B00201C700F
:10A6500077E7A022A121D2050023C90053507349F6
:10A6600000205350754A13706BE7A023A1216F4857
:10A67000DB0500226C4DC9005A501A505E598025E6
:10A680002D032E4000D0BAE05D501E502823022C2E
:10A6900000D1C3E0694A1470654A1068654A1168C0
:10A6A00000225943FEF7B6F94BE7604AA023802108
:10A6B000DB0509039950A1220021D2009950002006
:10A6C0003FE75A48A023A1218024DB050022C900CE
:10A6D00024035A501A501C505A50584B14221A70C6
:10A6E00000202EE7A023A1215048DB0500224E4C7C
:10A6F000C9005A501A501D5980242403254076D190
:10A700005C501D500321082311E0A023A1214748DC
:10A71000DB050022444CC9005A501A501D598024B0
:10A720002403254073D15C501D5028230421434A43
:10A730001170B1E73D48A023A1218024DB05002250
:10A74000C90024035A501A501C505A503B4B072240
:10A750001A700020F5E63548A023A1218024DB05EE
:10A760000022C90024035A501A501C505A50334B2F
:10A7700015221A700020E4E6A023A1212B48DB0556
:10A780000022294CC9005A501A501D598024240314
:10A79000254031D15C501D50284B05221A70244BA6
:10A7A00000221868234B19684900FEF733F9C8E600
:10A7B000A023A1211D48DB0500221B4CC9005A50D3
:10A7C0001A501D5980242403254024D15C501D506B
:10A7D0001A4B06221A70E1E6A0238021A122DB0594
:10A7E0000903D2009950114A00219950A9E61C5042
:10A7F0005A50022303219AE71C505A50CCE71D50AF
:10A800005A500423022C00D044E7022342E71C5094
:10A810005A5004238AE71C505A50D9E7122339E7CB
:10A820000022002070EF0100040500000C0500006C
:10A830001022002004220020082200200C220020E8
:10A8400008B5104B1960104B1860C3070CD5A02336
:10A850008022A121DB051203C9005A500B490020B8
:10A860005850A321C9005A5009480021094AFEF74F
:10A870009DF8002804D108480121084AFEF796F8FF
:10A8800008BDC04604220020002200200C05000064
:10A8900010220020F1A2010008220020C9A201001C
:10A8A000072070470620704708B50320FFF7FAFF1E
:10A8B000031C0020002B04D0981F421E90414042F0
:10A8C000184008BD10B50388102B08D0112B05D1F6
:10A8D000294A1368013B1360002B07D010BD264C9A
:10A8E0002368002B11D001332360F7E700200221F9
:10A8F0000122FFF7D5FF00282BD0072829D01F4BB6
:10A900001B68002BEAD09847E8E7002000210122CD
:10A91000FFF7C6FF002808D0072806D0174B1B6892
:10A92000002B00D098472368DDE701200221072291
:10A93000FFF7B6FF002801D00728EFD10020022141
:10A940000422FFF7ADFF0028EDD00728E6D12368E9
:10A95000C9E7012002210722FFF7A2FF002801D04A
:10A960000728CCD1002000210A22FFF799FF0028F8
:10A97000B4D00728C3D1B1E7182200201422002048
:10A9800010B5234B84B00C1C186016D0002069460B
:10A99000FFF7CCFD002801D004B010BD012002A9B2
:10A9A000FFF7C4FD0028F7D16A46137A002B29D19E
:10A9B0006A461378002B28D12370164B00201B68A1
:10A9C000002BE9D102210122FFF76AFF002801D004
:10A9D0000728E1D1012002210722FFF761FF0028AB
:10A9E00001D00728D8D1002000210A22FFF758FF04
:10A9F000031C0020002BCFD0D81F421E90414042A4
:10AA00001840C9E702232370D7E70B232370D4E74C
:10AA1000142200201822002076DF704778DF70476C
:10AA20007ADF70477CDF704760DF70473CDF70473C
:10AA300048DF704708B500210022FDF7C3FB08BDC1
:10AA400010B5174AC2239B00164C0121D150216832
:10AA5000154803F01FFB206803F092F9134902F038
:10AA6000D9FE02F0BFFEC4B2211C114803F012FB54
:10AA70001048211C01F098FC0823021C9A4309D0BD
:10AA80000D4B984206D00D4B984203D00021002276
:10AA9000FDF798FB024AC12301219B00D15010BD54
:10AAA00000700040A8260020E4EF010000001041E3
:10AAB0000CF0010088250020043000000134000063
:10AAC00010B5041CFFF782F8201C01F003F910BD3B
:10AAD00008B5002A04D0101C00210022FDF772FBEB
:10AAE000002008BD08B50378002B00D008BD064B38
:10AAF0003B211888FFF790FF0028F7D000210022A3
:10AB0000FDF760FBF2E7C0466C20002008B5037833
:10AB1000022B04D0032B08D0012B00D008BD4068C5
:10AB200000210022FDF74EFBF8E7034B03481968AC
:10AB300003F0B0FAF2E7C046A826002038F0010082
:10AB400010B5041C02F070F9211C114801F01AFB29
:10AB5000201C01F035FD201CFFF7B4FE2388102BCC
:10AB600009D0112B03D101220A4B52421A80201C1A
:10AB700001F03EF810BD0720FFF7DCFC002803D0F1
:10AB800000210022FDF71EFBA288024B1A80EEE78F
:10AB9000882500206C20002008B5072820D00A282E
:10ABA00010D0042800D008BD144B13211888FFF7DB
:10ABB00033FF0823021C9A43F5D000210022FDF741
:10ABC00001FBF0E70020FFF7B5FC002810D1FFF7EC
:10ABD0006BFE002807D1FFF729FF0028E3D0ECE740
:10ABE00001F094F9E5E700210022FDF7EBFAF2E726
:10ABF00000210022FDF7E6FAE9E7C0466C200020BC
:10AC000008B5002806D0022803D1FFF793FC0028DE
:10AC10000DD108BD0020FFF78DFC00280CD1FFF7F7
:10AC200043FE00280DD1FFF701FF0028F1D00021DD
:10AC30000022FDF7C7FAECE700210022FDF7C2FA77
:10AC4000EDE700210022FDF7BDFAECE708B5031C93
:10AC50000A1C0248191CFDF7B5FA08BDEFBEADDEAF
:10AC6000064B8022002152009950A122D20099580F
:10AC7000034A116001221A607047C046007000400C
:10AC8000A826002030B58BB003A80F4B021C32CB96
:10AC900032C26B4600225A810C4A0A3306920122C4
:10ACA00007920B4A0093089280225200099206A94B
:10ACB000084A0323FEF71AF9002803D000210022D6
:10ACC000FDF780FA0BB030BDD0EF0100A0250020C9
:10ACD000A42500200DAB010010B5124B82B06A46CE
:10ACE0000C3312CB12C26846FEF766FA0E4B0F4ABF
:10ACF0000F49985801408020800101439950A022BB
:10AD00000121D2009950C12292009950094B802113
:10AD10009858C9050002000A0143995080221A6020
:10AD200002B010BDD0EF010000700040040500002B
:10AD3000FF00FFFF00E100E0F0B5002397B00093B3
:10AD4000002008210522B94BFDF79EFD002803D005
:10AD500000210022FDF736FAB54E0121301CB54A1C
:10AD6000FDF724FE002803D000210022FDF72AFA77
:10AD70000320B149B14AFFF763FD002803D0002149
:10AD80000022FDF71FFA0AAC0020211CFFF7F8FD96
:10AD9000002803D000210022FDF714FA27780820AC
:10ADA000023F7B425F41A64948220023FFB202F0E6
:10ADB00051FC002803D000210022FDF703FA0822ED
:10ADC000201C0021FDF7F4F9227801231343201CF5
:10ADD0002370FFF729FE002803D000210022FDF791
:10ADE000F1F9984802F05CFC002803D00021002211
:10ADF000FDF7E8F9944802F05DFC002803D000213B
:10AE00000022FDF7DFF902AD2F70FEF7B7FF002833
:10AE100003D000210022FDF7D5F9281C01F0FAFE2D
:10AE2000002803D000210022FDF7CCF9684600215C
:10AE300005222D30FDF7BCF9627901231A43E12385
:10AE40001A400C231A43CD23134063710723A371C7
:10AE50001023E3717D4B7E480A93211C012323714B
:10AE600001F07CFF002803D000210022FDF7AAF9A1
:10AE700029780F23994301220A43764F1340102269
:10AE80001343381C2B7003F01FF9391C82B2281CA5
:10AE9000FFF7C8FD002803D000210022FDF792F93A
:10AEA0006D48FFF7BBFD002803D000210022FDF70D
:10AEB00089F9201C00210822FDF77AF9A0235B0004
:10AEC000238082239B0063800023A380C8235B0030
:10AED000201CE380FFF7A4FD002803D000210022FE
:10AEE000FDF770F900213022201CFDF761F90223E3
:10AEF00023700123A3702382584B0622E270636102
:10AF000001220023AB602A7296225200EA60B4222A
:10AF10006B606B61AB61EB612A6102930093201C53
:10AF200000212A1C4E4B00F095FC002803D0002184
:10AF30000022FDF747F900211422201CFDF738F903
:10AF4000607B0F23012198430843102218401043CF
:10AF50006073A07B9843084318401043A0730020FF
:10AF6000E073207C984301430B401A430023227472
:10AF70000A930122A3603B486423211C227123739E
:10AF800001F02CF9002803D000210022FDF71AF966
:10AF90003549642300254B60344801238B600B73D3
:10AFA0000D60FDF751FE201C00211C22FDF700F969
:10AFB000A0239B026360F0231B03A360032323737E
:10AFC0002B4B201C63612B4B0A952574A36101F068
:10AFD000BBFA002803D000210022FDF7F3F8FFF7A9
:10AFE0007BFEFFF74FFE244803F054F8234803F09C
:10AFF00051F88021306849020022FDF70BFD00283E
:10B0000003D000210022FDF7DDF81D4B01221A605C
:10B01000022000F0DFFC002803D1FFF709FD002823
:10B02000FBD000210022FDF7CDF8F6E780220020BA
:10B03000A426002041AA0100CD0C000099AB01001C
:10B040001C22002041AB0100C1AA0100D1AA0100CD
:10B050007C22002040F00100410300006820002015
:10B0600001AC0100882500206C2200206422002011
:10B07000E5AA010035AA01004CF0010068F00100CA
:10B080000070004072DF704779DF70477DDF7047E6
:10B0900065DF7047F0B55F4656464D464446F0B40E
:10B0A00083B00C9F8A46994639780388051C161C84
:10B0B0008B46002B3CD000229046002403E02B88D6
:10B0C0000134A3422ADD6B68A1005918042201A8AB
:10B0D00002F0D7FF01A869460022FFF7D9FF002838
:10B0E00027D169460B78B342E9D14246002A27D0DE
:10B0F0003A7893191F2B30DC4A4401A86946FFF7C0
:10B10000C7FF002815D169463A780B780134D31867
:10B110003B702B8801229046A342D4DC4346002B8F
:10B1200006D03B785946013B4A465B1A5A44137095
:10B13000002003B03CBC90469946A246AB46F0BD09
:10B140003B789A191D2A08DC9A1C01333A70DBB24D
:10B1500052464946CA543A78CEE70C20E9E7C04641
:10B16000F0B556464D4644465F46F0B49BB00023CA
:10B17000041C04AD68460E1C2B700376002C00D115
:10B18000BFE0E378590700D4A3E02378002B00D078
:10B19000E4E0A278002A00D00AE1E278002A00D098
:10B1A0009FE06268002A0FD012781C2B00DDD3E0EC
:10B1B0000AAF0221F954591CC9B20A207854D91C8B
:10B1C0000233DBB22970FA542389002B00D0BAE194
:10B1D000238A002B00D046E2238B002B00D05BE2B9
:10B1E000236A002B40D02A780C20971DBA461F2FC7
:10B1F00070D81988072005296CD97D4F7F18BFB2F8
:10B20000B8467C4FBC46B84564D95F88B846052F20
:10B2100060D9774FB946C1444F46BFB2674559D947
:10B22000754FB94203D0B84501D0414552D80AAF55
:10B230000520B854901CC0B228708146501CC1B281
:10B2400012207854198804328C4649467818614691
:10B2500001706146090A41705B88D2B2BF183B7029
:10B2600052461B0A7B702A70606A8046002828D0EC
:10B2700001792B788F1C9A1CFFB2D7190C201F2F35
:10B2800028DC0AAF0331F954591CD2B2C9B2FF20ED
:10B2900078542A7040460188BA1804331170DBB222
:10B2A000090A51702B708288002A0AD0816800290F
:10B2B0000FD0F81802F0E5FE41468A882B78D318A3
:10B2C0002B702C23E15C0AAF002900D06FE1B94656
:10B2D00019E007201BB03CBC90469946A246AB46FD
:10B2E000F0BD0AAF0221F954991CC9B2581C884616
:10B2F000C0B2012103333954DBB240462B703A54BB
:10B300004FE70024A146002E00D128E2F478002C5B
:10B31000DFD16B461C763378002B00D0D5E1B378B3
:10B32000002B00D0FBE1F378002B0FD012A8804651
:10B330000222611C02554746A21C0120C9B20334F7
:10B340007854D2B2E4B268460476BB547368002BDA
:10B3500063D01B781C2C51DD0C20BBE763780C20DC
:10B360001D2BB7DC12AA68461D232A30111C9046FB
:10B37000171C1380FFF78AFE0028ABD12378022B1D
:10B3800000D157E26378002B02D008221D2B02D98E
:10B39000404603880822DBB2591C0AAF397069465F
:10B3A00029310A702A7802329B18DBB22B70F0E642
:10B3B0000C201B2B00DD8DE712A9081C8846FFF727
:10B3C00063FE002800D085E72B780AAF0322FA54E9
:10B3D0005A1CD2B21921B9544046991C0288C9B2EC
:10B3E0007F1804333A70DBB2120A7A702B70D4E6FD
:10B3F0007FF3FFFF7DF30000FFFF000012A9022290
:10B400000A558846621CD2B247460A21B954E21C4A
:10B4100002346846E4B202763B553389002B00D0F3
:10B42000AAE0338A002B00D003E1338B002B00D03D
:10B4300099E1336A002B46D06846027E0C20911DAC
:10B440001F2900D946E71C880720052C00D841E7B2
:10B45000DA4F3F19BFB2BC46D94FBA46BC4500D8F7
:10B4600038E75F88BC46052F00D833E7D34FB8468E
:10B47000E0444746BFB2574500D82BE7D14FBC4206
:10B4800004D0BC4502D0644500D923E712AC0520A6
:10B49000A054A046541CE4B2901CC0B26F46A4460F
:10B4A000444638766444122727701C884044047050
:10B4B000240A44705888131DDBB2434418706F4649
:10B4C000000A58703976746A002C2DD068462179AC
:10B4D000037E8F1C9A1CFFB2D7190C201F2F00DD92
:10B4E000F8E612AF0331F954D2B26846591C02761D
:10B4F000C9B2FF2078542188B84642441170043301
:10B50000090A5170DBB269460B76A288002A0BD07B
:10B51000A168002900D1DCE6F81802F0B2FDA2888B
:10B520006C46237ED31823762C23F05C002800D0B1
:10B5300034E1684612A9037E884642462978484687
:10B54000FFF7A0FDC6E6082109190AAF8846081CC6
:10B550000095022102223B1CFFF79CFD002800D031
:10B56000B8E600954046062110223B1CFFF792FDED
:10B57000002800D12CE6ADE612A9341C884606AAA4
:10B5800008340092201C022102224346FFF782FD6C
:10B59000002800D09EE606AB0093201C0621102256
:10B5A0004346FFF777FD002800D13AE792E6A36A09
:10B5B000002B00D18DE600228C46904616212C22CD
:10B5C00028788A46934600E0A36A41464A004244EE
:10B5D00092009B1899469B88421C03333B54831C62
:10B5E000DBB2D2B25146B9542B7049460A88FB18D7
:10B5F00004301A70C0B2120A5A7028708A88002A61
:10B600000FD08968002900D163E6381802F039FDAF
:10B610004A462B789088C0185B46E35CC0B228701D
:10B620009C4643460133DBB298466345CCD3B946CA
:10B6300069E6341C06A8103412AF00900321201CC8
:10B6400002223B1CFFF726FD002800D042E606A997
:10B650000091201C072110223B1CFFF71BFD002836
:10B6600000D1E2E636E6102212190AAF9046101C0D
:10B670000095032102223B1CFFF70CFD002800D09F
:10B6800028E600954046072110223B1CFFF702FDEB
:10B69000002800D1A0E51DE618231B190AAF984623
:10B6A000181C0095142102223B1CFFF7F3FC002814
:10B6B00000D00FE600954046152110223B1CFFF7F5
:10B6C000E9FC002800D18BE504E673780C201D2BE3
:10B6D00000DDFFE508AC68461D234A30211C2380AD
:10B6E000FFF7D4FC002800D0F4E53378022B00D11A
:10B6F000A6E07378002B02D008221D2B01D92388E5
:10B7000008226846047EDBB2591C023412AF39703D
:10B710001B1969464931DCB20A700476FFE50C203A
:10B720001B2C00DDD6E508A8FFF7AEFC002800D0F2
:10B73000D0E569460C7E12AA032313559046631C7C
:10B74000DBB219224746FA54A31C0A8CDBB24344ED
:10B7500004341A70E4B2120A5A700C76E3E56A46B1
:10B76000137E0022EAE612AA341C904606AB183477
:10B770000093201C142102224346FFF78BFC002873
:10B7800000D0A7E506AF0097201C152110224346E4
:10B79000FFF780FC002800D14BE69BE5B26A002A47
:10B7A00000D196E56F463B7E0390162112A82C2708
:10B7B000002480468A46BB4607E0C0467FF3FFFF71
:10B7C0007DF30000FFFF0000B26A67003F19BF0071
:10B7D000D719BA8840460332C2549A1CD2B269467D
:10B7E0000A76591CC9B28C466044514601703988AA
:10B7F000424411700433090A5170DBB26A46137671
:10B80000BA88002A10D0B968002900D161E5434404
:10B81000181C02F036FCBA886F463B7E5846D31897
:10B82000305CDBB23B76039001340399E4B28C4286
:10B83000CAD382E63B8809221D2B00D8ABE5A1E5DF
:10B84000238809221D2B00D85BE752E773DF70477E
:10B8500074DF7047F0B5474680B4051C884600D1B8
:10B8600098E0002A00D195E04B49002008704B4930
:10B8700006980B604A4B4B4918600B1CD0CAD0C3CA
:10B8800051CA51C381CA81C3CA68002A00D076E078
:10B890008C6900230B72002C00D178E0CE69002E59
:10B8A00000D174E0002107223F48FCF781FC3F4BA8
:10B8B0003F4A404E1A60404A00219A60301C3022B4
:10B8C000FCF776FC2B782A1C3370AB781032B370FF
:10B8D000EB78F3706B787370331C103381CA81C3BB
:10B8E000331C0833103A12CA12C3331C18330832FF
:10B8F00081CA81C3696A002911D0304B304C736210
:10B90000696A9C600A881A8088889880002806D016
:10B9100000238F68FA5CE25401338342F9D1AA6AAA
:10B92000002A14D0274B2848B362A96A98608C88F3
:10B930009C800A881A800023002C05D08F68FA5C4E
:10B94000C2540133A342F9D12C23EA5CF254286A91
:10B95000002806D01D4B33622A6A5188598012880C
:10B960001A806968002903D0194B73606D6875608F
:10B97000301C4146FFF7F4FB04BC9046F0BD0B6958
:10B98000002B00D184E78C69002C00D086E70023CF
:10B990000B7587E70E20EFE7B4270020E82600208C
:10B9A000102700201C2700201427002060270020DB
:10B9B0003C270020AC26002094270020DC26002015
:10B9C000EC260020BC27002070270020B82700208C
:10B9D0005C270020F0B5474680B47A4C88B02070D0
:10B9E000002568460095FEF75BFC08280BD0002870
:10B9F00005D10099002907D0734B01221A7008B0B5
:10BA000004BC9046F0BD0095704A0021101C904681
:10BA10000722FCF7CDFB6E4E7378002B33D12378D1
:10BA20006C4F012B52D0327A002A01D1022B68D000
:10BA3000327D002A01D1032B68D03A68002A03D056
:10BA4000023B012B00D8ACE0634B00221A7002AD20
:10BA50001822281C0021FCF7ABFB227800232B7056
:10BA60006B602B72EB60022A1AD0032A5BD0012A8A
:10BA700051D0002A22D13B68002B02D0574A1078BF
:10BA800098470020BBE72378524F012BCBD13A686F
:10BA9000002A19D0524907200B7090472378C0E73D
:10BAA000F36832692B824F4B6A821A79002A61D17E
:10BAB0001A7B002A5ED1494B02221A70281CFFF71C
:10BAC000C5FE0028D7D09AE7454B1A707378002B33
:10BAD00012D041464B78002B72D18B78002B6FD15E
:10BAE000CB78002B6CD10B79002B69D14B79002BD3
:10BAF00066D18B79002B63D102232370327A002A1E
:10BB00009BD103232370327D002A96D1334A002330
:10BB10002370137091E76B822B82304B4146696032
:10BB20002A701A70CAE7F2692E4BB1696A821A79D3
:10BB30002982002A17D03278002A17D02A4A127890
:10BB4000002A13D129480222EB60002104232A7223
:10BB5000C370FFF705FB002800D050E71F4B0522FC
:10BB60001A70227885E71A7B002AE4D11B4B032246
:10BB70001A70A3E73278002A9DD01B4A1278002A57
:10BB800099D11A480222042600212A72EB60C6705D
:10BB9000FFF7E6FA002800D031E7104B22781E703C
:10BBA00067E73378002B00D14EE70F4B1B78002B53
:10BBB00000D049E7084B012106201970904746E75D
:10BBC00001233AE7B4270020B527002014270020DE
:10BBD0001C270020E826002091270020C8270020ED
:10BBE00090270020602700200C270020AC26002092
:10BBF00008B50388112B35D0192B06D0102B00D097
:10BC000008BD82882A4B1A80FAE78379002BF7D186
:10BC1000284A1278022A40D0032A35D0012AEFD1CF
:10BC2000254A1178002912D0244B587800283CD19D
:10BC30009878002839D1D878002836D1187900288A
:10BC400033D15879002830D19B79002B2DD1022097
:10BC5000FFF7C0FE0028D3D0194B1B68002BCFD0B4
:10BC60009847CDE7174B00221A70174B5A68124BB2
:10BC70001A700F4B82881B889A42C1D10120FFF7AE
:10BC8000A9FE0028E8D1BBE7104A1370104B1B68CF
:10BC9000002BB5D000209847B2E70C4B03201A7058
:10BCA000FFF798FE0028D7D1AAE701391170E5E720
:10BCB0006E200020B42700209227002014270020A7
:10BCC000102700200C2700201C270020C827002058
:10BCD000E8260020F0B5474680B4023888B0012835
:10BCE00003D87E4C2378002B03D108B004BC9046C7
:10BCF000F0BD0025684625700095FEF7D1FA0828AA
:10BD000007D0002860D10099002903D001232370B7
:10BD1000EBE70095724A0021101C90460722FCF7C1
:10BD200047FA704D704E6B78002B54D133786F4FBB
:10BD3000012B5FD02A7A002A01D1022B75D02A7DEF
:10BD4000002A01D1032B75D03A68002A03D0023BA8
:10BD5000012B00D891E0664B00221A7002AC182229
:10BD6000201C0021FCF724FA327800232370636042
:10BD70002372E360022A0CD0032A60D0012A74D017
:10BD8000002A1CD13B68002BAFD05A4A1078984744
:10BD9000ABE7EB682A692382574B62821A79002A43
:10BDA00002D11A7B002A07D02A78002A04D0534AED
:10BDB0001278002A00D181E04E4B02221A70201C1A
:10BDC000FFF744FD0028DDD04D4B1B68002B00D150
:10BDD0008BE7984789E73378444F012BAAD13A681B
:10BDE000002A05D0474907200B70904733789FE71A
:10BDF000444B1A706B78002B12D041464B78002BC5
:10BE00004AD18B78002B47D1CB78002B44D10B79CA
:10BE1000002B41D14B79002B3ED18B79002B3BD1AC
:10BE2000022333702A7A002A8ED1032333702A7DAD
:10BE3000002A89D12F4A00233370137084E7EA69FE
:10BE40002D4BA96962821A792182002A02D11A7BBC
:10BE5000002A06D02A78002A03D0284A1278002A1D
:10BE60001CD0244B03221A70A9E763822382214B42
:10BE70004146616022701A70A1E72B78002B00D137
:10BE800069E71E4B1B78002B00D064E7184B01219B
:10BE900006201970904761E7012355E71A480222EE
:10BEA000E360002104232272C370FFF759F90028D0
:10BEB0008AD1104B05221A70327861E712480222AB
:10BEC000042500212272E360C570FFF749F90028BC
:10BED00000D079E7074B32781D7051E7B527002075
:10BEE000142700201C270020B4270020E82600206B
:10BEF00091270020C8270020602700200C27002061
:10BF00001027002090270020AC260020F0B54F46D7
:10BF10004646C0B48A4C89B02378002B5ED0894D48
:10BF20002B78002B5AD1884E3378002B5CD100211E
:10BF3000012768462F7088460091FEF7B1F908285E
:10BF400008D0002800D06EE00099002904D07F4B73
:10BF50001F7044E0434600937D4A0021101C914627
:10BF60000722FCF725F96378002B62D179493378F1
:10BF70008846012B65D0227A002A02D1022B00D1FB
:10BF80007BE0227D002A02D1032B00D17BE04146D9
:10BF90000A68002A03D0023B012B00D895E06E4BC3
:10BFA00000221A7002AF1822381C0021FCF700F999
:10BFB000327800233B707B603B72FB60022A18D012
:10BFC000032A65D0012A00D177E0002A26D1414614
:10BFD0000B68002B02D0614A10789847002009B006
:10BFE0000CBC90469946F0BDFFF732FC00289ED06D
:10BFF000F5E7E36822693B82594B7A821A79002A75
:10C0000002D11A7B002A06D02278002A03D02A788F
:10C01000002A00D184E0514B02221A70381CFFF72D
:10C0200015FC0028D3D04F4B1B68002BD6D0984767
:10C03000D4E73378012B56D0464988469BE74A4BD4
:10C040001A706378002B12D04A465378002B55D1D2
:10C050009378002B52D1D378002B4FD11379002B3A
:10C060004CD15379002B49D19379002B46D102232F
:10C070003370227A002A00D089E703233370227DAF
:10C08000002A00D083E7354A0023337013707EE71F
:10C09000E269334BA1697A821A793982002A02D186
:10C0A0001A7B002A05D02278002A02D02A78002A9A
:10C0B00026D02A4B03221A70B0E77B823B82274BA3
:10C0C000494679603A701A70A8E72378002B00D1AE
:10C0D00065E72B78002B00D061E71F4B012106207C
:10C0E000197090475EE71B4A90461268002AA6D056
:10C0F0001D4907200B70904733783AE7012346E744
:10C100001A480222FB60002104233A72C370FFF731
:10C1100027F8002887D1114B05221A70327854E78E
:10C1200012480222042400213A72FB60C470FFF717
:10C1300017F8002800D076E7084B32781C7044E7E7
:10C140001C2700200C270020B4270020B527002042
:10C1500014270020E826002091270020C82700206F
:10C16000602700201027002090270020AC26002008
:10C17000A0DF7047A2DF7047A3DF7047A4DF7047DE
:10C18000A6DF704710B50B8882B0112B22D0502B40
:10C1900006D0102B01D002B010BD8B884382FAE785
:10C1A000037D002BF7D0CA8843899A42F3D1CB8B09
:10C1B000022BF0D10368002BEDD021228A5C2024D1
:10C1C000095D12020A4301210A404A4069460A7089
:10C1D0009847E0E701235B424382DCE7F0B55F4626
:10C1E0004D4644465646F0B48946012309685B42F1
:10C1F0000160438293B049460A79037405A901237B
:10C200008B70664B0275071C021D01200B80FFF727
:10C21000AFFF041E07D0201C13B03CBC90469946CB
:10C22000A246AB46F0BD3B7D002B00D09CE00BACA2
:10C2300000211C22201CFBF7BBFF227802231343A2
:10C2400023703A7D01211140DBB2102009018343A4
:10C250000B43237000236360E3602361002A00D056
:10C260007EE063610023A36101229B466B469A74C2
:10C270004B4B03AE92466A46138200210322301CC8
:10C28000FBF796FF49468B7B06223370CB7B02215E
:10C290007370B37806AD93430B430822DBB21021D1
:10C2A00093438B43884651468B43B3704A46137B76
:10C2B0006946CB7014220021281CFBF779FF5346F6
:10C2C0002B81AB81032304AA59466B4406926981F2
:10C2D0002B616E60211CB888BB1D2A1CFFF74AFF2A
:10C2E000041E98D14946896800293BD06A4601233B
:10C2F00093742C4B00211382301C0322FBF758FF50
:10C300004A46137C0621337000237370B3780222EF
:10C310008B4313430821DBB242468B439343514680
:10C320008B4301AAB3704B469968101C904600F0ED
:10C330009FF9002181461422281CFBF739FF04A92C
:10C3400029604A4641462A816C81AA8129616E6032
:10C350003A1CF8880E32291CFFF70EFF041C5AE71E
:10C3600002AB7EE7F88156E702AC00210322201CD5
:10C37000FBF71EFF22780F239A4301210A43134043
:10C380001022134323704A46537B06226370A3781E
:10C39000934302221343A37049E7C0460F180000DD
:10C3A000192A000008290000F0B589B06D46E9712E
:10C3B000027CCBB2041C073500269A421AD002AF89
:10C3C00000210822381CFBF7F3FE01233B802B7869
:10C3D0007E807D602374608AE1883A1CFFF7CEFE80
:10C3E000061E07D1628A104B9A421BD0237D082675
:10C3F000002B02D1301C09B0F0BD04AD0021102289
:10C40000281CFBF7D5FEE388608A2B800123AB70E4
:10C410007B88AF607F68291CAB80EF60FFF7B0FEC0
:10C42000061CE7E70826E5E7FFFF000075DF704719
:10C4300076DF70477ADF70477BDF704710B5194BA6
:10C4400082B01888184B984215D0184B184C1A789F
:10C450000132D2B21A70217B91420ED200221A70A0
:10C46000237C002B13D16369002B04D00022694682
:10C470000A706846984702B010BD0E49FFF7D6FF14
:10C480000028F8D0A369002BF5D09847F3E73B21AB
:10C49000FFF7CEFF0028E6D0A369002BE3D0984732
:10C4A000E1E7C046F8270020FFFF0000D427002066
:10C4B000D8270020FC27002030B51D4B1D4A5B8883
:10C4C000118883B0994210D852889A420DD31A4BE2
:10C4D0005B69002B04D0012269460A7068469847C0
:10C4E000164C0023237003B030BD144C2378002B6E
:10C4F00009D0114B5B69002BF3D0002269460A700A
:10C5000068469847EDE70E4B0B4D1B78002B0CD07F
:10C51000A9680C4B00221868FCF77CFA0028E0D0D0
:10C52000AB69002BDDD09847DBE76968F1E7C046CF
:10C53000CC270020FC270020D8270020C927002076
:10C54000D4270020F427002070B51649021C0B1CCC
:10C5500070CA70C332CA32C312681A600168124BC3
:10C5600000221A70002916D0104C0822201C01F05D
:10C5700088FD201CFFF75EFF00280BD10C4B012229
:10C5800052421A800B4B00221A700B4800210B4AB2
:10C59000FCF70CFA70BD0548FFF74EFF0028EDD000
:10C5A000F8E7C046D8270020C9270020FC27002034
:10C5B000F8270020D4270020F42700203DC40100E4
:10C5C00010B50388112B36D022D9122B18D0502B3E
:10C5D0001DD1224CC288E3899A4218D1C38B022B09
:10C5E00015D12023C35CDA070FD41D4B1868FCF764
:10C5F0009FFA00280BD0A369002B08D0984706E0CB
:10C60000811D0822174801F03CFDFFF755FF10BDC2
:10C61000102BFCD18288144B011C1A801631082281
:10C62000104801F02EFD114B00221A700B4BDB89D4
:10C63000002BECD1E9E70C4B012252421A800B4B44
:10C6400000221A70064B1868FCF772FA0028DED038
:10C65000024B9B69002BDAD09847D8E7D8270020F7
:10C66000F4270020CC270020F8270020D427002022
:10C670000B7803704B784370022070477FDF704760
:10C6800082DF7047A7DF7047A9DF7047AADF7047D6
:10C69000002070470020704700207047002070473E
:10C6A000002070470020704700207047F8B54F46C3
:10C6B0004646C0B444783249E200121992008B1801
:10C6C000071C586800280ED063002E4E1D19AD00BF
:10C6D0007519AD7AA8466DB2002D1EDB002500222B
:10C6E000A846914605E000250022264EA846914620
:10C6F00063001B199B00F3181889494642462B1CFE
:10C70000FFF7C2FF0B282DD0002800D01E48012DB6
:10C710000ED00CBC90469946F8BD45466D06DDD45A
:10C72000151C08356D1880B2A94680468D58E0E783
:10C730007B780C215A00D3189B00F6183089134AD5
:10C74000FFF7A0FF0028E4D0114B984208D008283A
:10C7500006D0104B984203D0112801D00020D8E712
:10C760000948D6E77B7849465A00D3189B00F3184E
:10C77000188942460123FFF787FF0125C4E7C04619
:10C78000202900202C28002041800000FFFF00000D
:10C790000230000004300000F0B589B00C1C1A23F0
:10C7A00069460B8063782C4D5A00D3189B00EB1818
:10C7B000061C01A918896A460323FFF767FF0028B2
:10C7C00002D0002009B0F0BD6378244FD800C01813
:10C7D00080006B4608301A88381801A901F042FC25
:10C7E0006378002826D0DA00D118890079184968C2
:10C7F00000292FD01A4DD3189B000322FA506B4604
:10C800001A886378D900CB189B00FB185A606378AC
:10C8100001A9D800C01880000830381801F031FC98
:10C820006378301CD900C91889007918242238236C
:10C83000A847C6E75A00D2189200AD18AA7A910705
:10C84000BFD4D800C0188000381800212422FBF77C
:10C85000AFFCB6E7034DCEE72C28002020290020AE
:10C8600005A101007DA0010038B54B78021CD8005D
:10C87000C0180B4C80000D1C2018111C38232422DA
:10C88000FDF784FC002807D16B78DA00D3189B00F1
:10C89000E4186368013300D038BD6060FCE7C0462F
:10C8A00020290020F0B55F4656464D464446F0B478
:10C8B000504F8A46396891B0814693469846002980
:10C8C0004AD01A9A742A47D84B4B694600930023E2
:10C8D0000B741A9B4246099208930024474E02E0CB
:10C8E0000134072C12D0A5B2301C291C02AAFDF776
:10C8F0009DFB0028F4D1484602A9082201F0B2FBB2
:10C900000028EDD1E4B26D46AC7003E06D46AC7822
:10C91000FF2C21D05146042930D0394B4146CB1A47
:10C92000C32B20D9374B4146CB1A1B2B33D80023BE
:10C930006B700AAB09931823089320235246032AED
:10C9400052D0022213436A46137407AB059368461C
:10C950003B6804A95A46984711B03CBC904699469A
:10C96000A246AB46F0BD5A46274B002A0DD01A68A6
:10C970000121A1408A431A602023DFE71A9A742A12
:10C9800030D0432369460B74DFE701211A68A140C8
:10C990000A42E1D0ECE71D480B1A232B0FD91C4BA0
:10C9A0009845EED01B4BA200D3589845D4D11A4BD2
:10C9B000DA7A4023A242C1D100226A70BEE7302356
:10C9C00069460B7400236B700123EB70124B9A7A4B
:10C9D00030239107B2D424220021FBF7E9FB6A46F9
:10C9E000137CABE72323CDE70122134369460B7485
:10C9F000ABE7C0464829002000FFFFFFFC280020CD
:10CA00003828002004290020442900202029002063
:10CA1000B8F10100042800202C28002038B54B78FC
:10CA2000021CD800C0180B4C80000D1C2018111CD3
:10CA300038232422FDF7AAFB002807D16B78DA00FF
:10CA4000D3189B00E4186368013300D038BD6060E0
:10CA5000FCE7C04620290020F8B54F464646C0B442
:10CA600044783249E200121992008B18071C58686A
:10CA700000280ED063002E4E1D19AD007519AD7A39
:10CA8000A8466DB2002D1EDB00250022A846914667
:10CA900005E000250022264EA846914663001B199A
:10CAA0009B00F3181889494642462B1CFFF7ECFD02
:10CAB0000B282DD0002800D01E48012D0ED00CBC14
:10CAC00090469946F8BD45466D06DDD4151C0835DF
:10CAD0006D1880B2A94680468D58E0E77B780C211E
:10CAE0005A00D3189B00F6183089134AFFF7CAFD85
:10CAF0000028E4D0114B984208D0082806D0104BEB
:10CB0000984203D0112801D00020D8E70948D6E781
:10CB10007B7849465A00D3189B00F318188942467F
:10CB20000123FFF7B1FD0125C4E7C04620290020FD
:10CB30002C28002041800000FFFF00000230000090
:10CB400004300000F0B589B00C1C1A2369460B8034
:10CB500063782C4D5A00D3189B00EB18061C01A9D2
:10CB600018896A460323FFF791FD002802D00020B0
:10CB700009B0F0BD6378244FD800C01880006B4620
:10CB800008301A88381801A901F06CFA6378002877
:10CB900026D0DA00D11889007918496800292FD0E9
:10CBA0001A4DD3189B000322FA506B461A886378FB
:10CBB000D900CB189B00FB185A60637801A9D800F4
:10CBC000C01880000830381801F05BFA6378301C18
:10CBD000D900C9188900791824223823A847C6E744
:10CBE0005A00D2189200AD18AA7A9107BFD4D80083
:10CBF000C0188000381800212422FBF7D9FAB6E7C4
:10CC0000034DCEE72C2800202029002005A101009B
:10CC10007DA00100F0B55F4656464D464446F0B44F
:10CC200087B00190002800D170E0414B00224148BC
:10CC300001261A605A729A72764201238372002189
:10CC400007220681C672FBF7B3FA002124223A4874
:10CC5000FBF7AEFA39493A4A3A4B88463A4C012139
:10CC6000002593469A46FF278946201C002106226C
:10CC70001130FBF79DFA201C00211022FBF798FAD7
:10CC800041460A684B46AB409A430A60AB0000221B
:10CC90005946CA505246565501352774A776268301
:10CCA0001C34072DE1D169467423284E8B81284B13
:10CCB000CD8102A8311C0293FDF71CF900281ED17A
:10CCC000244B019A9846414601230B701378002BA0
:10CCD0001ED11D4D0024A1B2301C04AAFDF7A6F9F7
:10CCE000071E1ED1281C04A91C220023FDF74EFAA2
:10CCF00000281AD101341C35072CECD1002007B0D4
:10CD00003CBC90469946A246AB46F0BD1248F6E7B9
:10CD10006A46D1899389301C594389B2FDF78CFA50
:10CD2000EDE7002341460B70E9E743461F70E6E755
:10CD3000482900202C2800202029002044290020F8
:10CD4000042800202028002038280020FC2800206B
:10CD5000A5C80100282800200E800000F8B5194B56
:10CD6000051C1B780C1C002B01D11748F8BD0028AE
:10CD70000AD0002908D00B68002B05D0134E376865
:10CD8000002F03D01248F1E71248EFE7301C08C02B
:10CD90000531052201F075F92379317AB372012347
:10CDA0009943022211430423C9B2F07999433172A5
:10CDB00001210143C9B20A43D2B29A43F271002061
:10CDC0002F70D3E728280020088000004829002081
:10CDD000048000000E80000010B582B0041C817831
:10CDE0006A460D48FDF722F9002812D1637869469A
:10CDF000D800C31A09489B00C0181C221C23FDF749
:10CE0000C5F9074B68469A7A064B9200D358211C05
:10CE1000984702B010BDC046FC280020042900201D
:10CE20004829002098F10100F0B544465F46564677
:10CE30004D46F0B4C34A8FB01278FF23041C03930D
:10CE4000002A44D0C04F3868844600283FD06A4644
:10CE500053729372D37204AD231D6B602A232B810E
:10CE600000226B461A722388102B00D127E1B74E9F
:10CE7000A088B27AFF2182468946900707D5B44937
:10CE80008A4500D114E13189514500D110E1113BAF
:10CE90009BB2412B1BD8AF499B00CB589F46132315
:10CEA00000202B70824602A8291C5246E0472B78AE
:10CEB000122B0CD1B37A012B09D00123B3725B4240
:10CEC0003381F372301C00210722FBF771F90FB098
:10CED0003CBC90469946A246AB46F0BDBA7A9E4B02
:10CEE0009200D35802A89847F1E70223101C9843F8
:10CEF0000824B072144000D140E143B2002B00DAA4
:10CF000039E21023B372002212232B709246CAE733
:10CF100013232B7004231A43B272F27AFF2A00D132
:10CF200069E18E4816231A22083000212B70FBF786
:10CF30003FF9B27A402313438948B372F27A00234F
:10CF40009A468046D1008A1A920042440C92854A41
:10CF500000230B930D93089209930A93A0883A1D1E
:10CF6000002108ABFFF78AFB0028B0D13A6894464D
:10CF700099E7F37AFF2B00D192E1794B98467949F2
:10CF8000504642460023FFF77BFBA0E77B7A012057
:10CF900083437B7204239A431423B2722B70A379C8
:10CFA0008046002B00D017E1E37900208246590724
:10CFB00000D478E74B46FF2B00D174E708231A43CF
:10CFC000E37AB2729B07DB0F012B00D115E2F37AF3
:10CFD000FF2B00D10EE2624933788846022B00D144
:10CFE00018E24A46D3009B1A30689B0043441861FC
:10CFF000B1889A7E9982B179997502218A439A768D
:10D0000008AC59484946221CFDF710F8002837D1D2
:10D010006846437A5A00D3189B00F3189B7A590646
:10D0200000D4F4E1514A91466846837A1C22D90023
:10D03000C91A89004144201C0023C847002812D186
:10D0400069464B7A40205A00D2189200B218917A61
:10D0500081439172DA00D31A42499B00C918201CFF
:10D060001C221C23C8476A46137A201C5A00D31876
:10D070009B00FB189A7A3E4B9200D35802A998471E
:10D080003B6800279C46BA460DE7A379112B02D1D5
:10D09000100700D5EFE080235B421A4315232B7065
:10D0A000B272BA7A2C4B9200D35802A89847E7E79D
:10D0B000F17A68468946817200214172E7E6234E83
:10D0C000B37AD90700D402E70223B37211232B707D
:10D0D0006B465A72A388A01D81463381301C494695
:10D0E000072200F0CEFF237DD90700D4AAE0214A11
:10D0F0005B08D35CFF2B00D13BE10393191C0A2290
:10D100006846B2728372F372174808AAFCF78EFF62
:10D11000002812D169464B7A1248DA00D31A9B00D4
:10D12000C01808A91C221C23FDF730F8BA7A124B4C
:10D130009200D35808A802A998473A680023944659
:10D140009A46B0E628280020482900202C280020F4
:10D15000FFFF000080F00100A8F10100202900205D
:10D160003828002004290020FC28002005A1010007
:10D1700088F101002028002098F101004A46FF2A8A
:10D1800000D1BEE6CA4B00219A46D3009B1A9B00F1
:10D190009846504640440622D0441130FBF708F828
:10D1A000002110224046FBF703F84246FF23137488
:10D1B000937601235B421383BE4A48460121814096
:10D1C0001068884310604A469100BB4A68468C50FC
:10D1D000837239688C4694E6F27AB8489146111CFD
:10D1E00008AAFCF723FF002800D192E0A47939684F
:10D1F000A2468C4657E6AE498B7E8846FF2B00D16F
:10D200003DE13623CB5CFF2B00D114E15223CB5CF4
:10D21000FF2B00D139E16E23CB5CFF2B00D132E133
:10D220008A23CB5CFF2B00D133E1A623CB5CFF2B01
:10D2300000D12CE1C223CB5CFF2B00D121E1A0491E
:10D240008A467FE69A4B00241033984605E01C225C
:10D2500001349044072C00D16FE74046494607222D
:10D2600000F000FF0028F2D10394B27A08231A4399
:10D27000A1B2E3B244E7934800211A220830FAF73A
:10D2800097FF16232B70B27A60231343B3727A7A16
:10D2900002233968134300227B728C46924602E6D1
:10D2A000834DE389298BA846994200D1FDE0A98EE0
:10D2B000994200D1F7E05021695A994200D1F0E03B
:10D2C0006C21695A994200D1E9E08821695A994252
:10D2D00000D1E2E0A421695A994200D1DBE0C021EB
:10D2E0006D5A00219D4200D04AE60623082103938F
:10D2F0000A43DBB268468372F372B27202A8FFF788
:10D300006BFDA488F37AA246FF2B00D037E60021FC
:10D3100036E608A87421FCF78FFF8246002800D06B
:10D3200064E7634B48469B46C3001B1A9B00181CCE
:10D3300058440021062211300193FAF739FF019A6F
:10D340000021934458461022FAF732FF5846FF2333
:10D350000374837601235B420383564B4846196866
:10D360004246824091431960534B82005046D05050
:10D370003CE7FF21C3E608AC50484946221CFCF7B5
:10D3800055FE002800D024E769464B7A5A00D3188E
:10D390009B00F3189B7A5A064AD54B4B9846694630
:10D3A0008B7A4349DA00D31A9B00C918201C1C222F
:10D3B0000023C04700280FD16B465A7A0C235343F1
:10D3C000F318997A4020814399721C235A433F49AC
:10D3D000201C89181A1CC0476846037A02A95A0003
:10D3E000D3189B00FB189A7A394B9200D358201C13
:10D3F0009847EEE60027BA4655E54846C2002C4954
:10D40000121A92008A18917E99439176DFE5314B8A
:10D41000994609E64B46DA002C49D21A498A92000D
:10D4200042441183131C927E01218A439A76E7E5D8
:10D4300029488046B3E701233278022A1CD0DA005B
:10D44000D01A80004044102109188C4631680161CF
:10D45000B08861468880B0798871FD21D21A920027
:10D460004244917603AA1370039B6846DAB2002106
:10D470008272F2728A4665E5FE21DA00EEE7002349
:10D48000DAE70623D8E70323D6E70223D4E7052308
:10D49000D2E70423D0E7052328E7042326E7032364
:10D4A00024E7022322E7012320E700231EE7C046EA
:10D4B000382800204429002004280020FC280020CF
:10D4C000438000002029002005A10100042900203C
:10D4D00088F101007DA0010091C601001B4B1B7863
:10D4E000012B00D070471A4B1B681A07FAD1194A52
:10D4F000F02312681A4003D0102A01D0302A03D139
:10D50000154A12681A4210D0124AF02312681A40C3
:10D51000402AE7D1104A12681A42E3D1C12380227F
:10D520000121DB00D205D150DCE70C4A0C4B1A601C
:10D530000C4B802212021A60044B1B78012BD1D1B4
:10D54000034B1B681A07DFD0CCE7C046E00F00F0A2
:10D55000E40F00F0E80F00F0EC0F00F0DFFF07C071
:10D5600004050040186C00402EDF704751DF704703
:10D5700010DF704761DF704708B5081C111CFDF70C
:10D5800065FB08BDF0B55F4656464D464446F0B4CF
:10D590002B4B83B01B78002B14D02A492A4E0A68E3
:10D5A000894655425541294BEDB2196898464B4280
:10D5B0004B41274ADBB29A469346002D0DD0514687
:10D5C00000291CD003B03CBC90469946A246AB460D
:10D5D000F0BD002DF6D10122924668466C46FFF759
:10D5E000C5FF052829D000281DD000210022FAF708
:10D5F000E9FD5146002903D0002DE3D1EDE76C464B
:10D600005A4637681388381C69462380FFF7B2FFF3
:10D610000528DED000280BD000210022FAF7D2FD29
:10D6200000239A46C9E74B4600981B689847E0E7F5
:10D630004346381C1B689847F2E70125D9E7C046E6
:10D64000542900205C29002058290020602900204E
:10D650005629002038B5041C0720002901D08D0769
:10D6600000D038BD094801600949201C0A80094AD8
:10D6700009491360FFF77CFF0028F2D1074B012214
:10D6800016201A70FFF770FFEBE7C04658290020FC
:10D69000562900206429002079D501005429002052
:10D6A000002803D0024B1860002070470E20FCE7D2
:10D6B00060290020002803D0024B1860002070472A
:10D6C0000E20FCE75C29002008B5084B1B68002BE6
:10D6D00008D09847002800D108BD00210022FAF7A1
:10D6E00071FDF9E7FFF74EFFF6E7C0466429002019
:10D6F00003210A4802680A430260094802680A4393
:10D7000002600849084A094B9B1A03DD043BC858CC
:10D71000D050FBDC064880470648004724050040FF
:10D720005405004098F201000020002070200020E5
:10D73000DDD40100C1800100FEE7FEE7FEE7FEE761
:10D74000FEE7FEE7002934D00123002210B488420E
:10D750002CD301242407A14204D2814202D2090120
:10D760001B01F8E7E400A14204D2814202D2490041
:10D770005B00F8E7884201D3401A1A434C08A042E4
:10D7800002D3001B5C0822438C08A04202D3001B7A
:10D790009C082243CC08A04202D3001BDC08224391
:10D7A000002803D01B0901D00909E3E7101C10BCB5
:10D7B0007047002801D00020C04307B4024802A1EE
:10D7C0004018029003BDC046190000000029F0D0A7
:10D7D00003B5FFF7B9FF0EBC4243891A1847C0468C
:10D7E0007047C0469E2110B5C905041C00F054FBCB
:10D7F000002803D1201C00F0A3FA10BD9E21C9050A
:10D80000201C00F02DF900F09BFA80231B06C018A5
:10D81000F3E7C046F0B55F4656464D464446F0B481
:10D8200046024500C00F85B00F1C760A2D0E8046BB
:10D8300041D0FF2D26D08024240400212643F60069
:10D840007F3D89468B46F90F7C027800640A000E02
:10D8500000918A463CD0FF2834D080231B041C430F
:10D860000023E4007F380193009F4346019A7B40E8
:10D8700049469C4611430F2900D971E0764F890033
:10D880007F58BF46002E3ED10822022391469B4678
:10D89000D9E75A46341CC24601920199022937D071
:10D8A000032900D1CFE0012900D0ABE053460B4063
:10D8B0000022002632E0002E19D1042101228946DF
:10D8C0009346C0E7221C531E9A4102320192CBE7D5
:10D8D00001270197002CC7D0201C00F0E7FA431F56
:10D8E0009C4076235B420021181A0191BCE7301C52
:10D8F00000F0DCFA7625431F9E406D4200232D1A6E
:10D9000099469B469FE70C23032199468B469AE74D
:10D91000D446012367463B40FF2200267602D2050B
:10D92000700ADB071043184305B03CBC904699468B
:10D93000A246AB46F0BD80260023F603FF22EDE7AA
:10D9400000220026EAE78020C00306423BD00442C2
:10D9500039D1061C26437602760A009BFF22DDE7BA
:10D96000281A039076016401A64239D3361B1A2285
:10D9700001230120311C5B007600002901DBB44249
:10D9800001D8361B0343013A002AF3DC741EA6417A
:10D99000341C1C43039A7F32002A27DD630704D01E
:10D9A0000F232340042B00D00434270103D52B4B35
:10D9B000039A1C408032FE2A0BDD012361460B4096
:10D9C000FF220026AAE706437602760A4346FF2294
:10D9D000A4E7A40101236746660AD2B23B409DE753
:10D9E000039F1B22013F03970023C2E77E23039F6F
:10D9F0005B42DB1B1B2B07DD012361460B40002232
:10DA000000268BE7D446C5E7221CDA40039B9E33F1
:10DA10009C40231C5C1EA34113435A0704D00F22D1
:10DA20001A40042A00D004335F0105D50123614662
:10DA30000B400122002671E79E016246012313403C
:10DA4000760A00226AE78026F60326437602760AE3
:10DA50005346FF2262E7C046BCF10100FFFFFFF71B
:10DA6000F8B5C20F430244004D024800240E161CB4
:10DA70009B09000EC90FAD09FF2800D17EE00127E8
:10DA800079408A4258D0221A002A00DC89E0002816
:10DA90001BD1002D00D075E0580704D00F221A408A
:10DAA000042A00D00433590138D50134FF2C00D1A9
:10DAB00083E09B0101225B0AE0B232405B02C405B5
:10DAC000580AD20720431043F8BDFF2CE4D0802130
:10DAD000C9040D431B2A00DD2DE1291C2020D14063
