:020000021000EC
:1080000000400020A5CB0100EDCB0100EFCB01002B
:108010000000000000000000000000000000000060
:10802000000000000000000000000000F1CB010093
:108030000000000000000000F3CB0100F5CB0100C0
:10804000F7CB0100F7CB0100658E0100F7CB0100F3
:10805000F7CB01000000000071920100F7CB010096
:10806000F7CB0100F7CB0100F7CB0100F7CB010004
:10807000F7CB0100F7CB0100F7CB0100F7CB0100F4
:10808000F7CB010081840100F7CB0100F7CB0100A1
:108090006D850100F7CB01007DCB0100F7CB01001E
:1080A000F7CB0100F7CB010000000000000000004A
:1080B00000000000000000000000000000000000C0
:1080C000164B002B00D1144B9D46402292029A1A67
:1080D000924600218B460F461348144A121A00F0AC
:1080E00067F80F4B002B00D098470E4B002B00D0A9
:1080F00098470020002104000D000D48002802D000
:108100000C4800E000BF00F02DF82000290002F02C
:1081100073FC00F011F8C046000008000040002089
:10812000000000000000000090200020F826002041
:108130000000000000000000084B10B5041C002BDC
:1081400002D0002100E000BF054B1868836A002BB5
:1081500000D09847201C00F033F8C0460000000013
:10816000F4CC010070B50E4B0E4D0024ED1AAD108D
:108170001E1CAC4204D0A300F35898470134F8E722
:1081800004F0AAFD084B094D0024ED1AAD101E1C89
:10819000AC4204D0A300F35898470134F8E770BD0F
:1081A000902000209020002090200020902000208F
:1081B000031C8218934202D019700133FAE770470A
:1081C000FEE7C046F0B54E4657464546E0B4224964
:1081D00089460978002929D0204B214A0024984655
:1081E000204F0126924603E00134E4B28C421DD2B6
:1081F00043461B68E5005D192878321C3B688240C5
:108200001342F1D093433B6001F028F82B7852469B
:108210001268311C99401140021C9A4091420AD0C8
:108220004B4601341978E4B28C42E1D31CBC904631
:108230009946A246F0BD6A686978002AF0D00139F3
:108240004D426941091A48424141C9B2181C904740
:108250004A461178C8E7C0469820002094200020A4
:108260009C200020A4200020F8B5124C071C206898
:1082700000F038FD002807D10F4D01262B68BE40C5
:10828000334202D0B3432B60F8BD381C00F0E6FF48
:108290000A4B1A6800280BD032431A602A68084B30
:1082A00016432068196800222E6000F08DFCEBE771
:1082B000B243F2E7A0200020A42000209C20002050
:1082C00090200020F0B5474680B4061C82B00D1CFB
:1082D000141C0720042A03D802B004BC9046F0BD49
:1082E00000F086FE00282DD0194B1A4A1E601A4B4A
:1082F0001D701A4B1C6000231360194A6C1E13601A
:10830000E4B2002D18D0174903278846002500E065
:108310001C1C6A46E300F31817709570D5709A78A4
:1083200069464A701878424600F06AFE0028D3D1A8
:10833000631EDBB2002CEBD100210B4A0B4800F08E
:108340000FFCC9E700F01CFE0028CDD0C4E7C046F2
:10835000942000209C2000209820002090200020C5
:10836000A420002069820100C5810100A020002016
:1083700070B5094D2B78002B0BD0084E00243268C5
:10838000E300985C012100F01DFF2B780134A3422B
:10839000F5D8002070BDC046982000209420002011
:1083A000BFF34F8F024A034BDA60BFF34F8FFEE7F4
:1083B0000400FA0500ED00E010B5031C9A888068FF
:1083C000DC68241A0420A24200D210BDD868024002
:1083D00018688154DA6800200132DA60F5E7C04697
:1083E00010B58468C268031C0520944209D09868BF
:1083F0009A8802401868825C00200A709A680132EC
:108400009A6010BD1A4A802189028023D150194BED
:108410008022D221520289005A50C22189005A502A
:1084200001225A602F200138C046C046C046C046CF
:10843000C046C046C046C046C046C046C046C0460C
:10844000F1D19A600C4B00221A602F200138C046EF
:10845000C046C046C046C046C046C046C046C046EC
:10846000C046C046C046F1D1044B1A707047C046A2
:1084700000E100E000100140A8200020D0200020F2
:10848000F0B5304BA02100224900474680B45A5035
:10849000A22149005A50A42149005A50A62149005E
:1084A0005A50802149005A50822149005A50264A88
:1084B0001468601C37D0254A00269D58244B254A55
:1084C0001B68254FED1A2D022D0A904601E0621C13
:1084D0001AD0E3001B1938689B00C3185A68AA42D7
:1084E00012D84046AD1AB6181C6A9A69D969036851
:1084F000002B1BD0101C98470028E8D00022002138
:10850000FFF74EFF621CE4D1144B15491A780B7823
:108510009A420ED0134A9B009E5080218023124A1B
:1085200049035B00D15004BC9046F0BD081C904745
:10853000CDE7531CDBB2022B01D00B70EAE700231E
:108540000B70E7E700100140C02000200405000088
:10855000A8200020AC200020B0200020BC2000205B
:10856000BD200020C820002000E100E0F0B55F46FB
:1085700056464D464446F0B4BA48BB4BBB4900682A
:108580001A7809788BB00690914200D134E201321A
:10859000D2B2022A00D1FDE11A70B54B9200D25836
:1085A0000699039253181B02AE4A1B0A136001235B
:1085B0000793111CAF4EB04BB04FB14C36681B78CF
:1085C000B0483F68096824780268049602930197CE
:1085D00009910894B14605969B460020351C5B46E0
:1085E000013BDBB29B46FF2B72D05F460199FE0038
:1085F0008E1974783378A4466345F0D05C007768B0
:10860000E418B1780133DBB2E4003C19C91A4F1EFB
:10861000B941277849420B40022F15D0032F10D1C2
:10862000291C6C1C0DD0CC006118890051180875EC
:10863000096A4C1CF7D175788946AC460C1C251C80
:10864000DAE72C1C251CD7E76168CF007C18A40052
:10865000A418BA46277DA0462C1C002FEFD06F1C13
:1086600014D0A94200D183E19C462F1C0B1C00951D
:1086700002E0A34210D0271CF900C9198900511843
:108680000C6A651CF5D1009D63462C1C4546287577
:108690007778251CBC46AFE70C1C009D191C63466F
:1086A000A4468F4200D14FE154466718BF00D71946
:1086B0002C1C396A7D68674639624F1CE6D0CC00B5
:1086C0006118890051184C6865194D604C46DDE70A
:1086D000684F4E4605953E6009986249089D684C72
:1086E000079E08602570002E00D055E1059804997A
:1086F000431A5A1E9341DBB2069301235B429C4608
:108700005E4E604F3668574804965D4C594E3D6842
:10871000076824783668BB460021059F03940096BD
:108720008946029B013BDBB20293FF2B00D1ADE0F7
:10873000049CDB00E418A246644601343FD0664640
:10874000F4006444A4002C19216AA368E068E046A0
:108750008C465E469A1B4C491202120A8A4263D822
:108760001018606001214E4601204942A660E66073
:10877000207521627A1C6DD0F900C9198900691829
:10878000626848683E1C824208D855E0D900C91882
:10879000890069184868904259D21E1C0B6A121A47
:1087A000581CF3D12362F3009E19B600AE1941465E
:1087B00062603B1C31621F1C64460134BFD15646C7
:1087C000337872789A42ACD05A0056465446D21842
:1087D00064680133B178D200DBB2A21833709942D9
:1087E0003CD051683B1C884611780129E3D14346AF
:1087F000DC004444A4002C19217D3B1C0029DAD163
:108800009368A360D068E060166926615269E261EE
:10881000039A002A9DD000235E46A1609A1B1A4944
:108820001202120A8A429BD9F31A1B021B0A8342C4
:108830000AD2C01A606095E7821A4A6043462762EE
:10884000444600941F1CB7E74B4663608AE7801AD2
:108850004860A7E7434600931F1CADE748463070C9
:10886000BFE7C046A8200020BC200020BD2000207B
:10887000C8200020C0200020B4200020B820002004
:10888000C4200020B0200020FEFF7F000098634934
:10889000059A0860974200D16EE07C1C00D1BAE0D6
:1088A0005F4DFA002B68D719BF00DB195C685D4A81
:1088B0005D4B5E4E9A5831685D4D571A3F023F0A34
:1088C00028780337B846002821D18020D1264002DD
:1088D000B6009851C126B6009851C0275548802649
:1088E000B6027F00C6510660012018602F200138B3
:1088F000C046C046C046C046C046C046C046C04648
:10890000C046C046C046C046F1D101232B70434645
:10891000A34200D2231C5B181B024349A8201B0A58
:10892000C0000B503F489B1A09581B02891A0902C4
:10893000090A03311B0A994222D9802180233D4A2A
:1089400089025B00D1501BE0E900491989005118E8
:10895000271C096A4C1C02D089460C1CA9E6324C23
:108960000125A56089460C1C002108950991A0E607
:1089700047464146C446ECE7069B002B00D08CE7F7
:108980002D4C002323700BB03CBC90469946A24668
:10899000AB46F0BD0022FFE5214A012317685B4288
:1089A0004A46059D00240026181CBC461BE0EB002F
:1089B0005B199B0063445968039FB94222D87A1A15
:1089C00003921F6A1A6964185E601E75B846002A11
:1089D00007D00699186267183F023F0A9F60DA6065
:1089E000281C454642466B1CE1D10C4C05950125DF
:1089F00084462260069583E60024002503940795AB
:108A00000A49D7E5C91B8446044859600121026020
:108A10000595069174E6FFF7F5FCB1E7C02000204C
:108A2000B02000200405000000100140A820002014
:108A3000D020002000E100E0C4200020F0B557461F
:108A40004E464546E0B481468A4690461F1C0720A4
:108A5000990704D01CBC90469946A246F0BD002B55
:108A6000F8D0FFF7CFFC314B089A50461A60304BD4
:108A7000514618702F4B1F60002955D05146CA002F
:108A800053189B003C1C00250026243526702675B3
:108A900024349D42F9D152449200274BBF1803223F
:108AA0001A70264B391C1F6043465A004244183145
:108AB000D200796089188A18F9607A610121204A08
:108AC000494211601F4A002313701F4A3B70137004
:108AD0007B703B727B723B747B7480221B4BC0218A
:108AE000404652034900B870B872B8745A50C52154
:108AF00089005858FF24A043C024204358501A60CE
:108B0000A121134AC90048465050C42189005C582D
:108B100010482040C0242402204358500E4B00200F
:108B2000D2580E4B1A6095E70022B4E7AC20002023
:108B3000BE200020B0200020B4200020B82000205B
:108B4000C0200020BC200020BD20002000E100E06B
:108B500000100140FF00FFFF04050000A8200020D6
:108B6000F0B5174B94461C68002C1CD0002A18D076
:108B7000002816D0134B1E78002E10D02378002B1F
:108B800013D02434002307E0271C2434251C243D63
:108B90002D781A1C002D0AD00133B342F4DB0420D7
:108BA000F0BD0720FCE70820FAE7271C002201237C
:108BB0003B7063467970BB6102600020F0E7C046FD
:108BC000B0200020BE200020F0B5474680B43D4BC9
:108BD0001C68002C47D03C4B1D780723854203D8E6
:108BE000181C04BC9046F0BD0429F9D9C3001B1819
:108BF0009B00E41825780823012DF1D16378012B1F
:108C000033D000239846314B5C681023E405E40D13
:108C10002FD12F4C2668F6187378B4785D1C2C1B66
:108C2000671EBC41644225403478AC421FD05C00D2
:108C3000E4187368E4001C190423002CD0D001232D
:108C400023706060234B24484746C358E160A3600B
:108C5000626180218023214A5B004903276175708E
:108C6000D1500023BCE70823BAE78846CBE70423AA
:108C7000B6E7103CE3B25DB2002D13DBAD08C035A2
:108C8000164BAD00EB5803252C40E400E3401C06D6
:108C9000A40FE4B20023012CBBD00823032CB8D0CE
:108CA0001023B6E70F241C40083C0D4DA408A40077
:108CB0006419032564682B40AB40DC40E4B2A4098E
:108CC000E7E7C046B0200020BE20002000ED00E015
:108CD000B8200020040500000010014000E100E081
:108CE00018ED00E030B5334B1A68002A35D0324B0E
:108CF00019780723814201D8181C30BDC3001B1806
:108D00009B009A5C0823012AF6D12C4B5A68102349
:108D1000D205D20D25D12A4A1168C9184B788C7812
:108D20005A1C141B651EAC41644222400C789442CC
:108D300015D05C00E4184B68E4001C190423002CD7
:108D4000DAD002232370606080234A7080211D4A9C
:108D50005B004903D1500023CEE70823CCE704236E
:108D6000CAE7103AD1B24BB2002B13DB9908C031DD
:108D7000144B8900CB5803210A40D200D3401A0675
:108D8000920FD2B20023012AC5D00823032AC2D0F1
:108D90001023C0E70F230B40083B0B4A9B089B00A6
:108DA0009B185A68032319409940CA40D2B29209CD
:108DB000E7E7C046B0200020BE20002000ED00E024
:108DC000B820002000E100E018ED00E010B5204CD4
:108DD00084B02378DBB2002B0CD0022B0CD9032BF0
:108DE00008D11C4B012100222270D9605960A021BA
:108DF000C9005A5004B010BD17488268C3689A422F
:108E00001AD02378022B02D0124B01229A606946B5
:108E10000731FFF7E5FA00280ED10E4BC221802260
:108E200089005A506946C8790C495850022121706E
:108E3000C12189005A50DDE7064A0123D36002A808
:108E4000237003230370064B1B689847D2E7C04684
:108E5000E820002000200040D82000201C05000051
:108E6000D420002010B5244B84225200995882B09F
:108E7000002920D1204A8E235B00D158002915D12A
:108E80001D4B92225200995800290DD00021995073
:108E90009021C9005A5868465A50022369460B70FF
:108EA000164B01921B68984702B010BD0021D150AB
:108EB000FFF78CFFE4E700219950A322D2009958D4
:108EC0000F4CC9B2201CFFF777FA00280BD1A3681A
:108ED000E268D31A012BCDD1084B6A4610701B688B
:108EE00068469847C6E7012369460B70034B01901B
:108EF0001B6868469847BDE700200040D42000204A
:108F0000EC200020F0B500281FDB82081A4B9200ED
:108F1000D218C0B2C02303249B00FF250440E40004
:108F2000D6582F1CA7408901BE430D40A540341CD4
:108F30002C43D4501F23184001238340181CC02207
:108F40000D4B520098501860F0BDC0B20F23034083
:108F5000083B0A4A9B089B009B180322FF240240FF
:108F6000D200DE69251C95408901AE430C40944037
:108F7000321C2243DA61DDE700E100E000ED00E0B1
:108F800038B5194C08202378002B00D038BD0125B6
:108F90006D42201C291C20222C30FFF709F94C239C
:108FA000E554FF224D23E2544E23E5544F23E5546C
:108FB0005023E554062051230121E5546560A56046
:108FC000E56025616561A561E56125626562A5626F
:108FD000FFF798FF8021C123044A9B000906D15066
:108FE000012323700020D1E7FC2000200060004016
:108FF000024B1878431E9841C0B27047FC200020F5
:10900000F0B5454657464E46E0B46B4B041C181865
:109010002830057908207F2D04D81CBC904699463D
:10902000A246F0BDC878824600286CD10425AC4623
:1090300004200A258700B9469846C8444646776802
:1090400001376AD0461CB046B5425AD9B600B4467C
:109050009C446646776801375AD0861CB046B542B4
:109060004FD9B600B4469C446646776801374FD066
:10907000C61CB046B54244D9B600B4469C446646C8
:109080007768013744D0061DB046B54239D9B600DD
:10909000B4469C4466467768013739D0461DB046D1
:1090A000B5422ED9B600B4469C446646776801376F
:1090B0002ED0861DB046B54223D9B600B4469C4496
:1090C00066467768013723D0C61DB046B54218D929
:1090D000B600B4469C4466467768013718D0082627
:1090E0003618B046B5420CD9B600B4469C44664624
:1090F000776801370CD00930854202D9986A01306F
:109100003ED0042089E70026B4460020042591E7DC
:109110004046C6B28700B446B9461D192E1C2836F3
:1091200065464F463571DE1972605246002A02D1FB
:109130001818443004718A78002A16D1E0264D7838
:109140007600A019A022AD008000D2058550CA7813
:10915000002A17D165466AB29B1844330A781979F8
:1091600092010A431A71002057E7A025ED05A000DF
:10917000E0224019D20085580226B5438550E6E723
:109180000920C6E767460D487AB29200A22312185A
:10919000DB00D0580D780A4924020140F820400134
:1091A0000440C020D1502D048002D15828400443EF
:1091B0000C43D450002030E7FC2000200060004029
:1091C000FFE0FCFF30B5224C231828331A7953B244
:1091D000032B17DDE31844331B799B09032B2AD09B
:1091E000012B31D0C0229202A023DB058000C018E1
:1091F000E023DB00C45817492140C150C1580A433D
:10920000C25030BD032AFCD8134A98008018A2220D
:10921000D2008558012425438550181C4030800019
:109220000D4A80B2002585500029EAD0C1219C401A
:1092300089005450E5E7A223A022DB00D205D258D2
:10924000012383401A42CDD180229202CCE7C0464E
:10925000FC200020FFFFFCFF00600040A223A022B2
:10926000D205DB00D358C340181C012318407047B7
:10927000F0B544465F4656464D46F0B4874A85B041
:1092800013680024012B6AD0854B1968012900D18D
:1092900073E0844B1A68012A00D17EE0824B196882
:1092A000012900D189E0814B0022196890460129EB
:1092B00000D194E022070BD0E30700D5A6E0A10778
:1092C00000D5B2E0620700D5BDE0230700D591E0EC
:1092D000002C06DB05B03CBC90469946A246AB4646
:1092E000F0BD734DE0232C1C2F1CDB004C34523797
:1092F000C026AA46994606E05B46032B00D1B2E0A1
:109300000134BC42E6D02178081CB0432B18283326
:109310001B795BB2032BF3DD9B0053445B68009326
:10932000002BEDD089090291A0218200C9055118B6
:109330004A468B58019101229903890F131C8B46D1
:10934000834041461942D7D05A46022AD8D10299C1
:10935000032900D19EE00299009A9047D0E7C121ED
:109360005448890041580B4200D18DE74C4B1460A2
:1093700019680124012900D08BE7C1224D499200D0
:10938000895802220A4200D183E700211960454B27
:1093900014431A68012A00D080E7C122454992008F
:1093A000895804220A4200D178E7002119603E4B17
:1093B00014431968012900D075E7C1223D49920084
:1093C000895808220A4200D16DE700211960374B05
:1093D0001443196800229046012900D06AE71A60F8
:1093E00080231B061C43A022A223DB00D205D158F8
:1093F00088465FE72F4A304BD058D1582C4BC004D9
:109400008903C00E890F1B69984761E7294AA22387
:10941000DB00D058D158264BC0048903890FC00EF9
:109420005B689847A10700D44CE7224A234BD058E9
:10943000D1581F4BC0048903C00E890F9B68984701
:10944000620700D441E71B4AA323DB00D058D15860
:10945000174BC0048903DB68C00E890F98472307A8
:1094600000D435E7C6E7029B032B00D073E7022147
:109470000391019B49465A58114B111C1940019BFD
:109480004A4699509958039A4B4612040A43019947
:10949000CA5060E7029A0392EBE7C04600610040C1
:1094A00004610040086100400C6100407C610040A4
:1094B000FC200020006000401C0500001405000096
:1094C000FFFFFCFF29DF704728DF7047F8B54F46E4
:1094D0004646C0B46F4C814625788846161C1F1C32
:1094E000002D15D1131C3B4319D102232370404694
:1094F000FFF7EAFF002835D1002E00D0C6E0002F8C
:1095000000D0B8E049460B78042B00D0AEE049E02B
:10951000062D00D9ADE0604BAD005B599F4601239D
:1095200023705E4B586980235B05411C00D1A5E088
:1095300019690904090C03F05FFB80235B051D69B1
:1095400019691A69431E2804000C09045843090CC0
:10955000434692B259439208FFF7B4FF002801D165
:10956000022323700CBC90469946F8BD4B4B5869BA
:1095700080235B05411C00D186E019690904090CB0
:1095800003F03AFB80235B051A691969431E100436
:10959000000C09045843090C03F02EFBFFF794FF5D
:1095A0000028DFD107232370DCE780235B051869DF
:1095B00093000004000C484318184B465A88196958
:1095C0009208FFF77FFF0028CCD13E43EAD0062364
:1095D0002370C7E780235B051D69304A2D0450695D
:1095E0002D0C4D43411C4DD019690904090C03F0A1
:1095F00003FB80235B05196901380904090C414309
:10960000321C281CFFF75EFF0028ABD1002F32D19F
:109610004A461378042B29D1D9E780235B051A69C0
:1096200041461204120C4A434588B6005219921959
:1096300090461A4A5069421C22D019690904090C43
:1096400003F0DAFA80235B05196901380904090C73
:1096500041437619711840463A1CFFF733FF002842
:1096600000D07FE749460B78042BB0D00523237048
:1096700078E7032076E70423237073E758695CE7F3
:109680005869DFE75869B4E758697BE7032323701B
:1096900068E7C04635220020F8CC01000010001019
:1096A000F8B5384D2B789A00D3189B00EB181C1D89
:1096B0001B79E668042B38D0052B14D00F20022B21
:1096C00000D0F8BD304B20691B8862889B02C1180E
:1096D000A088D21A8619F0182C4B9A423AD89208D0
:1096E000FFF7F0FE1CE080277F053969301C090474
:1096F000090C03F081FAA388011C9E193A693B69A1
:109700001204120C1B04481C4A431B0C4343608880
:10971000B21A86199B1B92089B08201CFFF7D6FEE5
:109720000028CED10123AB70CBE7A2681849130102
:10973000CB18198958895B68B34210D0022A12D01D
:1097400080277F053969301C0904090C03F054FA9D
:10975000011CD3E780225200FFF7B4FEE0E741434B
:1097600063889942EAD180235B051969301C09049A
:10977000090C03F041FA044B1B88C018FFF7A4FE44
:10978000CEE7C0465021002036220020FF03000013
:109790001C220020F8B506AC2488071CA446144CF3
:1097A000042066780A2E1BD025787519EDB2092D94
:1097B00001D90A3DEDB2A8004519AD006519002098
:1097C0006A612A1C68712F710C3281C981C260469E
:1097D0002881EB80A3780020002B02D00136667030
:1097E000F8BDFFF75DFF66781128F7D10020F5E797
:1097F00050210020F0B544465F4656464D46F0B431
:10980000634C85B0A378002B27D0624B00221978D7
:10981000A270082928D0022844D003281DD123781B
:109820009A00D3189B00E418251D6B780133DBB236
:109830006B70032B00D19DE0FFF732FF021E0CD0AE
:1098400011280AD0AB68201C21796C881E012B6975
:109850000094514C0C303459A04705B03CBC9046A4
:109860009946A246AB46F0BD022800D04B4B1A7079
:109870006378002BF1D0FFF713FF021EEDD0112803
:10988000EBD023789900CB189B00E418E768217986
:109890006369201CE4883E0100943F4C0C3034592D
:1098A000A047DAE72578A8004619B600A61902965F
:1098B000321C3B4E834637880120B8468044B2466E
:1098C0004646B6B25746B0463E80029E04323679CE
:1098D000022E42D0052E3AD0042E3AD1072906D0C6
:1098E000568840468002B04228DB002926D100215C
:1098F0001970534619806378013B63706B1CDBB2AF
:10990000092B01D92B1C093B237096681369101C85
:10991000029F5288397900921F4A36010830B658A2
:109920000022B047584643199B00E318002201204B
:109930001A71DA80D8601A615A611A816378002B33
:1099400000D18AE7A378002B00D086E793E70729A8
:10995000CDD000210029F1D0C9E750884746BF0289
:109960000390B846039E4146FF17C00FB1424741DE
:10997000391CEFE7A9686A880E012B6921790092EA
:10998000054A201C0C30B4580D22A04765E7C0469C
:1099900050210020352200201C22002034220020EB
:1099A0003622002010B5554C00222C202254402095
:1099B0000023225442202352442023525049542051
:1099C000225456200B8023520121582022706270AD
:1099D000A2702271E3802361636123812276638315
:1099E0006362A362A383E385A363E3632386E364E3
:1099F0002365E16021626163A164E165235268200F
:109A000022546A2023526C2023527C2022547E2030
:109A1000235284202150882023508C2023508020E2
:109A200023529020225492202352982021509C208F
:109A30002350A020235094202352A4202254A62057
:109A40002352AC202150B0202350B4202350A82012
:109A50002352B8202254BA22A352C022A150C422B9
:109A6000A350C822A350BC22A352264A2366636691
:109A70006367A36721671380234B5869431C36D063
:109A800080235B0519690904090C03F0B5F88021EE
:109A900049050A69831E1004000C58431B4B002221
:109AA00018601B4B1A601A819A815A81194B08223F
:109AB0001A70154B5869431C1DD009690904090C1B
:109AC00003F09AF880235B051A691969431E100494
:109AD000000C09045843090C03F08EF8FFF7F4FC5E
:109AE000002803D10C4A0123A370137010BD8023FA
:109AF0005B055869CBE74869E4E7C0465021002080
:109B0000362200202C2200200010001030220020DD
:109B10001C2200203522002034220020F8B55646B1
:109B20004D4644465F46F0B4454B051C1B780E1C61
:109B30000824002B06D1201C3CBC90469946A24626
:109B4000AB46F8BD002873D0002971D00168002908
:109B50006ED080235B051A69878892B207249742EA
:109B6000E9D80F2FE7D9C288002AE4D07A43924679
:109B7000344AD34611689146334A88465069C344F3
:109B8000421C57D019690904090C03F035F88023E9
:109B90005B051A69411E1204120C4A4307249345BF
:109BA000C9D81A6992B2524507DA1869391C80B2CD
:109BB00003F066F889B20029BDD10724BB07BAD1EA
:109BC000224904248C4609880129B4D04346204FF9
:109BD000736031600E01BB1942465A602A684446E0
:109BE000BA51AA881A81E88858814243802000230C
:109BF000400509E005692D042D0C521B05692D0453
:109C00002D0C6419002A17D005690133ADB29BB23F
:109C10009542EFD380225205126992B2A4184A46A7
:109C20001460BE19B381013163461980002482E7B4
:109C30000E2480E75869AAE74A461460F1E7C04657
:109C40003422002030220020001000102C2200209E
:109C50001C22002030B5114B1C780823002C01D1A8
:109C6000181C30BD002806D0002A04D00368002B41
:109C700003D00723F4E70E23F2E7094C2568002DF3
:109C8000F7D02589406869430918608945436068B1
:109C90002D18A942EDD213605160E1E73422002073
:109CA0001C220020F0B5474680B41E4C051C2478C9
:109CB00082B00E1C171C0820002C03D102B004BC7B
:109CC0009046F0BD00292BD0002D29D0296807200F
:109CD0000029F3D1144A1468002CEFD06968548924
:109CE0008846118952684C43A44662449045E5D2A7
:109CF000002FE3D0B942E1D3FA189142DEDB102005
:109D0000B107DBD103221342D8D144461442D5D146
:109D10000093291C321C3B1C0220FFF73BFDCDE7C2
:109D20000E20CBE7342200201C220020F0B547464D
:109D300080B41E4C051C247882B00E1C171C082011
:109D4000002C03D102B004BC9046F0BD00292BD0FA
:109D5000002D29D0296807200029F3D1144A14685E
:109D6000002CEFD0696854898846118952684C43A9
:109D7000A44662449045E5D2002FE3D0B942E1D336
:109D8000FA189142DEDB1020B107DBD10322134227
:109D9000D8D144461442D5D10093291C321C3B1C17
:109DA0000520FFF7F7FCCDE70E20CBE7342200209B
:109DB0001C220020F0B5454657464E46E0B4264CDE
:109DC00082B02578071C0E1C90460824002D06D171
:109DD000201C02B01CBC90469946A246F0BD00294A
:109DE00006D0002804D00C68002C03D00724EFE72D
:109DF0000E24EDE7194D28680028F7D02A896889D4
:109E0000496850438446686884446145EED24046C0
:109E10000028EBD04245E9D39C46C4446245E5DBCB
:109E2000BA0701D01024D3E703208146021C034265
:109E3000F8D10A409246F5D159184246381C02F032
:109E40003AFF3068424603010092ED58301C494603
:109E500052463B1CA847BBE7342200201C220020AE
:109E600070B5174A041C127882B00D1C0820002A15
:109E700001D102B070BD002C20D022680720002A3A
:109E8000F7D1104B1A68002AF3D05E6819895B89F4
:109E900062684B439B199A42EBD210209307E8D19A
:109EA000901B02F0EDFE07200029E2D10091002274
:109EB000211C2B1C0420FFF76DFCDAE70E20D8E7ED
:109EC000342200201C220020074B1A780823002A85
:109ED00001D1181C7047002804D0044B5B78036044
:109EE0000023F6E70E23F4E734220020502100205F
:109EF00010B5074AA023DB05995880221203141CD1
:109F0000A1208C43C0001C5002480A401A5010BDCA
:109F1000040500000C050000F8B5041E072C00D055
:109F2000F8BD01290ED0002915D00229F8D1174B10
:109F30005D78002DF4D0164B1B68002BF0D0281C48
:109F40009847EDE7114E73783578002B0ED1B27833
:109F5000104B1A70EDE7104B1868FEF7C3FE0B4B61
:109F60000C4A9B7815789D42DAD1E2E70A4B0B4FF9
:109F700018680B4B3A1C1B689900CB185900FEF768
:109F800023FE0028E3D13C70E1E7C04658220020C0
:109F90004C220020382200204022002050220020A5
:109FA00044220020F8B5864B1B68DA0700D4F8BDC0
:109FB000844B1C78172CFAD88349A2008A589746FC
:109FC0008248A023A1218024DB050022C9002403AC
:109FD0005A501A501C505A50E9E77D4D2868FEF738
:109FE00081FE11231C1B49D0002847D1012C0CD025
:109FF000C8206421604302F0FFFD764B2D6819688C
:10A0000000224143281CFEF7DFFD704AA023802177
:10A01000DB0509039950A1220021D2009950C6E71F
:10A020006D4AA023DB05995880221203141CA1203D
:10A03000C0008C431C5065480A401A50674B0022F0
:10A040001868644B1968FEF7BFFDB0E7624AA023A9
:10A05000DB05995880221203141CA1208C43C000F8
:10A060001C505A480A401A505C4B00221868594B41
:10A070001B689900C918FEF7A7FD98E7A023802167
:10A08000A122DB050903D2009950504A00219950C2
:10A090008DE7A022A1204D4DD20500214E4EC000DB
:10A0A0001150515197598026360337406FD11650C1
:10A0B00057512822022C67D01C7012E0A022A12048
:10A0C000424CD2050021444DC00011501151565947
:10A0D00080252D032E4062D11550032116510822F0
:10A0E00019703E4B18683B4B196851430022FEF72C
:10A0F0006BFD5CE7A023A121DB050022C9005A50BB
:10A1000032495A5053E7A022A120304CD2050021F9
:10A11000314DC00011501151565980252D032E404C
:10A120004AD11550165106221A7087E7A022A120A5
:10A13000264CD2050021284DC0001150115156590E
:10A1400080252D032E4032D115500421165128228E
:10A15000C6E7A022A1201D4CD20500211E4DC00043
:10A1600011501151565980252D032E401CD11550E8
:10A17000165105221A70194B00221868154B1968E0
:10A180004900FEF721FD12E712221C70A9E7565183
:10A1900011500422022C8FD102221C70A1E715510C
:10A1A0001150022203219BE715511150E1E715518F
:10A1B00011500422042193E715511150B3E7C04612
:10A1C0003C2200205122002014CD01000C0500008B
:10A1D00048220020442200200405000054220020D0
:10A1E00008B50378072B00D008BD054B5878002828
:10A1F000FAD0044B1B68002BF6D09847F4E7C04612
:10A20000582200204C2200200023002807D1A2233E
:10A21000A022DB00D205D358DB431B06DB0F002056
:10A220000B70704770B5BA4B041C1B680020DA072E
:10A2300000D470BD172CFCD8B64AA300D3589F4653
:10A24000B54AA023DB05995880221203141CA120D3
:10A250008C43C0001C50B1480A401A50B04B002239
:10A260001868B04B1B689900C918FEF7ADFCE0E711
:10A27000A94AA023DB05995880221203141CA120AF
:10A28000C0008C431C50A5480A401A50A44B002221
:10A290001868A44B1968FEF797FCCAE7A24D286816
:10A2A000FEF720FD11231C1B00D10DE1002800D07A
:10A2B0000AE1012C0CD0C8206421604302F09CFC10
:10A2C000984B2D68196800224143281CFEF77CFC3E
:10A2D000924AA0238021DB0509039950A122002185
:10A2E000D2009950A5E7A0238021A122DB05090314
:10A2F000D2009950894A002199508C4B12221A7031
:10A30000002096E78548A023A1218024DB050022B8
:10A31000C90024035A501A501C505A50834B132220
:10A320001A70002085E77D4AA0238021DB05090300
:10A330009950A1220021D20099507C4B00201C7022
:10A3400077E7A022A121D2050023C9005350734909
:10A3500000205350754A13706BE7A023A1216F486A
:10A36000DB0500226C4DC9005A501A505E598025F9
:10A370002D032E4000D0BAE05D501E502823022C41
:10A3800000D1C3E0694A1470654A1068654A1168D3
:10A3900000225943FEF718FC4BE7604AA0238021B6
:10A3A000DB0509039950A1220021D2009950002019
:10A3B0003FE75A48A023A1218024DB050022C900E1
:10A3C00024035A501A501C505A50584B14221A70D9
:10A3D00000202EE7A023A1215048DB0500224E4C8F
:10A3E000C9005A501A501D5980242403254076D1A3
:10A3F0005C501D500321082311E0A023A1214748F0
:10A40000DB050022444CC9005A501A501D598024C3
:10A410002403254073D15C501D5028230421434A56
:10A420001170B1E73D48A023A1218024DB05002263
:10A43000C90024035A501A501C505A503B4B072253
:10A440001A700020F5E63548A023A1218024DB0501
:10A450000022C90024035A501A501C505A50334B42
:10A4600015221A700020E4E6A023A1212B48DB0569
:10A470000022294CC9005A501A501D598024240327
:10A48000254031D15C501D50284B05221A70244BB9
:10A4900000221868234B19684900FEF795FBC8E6AF
:10A4A000A023A1211D48DB0500221B4CC9005A50E6
:10A4B0001A501D5980242403254024D15C501D507E
:10A4C0001A4B06221A70E1E6A0238021A122DB05A7
:10A4D0000903D2009950114A00219950A9E61C5055
:10A4E0005A50022303219AE71C505A50CCE71D50C2
:10A4F0005A500423022C00D044E7022342E71C50A8
:10A500005A5004238AE71C505A50D9E7122339E7DE
:10A510003C22002074CD0100040500000C05000061
:10A5200054220020442200204822002051220020F2
:10A5300038B51E4B051C19601D4B18601D4B0020C3
:10A540001A60AB0711D4EB070CD5A0238022A12100
:10A55000DB051203C9005A50174900245C50A3219F
:10A56000C9005A50002814D038BD144B0D244A0895
:10A570001C7013480121FDF7A5FE0028E3D1FDF76B
:10A58000F7FE0028DFD100210E4A0F48FEF7E8FA57
:10A59000D9E70E4800210E4AFEF7E2FA0028E3D17F
:10A5A00001210C4A0C48FEF7DBFADDE744220020CB
:10A5B0003C2200204C2200200C05000058220020E4
:10A5C000D4CD0100E1A1010040220020542200204E
:10A5D000A59F0100F19E01004822002007230028CA
:10A5E00001D0181C7047012A0DD0012912D0002972
:10A5F00005D002290BD1094B5A700023F1E7074B14
:10A600009A700023EDE7012903D00022EDE707232C
:10A61000E7E70D22014B1A700023E2E758220020E1
:10A62000084BA022D205D2580123184001D0C020E7
:10A630008002054B13401843A022024BD205D05094
:10A64000002070471C070000FFFFFCFF08B5032037
:10A65000FFF7E6FF031C0020002B04D0981F421ECA
:10A6600090414042184008BD10B50388102B08D017
:10A67000112B05D1294A1368013B1360002B07D029
:10A6800010BD264C2368002B11D001332360F7E75F
:10A69000002002210122FFF7A1FF00282BD007286C
:10A6A00029D01F4B1B68002BEAD09847E8E7002011
:10A6B00000210122FFF792FF002808D0072806D0CA
:10A6C000174B1B68002B00D098472368DDE701205B
:10A6D00002210722FFF782FF002801D00728EFD1CF
:10A6E000002002210422FFF779FF0028EDD007287F
:10A6F000E6D12368C9E7012002210722FFF76EFF98
:10A70000002801D00728CCD1002000210A22FFF721
:10A7100065FF0028B4D00728C3D1B1E7602200202C
:10A720005C22002010B5234B84B00C1C186016D09E
:10A7300000206946FFF768FD002801D004B010BD75
:10A74000012002A9FFF760FD0028F7D16A46137ABD
:10A75000002B29D16A461378002B28D12370164B81
:10A7600000201B68002BE9D102210122FFF736FFF0
:10A77000002801D00728E1D1012002210722FFF79C
:10A780002DFF002801D00728D8D1002000210A225F
:10A79000FFF724FF031C0020002BCFD0D81F421E40
:10A7A000904140421840C9E702232370D7E70B23AA
:10A7B0002370D4E75C2200206022002076DF7047FF
:10A7C0007ADF70477CDF7047A0DF7047A2DF7047F9
:10A7D000A6DF704760DF704763DF70473CDF70477C
:10A7E00048DF704710B5041CFFF704F8201C01F087
:10A7F000FBF810BD10B5041C01F0C8FD201CFFF7CC
:10A8000033FF2388112B22D0502B12D0102B03D0D2
:10A81000201C01F077F810BDA288174B07201A8082
:10A82000FFF700FD0028F3D000210022FDF7B8FD5E
:10A83000EEE7124BE2889B889A42E9D1E38B022B28
:10A84000E6D10A20FFF7EEFC0028E1D0ECE7012278
:10A85000094B524200201A80FFF7E4FC002805D182
:10A860001120FFF7DFFC0028D2D0DDE70021002215
:10A87000FDF796FDF4E7C046602000201C2500206F
:10A8800008B50B78112B07D0122B03D10122094BED
:10A8900052421A80002008BD4B6807201A88054BD9
:10A8A0001A80FFF7BFFC0028F4D000210022FDF73A
:10A8B00077FDEFE76020002070B586B00A283FD012
:10A8C0000D2811D0042801D006B070BD2E4B1321E5
:10A8D0001888FFF773FF0823021C9A43F4D0002165
:10A8E0000022FDF75DFDEFE7274E284B32889A42A4
:10A8F000EAD0274D6A46012313802B7802AC5A42D6
:10A9000053410021201C10222B70FDF751FC214BDC
:10A9100030881B88211C23800123A3700023A3807F
:10A9200000ABA360E560FFF753FF002826D12B782A
:10A93000002B1DD11120FFF775FC0028C4D0CEE7F5
:10A940000020FFF76FFC00280DD1FFF77FFE0028E5
:10A9500004D1FFF743FF0028B6D0C0E70021002252
:10A96000FDF71EFDF5E700210022FDF719FDECE7DC
:10A970001020FFF757FC0028A6D0B0E700210022E6
:10A98000FDF70EFDD3E7C04660200020FFFF00006A
:10A99000192500201C25002008B5002806D0022813
:10A9A00003D1FFF73FFC00280DD108BD0020FFF7C1
:10A9B00039FC00280CD1FFF749FE00280DD1FFF724
:10A9C0000DFF0028F1D000210022FDF7E9FCECE7A3
:10A9D00000210022FDF7E4FCEDE700210022FDF755
:10A9E000DFFCECE708B5031C0A1C0248191CFDF744
:10A9F000D7FC08BDEFBEADDEF0B55F4656464D460E
:10AA00004446F0B40023A1B00093002004210522A5
:10AA1000D14BFEF713F8002803D000210022FDF7E8
:10AA2000BFFC0320CD49CE4AFFF782FD002803D0AA
:10AA300000210022FDF7B4FC14AC0020211CFFF71C
:10AA400071FE002803D000210022FDF7A9FC267822
:10AA50000820023E73425E41C24948220023F6B2FA
:10AA600002F052F8002803D000210022FDF798FCE4
:10AA70000822201C0021FDF79BFB23780122934331
:10AA8000201C2370FFF7A6FE002803D0002100221F
:10AA9000FDF786FCB44802F05DF8002803D00021E1
:10AAA0000022FDF77DFCB14802F05EF8002803D0DB
:10AAB00000210022FDF774FC0CAD2E70FEF772FF32
:10AAC000002803D000210022FDF76AFC281C01F0B9
:10AAD00055FB002803D000210022FDF761FC6279BC
:10AAE00001231A43E1231A400C231A43CD231340B8
:10AAF00063710723A3711023E3719D4B9D48149349
:10AB0000211C0123237101F0DBFB002803D000216D
:10AB10000022FDF745FC29780F23994301220A43BF
:10AB2000954E134010221343301C2B7002F0CCF8CA
:10AB3000311C82B2281CFFF745FE002803D00021FB
:10AB40000022FDF72DFC0822201C0021FDF730FB20
:10AB5000C8229200C8235B006280201C0022238050
:10AB6000A280E380FFF72CFE002803D00021002202
:10AB7000FDF716FC00213022201CFDF719FB0223F3
:10AB8000237006230122E3700023AB60A2702A72B7
:10AB90005022EA60B4226B606B61AB61EB612A61A9
:10ABA0000C930093201C00212A1C744B00F0DCFC49
:10ABB000002803D000210022FDF7F2FB704908A80D
:10ABC000102202F078F86F4F08A8391CFFF704FE36
:10ABD000002803D000210022FDF7E2FB3B7806AEFF
:10ABE000B3706A46684B0120311C0A323380FFF78C
:10ABF000EBFD002803D000210022FDF7D1FB634BC1
:10AC000000211422281C03AF3380FDF7D1FA012262
:10AC10005F4B9346AA812A81381C002103220C969F
:10AC20006F602B61FDF7C4FA3B7801220F26904636
:10AC3000B343424613431022914633404A461343DE
:10AC40003B707B784246B343134333402022134387
:10AC50007B70BB78062293430222924652461343EE
:10AC6000DBB25A469343BB7004AF381C0021032269
:10AC7000FDF79EFA3B784246B343134333404A46BE
:10AC800013433B707B784246B34313433340202247
:10AC900013437B70BB780622934352461343002133
:10ACA0001C22201CBB70FDF783FA22784B461A4306
:10ACB000D2B220231A43D2B253461A430823134375
:10ACC00023706378524613436370324B6761181CDC
:10ACD00005AF9B466360276101F0F6FFC0B260815B
:10ACE000584601F0F1FFC0B2208100210322381C38
:10ACF000FDF75EFABB780622934352461343424661
:10AD00001343BB703B780020B343134333404A46A0
:10AD100013433B707B784246B34313431E404B467C
:10AD20001E43211C2A1C1C4B7E70FFF74FFD002880
:10AD300003D000210022FDF733FB022000F0D4FCF9
:10AD4000002803D1FFF74CFD0028FBD00021002292
:10AD5000FDF726FBF6E7C046B0220020CD0C000030
:10AD6000B9A8010068220020F5A70100E5A70100AD
:10AD700081A8010018250020ECCD010099A901004F
:10AD8000DCCD0100642200200190FFFF0A90FFFF4C
:10AD900024250020642000201C25002072DF70473D
:10ADA00079DF70477DDF704765DF7047F0B55F463C
:10ADB00056464D464446F0B483B00C9F8A469946A9
:10ADC00039780388051C161C8B46002B3CD00022CA
:10ADD0009046002403E02B880134A3422ADD6B68EF
:10ADE000A1005918042201A801F065FF01A86946D5
:10ADF0000022FFF7D9FF002827D169460B78B3421C
:10AE0000E9D14246002A27D03A7893191F2B30DC2B
:10AE10004A4401A86946FFF7C7FF002815D16946D3
:10AE20003A780B780134D3183B702B880122904676
:10AE3000A342D4DC4346002B06D03B785946013B65
:10AE40004A465B1A5A441370002003B03CBC90463B
:10AE50009946A246AB46F0BD3B789A191D2A08DCFC
:10AE60009A1C01333A70DBB252464946CA543A78CA
:10AE7000CEE70C20E9E7C046F0B556464D464446BD
:10AE80005F46F0B49BB00023041C04AD68460E1C62
:10AE90002B700376002C00D1BFE0E378590700D473
:10AEA000A3E02378002B00D0E4E0A278002A00D0B1
:10AEB0000AE1E278002A00D09FE06268002A0FD001
:10AEC00012781C2B00DDD3E00AAF0221F954591C83
:10AED000C9B20A207854D91C0233DBB22970FA5463
:10AEE0002389002B00D0BAE1238A002B00D046E250
:10AEF000238B002B00D05BE2236A002B40D02A7802
:10AF00000C20971DBA461F2F70D8198807200529D5
:10AF10006CD97D4F7F18BFB2B8467C4FBC46B84550
:10AF200064D95F88B846052F60D9774FB946C144C8
:10AF30004F46BFB2674559D9754FB94203D0B8459E
:10AF400001D0414552D80AAF0520B854901CC0B278
:10AF500028708146501CC1B21220785419880432DE
:10AF60008C4649467818614601706146090A41706D
:10AF70005B88D2B2BF183B7052461B0A7B702A70A6
:10AF8000606A8046002828D001792B788F1C9A1C93
:10AF9000FFB2D7190C201F2F28DC0AAF0331F95458
:10AFA000591CD2B2C9B2FF2078542A704046018899
:10AFB000BA1804331170DBB2090A51702B70828801
:10AFC000002A0AD0816800290FD0F81801F073FE1A
:10AFD00041468A882B78D3182B702C23E15C0AAF6A
:10AFE000002900D06FE1B94619E007201BB03CBC36
:10AFF00090469946A246AB46F0BD0AAF0221F954ED
:10B00000991CC9B2581C8846C0B201210333395477
:10B01000DBB240462B703A544FE70024A146002E85
:10B0200000D128E2F478002CDFD16B461C7633780F
:10B03000002B00D0D5E1B378002B00D0FBE1F378F2
:10B04000002B0FD012A880460222611C02554746F1
:10B05000A21C0120C9B203347854D2B2E4B26846CB
:10B060000476BB547368002B63D01B781C2C51DD15
:10B070000C20BBE763780C201D2BB7DC12AA6846B6
:10B080001D232A30111C9046171C1380FFF78AFEDF
:10B090000028ABD12378022B00D157E26378002B34
:10B0A00002D008221D2B02D9404603880822DBB2B9
:10B0B000591C0AAF3970694629310A702A78023260
:10B0C0009B18DBB22B70F0E60C201B2B00DD8DE70C
:10B0D00012A9081C8846FFF763FE002800D085E708
:10B0E0002B780AAF0322FA545A1CD2B21921B95450
:10B0F0004046991C0288C9B27F1804333A70DBB20B
:10B10000120A7A702B70D4E67FF3FFFF7DF3000004
:10B11000FFFF000012A902220A558846621CD2B223
:10B1200047460A21B954E21C02346846E4B202766A
:10B130003B553389002B00D0AAE0338A002B00D086
:10B1400003E1338B002B00D099E1336A002B46D00A
:10B150006846027E0C20911D1F2900D946E71C88F5
:10B160000720052C00D841E7DA4F3F19BFB2BC4693
:10B17000D94FBA46BC4500D838E75F88BC46052F92
:10B1800000D833E7D34FB846E0444746BFB25745EF
:10B1900000D82BE7D14FBC4204D0BC4502D0644557
:10B1A00000D923E712AC0520A054A046541CE4B2F9
:10B1B000901CC0B26F46A4464446387664441227B9
:10B1C00027701C8840440470240A44705888131D5A
:10B1D000DBB2434418706F46000A58703976746ABF
:10B1E000002C2DD068462179037E8F1C9A1CFFB25B
:10B1F000D7190C201F2F00DDF8E612AF0331F954E8
:10B20000D2B26846591C0276C9B2FF207854218810
:10B21000B846424411700433090A5170DBB26946E2
:10B220000B76A288002A0BD0A168002900D1DCE6A9
:10B23000F81801F040FDA2886C46237ED3182376CF
:10B240002C23F05C002800D034E1684612A9037E6C
:10B250008846424629784846FFF7A0FDC6E6082101
:10B2600009190AAF8846081C0095022102223B1CDE
:10B27000FFF79CFD002800D0B8E600954046062167
:10B2800010223B1CFFF792FD002800D12CE6ADE612
:10B2900012A9341C884606AA08340092201C0221F8
:10B2A00002224346FFF782FD002800D09EE606AB4F
:10B2B0000093201C062110224346FFF777FD00284B
:10B2C00000D13AE792E6A36A002B00D18DE6002276
:10B2D0008C46904616212C2228788A46934600E018
:10B2E000A36A41464A00424492009B1899469B88B3
:10B2F000421C03333B54831CDBB2D2B25146B954D7
:10B300002B7049460A88FB1804301A70C0B2120A22
:10B310005A7028708A88002A0FD08968002900D1C5
:10B3200063E6381801F0C7FC4A462B789088C018AD
:10B330005B46E35CC0B228709C4643460133DBB2F7
:10B3400098466345CCD3B94669E6341C06A8103448
:10B3500012AF00900321201C02223B1CFFF726FDA8
:10B36000002800D042E606A90091201C07211022E7
:10B370003B1CFFF71BFD002800D1E2E636E6102259
:10B3800012190AAF9046101C0095032102223B1CA3
:10B39000FFF70CFD002800D028E600954046072165
:10B3A00010223B1CFFF702FD002800D1A0E51DE69E
:10B3B00018231B190AAF9846181C00951421022265
:10B3C0003B1CFFF7F3FC002800D00FE60095404639
:10B3D000152110223B1CFFF7E9FC002800D18BE56A
:10B3E00004E673780C201D2B00DDFFE508AC6846F1
:10B3F0001D234A30211C2380FFF7D4FC002800D0F5
:10B40000F4E53378022B00D1A6E07378002B02D04C
:10B4100008221D2B01D9238808226846047EDBB24E
:10B42000591C023412AF39701B1969464931DCB21C
:10B430000A700476FFE50C201B2C00DDD6E508A879
:10B44000FFF7AEFC002800D0D0E569460C7E12AABA
:10B45000032313559046631CDBB219224746FA5466
:10B46000A31C0A8CDBB2434404341A70E4B2120AFF
:10B470005A700C76E3E56A46137E0022EAE612AAC9
:10B48000341C904606AB18340093201C1421022271
:10B490004346FFF78BFC002800D0A7E506AF0097D6
:10B4A000201C152110224346FFF780FC002800D104
:10B4B0004BE69BE5B26A002A00D196E56F463B7EDB
:10B4C0000390162112A82C27002480468A46BB46EA
:10B4D00007E0C0467FF3FFFF7DF30000FFFF0000A1
:10B4E000B26A67003F19BF00D719BA8840460332D5
:10B4F000C2549A1CD2B269460A76591CC9B28C460B
:10B500006044514601703988424411700433090A7D
:10B510005170DBB26A461376BA88002A10D0B96837
:10B52000002900D161E54344181C01F0C4FBBA882E
:10B530006F463B7E5846D318305CDBB23B760390B7
:10B5400001340399E4B28C42CAD382E63B880922D3
:10B550001D2B00D8ABE5A1E5238809221D2B00D8BF
:10B560005BE752E773DF7047F0B5474680B4051CD0
:10B57000884600D198E0002A00D195E04B49002090
:10B5800008704B4906980B604A4B4B4918600B1CDE
:10B59000D0CAD0C351CA51C381CA81C3CA68002A64
:10B5A00000D076E08C6900230B72002C00D178E08B
:10B5B000CE69002E00D174E0002107223F48FCF73D
:10B5C000F7FD3F4B3F4A404E1A60404A00219A60C7
:10B5D000301C3022FCF7ECFD2B782A1C3370AB7842
:10B5E0001032B370EB78F3706B787370331C1033D8
:10B5F00081CA81C3331C0833103A12CA12C3331CE8
:10B600001833083281CA81C3696A002911D0304BCE
:10B61000304C7362696A9C600A881A8088889880B6
:10B62000002806D000238F68FA5CE254013383427D
:10B63000F9D1AA6A002A14D0274B2848B362A96A14
:10B6400098608C889C800A881A800023002C05D082
:10B650008F68FA5CC2540133A342F9D12C23EA5C0F
:10B66000F254286A002806D01D4B33622A6A51889A
:10B67000598012881A806968002903D0194B7360B9
:10B680006D687560301C4146FFF7F6FB04BC9046C0
:10B69000F0BD0B69002B00D184E78C69002C00D031
:10B6A00086E700230B7587E70E20EFE730260020A2
:10B6B000642500208C25002098250020902500205E
:10B6C000DC250020B8250020282500201026002099
:10B6D000582500206825002038260020EC25002071
:10B6E00034260020D8250020F0B5474680B47A4C97
:10B6F00088B02070002568460095FEF7E5FB082815
:10B700000BD0002805D10099002907D0734B0122E6
:10B710001A7008B004BC9046F0BD0095704A002134
:10B72000101C90460722FCF743FD6E4E7378002BE9
:10B7300033D123786C4F012B52D0327A002A01D1B9
:10B74000022B68D0327D002A01D1032B68D03A68E1
:10B75000002A03D0023B012B00D8ACE0634B00224F
:10B760001A7002AD1822281C0021FCF721FD227856
:10B7700000232B706B602B72EB60022A1AD0032A15
:10B780005BD0012A51D0002A22D13B68002B02D085
:10B79000574A107898470020BBE72378524F012B77
:10B7A000CBD13A68002A19D0524907200B70904734
:10B7B0002378C0E7F36832692B824F4B6A821A798B
:10B7C000002A61D11A7B002A5ED1494B02221A70ED
:10B7D000281CFFF7C7FE0028D7D09AE7454B1A7000
:10B7E0007378002B12D041464B78002B72D18B78A6
:10B7F000002B6FD1CB78002B6CD10B79002B69D14A
:10B800004B79002B66D18B79002B63D102232370F7
:10B81000327A002A9BD103232370327D002A96D1ED
:10B82000334A00232370137091E76B822B82304BD5
:10B83000414669602A701A70CAE7F2692E4BB169F5
:10B840006A821A792982002A17D03278002A17D002
:10B850002A4A1278002A13D129480222EB600021DB
:10B8600004232A72C370FFF707FB002800D050E7BB
:10B870001F4B05221A70227885E71A7B002AE4D133
:10B880001B4B03221A70A3E73278002A9DD01B4A73
:10B890001278002A99D11A480222042600212A721D
:10B8A000EB60C670FFF7E8FA002800D031E7104BD4
:10B8B00022781E7067E73378002B00D14EE70F4BDC
:10B8C0001B78002B00D049E7084B01210620197096
:10B8D000904746E701233AE7302600203126002032
:10B8E0009025002098250020642500200D260020AA
:10B8F000442600200C260020DC250020882500207E
:10B900002825002008B50388112B35D0192B06D027
:10B91000102B00D008BD82882A4B1A80FAE7837961
:10B92000002BF7D1284A1278022A40D0032A35D0BA
:10B93000012AEFD1254A1178002912D0244B5878DA
:10B9400000283CD19878002839D1D878002836D101
:10B950001879002833D15879002830D19B79002BF1
:10B960002DD10220FFF7C0FE0028D3D0194B1B6851
:10B97000002BCFD09847CDE7174B00221A70174BFA
:10B980005A68124B1A700F4B82881B889A42C1D199
:10B990000120FFF7A9FE0028E8D1BBE7104A137089
:10B9A000104B1B68002BB5D000209847B2E70C4B1A
:10B9B00003201A70FFF798FE0028D7D1AAE70139B3
:10B9C0001170E5E78C200020302600200E26002094
:10B9D000902500208C250020882500209825002017
:10B9E0004426002064250020F0B5474680B4023884
:10B9F00088B0012803D87E4C2378002B03D108B0EF
:10BA000004BC9046F0BD0025684625700095FEF701
:10BA10005BFA082807D0002860D10099002903D0DC
:10BA200001232370EBE70095724A0021101C904619
:10BA30000722FCF7BDFB704D704E6B78002B54D184
:10BA400033786F4F012B5FD02A7A002A01D1022B65
:10BA500075D02A7D002A01D1032B75D03A68002ABF
:10BA600003D0023B012B00D891E0664B00221A70F4
:10BA700002AC1822201C0021FCF79AFB327800232C
:10BA8000237063602372E360022A0CD0032A60D023
:10BA9000012A74D0002A1CD13B68002BAFD05A4A2F
:10BAA00010789847ABE7EB682A692382574B62828C
:10BAB0001A79002A02D11A7B002A07D02A78002A94
:10BAC00004D0534A1278002A00D181E04E4B022262
:10BAD0001A70201CFFF746FD0028DDD04D4B1B6877
:10BAE000002B00D18BE7984789E73378444F012B2F
:10BAF000AAD13A68002A05D0474907200B70904721
:10BB000033789FE7444B1A706B78002B12D0414674
:10BB10004B78002B4AD18B78002B47D1CB78002B68
:10BB200044D10B79002B41D14B79002B3ED18B793D
:10BB3000002B3BD1022333702A7A002A8ED10323B3
:10BB400033702A7D002A89D12F4A00233370137065
:10BB500084E7EA692D4BA96962821A792182002A59
:10BB600002D11A7B002A06D02A78002A03D0284A5C
:10BB70001278002A1CD0244B03221A70A9E7638292
:10BB80002382214B4146616022701A70A1E72B7815
:10BB9000002B00D169E71E4B1B78002B00D064E717
:10BBA000184B012106201970904761E7012355E7E2
:10BBB0001A480222E360002104232272C370FFF7B7
:10BBC0005BF900288AD1104B05221A70327861E7A0
:10BBD00012480222042500212272E360C570FFF79B
:10BBE0004BF9002800D079E7074B32781D7051E7F8
:10BBF00031260020902500209825002030260020A6
:10BC0000642500200D26002044260020DC2500208D
:10BC1000882500208C2500200C26002028250020C7
:10BC20007FDF704782DF7047A7DF7047A9DF70476B
:10BC3000AADF70470020704700207047002070473F
:10BC40000020704700207047002070470020704798
:10BC5000F8B54F464646C0B444783249E200121B5C
:10BC600092008B18071C586800280ED063002E4ED7
:10BC70001D19AD007519AD7AA8466DB2002D1EDBF9
:10BC800000250022A846914605E000250022264E08
:10BC9000A846914663001B199B00F3181889494672
:10BCA00042462B1CFFF7C2FF0B282DD0002800D0E6
:10BCB0001E48012D0ED00CBC90469946F8BD454655
:10BCC0006D06DDD4151C08356D1880B2A946804676
:10BCD0008D58E0E77B780C215A00D3189B00F618AA
:10BCE0003089134AFFF7A0FF0028E4D0114B984297
:10BCF00008D0082806D0104B984203D0112801D054
:10BD00000020D8E70948D6E77B7849465A00D3187F
:10BD10009B00F318188942460123FFF787FF01258E
:10BD2000C4E7C046B826002050260020418000000D
:10BD3000FFFF00000230000004300000F0B587B0C3
:10BD40000C1C142369460B8063782C4D5A00D318C1
:10BD50009B00EB18061C01A918896A460323FFF70C
:10BD600067FF002802D0002007B0F0BD6378244FA1
:10BD7000D800C01A80006B4608301A88381801A90C
:10BD800000F08AFF6378002826D0DA00D11A8900F3
:10BD90007918496800292FD01A4DD31A9B00032225
:10BDA000FA506B461A886378D900CB1A9B00FB18AF
:10BDB0005A60637801A9D800C01A8000083038188A
:10BDC00000F079FF6378301CD900C91A890079180E
:10BDD0001C223823A847C6E75A00D2189200AD1893
:10BDE000AA7A9107BFD4D800C01A80003818002161
:10BDF0001C22FCF7DDF9B6E7034DCEE75026002004
:10BE0000B82600202D9D0100A59C010038B54B7877
:10BE1000021CD800C01A0B4C80000D1C2018111CED
:10BE200038231C22FDF7C6FF002807D16B78DA0003
:10BE3000D31A9B00E4186368013300D038BD6060FA
:10BE4000FCE7C046B8260020F0B5574645464E46AA
:10BE5000E0B4444D0F1C296890B0824690461E1CE9
:10BE6000002939D0189A582A36D83F4B08923F4AB1
:10BE70000093694600230B74099600249146A3B2EF
:10BE80004846191C02AAFDF7E5FE00282AD0013415
:10BE9000022CF4D16C46A378FF2B1DD0042F3CD08C
:10BEA000334AB21A372A28D9324BF31A1B2B3BD804
:10BEB000002363700AAB0993182308932023032FF0
:10BEC00049D0022213436A46137407AB05936846B0
:10BED0002B6804A94246984710B01CBC904699466E
:10BEE000A246F0BD504602A9082200F0D5FE002867
:10BEF000CDD1E3B26C46A370D0E71F4A414610682B
:10BF0000002903D1012199400842E5D0012199403F
:10BF1000031C8B4313602023D1E7189B582B1FD0A1
:10BF2000432369460B74D0E71448361A1B2ED3D826
:10BF300030236A461374002363700123E370104BAF
:10BF40009A7A30239107BAD41C220021FCF730F9E9
:10BF50006A46137CB3E70122134369460B74B4E7C6
:10BF60002323DEE7D826002000FFFFFF94260020D1
:10BF70005C2600209C260020D4260020B826002025
:10BF80005026002038B54B78021CD800C01A0B4C44
:10BF900080000D1C2018111C38231C22FDF70AFFFD
:10BFA000002807D16B78DA00D31A9B00E418636885
:10BFB000013300D038BD6060FCE7C046B8260020E1
:10BFC000F8B54F464646C0B444783249E200121BE9
:10BFD00092008B18071C586800280ED063002E4E64
:10BFE0001D19AD007519AD7AA8466DB2002D1EDB86
:10BFF00000250022A846914605E000250022264E95
:10C00000A846914663001B199B00F31818894946FE
:10C0100042462B1CFFF70AFE0B282DD0002800D02B
:10C020001E48012D0ED00CBC90469946F8BD4546E1
:10C030006D06DDD4151C08356D1880B2A946804602
:10C040008D58E0E77B780C215A00D3189B00F61836
:10C050003089134AFFF7E8FD0028E4D0114B9842DD
:10C0600008D0082806D0104B984203D0112801D0E0
:10C070000020D8E70948D6E77B7849465A00D3180C
:10C080009B00F318188942460123FFF7CFFD0125D5
:10C09000C4E7C046B826002050260020418000009A
:10C0A000FFFF00000230000004300000F0B587B050
:10C0B0000C1C142369460B8063782C4D5A00D3184E
:10C0C0009B00EB18061C01A918896A460323FFF799
:10C0D000AFFD002802D0002007B0F0BD6378244FE8
:10C0E000D800C01A80006B4608301A88381801A999
:10C0F00000F0D2FD6378002826D0DA00D11A89003A
:10C100007918496800292FD01A4DD31A9B000322B1
:10C11000FA506B461A886378D900CB1A9B00FB183B
:10C120005A60637801A9D800C01A80000830381816
:10C1300000F0C1FD6378301CD900C91A8900791854
:10C140001C223823A847C6E75A00D2189200AD181F
:10C15000AA7A9107BFD4D800C01A800038180021ED
:10C160001C22FCF725F8B6E7034DCEE75026002049
:10C17000B82600202D9D0100A59C0100F0B54F467A
:10C180004646C0B4071C85B0002800D172E0424B7F
:10C19000424801256D42002201211A605A729A72AA
:10C1A00088468172072200210581C572FCF700F8DC
:10C1B00000211C223A48FBF7FBFF3A4C0021201CCF
:10C1C00006221130FBF7F4FF00211022201CFBF7A0
:10C1D000EFFF354EFF23354A237433684146201C58
:10C1E0008B439146157000210622A57625832D30BC
:10C1F0003360FBF7DDFF201C002110221C30FBF711
:10C20000D7FF2C233268E5543623E55402239A43A2
:10C21000494632604D70264E6946CB805822254BE8
:10C220008A80A5866846311C0093FDF777FC0028BC
:10C230001BD1214B424699461A703B78002B1BD1EB
:10C240000025A9B2301C02AAFDF704FD071E1CD16F
:10C25000201C02A91C220023FDF7ACFD002818D1E8
:10C2600001351C34022DECD1002005B00CBC9046E9
:10C270009946F0BD1148F8E76A46D1889388301C8A
:10C28000594389B2FDF7ECFDEFE7002349460B70F7
:10C29000EBE74B461F70E8E7D82600205026002029
:10C2A000B82600205C260020D42600204826002046
:10C2B0009426002049BE01004C2600200E8000007C
:10C2C000F8B5194B051C1B780C1C002B01D1174825
:10C2D000F8BD00280AD0002908D00B68002B05D033
:10C2E000134E3768002F03D01248F1E71248EFE7EA
:10C2F000301C08C00531052200F0DDFC2379317ABD
:10C30000B37201239943022211430423C9B2F07985
:10C310009943317201210143C9B20A43D2B29A430F
:10C32000F27100202F70D3E74C2600200880000017
:10C33000D8260020048000000E80000010B582B0D6
:10C34000041C81786A460D48FDF784FC002812D150
:10C3500063786946D800C31A09489B00C0181C229C
:10C360001C23FDF727FD074B68469A7A064B92007F
:10C37000D358211C984702B010BDC0469426002017
:10C380009C260020D826002020CF0100F0B544468E
:10C390005F4656464D46F0B4D94A8DB01278FF2319
:10C3A000041C0193002A44D0D64F386884460028E4
:10C3B0003FD06A4653709370D37002AD231D6B60FB
:10C3C0002A232B8100226B461A702388102B00D160
:10C3D0002BE1CD4EA088B27AFF2182468846900795
:10C3E00007D5CA498A4500D117E13189514500D1A5
:10C3F00013E1113B9BB2412B1BD8C5499B00CB5885
:10C400009F46132300222B7092466846291C5246F1
:10C41000E0472B78122B0CD1B37A012B09D00123E2
:10C42000B3725B423381F372301C00210722FBF7A9
:10C43000BFFE0DB03CBC90469946A246AB46F0BD4F
:10C44000BA7AB44B9200D35868469847F1E7022372
:10C45000101C9843B072110700D429E143B2002B9D
:10C4600000DAFAE11023B37212232B7000239A46EC
:10C47000CBE713232B7004231A43B272F27AFF2AFC
:10C4800000D167E1A44816230021142208302B7044
:10C49000FBF78EFEB27A40231343B3729F4B002109
:10C4A000F27A8A469946D1008A1A92004A440A9240
:10C4B0009B4A002309930B93069207930893A08845
:10C4C0003A1D002106ABFFF7ABFB0028B1D139685C
:10C4D0008C469AE7F37AFF2B00D174E18F4DA94681
:10C4E0008F4950464A460023FFF79CFBA1E77B7A21
:10C4F000012083437B7204239A431423B2722B706E
:10C50000A3798146002B00D018E1E3790020824610
:10C51000590700D479E74346FF2B00D175E708237C
:10C520001A43E37AB2729B07DB0F012B00D1D7E1EC
:10C53000F37AFF2B00D1D0E1784933788946022B7A
:10C5400000D1DAE14246D3009B1A30689B004B448D
:10C550001861B1889A7E9982B179997502218A43CE
:10C560009A7606AC6F484146221CFDF773FB002803
:10C5700037D1684643785A00D3189B00F3189B7A4A
:10C58000590600D4B6E1684A9046684683781C2272
:10C59000D900C91A89004944201C0023C04700283B
:10C5A00012D169464B7840205A00D2189200B21836
:10C5B000917A81439172DA00D31A59499B00C918C4
:10C5C000201C1C221C23C0476A461378201C5A00DA
:10C5D000D3189B00FB189A7A544B9200D3586946A3
:10C5E00098473B6800209C4682460EE7A379112BB2
:10C5F00002D1110700D5D5E080235B421A431523F1
:10C600002B70B272BA7A434B9200D358684698475F
:10C610003868002184468A46F7E6F07A6946814602
:10C62000887000204870C846E3E6374EB37AD907D1
:10C6300000D4FEE60223B372694611234A702B70C0
:10C64000A388A21D3381111C9046301C072200F0E4
:10C6500032FB237DD80700D48AE0354A5B08D35CDF
:10C66000FF2B00D1F7E00193191C0A226846B27231
:10C670008370F3722B4806AAFDF7ECFA002812D15A
:10C6800069464B782648DA00D31A9B00C01806A9E1
:10C690001C221C23FDF78EFBBA7A264B9200D3583E
:10C6A00006A8694698473A68002394469A46ACE63D
:10C6B0004046FF2800D1D5E6C4001849241AA4003A
:10C6C000081989464C44002106221130FBF770FD01
:10C6D00000211022201CFBF76BFD174A4046012168
:10C6E00081401068FF2388432374A37610600123E0
:10C6F0003A685B42694623838B709446B2E6C04633
:10C700004C260020D826002050260020FFFF0000E5
:10C71000F8CD010000CF0100B82600205C260020E3
:10C720009C260020942600202D9D010010CF0100A2
:10C730004826002020CF0100D4260020F27A8A4823
:10C740009046111C06AAFDF785FA00285AD0A47954
:10C75000A246BCE685498B7E8946FF2B00D1FBE0D3
:10C760003623CB5CFF2B00D1D8E0814882469AE685
:10C770007E4C4146201C1030072200F08DFA002824
:10C7800000D1EBE0201C41462C30072200F084FA57
:10C790000121002887D10191B37A08221A43CBB234
:10C7A00089B263E77348142208300021FBF700FDCB
:10C7B00016232B70B27A60231343B3727A7A022362
:10C7C00013437B726FE76948E389018B8146994285
:10C7D00000D1C7E0858E00219D4200D081E6012373
:10C7E000082101930A43DBB2F3726846B272837088
:10C7F000FFF7A4FDA488F37AA246FF2B00D06FE6D2
:10C8000000216EE606A85821FDF72AFB00289ED1DC
:10C81000564B40469B46C3001B1A9B009A465846FF
:10C82000504400210622DA441130FBF7C1FC0021FC
:10C8300010225046FBF7BCFC5246FF23137493763C
:10C8400001235B4213834C4B4A46186841468A4099
:10C85000904318607BE7FF2107E706AC424841465A
:10C86000221CFDF7F7F9002834D16A4653785A00A4
:10C87000D3189B00F3189B7A58064CD53F4988463D
:10C88000684683783949DA00D31A9B00C918201CFE
:10C890001C220023C04700280FD169464A780C2388
:10C8A0005343F318997A4020814399721C235A43C9
:10C8B0003349201C89181A1CC0476A461378201C6B
:10C8C0005A00D3189B00FB189A7A2E4B9200D3582B
:10C8D000694698473B689C46C4E500218A4694E532
:10C8E0004046C2002149121A92008A18917E99434B
:10C8F00091761DE6244B984647E64346DA002049E8
:10C90000D21A498A92004A441183131C927E012153
:10C910008A439A7625E61D4A9046B1E7012332788C
:10C92000022A1DD01C2159433068494408610A1C61
:10C93000B1889182B1799175FD22D900C91A890017
:10C9400049448A7601AA137001996B46CAB2002045
:10C950009A70F2728246A6E50023E0E700211AE70A
:10C96000FE22EAE700233BE7942600205C26002015
:10C9700043800000B8260020D42600202D9D010011
:10C980009C26002010CF0100A59C010035BC0100B1
:10C990001B4B1B78012B00D070471A4B1B681A07E2
:10C9A000FAD1194AF02312681A4003D0102A01D094
:10C9B000302A03D1154A12681A4210D0124AF023C5
:10C9C00012681A40402AE7D1104A12681A42E3D18D
:10C9D000C12380220121DB00D205D150DCE70C4AC3
:10C9E0000C4B1A600C4B802212021A60044B1B780D
:10C9F000012BD1D1034B1B681A07DFD0CCE7C0460F
:10CA0000E00F00F0E40F00F0E80F00F0EC0F00F092
:10CA1000DFFF07C004050040186C00402EDF7047A0
:10CA200051DF704710DF704761DF704708B5081CA1
:10CA3000111CFDF7D7FF08BDF0B55F4656464D46C1
:10CA40004446F0B42B4B83B01B78002B14D02A49FA
:10CA50002A4E0A68894655425541294BEDB219685C
:10CA600098464B424B41274ADBB29A469346002DEB
:10CA70000DD0514600291CD003B03CBC90469946CD
:10CA8000A246AB46F0BD002DF6D101229246684683
:10CA90006C46FFF7C5FF052829D000281DD00021CE
:10CAA0000022FBF77DFC5146002903D0002DE3D185
:10CAB000EDE76C465A4637681388381C6946238070
:10CAC000FFF7B2FF0528DED000280BD0002100229E
:10CAD000FBF766FC00239A46C9E74B4600981B68A3
:10CAE0009847E0E74346381C1B689847F2E7012562
:10CAF000D9E7C046E4260020EC260020E8260020E6
:10CB0000F0260020E626002038B5041C0720002966
:10CB100001D08D0700D038BD094801600949201CAB
:10CB20000A80094A09491360FFF77CFF0028F2D107
:10CB3000074B012216201A70FFF770FFEBE7C04683
:10CB4000E8260020E6260020F42600202DCA010059
:10CB5000E4260020002803D0024B18600020704714
:10CB60000E20FCE7F0260020002803D0024B1860BE
:10CB7000002070470E20FCE7EC26002008B5084B8B
:10CB80001B68002B08D09847002800D108BD002161
:10CB90000022FBF705FCF9E7FFF74EFFF6E7C0467A
:10CBA000F426002003210A4802680A43026009486B
:10CBB00002680A4302600849084A094B9B1A03DDD0
:10CBC000043BC858D050FBDC064880470648004765
:10CBD000240500405405004038CF0100002000200B
:10CBE0009020002091C90100C1800100FEE7FEE70E
:10CBF000FEE7FEE7FEE7FEE7002934D0012300222E
:10CC000010B488422CD301242407A14204D28142CB
:10CC100002D209011B01F8E7E400A14204D28142DB
:10CC200002D249005B00F8E7884201D3401A1A4358
:10CC30004C08A04202D3001B5C0822438C08A0428F
:10CC400002D3001B9C082243CC08A04202D3001B45
:10CC5000DC082243002803D01B0901D00909E3E7BF
:10CC6000101C10BC7047002801D00020C04307B43E
:10CC7000024802A14018029003BDC04619000000FE
:10CC80000029F0D003B5FFF7B9FF0EBC4243891A63
:10CC90001847C0467047C04630B50023934208D0BD
:10CCA000C55C0133CC18013C2478A542F6D0281B82
:10CCB00000E0002030BD10B50023934203D0CC5CCF
:10CCC000C4540133F9E710BD0023C25C0133002ACC
:10CCD000FBD1581E70470000F8B5C046F8BC08BC30
:10CCE0009E467047F8B5C046F8BC08BC9E467047E3
:10CCF00043000000002000207296010022950100F0
:10CD0000EE940100D49501001A960100AA95010045
:10CD10006C950100F4A0010092A0010092A0010016
:10CD2000BCA001002CA1010052A1010006A101003C
:10CD3000C09F010020A001004CA0010020A0010024
:10CD40004CA001000AA00100DA9F0100DA9F010057
:10CD5000DA9F0100DA9F0100DA9F01007CA0010048
:10CD6000C09F0100C09F0100C09F01000AA00100F8
:10CD70000AA0010042A301005AA301005AA3010026
:10CD8000D4A30100FAA3010068A40100A0A401003B
:10CD900024A4010070A2010040A2010070A20100C1
:10CDA00040A201009AA301009CA201009CA20100E4
:10CDB0009CA201009CA201009CA20100E6A201002D
:10CDC00004A30100B2A3010046A4010026A30100B0
:10CDD00026A3010007000300199F0100B358554026
:10CDE000506011E38F96080000009A664D756C74D0
:10CDF000696C696E6B0000004EC4010032C4010012
:10CE000072C40100D4C4010032C4010032C4010064
:10CE1000EEC40100ECC5010032C4010032C40100BF
:10CE200032C4010002C4010032C4010032C4010056
:10CE300032C4010032C4010032C4010032C4010016
:10CE400032C4010032C4010032C4010032C4010006
:10CE500032C4010032C4010032C4010032C40100F6
:10CE600032C4010032C4010032C4010032C40100E6
:10CE700032C4010032C4010032C4010032C40100D6
:10CE800032C4010032C4010032C4010032C40100C6
:10CE900032C4010032C4010032C4010032C40100B6
:10CEA00032C4010032C4010032C4010032C40100A6
:10CEB00032C4010032C4010032C4010032C4010096
:10CEC00032C4010032C4010032C4010032C4010086
:10CED00032C4010032C4010032C4010032C4010076
:10CEE00032C4010032C4010032C4010032C4010066
:10CEF00032C4010032C4010032C4010040C4010048
:10CF000049BC010051BC01004DBC0100C1BF010082
:10CF100039BC01003DBD01003DBC0100ADC00100B8
:10CF200041BC01000DBE010045BC010085BF0100F0
:08CF300090B1FF7F0100000039
:10CF380000000000000000000000000000000000E9
:10CF480000000000000000000000000000000000D9
:10CF5800F0CC01000000000000000000000000000C
:10CF680000000000000000000000000000000000B9
:10CF780000000000000000000000000000000000A9
:10CF88000000000000000000000000000000000099
:10CF9800FFFF00004D6F6469666961626C65206D12
:10CFA800756C74696C696E6B5F70657269706865C1
:10CFB80072616C204461746100000000FFFF000092
:040000031000CBA579
:00000001FF
