:100000000040002041100000891000008B1000000B
:1000100000000000000000000000000000000000E0
:100020000000000000000000000000008D10000033
:1000300000000000000000008F1000009110000080
:10004000931000009310000035060000931000008C
:100050009310000000000000B10D000085020000B8
:100060009310000093100000931000009310000004
:1000700093100000931000009310000093100000F4
:1000800093100000931000009310000093100000E4
:1000900093100000931000009310000093100000D4
:1000A000931000009310000000000000000000000A
:1000B0000000000000000000000000000000000040
:1000C000164B002B00D1144B9D46402292029A1AE7
:1000D000924600218B460F461348144A121A00F02C
:1000E00067F80F4B002B00D098470E4B002B00D029
:1000F00098470020002104000D000D48002802D080
:100100000C4800E000BF00F02DF82000290000F0AE
:1001100025F900F011F8C04600000800004000205A
:10012000000000000000000068000020E80100203E
:100130000000000000000000084B10B5041C002B5C
:1001400002D0002100E000BF054B1868836A002B35
:1001500000D09847201C00F033F8C0460000000093
:10016000941F000070B50E4B0E4D0024ED1AAD101B
:100170001E1CAC4204D0A300F35898470134F8E7A2
:1001800001F0FAFE084B094D0024ED1AAD101E1CBB
:10019000AC4204D0A300F35898470134F8E770BD8F
:1001A000680000206800002068000020680000202F
:1001B000031C8218934202D019700133FAE770478A
:1001C000FEE7C0461B4B1B78012B00D070471A4B33
:1001D0001B681A07FAD1194AF02312681A4003D093
:1001E000102A01D0302A03D1154A12681A4210D0C1
:1001F000124AF02312681A40402AE7D1104A1268C6
:100200001A42E3D1C12380220121DB00D205D15063
:10021000DCE70C4A0C4B1A600C4B802212021A606D
:10022000044B1B78012BD1D1034B1B681A07DFD07D
:10023000CCE7C046E00F00F0E40F00F0E80F00F05C
:10024000EC0F00F0DFFF07C004050040186C004011
:1002500008B50378022B04D0032B08D0012B00D063
:1002600008BD40680021002200F090F8F8E7034B39
:100270000348196800F00EFFF2E7C046E0010020D5
:10028000AC1F0000064B8022002152009950A12291
:10029000D2009958034A116001221A607047C04683
:1002A00000700040E001002030B58BB003A80F4B78
:1002B000021C32CB32C26B4600225A810C4A0A33EE
:1002C0000692012207920B4A009308928022520064
:1002D000099206A9084A032300F0FCF9002803D07C
:1002E0000021002200F052F80BB030BD981F000032
:1002F000680000206C0000205102000010B5124B75
:1003000082B06A460C3312CB12C2684600F048FB3A
:100310000E4B0F4A0F4998580140802000020143BC
:100320009950A0220121D2009950C12292009950E7
:10033000094B80219858C9050002000A01439950D1
:1003400080221A6002B010BD981F000000700040AB
:1003500004050000FF00FFFF00E100E008B5FFF723
:10036000CDFFFFF7A1FF064800F094FE054800F01E
:1003700091FE054B01221A6040BF20BF20BFFBE762
:10038000B41F0000D01F000000700040BFF34F8F6B
:10039000024A034BDA60BFF34F8FFEE70400FA0511
:1003A00000ED00E010B500290DD00923002A01D18D
:1003B000181C10BD541E2240FAD182600160848056
:1003C000C2600023F4E70E23F2E7C04610B5031C19
:1003D0009A888068DC68241A0420A24200D210BDEA
:1003E000D868024018688154DA6800200132DA6067
:1003F000F5E7C04610B58468C268031C0520944226
:1004000009D098689A8802401868825C00200A70B7
:100410009A6801329A6010BD70B5161C0C1C8D18BC
:10042000002A05DD2078013400F07AFAAC42F9D1D7
:10043000301C70BD10B50C1C201C00F069FA05289A
:10044000FAD0012010BDC04630B51F4C85B02378CE
:10045000DBB2002B05D0032B01D10223237005B0A2
:1004600030BD1A4BA0220421D20099501848012215
:100470001A608568C1688D4218D02178022900D0A1
:100480009A6069460731FFF7B5FF002810D10F4B7E
:10049000C221802289005A506946C8790D495850B6
:1004A00002212170C12189005A50D8E72270D6E775
:1004B000064A0123D36002A8237003230370064B6E
:1004C0001B689847CBE7C046800100200020004011
:1004D000700100201C0500006C01002010B5204CAC
:1004E00084B02378DBB2002B0CD0022B0CD9032B69
:1004F00008D11C4B012100222270D9605960A02133
:10050000C9005A5004B010BD17488268C3689A42A7
:100510001AD02378022B02D0124B01229A6069462E
:100520000731FFF767FF00280ED10E4BC221802252
:1005300089005A506946C8790C49585002212170E7
:10054000C12189005A50DDE7064A0123D36002A881
:10055000237003230370064B1B689847D2E7C046FD
:100560008001002000200040700100201C050000D8
:100570006C01002030B585B000F010FC00282FD1B0
:10058000274C2378DBB2002B05D0032B01D10223AB
:10059000237005B030BD234BA0220421D200995016
:1005A000214801221A608568C1688D4222D02178D5
:1005B000022900D09A6069460731FFF71BFF002827
:1005C00023D1184BC221802289005A506946C8792C
:1005D0001649585002212170C12189005A50D8E78C
:1005E0000F4A1378DBB2012B06D0022BD1D10323A3
:1005F0001370CEE72270CCE700211170094AD36056
:100600005360A023DB00D150C3E7064A0123D36027
:1006100002A8237003230370054B1B689847B8E7B3
:100620008001002000200040700100201C05000017
:100630006C01002010B5244B84225200995882B0DE
:10064000002920D1204A8E235B00D158002915D1E2
:100650001D4B92225200995800290DD0002199502B
:100660009021C9005A5868465A50022369460B70B7
:10067000164B01921B68984702B010BD0021D15063
:10068000FFF72CFFE4E700219950A322D2009958EC
:100690000F4CC9B2201CFFF799FE00280BD1A368AC
:1006A000E268D31A012BCDD1084B6A4610701B6843
:1006B00068469847C6E7012369460B70034B0190D3
:1006C0001B6868469847BDE7002000406C01002089
:1006D00084010020F0B557464E464546E0B47F4DB4
:1006E0000C1C002129707E49061C82B01F1C0A6068
:1006F0000720002C06D0A2887A482168FFF752FE16
:10070000002805D002B01CBC90469946A246F0BD18
:10071000A168A2897448FFF745FE041C002CF1D1A2
:100720007278A023C132FF32DB0592000321D15041
:100730003278C132FF329200D45071786B4B6C4AE0
:10074000995031786B4A9950B1686B4A99507279D7
:10075000002A4CD0694A0E2199503379022B65D07A
:10076000012B47D0614BA0220421D2009950842153
:10077000002249005A508E2149005A505F490122F7
:100780005858904358500121A1204942C0001950A7
:10079000A220C00019509A601A602A700A990B882A
:1007A000002B05D1564A1378591C11700A9A1380F0
:1007B0004E4B0121C222494292009950A121C122EF
:1007C0008900920099504F4BC021042249005A5091
:1007D000C02189005D58FF20BF0107404A4C380402
:1007E0002F1C274007435F5000201A608AE74349C7
:1007F0005A50B2E73D4AA0210420C900505084203D
:100800000021400011508E20400011503B495058AB
:1008100018435050F078A221C9005050B078A1215F
:10082000C9005050936013602B70B7E700F04CF98B
:10083000002804D100F01CF9002800D062E76A46C5
:10084000002313800024012394705370B07869460C
:10085000984600F041F9002800D053E7234AA2232C
:100860009146012249465242DB00CA50B278A12388
:10087000DB00CA50214BCA5841460A434946CA5078
:1008800001A903220A704C708C70CC709046F078ED
:100890001E4A00F087F98246002800D032E7F0783F
:1008A000012100F031FAF07800F078FA002809D040
:1008B0002B78DBB2012B08D0022B00D06EE7434629
:1008C0002B706BE7FFF7C0FD68E749462C70CB60E3
:1008D0004B60A023DB005246CA505FE78001002036
:1008E0006C010020840100207001002000200040E5
:1008F0000C05000014050000240500006C05000034
:100900006400002000E100E0FFFF00FF750500002B
:1009100008B5011C0148FFF76DFD08BD84010020EA
:1009200070B51A4D011C84B0281CFFF74FFD184C00
:10093000061C2378DBB2012B02D0301C04B070BD42
:100940002278022A01D0134A93606946281C073195
:10095000FFF750FD00280ED10E4BC22180228900E6
:100960005A506946C8790C49585002212170C1215A
:1009700089005A50E1E7074A0123D36002A8237097
:1009800003230370054B1B689847D6E770010020CE
:1009900080010020002000401C0500006C010020A8
:1009A00010B5436860215A011140027803242240A7
:1009B000114342781C20920002401143C02292024F
:1009C000134000D01943084B084A09489C5820405E
:1009D0009850A0200024C0001C509C58FF2000020A
:1009E00020400143995010BD0070004004050000F4
:1009F000FF00FFFFF0B500281FDB82081A4B9200B2
:100A0000D218C0B2C02303249B00FF250440E40099
:100A1000D6582F1CA7408901BE430D40A540341C69
:100A20002C43D4501F23184001238340181CC0229C
:100A30000D4B520098501860F0BDC0B20F23034018
:100A4000083B0A4A9B089B009B180322FF24024094
:100A5000D200DE69251C95408901AE430C409440CC
:100A6000321C2243DA61DDE700E100E000ED00E046
:100A700038B5134C08202378002B00D038BD012551
:100A80006D42201C291C20221C30FFF791FB3C23C7
:100A9000E554FF223D2306200121E2546560A56054
:100AA000E56025616561A561FFF7A4FF8021C12391
:100AB000044A9B000906D150012323700020DDE782
:100AC0009401002000600040024B1878431E9841BA
:100AD000C0B2704794010020F0B52E4B1C251C18A5
:100AE0006557021C0820013500D0F0BD8878002829
:100AF0002FD05868013046D09C68013445D0D86862
:100B0000013044D01C6904200134EED103209C182C
:100B1000207780001B1800245C601F4B1F4CC018FE
:100B2000A223DB00C5584E782C400F78C450802497
:100B3000640336052640C0243F04A4023C402643FB
:100B4000F82417026401C5583C4034432C43C45078
:100B500001E0FE232377E02464001019A023DB05C5
:100B600080000324C4504978012906D00121914016
:100B70000A1C0B4900205A50B7E7A120C000914041
:100B800019500020B1E70020C1E70120BFE7022093
:100B9000BDE7C0469401002000600040FFE0ECFF8C
:100BA0000C050000F0B5454657464E46E0B4534BA1
:100BB000041C1818057F08207F2D04D81CBC904603
:100BC0009946A246F0BDC878824600283FD1042548
:100BD000AC46042006258700B9469846C8444646D8
:100BE000776801373DD0461CB046B5422DD9B600D6
:100BF000B4469C446646776801377DD0861CB04673
:100C0000B54222D9B600B4469C446646776801379F
:100C100072D0C61CB046B54217D9B600B4469C4443
:100C200066467768013767D0061DB046B5420CD9D5
:100C3000B600B4469C446646776801375CD0053000
:100C4000854202D99869013006D00420B6E7002613
:100C5000B44600200425BEE70520C6B28700B4468E
:100C6000B9461E1965464F463577DE197260524601
:100C7000002A02D11818343004718A78002A16D15B
:100C8000E0264D787600A019A022AD008000D205A4
:100C90008550CA78002A15D165466AB29B1834334C
:100CA0000A78197992010A431A71002086E7A02573
:100CB000ED05A000E0224019D20085580226B54378
:100CC0008550E6E767460E487AB29200A2231218D2
:100CD000DB00D0580D780B4924020140F820400178
:100CE0000440C020D1502D048002D1582840044334
:100CF0000C43D450002061E74046AEE79401002049
:100D000000600040FFE0FCFF30B5214C23181A7F43
:100D100053B2032B17DDE31834331B799B09032BE4
:100D20002AD0012B31D0C0229202A023DB05800003
:100D3000C018E023DB00C45816492140C150C158F7
:100D40000A43C25030BD032AFCD8134A98008018C9
:100D5000A222D2008558012425438550181C40301A
:100D600080000D4A80B2002585500029EAD0C121BB
:100D70009C4089005450E5E7A223A022DB00D20565
:100D8000D258012383401A42CDD180229202CCE76F
:100D900094010020FFFFFCFF00600040A223A0227E
:100DA000D205DB00D358C340181C012318407047FC
:100DB000F0B557464E464546E0B4974A00241368BE
:100DC000012B00D170E0954B1A68012A00D179E01F
:100DD000934B1E68012E00D184E0924B1F68012FB7
:100DE00000D18FE0904B00251A68012A00D19AE0CB
:100DF00023070BD0E60700D59FE0A70700D5C7E083
:100E0000620700D5A9E0230700D5B5E0002C04DB7C
:100E10001CBC90469946A246F0BD844C3C23E15C44
:100E2000C023081C984323181B7F5BB2032B16DDDD
:100E30009B00E3185B68002B11D0A026F60582000A
:100E40009219E026F60096598909B603B70F0126D4
:100E50008640354200D0BDE0032F00D1C1E03D23E4
:100E6000E15CC023081C984323181B7F5BB2032B53
:100E7000CEDD9B00E4186368002BC9D0A027820058
:100E8000FF05E024D219E40014598909A403A60F30
:100E900001248440254200D089E0032EB8D10329E3
:100EA00000D1B7E09847B3E7C121614889004158B4
:100EB0000B4200D187E7594B14601A680124012ABC
:100EC00000D085E7C1225A499200895802220A427D
:100ED00000D17DE700211960514B14431E68012E9B
:100EE00000D07AE7C12252499200895804220A426E
:100EF00000D172E7002119604A4B14431F68012F8B
:100F000000D06FE7C1224A499200895808220A425C
:100F100000D167E700211960434B14431A6800258C
:100F2000012A00D064E71D6080231B061C43A02219
:100F3000A223DB00D205D5585AE73D4AA223DB00A5
:100F4000D058D158394BC0048903C00E890F5B6853
:100F50009847A70700D453E71AE0354AA323DB00DC
:100F6000D058D158314BC0048903DB68C00E890FBB
:100F70009847230700D449E72D4A2E4BD058D15823
:100F80002A4BC0048903C00E890F1B6998473DE7AF
:100F9000274A294BD058D158244BC0048903C00E8E
:100FA000890F9B689847620700D42CE7D5E7022E8B
:100FB00000D02DE7032900D074E70D1CE024E400E5
:100FC00017591E4E2D043E401651165935431551E2
:100FD00098471DE7022F00D041E7032918D0984712
:100FE0003DE70329FBD10227BC46E026F6009759CE
:100FF000B246124EB846371C4646374056469751C1
:10100000975966463604374356469751984726E720
:101010008C46EAE70225D1E7006100400461004008
:10102000086100400C6100407C6100409401002098
:10103000006000401C05000014050000FFFFFCFFDD
:1010400003210A4802680A430260094802680A4309
:1010500002600849084A094B9B1A03DD043BC85843
:10106000D050FBDC06488047064800472405004076
:10107000540500408420000000000020680000208B
:10108000C5010000C1000000FEE7FEE7FEE7FEE745
:10109000FEE7FEE70FB40B4B13B51C68002C05D020
:1010A000A369002B02D1201C00F09CFC05ABA168B9
:1010B000201C049A019300F02FF816BC08BC04B061
:1010C0001847C04660000020936810B5013B93604C
:1010D000002B05DA9469A34208DBCBB20A2B05D0BA
:1010E0001368581C10601970C8B201E000F0A6FA2D
:1010F00010BDF8B5061C0F1C141CD518AC4208D046
:101100002178301C3A1CFFF7DFFF0134431CF5D176
:1011100000E00020F8BD0000F0B59FB0061C0F1CD9
:1011200003920593002804D08169002901D100F0C1
:1011300059FC754B9F4201D1776808E0734B9F4281
:1011400001D1B76803E0724B9F4200D1F768BB89B9
:101150001A070AD53B69002B07D006AD00236B6147
:1011600020236B763023AB763BE0301C391C00F03B
:10117000BDFA0028F1D001204042C2E0059A111DBD
:1011800012680591002A76DB0992013423782E2B10
:1011900000D181E021785F48032200F0E3FC0028C1
:1011A00007D05C492A68431A4020984010432860C1
:1011B00001342178631C584806220393297600F0F5
:1011C000D1FC002800D18AE0544B002B7ED1059B36
:1011D000072207339343083305936A690499531828
:1011E0006B61039C2378002B04D10399611A02914F
:1011F00010D003E0252BF8D00134F3E7301C391C64
:10120000039A029BFFF775FF013075D06A69029956
:1012100053186B612378002B6ED0012252426A6012
:101220006A4600235B3201342B60EB60AB601370C5
:10123000AB6521783A48052200F094FC002808D0DC
:10124000374A0134831A012098402B6818432860DC
:10125000EFE72B68D90603D56A4620215B3211706F
:101260001A0703D56A462B215B32117022782A2A8D
:1012700084D0099B05E05242EA60022213432B60AE
:1012800083E72278303A092A04D80A214B430134F3
:101290009B18F6E7099379E763782A2B09D1059B18
:1012A00002341A1D1B680592002B0DDA01235B42E4
:1012B0000AE0013400232278303A092A04D80A21AE
:1012C0004B4301349B18F6E7079363E705AB0093A4
:1012D000301C291C3A1C134B00E000BF07E005AB93
:1012E0000093301C291C3A1C0E4B00F091F804901E
:1012F0000499013100D070E7BB895A0600D53AE75E
:101300000B981FB0F0BDC0461C2000003C20000020
:101310005C200000EE1F0000F21F00000000000033
:10132000E81F0000F3100000F7B5151C01930A69CF
:101330008B68061C0C1C934200DA131C221C2B60C9
:1013400043321278002A01D001332B6020688006D6
:1013500002D52B6802332B60216806270F401FD06F
:10136000231C43331B785A1E9341226892061FD5D3
:10137000E11840313020C870211C5A1C45310978D1
:10138000A21840320233D17012E0221C301C0199A5
:1013900019320123089FB847013011D0009F01374F
:1013A0000097E0682968009F431A9F42EDDBD7E76A
:1013B000221C301C01994332089FB847013002D1EA
:1013C0000120404223E0206806212B68E2680140AA
:1013D0000025042903D1D51AEB43DB171D40A26871
:1013E00023699A4201DDD31AED1800270097009F68
:1013F000AF420BDA221C301C01991A320123089FDC
:10140000B8470130DCD0009F0137EFE70020FEBD78
:10141000F0B50D1C8BB043350692059007930495EB
:101420000B7E0C1C109A6E2B00D1A7E011D8632BF9
:1014300022D009D8002B00D1B0E0582B00D0C0E05A
:1014400045310B707B4D4EE0642B1CD0692B1AD0BC
:10145000B7E0732B00D1A5E009D86F2B29D0702BF2
:1014600000D0AEE00E68202333430B6036E0752BCE
:101470001FD0782B32D0A4E013680D1C191D423503
:1014800011601B689FE0216813680E0603D5191DC3
:1014900011601E6805E04806F9D5191D116000218C
:1014A0005E5E644B002E3BDA049D2D2276422A704C
:1014B00036E0216813680E0603D5191D11601E68F9
:1014C00004E04806F9D5191D1E881160594B227E8B
:1014D000039308276F2A1ED00A271CE0231C7821BB
:1014E0004533554D197011682368081D0395106028
:1014F0001E0601D50E6802E05806FBD50E88D907F6
:1015000002D52022134323601027002E03D1226826
:1015100020239A432260231C002243331A7001E0E7
:1015200003930A276368A360002B03DB256804226A
:1015300095432560002E02D1049D002B0ED0049D02
:10154000301C391C00F0D2FC0398013D435C301C78
:101550002B70391C00F086FC061EF1D1082F09D132
:101560002168C90706D5626823699A4202DC013DF9
:1015700030232B70049E731B23612AE008681368D4
:101580004969050604D5181D10601B68196005E03F
:101590004606F8D5181D10601B68198000232361CA
:1015A000049D16E01368191D11601D68281C00F0C9
:1015B000DFFB63682061984200D923612069606085
:1015C00004E0251C42352B7001232361049E002377
:1015D0003370079E05980096211C09AA069BFFF709
:1015E000A3FE013002D10120404221E02A1C0598CF
:1015F00006992369079DA8470130F4D02668B607ED
:1016000005D4099BE068984212DA181C10E0002506
:10161000E0680999431A9D42F3DA221C059806995D
:1016200019320123079EB0470130DCD00135EFE7C6
:101630000BB0F0BDF91F00000A20000070B5051CBA
:101640000E1C141C002804D08269002A01D100F06D
:10165000C9F9234B9C4201D16C6808E0214B9C42A4
:1016600001D1AC6803E0204B9C4200D1EC68A36937
:10167000A360A3891A070AD52369002B07D0226823
:101680002369F6B2D01A626990420FDB08E0281C89
:10169000211C00F02BF80028F1D0012040421DE071
:1016A000281C211C00F01EF90028F6D1A368013087
:1016B000013BA36023685A1C22601E706369984234
:1016C00005D0A389301CDA0708D50A2E06D1281CBC
:1016D000211C00F007F90028DFD1301C70BDC04686
:1016E0001C2000003C2000005C200000344B70B542
:1016F0001D68061C0C1C002D05D0A969002902D10B
:10170000281C00F06FF92F4B9C4201D16C6808E057
:101710002D4B9C4201D1AC6803E02C4B9C4200D184
:10172000EC68A28993B2190721D4D90605D40923FC
:10173000336040231A43A2813FE05A0713D5616BFF
:10174000002908D0231C4433994202D0301C00F0F9
:1017500015FA00236363A38924229343A381002302
:10176000636023692360A38908221343A38121694D
:1017700000290BD1A389A02292001A4080239B004C
:101780009A4203D0301C211C00F09CF9A38901224D
:101790001A4005D061690022A2604A42A26103E0BA
:1017A000990700D46269A26022690020824206D1B2
:1017B000190604D540221343A3810120404270BD85
:1017C000600000201C2000003C2000005C20000085
:1017D000F7B58B89051C0C1C19075ED46268002ABA
:1017E00002DC276C002F1ADDE76A002F17D00022D9
:1017F0002E682A60802252011A4001D0626D15E0E5
:10180000281C216A0123B847021C411C0ED12B68F9
:10181000002B0BD01D2B01D0162B02D12E600020E7
:101820005EE0A38940210B43A38159E0A3895F07B0
:1018300006D56168636B521A002B01D0276CD21B4E
:10184000281C216A0023E76AB847A289411C06D1F7
:101850002B68002B03D01D2B01D0162B19D1002390
:10186000636023692360D70405D5411C02D12A682F
:10187000002A00D16065616B2E600029CFD0231C47
:101880004433994202D0281C00F078F900206063AC
:1018900026E040231A43A28122E02669002EBED012
:1018A00027680022BF1B01972660990700D1626953
:1018B000A260019F002FB2DD281C216A321C019B0F
:1018C000A76AB847002806DCA389402213430120F9
:1018D000A381404204E0019F36183F1A0197E8E7D0
:1018E000FEBD00000A6938B5051C0C1C002A01D198
:1018F00000201CE0002804D08369002B01D100F0F7
:1019000071F80B4B9C4201D16C6808E0094B9C427A
:1019100001D1AC6803E0084B9C4200D1EC680C227A
:10192000A35E002BE4D0281C211CFFF751FF38BD1B
:101930001C2000003C2000005C200000F8B5041CC6
:10194000071C4834002C12D0A5686668013E0CD4F0
:10195000AB89012B07D90E22AB5E013303D0381CB3
:10196000291CFFF7BFFF6835F0E72468EAE7F8BDF8
:10197000002310B5041C03604360836081814366CB
:10198000C281036143618361191C08225C30FEF748
:101990000FFC054B24626362044BA362044BE362B9
:1019A000044B236310BDC046D91C0000011D00007C
:1019B000391D0000651D000070B54B1E68255D4394
:1019C0000E1C291C743100F021F9041E08D00021DE
:1019D000016046602A1C0C30A0606832FEF7E8FB0C
:1019E000201C70BD836913B5041C002B27D18364B0
:1019F000C3640365124B134A1B688262984201D18B
:101A000001238361201C00F01FF86060201C00F09F
:101A10001BF8A060201C00F017F80421E0600022F1
:101A20006068FFF7A5FFA06809210122FFF7A0FF6A
:101A3000E06812210222FFF79BFF0123A36113BD7F
:101A4000941F00003D190000F8B51D4B071C1E68CF
:101A5000B269002A02D1301CFFF7C4FF4836B468CF
:101A60007368013B05D40C22A55E002D10D06834AC
:101A7000F7E73368002B06D1381C0421FFF79CFFE1
:101A80003060002801D03668E9E70C233B6016E09F
:101A900001235B42E381201C0123A381656625604D
:101AA000A560656025616561A5615C30291C08221F
:101AB000FEF77EFB6563A563A564E564201CF8BDA5
:101AC000941F0000F0B58B8991B0051C0C1C9A077F
:101AD00025D40E23C95E002906DAA78980231F407A
:101AE0000FD0002740260EE001AA00F06FF9002871
:101AF000F3DB029BF0273F02184A1F40BF187B42CE
:101B00005F418026F600281C311C00F07FF8002879
:101B10000CD1A3899A051FD402221343A381231C4D
:101B20004733236023610123636115E00C4B80225E
:101B3000AB62A38920601343A38120616661002FFB
:101B40000AD00E23E15E281C00F052F9002803D0D1
:101B5000A38901221343A38111B0F0BD00E0FFFF70
:101B60003D190000C9B28218904204D003788B421C
:101B700002D00130F8E700207047000030B500299E
:101B800040D004390B68002B00DAC9181E4A1368CC
:101B9000141C002B02D14B60116033E099420FD22C
:101BA00008680A189A4205D113685268C01808607C
:101BB0004A6000E04B60216024E08A4203D8131C95
:101BC0005A68002AF9D11D685C198C420BD109684A
:101BD000691858181960904214D11468526809198C
:101BE00019605A600EE08C4202D90C23036009E0B0
:101BF00008680C18944203D11468526800190860F0
:101C00004A60596030BDC046D801002070B503233A
:101C1000CD1C9D430835061C0C2D01D20C2501E07E
:101C2000002D3FDB8D423DD3204B1C681A1C211C2C
:101C3000002913D00868431B0DD40B2B02D90B606D
:101C4000CC181EE08C4202D1636813601AE0486829
:101C500060600C1C16E00C1C4968E9E7144C206815
:101C6000002803D1301C00F025F82060301C291C0E
:101C700000F020F8431C15D0C41C03239C4384426D
:101C80000AD12560201C0B300722231D9043C31A64
:101C90000BD05A42E25008E0211A301C00F00AF83A
:101CA0000130EED10C233360002070BDD80100203C
:101CB000D401002038B5074C0023051C081C236004
:101CC00000F040F9431C03D12368002B00D02B60A7
:101CD00038BDC046E401002038B50C1C0E25495F14
:101CE00000F0ACF8002803DB626D1318636503E0B5
:101CF000A289024B1340A38138BDC046FFEFFFFF0E
:101D0000F8B51E1C8B89051C0C1C171CDA0505D5A3
:101D10000E23C95E0022022300F07CF8A289054B45
:101D2000281C1340A3810E22A15E331C3A1C00F034
:101D300027F8F8BDFFEFFFFF38B50C1C0E25495FF3
:101D400000F068F8A389421C03D1054A1340A3811F
:101D500004E0802252011343A381606538BDC04670
:101D6000FFEFFFFF08B50E23C95E00F01DF808BDA8
:101D70000023C25C0133002AFBD1581E70470000CB
:101D800038B5084C051C00202060081C111C1A1CCA
:101D9000FEF742FB431C03D12368002B00D02B60CD
:101DA00038BDC046E401002038B5074C0023051CAF
:101DB000081C236000F0A6F8431C03D12368002B05
:101DC00000D02B6038BDC046E401002038B5074C78
:101DD0000023051C081C111C236000F09BF8431C09
:101DE00003D12368002B00D02B6038BDE401002014
:101DF00038B5074C0023051C081C236000F092F83E
:101E0000431C03D12368002B00D02B6038BDC04693
:101E1000E401002038B5084C051C00202060081C97
:101E2000111C1A1C00F086F8431C03D12368002BF8
:101E300000D02B6038BDC046E401002038B5084C06
:101E4000051C00202060081C111C1A1CFEF7F2FA69
:101E5000431C03D12368002B00D02B6038BDC04643
:101E6000E4010020002934D00123002210B488426C
:101E70002CD301242407A14204D2814202D20901B9
:101E80001B01F8E7E400A14204D2814202D24900DA
:101E90005B00F8E7884201D3401A1A434C08A0427D
:101EA00002D3001B5C0822438C08A04202D3001B13
:101EB0009C082243CC08A04202D3001BDC0822432A
:101EC000002803D01B0901D00909E3E7101C10BC4E
:101ED0007047002801D00020C04307B4024802A187
:101EE0004018029003BDC046190000000029F0D040
:101EF00003B5FFF7B9FF0EBC4243891A1847C04625
:101F00007047C046024B5822012040421A60704779
:101F1000E4010020024B5822012040421A60704721
:101F2000E4010020024B582200201A607047C0468E
:101F3000E4010020024B5822012040421A60704701
:101F4000E4010020094A1368002B0CD018186946D8
:101F5000884202D81060181C7047054B0C220120E3
:101F60001A604042F8E7034B1360EFE7DC01002002
:101F7000E4010020E8010020F8B5C046F8BC08BC28
:101F80009E467047F8B5C046F8BC08BC9E467047F0
:101F900043000000000000200B09080A00000000B8
:101FA00000509D00020200000000000025640D0AA0
:101FB000000000000A0D4144432048414C20736951
:101FC0006D706C65206578616D706C650D0A000040
:101FD00043757272656E742073616D706C652076E6
:101FE000616C75653A0D0A00232D302B2000686C5A
:101FF0004C0065666745464700303132333435362C
:102000003738394142434445460030313233343564
:10201000363738396162636465660000000000008D
:1020200000000000000000000000000000000000B0
:1020300000000000000000000000000000000000A0
:102040000000000000000000000000000000000090
:102050000000000000000000000000000000000080
:102060000000000000000000000000000000000070
:0C20700000000000000000000000000064
:08207C0044E0FF7F01000000B9
:10208400000000001C2000003C2000005C20000038
:10209400000000000000000000000000000000003C
:1020A400901F00000000000000000000000000007D
:1020B400000000000000000000000000000000001C
:1020C400000000000000000000000000000000000C
:1020D40000000000000000000000000000000000FC
:0820E4000000002001000000D3
:0400000300001041A8
:00000001FF
