:020000021000EC
:10D0000000400020B11B0200F91B0200FB1B0200C4
:10D010000000000000000000000000000000000010
:10D02000000000000000000000000000FD1B0200E6
:10D030000000000000000000FF1B0200011C0200B5
:10D04000031C0200031C020035DE0100031C020069
:10D05000031C020000000000DDE50100031C0200CB
:10D06000031C0200031C0200031C0200031C02003C
:10D07000031C0200031C0200031C0200031C02002C
:10D08000031C0200CDD20100031C0200031C02009D
:10D09000B9D30100031C0200891B0200031C02001B
:10D0A000031C0200031C020000000000000000003E
:10D0B0000000000000000000000000000000000070
:10D0C000164B002B00D1144B9D46402292029A1A17
:10D0D000924600218B460F461348144A121A00F05C
:10D0E00067F80F4B002B00D098470E4B002B00D059
:10D0F00098470020002104000D000D48002802D0B0
:10D100000C4800E000BF00F02DF82000290002F0DC
:10D1100049FE00F011F8C046000008000040002061
:10D12000000000000000000068280020F43000200B
:10D130000000000000000000084B10B5041C002B8C
:10D1400002D0002100E000BF054B1868836A002B65
:10D1500000D09847201C00F033F8C04600000000C3
:10D16000302B020070B50E4B0E4D0024ED1AAD10A1
:10D170001E1CAC4204D0A300F35898470134F8E7D2
:10D1800005F0C8FC084B094D0024ED1AAD101E1C1B
:10D19000AC4204D0A300F35898470134F8E770BDBF
:10D1A00068280020682800206828002068280020BF
:10D1B000031C8218934202D019700133FAE77047BA
:10D1C000FEE7C046BFF34F8F024A034BDA60BFF35E
:10D1D0004F8FFEE70400FA0500ED00E010B50029CE
:10D1E0000DD00923002A01D1181C10BD541E224065
:10D1F000FAD1826001608480C2600023F4E70E23CC
:10D20000F2E7C04610B5031C9A888068DC68241ACF
:10D210000420A24200D210BDD86802401868815490
:10D22000DA6800200132DA60F5E7C04610B584689C
:10D23000C268031C0520944209D098689A8802406D
:10D240001868825C00200A709A6801329A6010BDEA
:10D250001A4A802189028023D150194B8022D22181
:10D26000520289005A50C22189005A5001225A6044
:10D270002F200138C046C046C046C046C046C04602
:10D28000C046C046C046C046C046C046F1D19A60BE
:10D290000C4B00221A602F200138C046C046C04601
:10D2A000C046C046C046C046C046C046C046C0464E
:10D2B000C046F1D1044B1A707047C04600E100E04F
:10D2C000001001406828002090280020F0B5304B65
:10D2D000A02100224900474680B45A50A2214900AB
:10D2E0005A50A42149005A50A62149005A50802181
:10D2F00049005A50822149005A50264A1468601C3D
:10D3000037D0254A00269D58244B254A1B68254FB7
:10D31000ED1A2D022D0A904601E0621C1AD0E3009E
:10D320001B1938689B00C3185A68AA4212D8404695
:10D33000AD1AB6181C6A9A69D9690368002B1BD00C
:10D34000101C98470028E8D000220021FFF73AFF80
:10D35000621CE4D1144B15491A780B789A420ED00E
:10D36000134A9B009E5080218023124A49035B0090
:10D37000D15004BC9046F0BD081C9047CDE7531C2B
:10D38000DBB2022B01D00B70EAE700230B70E7E75A
:10D3900000100140802800200405000068280020BB
:10D3A0006C280020702800207C2800207D28002088
:10D3B0008828002000E100E0F0B55F4656464D4663
:10D3C0004446F0B4BA48BB4BBB4900681A780978A8
:10D3D0008BB00690914200D134E20132D2B2022ADF
:10D3E00000D1FDE11A70B54B9200D2580699039214
:10D3F00053181B02AE4A1B0A136001230793111C2A
:10D40000AF4EB04BB04FB14C36681B78B0483F6858
:10D410000968247802680496029301970991089498
:10D42000B14605969B460020351C5B46013BDBB2AE
:10D430009B46FF2B72D05F460199FE008E197478CF
:10D440003378A4466345F0D05C007768E418B1787F
:10D450000133DBB2E4003C19C91A4F1EB9412778E9
:10D4600049420B40022F15D0032F10D1291C6C1CF0
:10D470000DD0CC006118890051180875096A4C1C40
:10D48000F7D175788946AC460C1C251CDAE72C1CB4
:10D49000251CD7E76168CF007C18A400A418BA4601
:10D4A000277DA0462C1C002FEFD06F1C14D0A94262
:10D4B00000D183E19C462F1C0B1C009502E0A34287
:10D4C00010D0271CF900C919890051180C6A651C75
:10D4D000F5D1009D63462C1C454628757778251CA0
:10D4E000BC46AFE70C1C009D191C6346A4468F4246
:10D4F00000D14FE154466718BF00D7192C1C396A78
:10D500007D68674639624F1CE6D0CC0061188900FF
:10D5100051184C6865194D604C46DDE7684F4E4622
:10D5200005953E6009986249089D684C079E086011
:10D530002570002E00D055E105980499431A5A1E13
:10D540009341DBB2069301235B429C465E4E604FE3
:10D550003668574804965D4C594E3D6807682478F4
:10D560003668BB460021059F039400968946029BBE
:10D57000013BDBB20293FF2B00D1ADE0049CDB004A
:10D58000E418A246644601343FD06646F400644481
:10D59000A4002C19216AA368E068E0468C465E4628
:10D5A0009A1B4C491202120A8A4263D81018606012
:10D5B00001214E4601204942A660E66020752162A5
:10D5C0007A1C6DD0F900C919890069186268486829
:10D5D0003E1C824208D855E0D900C9188900691854
:10D5E0004868904259D21E1C0B6A121A581CF3D17B
:10D5F0002362F3009E19B600AE19414662603B1CDF
:10D6000031621F1C64460134BFD1564633787278AC
:10D610009A42ACD05A0056465446D2186468013338
:10D62000B178D200DBB2A218337099423CD0516875
:10D630003B1C884611780129E3D14346DC00444471
:10D64000A4002C19217D3B1C0029DAD19368A3602A
:10D65000D068E060166926615269E261039A002A87
:10D660009DD000235E46A1609A1B1A491202120A3D
:10D670008A429BD9F31A1B021B0A83420AD2C01AA0
:10D68000606095E7821A4A604346276244460094E8
:10D690001F1CB7E74B4663608AE7801A4860A7E71C
:10D6A000434600931F1CADE748463070BFE7C046B5
:10D6B000682800207C2800207D2800208828002061
:10D6C000802800207428002078280020842800204A
:10D6D00070280020FEFF7F0000986349059A0860CB
:10D6E000974200D16EE07C1C00D1BAE05F4DFA0099
:10D6F0002B68D719BF00DB195C685D4A5D4B5E4E35
:10D700009A5831685D4D571A3F023F0A287803370F
:10D71000B846002821D18020D1264002B600985179
:10D72000C126B6009851C02755488026B6027F0012
:10D73000C6510660012018602F200138C046C0463F
:10D74000C046C046C046C046C046C046C046C046A9
:10D75000C046C046F1D101232B704346A34200D2FC
:10D76000231C5B181B024349A8201B0AC0000B5056
:10D770003F489B1A09581B02891A0902090A0331FA
:10D780001B0A994222D9802180233D4A89025B00ED
:10D79000D1501BE0E900491989005118271C096A7A
:10D7A0004C1C02D089460C1CA9E6324C0125A56010
:10D7B00089460C1C002108950991A0E64746414680
:10D7C000C446ECE7069B002B00D08CE72D4C0023D1
:10D7D00023700BB03CBC90469946A246AB46F0BDC8
:10D7E0000022FFE5214A012317685B424A46059D56
:10D7F00000240026181CBC461BE0EB005B199B00B4
:10D8000063445968039FB94222D87A1A03921F6A67
:10D810001A6964185E601E75B846002A07D006991A
:10D82000186267183F023F0A9F60DA60281C45466D
:10D8300042466B1CE1D10C4C0595012584462260C3
:10D84000069583E600240025039407950A49D7E549
:10D85000C91B844604485960012102600595069160
:10D8600074E6FFF7F5FCB1E780280020702800205F
:10D8700004050000001001406828002090280020C6
:10D8800000E100E084280020F0B557464E464546AA
:10D89000E0B481468A4690461F1C0720990704D0B1
:10D8A0001CBC90469946A246F0BD002BF8D0FFF76D
:10D8B000CFFC314B089A50461A60304B51461870D5
:10D8C0002F4B1F60002955D05146CA0053189B00AA
:10D8D0003C1C0025002624352670267524349D42E4
:10D8E000F9D152449200274BBF1803221A70264BDD
:10D8F000391C1F6043465A0042441831D2007960F7
:10D9000089188A18F9607A610121204A4942116018
:10D910001F4A002313701F4A3B7013707B703B72C9
:10D920007B723B747B7480221B4BC02140465203A8
:10D930004900B870B872B8745A50C5218900585857
:10D94000FF24A043C024204358501A60A121134A49
:10D95000C90048465050C42189005C5810482040F6
:10D96000C0242402204358500E4B0020D2580E4BA6
:10D970001A6095E70022B4E76C2800207E2800207A
:10D98000702800207428002078280020802800209B
:10D990007C2800207D28002000E100E000100140EC
:10D9A000FF00FFFF0405000068280020F0B5174BBA
:10D9B00094461C68002C1CD0002A18D0002816D0D1
:10D9C000134B1E78002E10D02378002B13D0243454
:10D9D000002307E0271C2434251C243D2D781A1C25
:10D9E000002D0AD00133B342F4DB0420F0BD072040
:10D9F000FCE70820FAE7271C002201233B7063465E
:10DA00007970BB6102600020F0E7C04670280020FA
:10DA10007E280020F0B5474680B43D4B1C68002CA2
:10DA200047D03C4B1D780723854203D8181C04BC03
:10DA30009046F0BD0429F9D9C3001B189B00E418D7
:10DA400025780823012DF1D16378012B33D00023F1
:10DA50009846314B5C681023E405E40D2FD12F4C20
:10DA60002668F6187378B4785D1C2C1B671EBC41C1
:10DA7000644225403478AC421FD05C00E4187368DF
:10DA8000E4001C190423002CD0D001232370606013
:10DA9000234B24484746C358E160A360626180215C
:10DAA0008023214A5B00490327617570D150002310
:10DAB000BCE70823BAE78846CBE70423B6E7103C67
:10DAC000E3B25DB2002D13DBAD08C035164BAD00DF
:10DAD000EB5803252C40E400E3401C06A40FE4B2FD
:10DAE0000023012CBBD00823032CB8D01023B6E7A9
:10DAF0000F241C40083C0D4DA408A4006419032504
:10DB000064682B40AB40DC40E4B2A409E7E7C046C0
:10DB1000702800207E28002000ED00E078280020FA
:10DB2000040500000010014000E100E018ED00E0F5
:10DB300030B5334B1A68002A35D0324B1978072399
:10DB4000814201D8181C30BDC3001B189B009A5C91
:10DB50000823012AF6D12C4B5A681023D205D20D86
:10DB600025D12A4A1168C9184B788C785A1C141B85
:10DB7000651EAC41644222400C78944215D05C0092
:10DB8000E4184B68E4001C190423002CDAD00223AB
:10DB90002370606080234A7080211D4A5B00490326
:10DBA000D1500023CEE70823CCE70423CAE7103A7C
:10DBB000D1B24BB2002B13DB9908C031144B890052
:10DBC000CB5803210A40D200D3401A06920FD2B29A
:10DBD0000023012AC5D00823032AC2D01023C0E79E
:10DBE0000F230B40083B0B4A9B089B009B185A686D
:10DBF000032319409940CA40D2B29209E7E7C046D0
:10DC0000702800207E28002000ED00E07828002009
:10DC100000E100E018ED00E070B5161C0C1C8D183A
:10DC2000002A05DD2078013400F07AFAAC42F9D1FF
:10DC3000301C70BD10B50C1C201C00F069FA0528C2
:10DC4000FAD0012010BDC04630B51F4C85B02378F6
:10DC5000DBB2002B05D0032B01D10223237005B0CA
:10DC600030BD1A4BA0220421D2009950184801223D
:10DC70001A608568C1688D4218D02178022900D0C9
:10DC80009A6069460731FFF7D1FA002810D10F4B8F
:10DC9000C221802289005A506946C8790D495850DE
:10DCA00002212170C12189005A50D8E72270D6E79D
:10DCB000064A0123D36002A8237003230370064B96
:10DCC0001B689847CBE7C046A828002000200040EA
:10DCD000982800201C0500009428002010B5204C36
:10DCE00084B02378DBB2002B0CD0022B0CD9032B91
:10DCF00008D11C4B012100222270D9605960A0215B
:10DD0000C9005A5004B010BD17488268C3689A42CF
:10DD10001AD02378022B02D0124B01229A60694656
:10DD20000731FFF783FA00280ED10E4BC221802263
:10DD300089005A506946C8790C495850022121700F
:10DD4000C12189005A50DDE7064A0123D36002A8A9
:10DD5000237003230370064B1B689847D2E7C04625
:10DD6000A828002000200040982800201C05000062
:10DD70009428002030B585B000F026FC00282FD173
:10DD8000274C2378DBB2002B05D0032B01D10223D3
:10DD9000237005B030BD234BA0220421D20099503E
:10DDA000214801221A608568C1688D4222D02178FD
:10DDB000022900D09A6069460731FFF737FA002838
:10DDC00023D1184BC221802289005A506946C87954
:10DDD0001649585002212170C12189005A50D8E7B4
:10DDE0000F4A1378DBB2012B06D0022BD1D10323CB
:10DDF0001370CEE72270CCE700211170094AD3607E
:10DE00005360A023DB00D150C3E7064A0123D3604F
:10DE100002A8237003230370054B1B689847B8E7DB
:10DE2000A828002000200040982800201C050000A1
:10DE30009428002010B5244B84225200995882B0B7
:10DE4000002920D1204A8E235B00D158002915D10A
:10DE50001D4B92225200995800290DD00021995053
:10DE60009021C9005A5868465A50022369460B70DF
:10DE7000164B01921B68984702B010BD0021D1508B
:10DE8000FFF72CFFE4E700219950A322D200995814
:10DE90000F4CC9B2201CFFF7B5F900280BD1A368BD
:10DEA000E268D31A012BCDD1084B6A4610701B686B
:10DEB00068469847C6E7012369460B70034B0190FB
:10DEC0001B6868469847BDE7002000409428002062
:10DED000AC280020F0B557464E464546E0B47F4D8D
:10DEE0000C1C002129707E49061C82B01F1C0A6090
:10DEF0000720002C06D0A2887A482168FFF76EF927
:10DF0000002805D002B01CBC90469946A246F0BD40
:10DF1000A168A2897448FFF761F9041C002CF1D1B3
:10DF20007278A023C132FF32DB0592000321D15069
:10DF30003278C132FF329200D45071786B4B6C4A08
:10DF4000995031786B4A9950B1686B4A99507279FF
:10DF5000002A4CD0694A0E2199503379022B65D0A2
:10DF6000012B47D0614BA0220421D200995084217B
:10DF7000002249005A508E2149005A505F4901221F
:10DF80005858904358500121A1204942C0001950CF
:10DF9000A220C00019509A601A602A700A990B8852
:10DFA000002B05D1564A1378591C11700A9A138018
:10DFB0004E4B0121C222494292009950A121C12217
:10DFC0008900920099504F4BC021042249005A50B9
:10DFD000C02189005D58FF20BF0107404A4C38042A
:10DFE0002F1C274007435F5000201A608AE74349EF
:10DFF0005A50B2E73D4AA0210420C9005050842065
:10E000000021400011508E20400011503B495058D3
:10E0100018435050F078A221C9005050B078A12187
:10E02000C9005050936013602B70B7E700F02EF9D1
:10E03000002804D100F0F2F8002800D062E76A4618
:10E04000002313800024012394705370B078694634
:10E05000984600F023F9002800D053E7234AA22372
:10E060009146012249465242DB00CA50B278A123B0
:10E07000DB00CA50214BCA5841460A434946CA50A0
:10E0800001A903220A704C708C70CC709046F07815
:10E090001E4A00F06BF98246002800D032E7F07883
:10E0A000012100F045FAF07800F08EFA002809D03E
:10E0B0002B78DBB2012B08D0022B00D06EE7434651
:10E0C0002B706BE7FFF7C0FD68E749462C70CB600B
:10E0D0004B60A023DB005246CA505FE7A82800200F
:10E0E00094280020AC280020982800200020004020
:10E0F0000C05000014050000240500006C0500005C
:10E100006428002000E100E0FFFF00FF75DD010052
:10E1100008B5011C0148FFF789F808BDAC280020AC
:10E1200070B51A4D011C84B0281CFFF76BF8184C11
:10E13000061C2378DBB2012B02D0301C04B070BD6A
:10E140002278022A01D0134A93606946281C0731BD
:10E15000FFF76CF800280ED10E4BC22180228900F7
:10E160005A506946C8790C49585002212170C12182
:10E1700089005A50E1E7074A0123D36002A82370BF
:10E1800003230370054B1B689847D6E798280020A7
:10E19000A8280020002000401C0500009428002032
:10E1A000F0B500281FDB82081A4B9200D218C0B2CB
:10E1B000C02303249B00FF250440E400D6582F1CF5
:10E1C000A7408901BE430D40A540341C2C43D450C8
:10E1D0001F23184001238340181CC0220D4B5200FE
:10E1E00098501860F0BDC0B20F230340083B0A4AA4
:10E1F0009B089B009B180322FF240240D200DE698B
:10E20000251C95408901AE430C409440321C2243AA
:10E21000DA61DDE700E100E000ED00E038B5194C1F
:10E2200008202378002B00D038BD01256D42201C2A
:10E23000291C20222C30FEF7BBFF4C23E554FF2283
:10E240004D23E2544E23E5544F23E5545023E55427
:10E25000062051230121E5546560A560E560256134
:10E260006561A561E56125626562A562FFF798FFBA
:10E270008021C123044A9B000906D1500123237049
:10E280000020D1E7BC28002000600040024B187835
:10E29000431E9841C0B27047BC280020F0B52F4BF8
:10E2A00004251C1828346557021C0820013500D0AD
:10E2B000F0BD8878002830D05868013047D09C687D
:10E2C000013446D0D868013045D01C69042001349F
:10E2D000EED103209C182834207180001B180024E4
:10E2E0005C601F4B1F4CC018A223DB00C5584E7842
:10E2F0002C400F78C4508024640336052640C02487
:10E300003F04A4023C402643F82417026401C55888
:10E310003C4034432C43C45001E0FE232371E024ED
:10E3200064001019A023DB0580000324C450497841
:10E33000012906D0012191400A1C0B4900205A50A6
:10E34000B6E7A120C000914019500020B0E700209E
:10E35000C0E70120BEE70220BCE7C046BC28002081
:10E3600000600040FFE0ECFF0C050000F0B5454602
:10E3700057464E46E0B46B4B041C181828300579FC
:10E3800008207F2D04D81CBC90469946A246F0BDBB
:10E39000C878824600286CD10425AC4604200A25A2
:10E3A0008700B9469846C8444646776801376AD020
:10E3B000461CB046B5425AD9B600B4469C4466469F
:10E3C000776801375AD0861CB046B5424FD9B6009F
:10E3D000B4469C446646776801374FD0C61CB046A9
:10E3E000B54244D9B600B4469C44664677680137C6
:10E3F00044D0061DB046B54239D9B600B4469C4457
:10E4000066467768013739D0461DB046B5422ED9E9
:10E41000B600B4469C446646776801372ED0861D08
:10E42000B046B54223D9B600B4469C4466467768E8
:10E43000013723D0C61DB046B54218D9B600B44640
:10E440009C4466467768013718D008263618B046CF
:10E45000B5420CD9B600B4469C446646776801378D
:10E460000CD00930854202D9986A01303ED0042090
:10E4700089E70026B4460020042591E74046C6B24D
:10E480008700B446B9461D192E1C283665464F46EE
:10E490003571DE1972605246002A02D118184430D4
:10E4A00004718A78002A16D1E0264D787600A019EA
:10E4B000A022AD008000D2058550CA78002A17D16D
:10E4C00065466AB29B1844330A78197992010A4367
:10E4D0001A71002057E7A025ED05A000E0224019A1
:10E4E000D20085580226B5438550E6E70920C6E7E5
:10E4F00067460D487AB29200A2231218DB00D0586A
:10E500000D780A4924020140F82040010440C0204F
:10E51000D1502D048002D158284004430C43D450DC
:10E52000002030E7BC28002000600040FFE0FCFF36
:10E5300030B5224C231828331A7953B2032B17DD38
:10E54000E31844331B799B09032B2AD0012B31D0CC
:10E55000C0229202A023DB058000C018E023DB006C
:10E56000C45817492140C150C1580A43C25030BD58
:10E57000032AFCD8134A98008018A222D20085589A
:10E58000012425438550181C403080000D4A80B27C
:10E59000002585500029EAD0C1219C4089005450B3
:10E5A000E5E7A223A022DB00D205D2580123834055
:10E5B0001A42CDD180229202CCE7C046BC2800206E
:10E5C000FFFFFCFF00600040A223A022D205DB0079
:10E5D000D358C340181C012318407047F0B5444677
:10E5E0005F4656464D46F0B4874A85B0136800240E
:10E5F000012B6AD0854B1968012900D173E0844B47
:10E600001A68012A00D17EE0824B1968012900D1E5
:10E6100089E0814B002219689046012900D194E0DD
:10E6200022070BD0E30700D5A6E0A10700D5B2E092
:10E63000620700D5BDE0230700D591E0002C06DB82
:10E6400005B03CBC90469946A246AB46F0BD734D22
:10E65000E0232C1C2F1CDB004C345237C026AA466A
:10E66000994606E05B46032B00D1B2E00134BC4280
:10E67000E6D02178081CB0432B1828331B795BB2F5
:10E68000032BF3DD9B0053445B680093002BEDD01C
:10E6900089090291A0218200C90551184A468B5868
:10E6A000019101229903890F131C8B468340414637
:10E6B0001942D7D05A46022AD8D10299032900D14B
:10E6C0009EE00299009A9047D0E7C1215448890002
:10E6D00041580B4200D18DE74C4B1460196801245E
:10E6E000012900D08BE7C1224D49920089580222AE
:10E6F0000A4200D183E700211960454B14431A6890
:10E70000012A00D080E7C12245499200895804229D
:10E710000A4200D178E7002119603E4B1443196882
:10E72000012900D075E7C1223D499200895808228D
:10E730000A4200D16DE700211960374B1443196874
:10E7400000229046012900D06AE71A6080231B0648
:10E750001C43A022A223DB00D205D15888465FE7E4
:10E760002F4A304BD058D1582C4BC0048903C00ECF
:10E77000890F1B69984761E7294AA223DB00D0581B
:10E78000D158264BC0048903890FC00E5B68984797
:10E79000A10700D44CE7224A234BD058D1581F4B35
:10E7A000C0048903C00E890F9B689847620700D494
:10E7B00041E71B4AA323DB00D058D158174BC004B4
:10E7C0008903DB68C00E890F9847230700D435E71B
:10E7D000C6E7029B032B00D073E702210391019B44
:10E7E00049465A58114B111C1940019B4A469950F1
:10E7F0009958039A4B4612040A430199CA5060E79C
:10E80000029A0392EBE7C0460061004004610040B9
:10E81000086100400C6100407C610040BC28002081
:10E82000006000401C05000014050000FFFFFCFF15
:10E8300029DF704728DF7047F8B54F464646C0B419
:10E840006F4C814625788846161C1F1C002D15D15B
:10E85000131C3B4319D1022323704046FFF7EAFF04
:10E86000002835D1002E00D0C6E0002F00D0B8E03F
:10E8700049460B78042B00D0AEE049E0062D00D9C4
:10E88000ADE0604BAD005B599F46012323705E4BAA
:10E89000586980235B05411C00D1A5E01969090472
:10E8A000090C03F0AFF980235B051D6919691A692A
:10E8B000431E2804000C09045843090C434692B235
:10E8C00059439208FFF7B4FF002801D102232370B7
:10E8D0000CBC90469946F8BD4B4B586980235B05AC
:10E8E000411C00D186E019690904090C03F08AF97A
:10E8F00080235B051A691969431E1004000C090482
:10E900005843090C03F07EF9FFF794FF0028DFD18C
:10E9100007232370DCE780235B051869930000045C
:10E92000000C484318184B465A8819699208FFF79B
:10E930007FFF0028CCD13E43EAD006232370C7E7EF
:10E9400080235B051D69304A2D0450692D0C4D4311
:10E95000411C4DD019690904090C03F053F98023B7
:10E960005B05196901380904090C4143321C281C54
:10E97000FFF75EFF0028ABD1002F32D14A46137853
:10E98000042B29D1D9E780235B051A69414612047B
:10E99000120C4A434588B6005219921990461A4AF9
:10E9A0005069421C22D019690904090C03F02AF9A4
:10E9B00080235B05196901380904090C4143761964
:10E9C000711840463A1CFFF733FF002800D07FE75C
:10E9D00049460B78042BB0D00523237078E7032039
:10E9E00076E70423237073E758695CE75869DFE72B
:10E9F0005869B4E758697BE70323237068E7C0468A
:10EA0000F5290020342B020000100010F8B5384D15
:10EA10002B789A00D3189B00EB181C1D1B79E66815
:10EA2000042B38D0052B14D00F20022B00D0F8BDBA
:10EA3000304B20691B8862889B02C118A088D21ABB
:10EA40008619F0182C4B9A423AD89208FFF7F0FE3C
:10EA50001CE080277F053969301C0904090C03F08C
:10EA6000D1F8A388011C9E193A693B691204120C63
:10EA70001B04481C4A431B0C43436088B21A861986
:10EA80009B1B92089B08201CFFF7D6FE0028CED1C6
:10EA90000123AB70CBE7A26818491301CB18198981
:10EAA00058895B68B34210D0022A12D080277F05B4
:10EAB0003969301C0904090C03F0A4F8011CD3E7E0
:10EAC00080225200FFF7B4FEE0E741436388994299
:10EAD000EAD180235B051969301C0904090C03F095
:10EAE00091F8044B1B88C018FFF7A4FECEE7C04680
:10EAF00010290020F6290020FF030000DC29002057
:10EB0000F8B506AC2488071CA446144C042066788B
:10EB10000A2E1BD025787519EDB2092D01D90A3DB1
:10EB2000EDB2A8004519AD00651900206A612A1CE4
:10EB300068712F710C3281C981C260462881EB80D7
:10EB4000A3780020002B02D001366670F8BDFFF7D5
:10EB50005DFF66781128F7D10020F5E71029002025
:10EB6000F0B544465F4656464D46F0B4634C85B01A
:10EB7000A378002B27D0624B00221978A2700829B5
:10EB800028D0022844D003281DD123789A00D31816
:10EB90009B00E418251D6B780133DBB26B70032BEF
:10EBA00000D19DE0FFF732FF021E0CD011280AD0E1
:10EBB000AB68201C21796C881E012B690094514C94
:10EBC0000C303459A04705B03CBC90469946A2464B
:10EBD000AB46F0BD022800D04B4B1A706378002B77
:10EBE000F1D0FFF713FF021EEDD01128EBD02378F0
:10EBF0009900CB189B00E418E76821796369201C11
:10EC0000E4883E0100943F4C0C303459A047DAE7C9
:10EC10002578A8004619B600A6190296321C3B4E6C
:10EC2000834637880120B8468044B2464646B6B28D
:10EC30005746B0463E80029E04323679022E42D0BC
:10EC4000052E3AD0042E3AD1072906D056884046E0
:10EC50008002B04228DB002926D1002119705346DA
:10EC600019806378013B63706B1CDBB2092B01D9FF
:10EC70002B1C093B237096681369101C029F528855
:10EC8000397900921F4A36010830B6580022B04741
:10EC9000584643199B00E318002201201A71DA80BC
:10ECA000D8601A615A611A816378002B00D18AE713
:10ECB000A378002B00D086E793E70729CDD0002169
:10ECC0000029F1D0C9E750884746BF020390B846F3
:10ECD000039E4146FF17C00FB1424741391CEFE781
:10ECE000A9686A880E012B6921790092054A201CC7
:10ECF0000C30B4580D22A04765E7C046102900200B
:10ED0000F5290020DC290020F4290020F629002024
:10ED100010B5554C00222C202254402000232254B0
:10ED2000422023524420235250495420225456203A
:10ED30000B8023520121582022706270A270227130
:10ED4000E380236163612381227663836362A3622C
:10ED5000A383E385A363E3632386E3642365E16020
:10ED600021626163A164E1652352682022546A2014
:10ED700023526C2023527C2022547E202352842054
:10ED80002150882023508C20235080202352902013
:10ED9000225492202352982021509C202350A020BE
:10EDA000235094202352A4202254A6202352AC2086
:10EDB0002150B0202350B4202350A8202352B82043
:10EDC0002254BA22A352C022A150C422A350C82266
:10EDD000A350BC22A352264A236663666367A367D7
:10EDE00021671380234B5869431C36D080235B0571
:10EDF00019690904090C02F005FF802149050A6917
:10EE0000831E1004000C58431B4B002218601B4B40
:10EE10001A601A819A815A81194B08221A70154B6F
:10EE20005869431C1DD009690904090C02F0EAFE67
:10EE300080235B051A691969431E1004000C09043C
:10EE40005843090C02F0DEFEFFF7F4FC002803D162
:10EE50000C4A0123A370137010BD80235B05586911
:10EE6000CBE74869E4E7C04610290020F6290020D6
:10EE7000EC29002000100010F0290020DC290020DF
:10EE8000F5290020F4290020F8B556464D464446A1
:10EE90005F46F0B4454B051C1B780E1C0824002B64
:10EEA00006D1201C3CBC90469946A246AB46F8BD14
:10EEB000002873D0002971D0016800296ED080230A
:10EEC0005B051A69878892B207249742E9D80F2F09
:10EED000E7D9C288002AE4D07A439246344AD3461E
:10EEE00011689146334A88465069C344421C57D042
:10EEF00019690904090C02F085FE80235B051A6973
:10EF0000411E1204120C4A4307249345C9D81A69BA
:10EF100092B2524507DA1869391C80B202F0B6FE87
:10EF200089B20029BDD10724BB07BAD122490424E4
:10EF30008C4609880129B4D04346204F7360316064
:10EF40000E01BB1942465A602A684446BA51AA8843
:10EF50001A81E8885881424380200023400509E057
:10EF600005692D042D0C521B05692D042D0C641907
:10EF7000002A17D005690133ADB29BB29542EFD399
:10EF800080225205126992B2A4184A461460BE1932
:10EF9000B381013163461980002482E70E2480E7A3
:10EFA0005869AAE74A461460F1E7C046F4290020F0
:10EFB000F029002000100010EC290020DC2900209E
:10EFC00030B5114B1C780823002C01D1181C30BD22
:10EFD000002806D0002A04D00368002B03D00723A2
:10EFE000F4E70E23F2E7094C2568002DF7D02589B8
:10EFF0004068694309186089454360682D18A94233
:10F00000EDD213605160E1E7F4290020DC290020F3
:10F01000F0B5474680B41E4C051C247882B00E1C07
:10F02000171C0820002C03D102B004BC9046F0BD90
:10F0300000292BD0002D29D0296807200029F3D1E1
:10F04000144A1468002CEFD06968548988461189E5
:10F0500052684C43A44662449045E5D2002FE3D069
:10F06000B942E1D3FA189142DEDB1020B107DBD1BF
:10F0700003221342D8D144461442D5D10093291C0F
:10F08000321C3B1C0220FFF73BFDCDE70E20CBE7F7
:10F09000F4290020DC290020F0B5474680B41E4C3E
:10F0A000051C247882B00E1C171C0820002C03D1EC
:10F0B00002B004BC9046F0BD00292BD0002D29D011
:10F0C000296807200029F3D1144A1468002CEFD0D6
:10F0D000696854898846118952684C43A446624441
:10F0E0009045E5D2002FE3D0B942E1D3FA1891421E
:10F0F000DEDB1020B107DBD103221342D8D1444616
:10F100001442D5D10093291C321C3B1C0520FFF76B
:10F11000F7FCCDE70E20CBE7F4290020DC29002006
:10F12000F0B5454657464E46E0B4264C82B02578A9
:10F13000071C0E1C90460824002D06D1201C02B08E
:10F140001CBC90469946A246F0BD002906D0002876
:10F1500004D00C68002C03D00724EFE70E24EDE761
:10F16000194D28680028F7D02A89688949685043D2
:10F170008446686884446145EED240460028EBD05E
:10F180004245E9D39C46C4446245E5DBBA0701D059
:10F190001024D3E703208146021C0342F8D10A4021
:10F1A0009246F5D159184246381C02F08AFD306863
:10F1B000424603010092ED58301C494652463B1C22
:10F1C000A847BBE7F4290020DC29002070B5174AC6
:10F1D000041C127882B00D1C0820002A01D102B054
:10F1E00070BD002C20D022680720002AF7D1104BD8
:10F1F0001A68002AF3D05E6819895B8962684B43FC
:10F200009B199A42EBD210209307E8D1901B02F091
:10F210003DFD07200029E2D100910022211C2B1C7A
:10F220000420FFF76DFCDAE70E20D8E7F429002070
:10F23000DC290020074B1A780823002A01D1181C6A
:10F240007047002804D0044B5B7803600023F6E786
:10F250000E23F4E7F42900201029002010B5074AF6
:10F26000A023DB05995880221203141CA1208C4393
:10F27000C0001C5002480A401A5010BD040500008E
:10F280000C050000F8B5864B1B68DA0700D4F8BD02
:10F29000844B1C78172CFAD88349A2008A589746C9
:10F2A0008248A023A1218024DB050022C900240379
:10F2B0005A501A501C505A50E9E77D4D2868FEF705
:10F2C00037FC11231C1B49D0002847D1012C0CD03E
:10F2D000C8206421604302F095FC764B2D681968C4
:10F2E00000224143281CFEF795FB704AA023802191
:10F2F000DB0509039950A1220021D2009950C6E7ED
:10F300006D4AA023DB05995880221203141CA1200A
:10F31000C0008C431C5065480A401A50674B0022BD
:10F320001868644B1968FEF775FBB0E7624AA023C2
:10F33000DB05995880221203141CA1208C43C000C5
:10F340001C505A480A401A505C4B00221868594B0E
:10F350001B689900C918FEF75DFB98E7A023802180
:10F36000A122DB050903D2009950504A002199508F
:10F370008DE7A022A1204D4DD20500214E4EC000A8
:10F380001150515197598026360337406FD116508E
:10F3900057512822022C67D01C7012E0A022A12015
:10F3A000424CD2050021444DC00011501151565914
:10F3B00080252D032E4062D11550032116510822BD
:10F3C00019703E4B18683B4B196851430022FEF7F9
:10F3D00021FB5CE7A023A121DB050022C9005A50D4
:10F3E00032495A5053E7A022A120304CD2050021C7
:10F3F000314DC00011501151565980252D032E401A
:10F400004AD11550165106221A7087E7A022A12072
:10F41000264CD2050021284DC000115011515659DB
:10F4200080252D032E4032D115500421165128225B
:10F43000C6E7A022A1201D4CD20500211E4DC00010
:10F4400011501151565980252D032E401CD11550B5
:10F45000165105221A70194B00221868154B1968AD
:10F460004900FEF7D7FA12E712221C70A9E756519D
:10F4700011500422022C8FD102221C70A1E71551D9
:10F480001150022203219BE715511150E1E715515C
:10F4900011500422042193E715511150B3E7C046DF
:10F4A000F8290020042A0020502B02000C0500003F
:10F4B000002A0020FC29002004050000082A002062
:10F4C000002300200B70704770B5BA4B041C1B68FA
:10F4D0000020DA0700D470BD172CFCD8B64AA30070
:10F4E000D3589F46B54AA023DB05995880221203C2
:10F4F000141CA1208C43C0001C50B1480A401A5073
:10F50000B04B00221868B04B1B689900C918FEF771
:10F5100081FAE0E7A94AA023DB059958802212036B
:10F52000141CA120C0008C431C50A5480A401A504E
:10F53000A44B00221868A44B1968FEF76BFACAE7BF
:10F54000A24D2868FEF7F4FA11231C1B00D10DE12F
:10F55000002800D00AE1012C0CD0C82064216043AF
:10F5600002F050FB984B2D68196800224143281C7B
:10F57000FEF750FA924AA0238021DB050903995037
:10F58000A1220021D2009950A5E7A0238021A12229
:10F59000DB050903D2009950894A002199508C4B10
:10F5A00012221A70002096E78548A023A12180240A
:10F5B000DB050022C90024035A501A501C505A502F
:10F5C000834B13221A70002085E77D4AA0238021F7
:10F5D000DB0509039950A1220021D20099507C4BF0
:10F5E00000201C7077E7A022A121D2050023C900CA
:10F5F0005350734900205350754A13706BE7A02392
:10F60000A1216F48DB0500226C4DC9005A501A50E9
:10F610005E5980252D032E4000D0BAE05D501E506B
:10F620002823022C00D1C3E0694A1470654A10688F
:10F63000654A116800225943FEF7ECF94BE7604A2E
:10F64000A0238021DB0509039950A1220021D200CB
:10F65000995000203FE75A48A023A1218024DB05D0
:10F660000022C90024035A501A501C505A50584BBB
:10F6700014221A7000202EE7A023A1215048DB0598
:10F6800000224E4CC9005A501A501D5980242403A0
:10F69000254076D15C501D500321082311E0A023A2
:10F6A000A1214748DB050022444CC9005A501A509A
:10F6B0001D5980242403254073D15C501D502823FC
:10F6C0000421434A1170B1E73D48A023A1218024C1
:10F6D000DB050022C90024035A501A501C505A500E
:10F6E0003B4B07221A700020F5E63548A023A121E4
:10F6F0008024DB050022C90024035A501A501C50F4
:10F700005A50334B15221A700020E4E6A023A121A1
:10F710002B48DB050022294CC9005A501A501D59AC
:10F7200080242403254031D15C501D50284B0522F4
:10F730001A70244B00221868234B19684900FEF701
:10F7400069F9C8E6A023A1211D48DB0500221B4C56
:10F75000C9005A501A501D5980242403254024D131
:10F760005C501D501A4B06221A70E1E6A02380213E
:10F77000A122DB050903D2009950114A00219950BA
:10F78000A9E61C505A50022303219AE71C505A50F4
:10F79000CCE71D505A500423022C00D044E702232A
:10F7A00042E71C505A5004238AE71C505A50D9E7AC
:10F7B000122339E7F8290020B02B020004050000CD
:10F7C0000C050000082A0020FC290020002A002047
:10F7D000042A002008B5104B1960104B1860C307AD
:10F7E0000CD5A0238022A121DB051203C9005A50A9
:10F7F0000B4900205850A321C9005A500948002144
:10F80000094AFEF7D3F8002804D108480121084A24
:10F81000FEF7CCF808BDC046FC290020F8290020DE
:10F820000C050000082A002085F20100002A0020B3
:10F830005DF20100072070470620704708B50320DD
:10F84000FFF7FAFF031C0020002B04D0981F421E74
:10F8500090414042184008BD10B50388102B08D0D5
:10F86000112B05D1294A1368013B1360002B07D0E7
:10F8700010BD264C2368002B11D001332360F7E71D
:10F88000002002210122FFF7D5FF00282BD00728F6
:10F8900029D01F4B1B68002BEAD09847E8E70020CF
:10F8A00000210122FFF7C6FF002808D0072806D054
:10F8B000174B1B68002B00D098472368DDE7012019
:10F8C00002210722FFF7B6FF002801D00728EFD159
:10F8D000002002210422FFF7ADFF0028EDD0072809
:10F8E000E6D12368C9E7012002210722FFF7A2FF22
:10F8F000002801D00728CCD1002000210A22FFF7E0
:10F9000099FF0028B4D00728C3D1B1E7102A0020FE
:10F910000C2A002010B5234B84B00C1C186016D0A4
:10F9200000206946FFF7CCFD002801D004B010BDCF
:10F93000012002A9FFF7C4FD0028F7D16A46137A17
:10F94000002B29D16A461378002B28D12370164B3F
:10F9500000201B68002BE9D102210122FFF76AFF7A
:10F96000002801D00728E1D1012002210722FFF75A
:10F9700061FF002801D00728D8D1002000210A22E9
:10F98000FFF758FF031C0020002BCFD0D81F421ECA
:10F99000904140421840C9E702232370D7E70B2368
:10F9A0002370D4E70C2A0020102A00203CDF704787
:10F9B00048DF704775DF704776DF704786DF704736
:10F9C00087DF704788DF704760DF704708B50378CE
:10F9D000013B012B00D908BD406800210022FDF742
:10F9E000F1FBF8E700B597B06846FFF723FC002865
:10F9F0002ED1009B002B04D01D4B01221A7017B092
:10FA000000BD02A90B7306AB0822029319480EAB86
:10FA10000A718B6001F0F4FC002823D11648FC2306
:10FA2000027813400370A0230381502343810023F5
:10FA300043608381FFF7C2FF00280ED10120FFF74A
:10FA400043FD0028DBD000210022FDF7BBFBD6E7F9
:10FA500000210022FDF7B6FBCBE700210022FDF7D5
:10FA6000B1FBEBE700210022FDF7ACFBD6E7C04677
:10FA7000142D0020152A0020042C002010B5041C91
:10FA8000023CFFF76DF8012C03D8054B1A78002AC9
:10FA900000D110BD00221A70FFF7A4FFF9E7C0469D
:10FAA000142D0020F8B5041C01F012FD4448211C5F
:10FAB00000F08AFD4348211C01F058F84248211CFF
:10FAC00000F0D6FA201CFFF7C7FE23881B2B15D0A9
:10FAD0001D2B08D0192B00D0F8BDA379022BFBD128
:10FAE000FFF780FFF8E7A088A11DFFF763FF00285C
:10FAF000F2D000210022FDF765FBEDE7A57B221C7B
:10FB00000F32ED08E8D0E67B277C311C0023022F62
:10FB100005D150E0D0184078D15C022811D00131D5
:10FB20005B189D42F6D8032F48D0002304E0D1187B
:10FB30004978D65C032934D001369B199D42F6D80A
:10FB4000CAE702330139D21889B24908C4D05378C0
:10FB500010781E4E1B020343B3420ED00232002324
:10FB600007E0577815783F02381C02322843B0422C
:10FB700003D001338B42F4D3AEE7FFF721FF00201F
:10FB8000FFF7A2FC002811D1114902220B78A01D19
:10FB90009343104A0B70FFF715FF0F4B00221A70AA
:10FBA0009AE70233711ED21889B2CEE700210022F3
:10FBB000FDF708FBE8E7311C0223C3E70223F1E766
:10FBC000642D0020C82D0020182A00200F180000E6
:10FBD000042C0020682C0200142A002070B50B7839
:10FBE000061C113BDBB20C1C122B16D82E4D9B00B1
:10FBF000EB589F46002162222C48FDF7D9FA2C4889
:10FC000002F068F80020FFF75FFC002843D1294C80
:10FC10002378012B44D0013B2370002070BD002AC3
:10FC2000FBD0101C00210022FDF7CCFAF5E722489A
:10FC300000F0EAFF0028F0D0F4E70720FFF744FCCB
:10FC4000002823D164681D4B2288311C1A801C486F
:10FC5000042202F036F82188144800F07DFC0028C8
:10FC60000FD1144A13780133DBB21370002BD4D1B7
:10FC7000FFF7B8FED1E7124801F024FB0028CCD0F2
:10FC8000D0E700210022FDF79DFAEAE700210022DB
:10FC9000FDF798FAD6E700210022FDF793FAB6E7C0
:10FCA000FFF7A0FE2378B6E7102C0200642D002099
:10FCB000702C0200242A0020C82D0020602D002076
:10FCC000002C002008B5072820D00A2810D00428CE
:10FCD00000D008BD144B13211888FFF76DFE0823D0
:10FCE000021C9A43F5D000210022FDF76BFAF0E7E1
:10FCF0000020FFF7E9FB002811D1FFF79FFD002846
:10FD000008D1FFF753FE0028E3D0ECE7074B0122B0
:10FD10001A70DEE700210022FDF754FAF1E7002116
:10FD20000022FDF74FFAE8E7602D0020142A00209A
:10FD300010B50B78041C002B0AD0012B07D14B788F
:10FD4000191C642B15D8C9B20F4801F0C3FF10BDB0
:10FD500000F024FA002812D1201C00F0DDF9002860
:10FD600003D000210022FDF72DFA084801F0B2FF70
:10FD7000EDE76421C9B2044801F0ACFFE7E70021D8
:10FD80000022FDF71FFAE7E7A82C0200882C0200EA
:10FD900008B5031C0A1C0248191CFDF713FA08BD1C
:10FDA000EFBEADDEF0B500238DB00093002004213E
:10FDB00003226B4BFDF768FD002803D000210022D1
:10FDC000FDF700FA03206749674AFFF703FD0028A3
:10FDD00003D000210022FDF7F5F908AC0020211C1A
:10FDE000FFF798FD002803D000210022FDF7EAF973
:10FDF000267804AD023E73425E415C4B2A1C83CBE5
:10FE000083C26B460022DA81594A0E3308920122DE
:10FE10006260584A281CA26080225200E260211CC5
:10FE20000093554A0323F6B2FEF754F8002803D096
:10FE300000210022FDF7C6F9504801F04BFF0820D1
:10FE40004F494822002301F065FE002803D000211D
:10FE50000022FDF7B7F90222201C0021FDF7A8F9C6
:10FE60006378012293432278637003239A43022329
:10FE70001343201C2370FFF7A7FD002803D00021A7
:10FE80000022FDF79FF93F4801F06AFE002803D0E9
:10FE900000210022FDF796F93B4801F06BFE002897
:10FEA00003D000210022FDF78DF92E70FEF730FF00
:10FEB000002803D000210022FDF784F9281C01F05E
:10FEC00039F9002803D000210022FDF77BF96846AC
:10FED000002105222530FDF76BF9022260792B4BBA
:10FEE0002271012210430893C0B202231843E32178
:10FEF00008400C210843CF21014061710721A17105
:10FF00001021E171217A22480A431343211C2372F4
:10FF100001F0AAF9002803D000210022FDF752F9D0
:10FF200000F0DCFA002803D000210022FDF74AF996
:10FF3000184B1948211C089300F078F8002803D0CA
:10FF400000210022FDF73EF9FFF74CFDFFF730FDE1
:10FF50000028FBD000210022FDF734F9F6E7C04667
:10FF6000282A0020CD0C0000C5FC01005C2C0200FA
:10FF7000D42D0020142C0020CDF90100BC2C02004F
:10FF8000182D0020A5FA01007DFA0100DDFB01001B
:10FF9000152A002031FD0100182A002095DF704746
:10FFA00097DF704710B5037882B0002B05D1416808
:10FFB0001B4B0A02120A9A4201D002B010BD194B23
:10FFC00042881B681A80027A002A0DD0164944899B
:10FFD0008C4222D0012A07D9C48A8C421BD0022A23
:10FFE00002D9428C8A4206D0002269460A70181C47
:10FFF0009A689047E1E7022251008A18920080181F
:020000022000DC
:10000000828A69465A80428A181C9A8000220A70A5
:100010009A689047D1E70122EEE70022ECE7C0465C
:100020000F180100802E0020192A000000B5031CC3
:1000300083B00E20002B13D0002911D001A801227B
:100040008270084A0280084A1360012252421A80D4
:1000500000225A809A8009689960044900F052FA97
:1000600003B000BD0F180000802E0020A5FF010086
:1000700030B583B000280DD000290BD00B88352B6C
:100080000FD009D9372B18D0382B03D18A89838810
:100090009A4231D003B030BD102BFBD18B88038046
:1000A000F8E78A8983889A4207D102236A46137047
:1000B0008B7C6946537083689847144C144B2568B1
:1000C0001B689D42E6D0AA00124B52199200991863
:1000D000887800280AD0D05A0831FFF761FF00283D
:1000E000D8D1013507231D402560D3E7D05A898830
:1000F0000022FFF753FFF2E76A46012313708B7C5F
:100100006946537083689847C4E7C046DC2D0020D9
:10011000D82D0020E02D0020031C70B50E20002BF0
:100120002FD01B495D880A681C8893009B181948CA
:100130009B00C3180132072632405D8100250A600A
:100140005D710221144DD981191D19611C80002196
:100150002C6899810121197219719970A24211D0EC
:10016000A3001B199B00C1188A78185A002A0BD1CA
:100170008988FFF713FF002804D1013407231C40AE
:100180002C6070BD0020FCE70831FFF709FFF2E7A3
:10019000D82D0020E02D0020DC2D002070B5164960
:1001A00007240B68154D9A00D218013323400B60C9
:1001B00081889200AA189180114E018834681180BC
:1001C00000219170A34210D0A3001B199B00E918D5
:1001D0008A78585B002A0AD00831FFF7E1FE002830
:1001E00003D1013407231C403460002070BD89888E
:1001F000FFF7D4FEF3E7C046D82D0020E02D002005
:10020000DC2D002090DF704792DF704793DF70474E
:10021000F0B55F464D4644465646F0B46023C35C95
:100220002E255D43354F85B03C688C4601934519BA
:10023000002C09D0324BAA789E7896420BD0012C24
:1002400002D99E7A96420CD005B03CBC90469946A5
:10025000A246AB46F0BD19882E88B142EFD10022EC
:1002600004E01E892A889642EED10122D2009B1812
:100270005A689246002AE7D0224E3568012DE3D80D
:100280005C23C35A2049EA009B46531B8846DB0087
:1002900003934344191C02935B464B80614691468D
:1002A000002925D0039B002241465A5401992E2350
:1002B0005943029A41180432101C2E2201F001FD0C
:1002C0004A46531BDB0043445146013559633560B0
:1002D000A542B9D14046426B90473B68012B04D9F7
:1002E000404641463830CB6E984700233360ABE739
:1002F000039B022241465A54E2E7C046102F0020D9
:10030000FC2E0020F82E0020882E0020F0B5474655
:1003100080B46023C35C2E255D435F23C35C451915
:100320005A00D2189200AA188846911D2A795C1C9E
:1003300082B0944239D0AC465F2793422DD2541EEE
:10034000A3421AD001335E00F618B600AE19063685
:100350000C89F2880134944219D06B46013A1C8012
:100360005A80002241460A705C22805A6946FFF793
:100370004DFF02B004BC9046F0BD63460E899C8DD3
:10038000A6420FD06B4601361E805C80E9E7311C27
:10039000DBB2C3552A799A42D1D8012341460B706A
:1003A0000020E6E70021131CF2E70C89AA8D944295
:1003B000F3D06B4601341C805A80D2E7F8B556461C
:1003C0004D4644465F46F0B43F4A404E1368356898
:1003D0000133041C1360AB4208D300226123C254D2
:1003E0003CBC90469946A246AB46F8BD00215F232F
:1003F000E15460238946C15C2E220131C9B2171C29
:100400004F43C1549846324BC7199A46C9005144CC
:100410009346381C042201F054FC494639715C2390
:10042000E05A01213A1CFFF7EDFE0028D8D06123E5
:100430004A46E2544346E25C5F467A435746A21876
:100440009378B978994238D0012DC9D95746B97AED
:100450009942C5D1398913889942C1D10123DB0062
:10046000534459688C460029BAD01A4F3B68012B77
:10047000B6D8D9005C22A25AC91A174CC9009046B6
:100480008946221C4A44A2464446548001216446BF
:1004900001331170506054633B609D42A0D15046BF
:1004A000416B88473368012B04D950465246383097
:1004B000D36E984700233B6092E73F8811888F42B4
:1004C000C2D10023CBE7C046842E0020102F00208D
:1004D000FC2E0020F82E0020882E0020054A002344
:1004E0001360054A01211170044A00201360044A78
:1004F00013607047102F00200C2F0020842E002046
:10050000F82E0020F8B5021C0C1C002807D000298A
:1005100005D00E4B08201978002902D1F8BD0E2015
:10052000FCE70B4E06203568022DF7D00420012D84
:10053000F4D8084FEB00FF18111C381C04220135B9
:1005400001F0BFFB7C6035600020E7E70C2F002046
:10055000102F0020FC2E002070B5041C0D1C00285C
:1005600025D0144B08201B78002B00D170BD124BF6
:100570001B68002BFAD06126A35D1120002BF5D15A
:100580000E4A201C13600E4A13606022A3545C23A1
:10059000E15204220B4901F094FB281C0121221C8A
:1005A000FFF730FE0028E1D10123A355DEE70E203E
:1005B000DCE7C0460C2F0020102F0020842E0020E6
:1005C000F82E0020FC2E0020F0B54D4644465F4634
:1005D0005646F0B4041C83B00D1C002873D00029CB
:1005E00071D0C94B1B78002B6DD00B88103B9BB290
:1005F000232B68D8C54A9B00D3589F4600235A0036
:10060000D3185B00ED187B00DB19EA899B0063447B
:100610001A825F23E75C00256846057061460B7906
:1006200001379F4200D1B9E15F23E754201C69469E
:10063000FFF76CFE002800D180E16123E5546023C0
:10064000E35C2E215943B24A611813689046002B8F
:1006500039D0B04D8A78AE78964200D155E2012B60
:1006600031D9AE7A96422ED12E890A8896422AD165
:100670000122D200AD1869688946002923D0A64F0F
:100680003A68012A1FD85C21615AD500A34CAD1AE3
:100690008C46ED00611966464E8001266655013292
:1006A0004860484648633A6093420CD1201C616B15
:1006B000884742461368012B03D9201C3830E36E6B
:1006C000984700233B6003B03CBC90469946A24645
:1006D000AB46F0BD6023C35C2E2253431B189C46DF
:1006E0005F23C75CCB88002B95D18889002800D177
:1006F00091E78B4E0B8AB34200D17FE70A1C16327A
:10070000002305E00632911F0988B14200D176E747
:1007100001339842F6D87EE76023C25CCB88002B79
:1007200000D001E12E275743C7193E790B7BF31800
:10073000032B00DD3CE1DBB2984641463971B34200
:1007400036D973009B199B00DB19181C291C99468C
:100750000A2206300E3101F0B4FA4B4600221A820A
:10076000731C9146984500D82FE15A00D3189B007E
:10077000DB19181C291C9A46183106300A2201F090
:10078000A0FA534649461982B31C434500D31CE1E5
:100790005A00D3189B00DB19181C291C9A460A2200
:1007A0000630223101F08DFA53464A461A8203364A
:1007B000013E60237200E35C96192E225343B6007B
:1007C000BF19E318F9899A8D914200D3ACE04046F5
:1007D000032800D1A8E05F2246464046A6540028E0
:1007E00000D099E15A8D69460A809B8D4B805C232D
:1007F000E05AFFF709FD002800D164E700226123D9
:10080000E2546023E35C2E225A43414BA2189846DF
:100810001B68002B00D156E73E4D9178AE788E4292
:1008200000D192E1012B00D84DE7AE7A8E4200D084
:1008300049E729891288914200D044E70122D20079
:10084000AD1869688C46002900D13CE7324F3A6800
:10085000012A00D937E75C21615A3824261C564307
:100860002E4D8946B246A919A34601264C464C8016
:10087000B14654462E554A444860604648633A6043
:100880009A4200D01FE700245E46414609688C4228
:1008900000D316E7301C60432818436B9847013497
:1008A000F3E762220021FCF783FC012252425C2321
:1008B000E25208E7CB88002B46D06023C35C2E2190
:1008C0005943134B411898461B68002B00D12EE169
:1008D000104D8A78A878904200D1D4E0012B00D83E
:1008E0002AE1A87A1E1C904200D107E10D4A136844
:1008F00001331360B3426AD300226123E254E2E67B
:100900008A885C23C252DEE60C2F0020D82C02001D
:10091000102F0020FC2E0020F82E0020882E002012
:1009200002290000842E002000255F23E554201CAE
:100930006946FFF7EBFC002800D07EE66E46337870
:10094000002B00D1BFE62BE06027C35D2E2673434A
:100950001B189846181C0E31042201F0B2F94046CB
:10096000291C2A301231042201F0ABF9E35D5E4309
:100970005F23E35CA619002B1DD1738D68460380AD
:10098000B38D694643805C23E05AFFF73DFC0028A5
:1009900000D198E600226123E25450E6012303705F
:1009A000201C0121FFF734FC201CFFF707FD8AE61D
:1009B00003239846C1E6013BDBB25A00D3189B00E3
:1009C000F318DB8901339BB2D8E71E1CF0E6002147
:1009D0005F23E1546023181C9946E35C8A46013387
:1009E0002E21DBB20F1C5F432354E719DB000422E6
:1009F0008B46381CE91801F064F952463A715C23C1
:100A0000E05A01213A1CFFF7FDFB002800D15AE60D
:100A100061235146E1544B46E25C59464A43A218D1
:100A20009378A978994200D188E0012E00D84AE64F
:100A3000A97A994200D046E629891388994200D0C4
:100A400041E60123DB00ED186A689146002A00D1D7
:100A500039E6414F3B68012B00D934E65C22A25AAB
:100A6000DD003E4CED1A9446ED006219614651805E
:100A70000121615501335060484650633B60B342E9
:100A800000D020E612E62E880888864200D025E7AE
:100A90000022D200AA1850681E1C8446002800D1EB
:100AA00024E72D4F3A68012A00D91FE7D0005C21C6
:100AB000615A2A4E801AC0008A468346311C594426
:100AC000B14656464E800220664601324E6308709B
:100AD0003A601E1C9A4200D008E74846416B88479E
:100AE00042461668012E06D94E4648463830F36E07
:100AF00098474046066800233B60F7E628890A8845
:100B0000904200D0F2E60122C3E72F880E88B74258
:100B100000D0A4E50022ACE54246013AD2B2510031
:100B20008A1892009A18D289013292B25BE60C4B75
:100B30001A6801321A60DFE60126D7E62F8811888D
:100B40008F4200D071E700237CE72F881688B742D8
:100B500000D067E6002272E6F82E0020882E0020E2
:100B6000842E002095DF704797DF704730B583B043
:100B7000002808D0002906D00B88372B1CD0382B32
:100B800003D0102B15D003B030BD8A8983889A42D8
:100B9000F9D102236A4613708B7CDA072BD50B7DC3
:100BA000CA7C1B0213436A46538069468368984790
:100BB000E9E78B880380E6E7104D114B2C681B6832
:100BC0009C42E0D0A2000F4B12199200991888782D
:100BD00000280BD1D05A89880022FFF7C3FF0028D4
:100BE000D1D1013407231C402C60CCE7D05A083106
:100BF000FFF7BAFFF3E7CB7CD5E7C046182F0020FC
:100C0000142F00201C2F0020031C70B50E20002B79
:100C10002FD01B495D880A681C8893009B181948CF
:100C20009B00C3180132072632405D8100250A600F
:100C30005D710221144DD981191D19611C8000219B
:100C40002C6899810121197219719970A24211D0F1
:100C5000A3001B199B00C1188A78185A002A0BD1CF
:100C60008988FFF77FFF002804D1013407231C4047
:100C70002C6070BD0020FCE70831FFF775FFF2E73C
:100C8000142F00201C2F0020182F00207EDF70471B
:100C90007FDF704781DF7047A9DF7047AADF7047A9
:100CA00000207047002070470020704700207047E8
:100CB0000020704700207047F8B54378114D580068
:100CC000C11889004A59002A08D00F4C6618B67A14
:100CD00077B2002F10DB0022002102E00A4C002234
:100CE0000021C3189B00E41820890323FFF7D4FFD9
:100CF000002800D00548F8BD7706ECD46918043107
:100D000092B2EEE7B4300020DC2F002041800000DA
:100D100000207047F0B585B00623061C68460380A6
:100D20004B78274D5A00D3189B00EB180C1C1889E0
:100D300002A96A460323FFF7B1FF002802D0002072
:100D400005B0F0BD63781F4F5800C0188000694699
:100D500038180A88043002A900F0A4FF637800283C
:100D60001ED05900CA189200D259002A25D0164D1B
:100D700068460288CB189B00FA50637802A9580095
:100D8000C01880003818043000F09BFF6378301CD6
:100D90005900C918890079180C223423A847CEE7D6
:100DA0005A00D3189B00ED18AA7A9007C7D4F818F8
:100DB00000210C22FCF7FCF9C1E7044DD8E7C0463E
:100DC000DC2F0020B430002099F0010011F0010068
:100DD00038B54B78021C5800C0180A4C80000D1C16
:100DE0002018111C34230C22FEF79AF9002806D192
:100DF0006B785A00D3189B001A59013200D038BDC5
:100E00001851FCE7B4300020F0B55F4656464D4619
:100E10004446F0B4504F8A46396891B081469346B3
:100E2000984600294AD01A9A5C2A47D84B4B694603
:100E3000009300230B741A9B4246099208930024E6
:100E4000474E02E00134072C12D0A5B2301C291CF9
:100E500002AAFEF7B5F80028F4D1484602A90822F4
:100E600000F020FF0028EDD1E4B26D46AC7003E045
:100E70006D46AC78FF2C21D05146042930D0394B37
:100E80004146CB1AA72B20D9374B4146CB1A1B2BF7
:100E900033D800236B700AAB0993182308932023DF
:100EA0005246032A52D0022213436A46137407ABF8
:100EB000059368463B6804A95A46984711B03CBC64
:100EC00090469946A246AB46F0BD5A46274B002AAB
:100ED0000DD01A680121A1408A431A602023DFE760
:100EE0001A9A5C2A30D0432369460B74DFE701214C
:100EF0001A68A1400A42E1D0ECE71D480B1A0B2BFF
:100F00000FD91C4B9845EED01B4BA200D3589845E7
:100F1000D4D11A4BDA7A4023A242C1D100226A709E
:100F2000BEE7302369460B7400236B700123EB701E
:100F3000124B9A7A30239107B2D40C220021FCF78D
:100F400037F96A46137CABE72323CDE7012213432D
:100F500069460B74ABE7C046C430002000FFFFFFBA
:100F600090300020E82F002098300020C030002072
:100F7000B4300020982D0200BC2F0020DC2F002070
:100F800038B54B78021C5800C0180A4C80000D1C64
:100F90002018111C34230C22FEF7C2F8002806D1B9
:100FA0006B785A00D3189B001A59013200D038BD13
:100FB0001851FCE7B4300020F8B54378114D5800C3
:100FC000C11889004A59002A08D00F4C6618B67A11
:100FD00077B2002F10DB0022002102E00A4C002231
:100FE0000021C3189B00E41820890323FFF754FE57
:100FF000002800D00548F8BD7706ECD46918043104
:1010000092B2EEE7B4300020DC2F002041800000D7
:10101000F0B585B00623061C684603804B78274D43
:101020005A00D3189B00EB180C1C188902A96A46B9
:101030000323FFF733FE002802D0002005B0F0BDE7
:1010400063781F4F5800C0188000694638180A8816
:10105000043002A900F026FE637800281ED0590053
:10106000CA189200D259002A25D0164D6846028827
:10107000CB189B00FA50637802A95800C018800072
:101080003818043000F01DFE6378301C5900C91870
:10109000890079180C223423A847CEE75A00D318C8
:1010A0009B00ED18AA7A9007C7D4F81800210C22EB
:1010B000FCF77EF8C1E7044DD8E7C046DC2F0020DE
:1010C000B430002099F0010011F0010070B54378B0
:1010D000164D5A00D3189B00041CEB18188923786E
:1010E000134E5900C918890071180431FFF7CEFD5D
:1010F00000281AD123785A00D3189B00F618727A68
:1011000001231343737263785A00D3189B00EB18C2
:10111000997A04220A439A7263785A00D3189B0082
:10112000ED18AB7A20229343AB7270BDDC2F002008
:10113000C4300020F0B556465F464D464446F0B4F4
:10114000824685B0002869D03D4B00223D481A6098
:101150005A729A72012383725B420381C372002127
:101160000722FCF725F800210C223748FCF720F86D
:101170003649374A0123374F8B460C1C00259146D0
:10118000FF269846201C002106221130FCF710F89B
:10119000201C00211022FCF70BF839684346AB40B5
:1011A00099433960AB000022494601352674E67543
:1011B000CA501834072DE5D15C236A46264E938029
:1011C000264B6846311CD5800093FDF75DFE002854
:1011D0001DD1234901230B70884651460B78002B03
:1011E0001ED15D460024A1B2301C02AAFDF7E8FE24
:1011F000071E1ED1281C02A918220023FDF790FF0C
:1012000000281AD101341835072CECD1002005B084
:101210003CBC90469946A246AB46F0BD1148F6E765
:101220006A46D1889388301C594389B2FDF7CEFFB6
:10123000EDE7002341460B70E9E742461770E6E709
:10124000C4300020DC2F0020B4300020E82F002024
:10125000BC2F0020C030002090300020090E02007A
:10126000D82F00200E800000F8B5114B051C1B780C
:101270000C1C002B01D10F48F8BD00280AD0002912
:1012800008D00B68002B05D00B4E3768002F03D019
:101290000A48F1E70A48EFE7301C08C0053105228B
:1012A00000F00FFD23790020B3722F70E4E7C046F1
:1012B000D82F002008800000C430002004800000E7
:1012C0000E800000F8B5454B1B78002B01D1444837
:1012D000F8BD00280BD00378002BF8D1414B1A68D9
:1012E000002AF4D04278002A03D03F48F0E73F4874
:1012F000EEE73F4A917A0129F7D08C07E7D581784C
:10130000FF2908D0D17A817010893A4A111C123114
:10131000FFF7C0FCDCE7D17AFF29F4D1364CE17D40
:10132000FF2919D02F21615CFF2954D04721615C2E
:10133000FF294ED05F21615CFF2948D07721615C95
:10134000FF2942D08F21615CFF293CD0A721615C3D
:10135000FF2936D02948BBE700211578022D2ED071
:1013600018264E431768A6193761351C9688AE8239
:101370009679AE75FD2518264E43A419E575457876
:101380000C246543C9B25519E97281700178614333
:101390005918497ACD070FD5417820256143521855
:1013A000917A294391720278022154431B195A7A87
:1013B00000200A435A728BE7FFF788FE88E7FE2574
:1013C000D9E70621C9E70521C7E70421C5E70321BD
:1013D000C3E70221C1E70121BFE7C046D82F0020A3
:1013E00008800000C4300020108000000E80000043
:1013F000DC2F002098300020E82F002043800000E0
:10140000F0B55F4656464D464446F0B42A4B1B782D
:10141000002B06D129483CBC90469946A246AB46D3
:10142000F0BD002840D000293ED00B68002B3BD0F7
:101430008E68002E38D00378002BEBD1204B1B6830
:10144000002BE7D01F4A002402200126103200237F
:10145000A3461D4D8146B4461EE0087BA0420AD932
:10146000D7796046384206D110277F428868A600A7
:10147000BF18375001340879834509D2D0794E46D8
:10148000064205D15F460E68B80001278251BB4471
:1014900001331832072B09D0E87A9842DDD1A87AB7
:1014A0004E460642D9D0F3E70848B4E75F460F71CD
:1014B0000C730020AFE7C046D82F00200880000042
:1014C000C4300020E82F0020DC2F00200E80000018
:1014D000F0B557464E464546E0B4A34B8CB01B785A
:1014E000002B2FD0A14D2F68002F2BD0FF23694652
:1014F00002AC4B708B70CB70031D63602A23238179
:10150000038800220A70102B00D188E0984E828850
:10151000B17A9246FF2289469046890707D59549B8
:101520008A4500D10BE13289524500D107E1172BE2
:1015300042D00DD91C2B00D1A1E0522B00D197E055
:10154000182B24D00CB01CBC90469946A246F0BD86
:10155000112B47D0132BF5D1874A002309930A9307
:101560000B930692F27A0021500082188348D20031
:101570008218079208935046002206ABFFF788FBBB
:101580000028DFD1B27A04231343B372DAE78379F8
:10159000112B00D1BAE080235B424A461A4315233F
:1015A0002370B272AA7A764B9200D3586846984755
:1015B00000222F68904666E06B7A01218B436B72A4
:1015C0004A4604239A431423B27223708379002B72
:1015D00000D098E0C379590700D5D9E00121002255
:1015E000884650E002234946994308274A460B1C87
:1015F000B17217405ED04AB2002A00DA62E10021DF
:1016000088465A0704D56B7A012293436B72904641
:101610001023B372122323702F68002233E0544E3C
:10162000B37AD90700D48DE70223B3721123237054
:101630006B465A708388063081463381301C494698
:10164000072200F03EFB4D4B0027103398464046E2
:101650004946072200F026FB002800D114E1182398
:1016600001379844072FF2D100222F6890460AE0F4
:10167000AA7A434B9200D3586846984762E71323EF
:101680000022237090466846211CB8472378122B0D
:101690005CD04246002A00D154E76B7A02221A42FB
:1016A00000D14FE7B17A20240C4200D0DBE0934315
:1016B0006B7247E74046FF28A1D043002F494344BF
:1016C000DB009946081C8A46484400210622D14482
:1016D0001130FBF76DFD002110224846FBF768FD35
:1016E000FF234846274A0374C375012140468140C1
:1016F00010688843106042469100234A68468F5024
:101700008370B37A7BE71A1C8846BCE74A46120707
:1017100000D440E71D48062204300021FBF748FDB5
:1017200016232370B27A60231343B3726A7A0223BA
:1017300013436B7201232F6800229846A3E7F17AC6
:101740006A468846917000215170F0E6B37A012B09
:101750009FD00123B3725B423381F372301C0021AE
:101760000722FBF725FD94E7D82F0020C430002086
:10177000DC2F0020FFFF000098300020E82F002021
:10178000882D0200C0300020BC2F0020B430002083
:101790004346FF2B00D1D8E008231A43B272837A64
:1017A0009B07DB0F012B00D1D7E0F37AFF2B00D191
:1017B000CFE03378022B10D041464B0043446F4AB0
:1017C0003068DB00D2181061131CB28802219A82A3
:1017D000B2799A75DA7D8A43DA7506AF6848414670
:1017E0003A1CFDF7EDFB002838D169464B785A00CA
:1017F000D3189B00F3189B7A5A0600D4B7E0614BCC
:10180000984669468B785D495A00D318DB00C918A1
:10181000381C18220023C047002812D16A4653788A
:1018200040205A00D2189200B218917A81439172E6
:10183000DA00D31A54499B00C918381C1C221823FB
:10184000C0476846037869465A00D3189B00EB18D6
:101850009A7A4E4B9200D358381C984701212F6832
:10186000002288460FE73089291DFFF70FFA00286C
:1018700000D067E66A7A012313436B72B37A0422BD
:10188000A3431343B3725DE6B17A08220A43FBB265
:10189000B2726A469370F372B9B2394806AAFDF77C
:1018A0008FFB002800D0DFE606A91C22182336484B
:1018B000FDF736FCAA7A364B9200D35806A8694643
:1018C0009847D1E606AF2E4841463A1CFDF778FB13
:1018D000002800D015E7684643785A00D3189B00CB
:1018E000F3189B7A590645D5264A90466846837870
:1018F00022495A00D318DB00C918381C18220023CB
:10190000C047002812D169464B7840205A00D218AF
:101910009200B218917A81439172DA00D31A1A496F
:101920009B00C918381C1C221823C0476A4613782C
:10193000381C5A00D3189B00EB189A7A134B92006C
:10194000D35869469847B37A59E60123002298464E
:1019500099E601200022804695E64046420007496C
:101960004244D2008A18D17D9943D1751DE70948B8
:10197000804646E7084B9846B8E7C046E82F002067
:101980009030002099F0010098300020682D02006E
:10199000782D020011F00100A10C02001B4B1B78F6
:1019A000012B00D070471A4B1B681A07FAD1194A4D
:1019B000F02312681A4003D0102A01D0302A03D134
:1019C000154A12681A4210D0124AF02312681A40BF
:1019D000402AE7D1104A12681A42E3D1C12380227B
:1019E0000121DB00D205D150DCE70C4A0C4B1A6018
:1019F0000C4B802212021A60044B1B78012BD1D1B0
:101A0000034B1B681A07DFD0CCE7C046E00F00F09D
:101A1000E40F00F0E80F00F0EC0F00F0DFFF07C06C
:101A200004050040186C00402EDF704751DF7047FE
:101A300010DF704761DF704708B5081C111CFEF706
:101A4000A7F908BDF0B55F4656464D464446F0B48A
:101A50002B4B83B01B78002B14D02A492A4E0A68DE
:101A6000894655425541294BEDB2196898464B427B
:101A70004B41274ADBB29A469346002D0DD0514682
:101A800000291CD003B03CBC90469946A246AB4608
:101A9000F0BD002DF6D10122924668466C46FFF754
:101AA000C5FF052829D000281DD000210022FBF702
:101AB00089FB5146002903D0002DE3D1EDE76C46A8
:101AC0005A4637681388381C69462380FFF7B2FFEF
:101AD0000528DED000280BD000210022FBF772FB86
:101AE00000239A46C9E74B4600981B689847E0E7F1
:101AF0004346381C1B689847F2E70125D9E7C046E2
:101B0000D0300020D8300020D4300020DC3000203D
:101B1000D230002038B5041C0720002901D08D07E1
:101B200000D038BD094801600949201C0A80094AD3
:101B300009491360FFF77CFF0028F2D1074B01220F
:101B400016201A70FFF770FFEBE7C046D430002074
:101B5000D2300020E0300020391A0200D0300020BE
:101B6000002803D0024B1860002070470E20FCE7CD
:101B7000DC300020002803D0024B186000207047A2
:101B80000E20FCE7D830002008B5084B1B68002B5E
:101B900008D09847002800D108BD00210022FBF79B
:101BA00011FBF9E7FFF74EFFF6E7C046E0300020F3
:101BB00003210A4802680A430260094802680A438E
:101BC00002600849084A094B9B1A03DD043BC858C8
:101BD000D050FBDC064880470648004724050040FB
:101BE00054050040382E02000028002068280020FC
:101BF0009D190200C1D00100FEE7FEE7FEE7FEE707
:101C0000FEE7FEE7002934D00123002210B4884209
:101C10002CD301242407A14204D2814202D209011B
:101C20001B01F8E7E400A14204D2814202D249003C
:101C30005B00F8E7884201D3401A1A434C08A042DF
:101C400002D3001B5C0822438C08A04202D3001B75
:101C50009C082243CC08A04202D3001BDC0822438C
:101C6000002803D01B0901D00909E3E7101C10BCB0
:101C70007047002801D00020C04307B4024802A1E9
:101C80004018029003BDC046190000000029F0D0A2
:101C900003B5FFF7B9FF0EBC4243891A1847C04687
:101CA0007047C04630B50023934208D0C55C01336D
:101CB000CC18013C2478A542F6D0281B00E0002077
:101CC00030BD10B50023934203D0CC5CC454013323
:101CD000F9E710BD0FB40B4B13B51C68002C05D0F1
:101CE000A369002B02D1201C00F0A2FC05ABA16867
:101CF000201C049A019300F035F816BC08BC04B00F
:101D00001847C046602800200023C25C0133002A27
:101D1000FBD1581E7047936810B5013B9360002BB0
:101D200005DA9469A34208DBCBB20A2B05D013680D
:101D3000581C10601970C8B201E000F0A5FA10BD7F
:101D4000F8B5061C0F1C141CD518AC4208D021781D
:101D5000301C3A1CFFF7DFFF0134431CF5D100E0D3
:101D60000020F8BDF0B59FB0061C0F1C0392059330
:101D7000002804D08169002901D100F059FC754B7D
:101D80009F4201D1776808E0734B9F4201D1B76849
:101D900003E0724B9F4200D1F768BB891A070AD54E
:101DA0003B69002B07D006AD00236B6120236B76C7
:101DB0003023AB763BE0301C391C00F0BDFA002824
:101DC000F1D001204042C2E0059A111D1268059130
:101DD000002A76DB0992013423782E2B00D181E092
:101DE00021785F48032200F0E3FC002807D05C491B
:101DF0002A68431A40209840104328600134217813
:101E0000631C584806220393297600F0D1FC002871
:101E100000D18AE0544B002B7ED1059B072207336B
:101E20009343083305936A69049953186B61039CC3
:101E30002378002B04D10399611A029110D003E09A
:101E4000252BF8D00134F3E7301C391C039A029B90
:101E5000FFF776FF013075D06A69029953186B61FC
:101E60002378002B6ED0012252426A606A4600231A
:101E70005B3201342B60EB60AB601370AB65217893
:101E80003A48052200F094FC002808D0374A013473
:101E9000831A012098402B6818432860EFE72B68CD
:101EA000D90603D56A4620215B3211701A0703D583
:101EB0006A462B215B32117022782A2A84D0099B32
:101EC00005E05242EA60022213432B6083E7227846
:101ED000303A092A04D80A214B4301349B18F6E70B
:101EE000099379E763782A2B09D1059B02341A1DDF
:101EF0001B680592002B0DDA01235B420AE00134D6
:101F000000232278303A092A04D80A214B430134AD
:101F10009B18F6E7079363E705AB0093301C291C79
:101F20003A1C134B00E000BF07E005AB0093301CE8
:101F3000291C3A1C0E4B00F091F8049004990131D1
:101F400000D070E7BB895A0600D53AE70B981FB05E
:101F5000F0BDC046D02D0200F02D0200102E020070
:101F6000A22D0200A62D0200000000009C2D020000
:101F7000411D0200F7B5151C01930A698B68061C08
:101F80000C1C934200DA131C221C2B604332127883
:101F9000002A01D001332B602068800602D52B680F
:101FA00002332B60216806270F401FD0231C4333C8
:101FB0001B785A1E9341226892061FD5E1184031C2
:101FC0003020C870211C5A1C45310978A2184032B3
:101FD0000233D17012E0221C301C01991932012306
:101FE000089FB847013011D0009F01370097E06883
:101FF0002968009F431A9F42EDDBD7E7221C301C63
:1020000001994332089FB847013002D10120404274
:1020100023E0206806212B68E2680140002504299E
:1020200003D1D51AEB43DB171D40A26823699A42FE
:1020300001DDD31AED1800270097009FAF420BDA9D
:10204000221C301C01991A320123089FB847013025
:10205000DCD0009F0137EFE70020FEBDF0B50D1C7E
:102060008BB0433506920590079304950B7E0C1CAC
:10207000109A6E2B00D1A7E011D8632B22D009D87B
:10208000002B00D1B0E0582B00D0C0E045310B70E0
:102090007B4D4EE0642B1CD0692B1AD0B7E0732B1C
:1020A00000D1A5E009D86F2B29D0702B00D0AEE06D
:1020B0000E68202333430B6036E0752B1FD0782B3E
:1020C00032D0A4E013680D1C191D423511601B6845
:1020D0009FE0216813680E0603D5191D11601E6864
:1020E00005E04806F9D5191D116000215E5E644BBC
:1020F000002E3BDA049D2D2276422A7036E02168BC
:1021000013680E0603D5191D11601E6804E0480609
:10211000F9D5191D1E881160594B227E039308279B
:102120006F2A1ED00A271CE0231C78214533554D09
:10213000197011682368081D039510601E0601D5EB
:102140000E6802E05806FBD50E88D90702D520227A
:10215000134323601027002E03D1226820239A43C3
:102160002260231C002243331A7001E003930A27E4
:102170006368A360002B03DB256804229543256078
:10218000002E02D1049D002B0ED0049D301C391C62
:10219000FFF77CFD0398013D435C301C2B70391C1C
:1021A000FFF730FD061EF1D1082F09D12168C907BC
:1021B00006D5626823699A4202DC013D30232B7008
:1021C000049E731B23612AE00868136849690506A9
:1021D00004D5181D10601B68196005E04606F8D587
:1021E000181D10601B68198000232361049D16E0F0
:1021F0001368191D11601D68281CFFF785FD6368B1
:102200002061984200D923612069606004E0251CA8
:1022100042352B7001232361049E00233370079EF7
:1022200005980096211C09AA069BFFF7A3FE013022
:1022300002D10120404221E02A1C05980699236919
:10224000079DA8470130F4D02668B60705D4099B3E
:10225000E068984212DA181C10E00025E06809993D
:10226000431A9D42F3DA221C05980699193201237C
:10227000079EB0470130DCD00135EFE70BB0F0BD71
:10228000AD2D0200BE2D020070B5051C0E1C141CE5
:10229000002804D08269002A01D100F0C9F9234B3B
:1022A0009C4201D16C6808E0214B9C4201D1AC6892
:1022B00003E0204B9C4200D1EC68A369A360A38992
:1022C0001A070AD52369002B07D022682369F6B2C2
:1022D000D01A626990420FDB08E0281C211C00F034
:1022E0002BF80028F1D0012040421DE0281C211CC1
:1022F00000F01EF90028F6D1A3680130013BA3606D
:1023000023685A1C22601E706369984205D0A38915
:10231000301CDA0708D50A2E06D1281C211C00F033
:1023200007F90028DFD1301C70BDC046D02D020057
:10233000F02D0200102E0200344B70B51D68061CF3
:102340000C1C002D05D0A969002902D1281C00F021
:102350006FF92F4B9C4201D16C6808E02D4B9C42D9
:1023600001D1AC6803E02C4B9C4200D1EC68A289FF
:1023700093B2190721D4D90605D409233360402329
:102380001A43A2813FE05A0713D5616B002908D098
:10239000231C4433994202D0301C00F015FA00236C
:1023A0006363A38924229343A38100236360236989
:1023B0002360A38908221343A381216900290BD13B
:1023C000A389A02292001A4080239B009A4203D046
:1023D000301C211C00F09CF9A38901221A4005D071
:1023E00061690022A2604A42A26103E0990700D419
:1023F0006269A26022690020824206D1190604D5D2
:1024000040221343A3810120404270BD6028002078
:10241000D02D0200F02D0200102E0200F7B58B899E
:10242000051C0C1C19075ED46268002A02DC276CAC
:10243000002F1ADDE76A002F17D000222E682A60CD
:10244000802252011A4001D0626D15E0281C216AD9
:102450000123B847021C411C0ED12B68002B0BD066
:102460001D2B01D0162B02D12E6000205EE0A38927
:1024700040210B43A38159E0A3895F0706D561681A
:10248000636B521A002B01D0276CD21B281C216AC7
:102490000023E76AB847A289411C06D12B68002BAC
:1024A00003D01D2B01D0162B19D1002363602369A3
:1024B0002360D70405D5411C02D12A68002A00D127
:1024C0006065616B2E600029CFD0231C4433994294
:1024D00002D0281C00F078F90020606326E0402339
:1024E0001A43A28122E02669002EBED0276800226E
:1024F000BF1B01972660990700D16269A260019F06
:10250000002FB2DD281C216A321C019BA76AB84744
:10251000002806DCA389402213430120A381404206
:1025200004E0019F36183F1A0197E8E7FEBD00005E
:102530000A6938B5051C0C1C002A01D100201CE0DA
:10254000002804D08369002B01D100F071F80B4BF7
:102550009C4201D16C6808E0094B9C4201D1AC68F7
:1025600003E0084B9C4200D1EC680C22A35E002BD8
:10257000E4D0281C211CFFF751FF38BDD02D0200EC
:10258000F02D0200102E0200F8B5041C071C483480
:10259000002C12D0A5686668013E0CD4AB89012BD3
:1025A00007D90E22AB5E013303D0381C291CFFF77C
:1025B000BFFF6835F0E72468EAE7F8BD002310B5EF
:1025C000041C03604360836081814366C2810361B0
:1025D00043618361191C08225C30FAF7E9FD054B61
:1025E00024626362044BA362044BE362044B2363E3
:1025F00010BDC046252902004D2902008529020090
:10260000B129020070B54B1E68255D430E1C291CC4
:10261000743100F021F9041E08D0002101604660E9
:102620002A1C0C30A0606832FAF7C2FD201C70BD75
:10263000836913B5041C002B27D18364C36403652D
:10264000124B134A1B688262984201D101238361B5
:10265000201C00F01FF86060201C00F01BF8A06038
:10266000201C00F017F80421E06000226068FFF7EA
:10267000A5FFA06809210122FFF7A0FFE068122151
:102680000222FFF79BFF0123A36113BD302B020041
:1026900089250200F8B51D4B071C1E68B269002A87
:1026A00002D1301CFFF7C4FF4836B4687368013BA1
:1026B00005D40C22A55E002D10D06834F7E73368EE
:1026C000002B06D1381C0421FFF79CFF3060002846
:1026D00001D03668E9E70C233B6016E001235B423A
:1026E000E381201C0123A38165662560A5606560E8
:1026F00025616561A5615C30291C0822FAF758FD47
:102700006563A563A564E564201CF8BD302B020059
:10271000F0B58B8991B0051C0C1C9A0725D40E23AB
:10272000C95E002906DAA78980231F400FD0002741
:1027300040260EE001AA00F067F90028F3DB029BB7
:10274000F0273F02184A1F40BF187B425F41802696
:10275000F600281C311C00F07FF800280CD1A3895A
:102760009A051FD402221343A381231C47332360FD
:1027700023610123636115E00C4B8022AB62A389C6
:1027800020601343A38120616661002F0AD00E23CD
:10279000E15E281C00F04AF9002803D0A389012239
:1027A0001343A38111B0F0BD00E0FFFF89250200B3
:1027B000C9B28218904204D003788B4202D0013013
:1027C000F8E700207047000030B5002940D00439F8
:1027D0000B68002B00DAC9181E4A1368141C002B62
:1027E00002D14B60116033E099420FD208680A1899
:1027F0009A4205D113685268C01808604A6000E028
:102800004B60216024E08A4203D8131C5A68002AD6
:10281000F9D11D685C198C420BD1096869185818E8
:102820001960904214D114685268091919605A60ED
:102830000EE08C4202D90C23036009E008680C18F2
:10284000944203D114685268001908604A605960C4
:1028500030BDC046E830002070B50323CD1C9D4339
:102860000835061C0C2D01D20C2501E0002D3FDBA4
:102870008D423DD3204B1C681A1C211C002913D00B
:102880000868431B0DD40B2B02D90B60CC181EE03B
:102890008C4202D1636813601AE0486860600C1CC7
:1028A00016E00C1C4968E9E7144C2068002803D1A5
:1028B000301C00F025F82060301C291C00F020F8A6
:1028C000431C15D0C41C03239C4384420AD12560B9
:1028D000201C0B300722231D9043C31A0BD05A42F1
:1028E000E25008E0211A301C00F00AF80130EED165
:1028F0000C233360002070BDE8300020E43000205D
:1029000038B5074C0023051C081C236000F0E8F8CC
:10291000431C03D12368002B00D02B6038BDC04678
:10292000F030002038B50C1C0E25495F00F0A4F8EB
:10293000002803DB626D1318636503E0A289024B74
:102940001340A38138BDC046FFEFFFFFF8B51E1C42
:102950008B89051C0C1C171CDA0505D50E23C95ED6
:102960000022022300F074F8A289054B281C1340B2
:10297000A3810E22A15E331C3A1C00F01FF8F8BDA3
:10298000FFEFFFFF38B50C1C0E25495F00F060F823
:10299000A389421C03D1054A1340A38104E080228D
:1029A00052011343A381606538BDC046FFEFFFFFAE
:1029B00008B50E23C95E00F015F808BD38B5084CFF
:1029C000051C00202060081C111C1A1CFBF724F9B0
:1029D000431C03D12368002B00D02B6038BDC046B8
:1029E000F030002038B5074C0023051C081C23607C
:1029F00000F056F8431C03D12368002B00D02B6055
:102A000038BDC046F030002038B5074C0023051C07
:102A1000081C111C236000F04BF8431C03D12368F1
:102A2000002B00D02B6038BDF030002038B5074CAB
:102A30000023051C081C236000F042F8431C03D14E
:102A40002368002B00D02B6038BDC046F03000203A
:102A500038B5084C051C00202060081C111C1A1CED
:102A600000F036F8431C03D12368002B00D02B6004
:102A700038BDC046F030002038B5084C051C002099
:102A80002060081C111C1A1CFBF7D4F8431C03D14E
:102A90002368002B00D02B6038BDC046F0300020EA
:102AA000024B5822012040421A607047F03000204B
:102AB000024B5822012040421A607047F03000203B
:102AC000024B582200201A607047C046F0300020A8
