:020000021000EC
:10D00000004000201D32020065320200673202003B
:10D010000000000000000000000000000000000010
:10D020000000000000000000000000006932020063
:10D0300000000000000000006B3202006D320200B0
:10D040006F3202006F320200C9E801006F32020045
:10D050006F3202000000000055F101006F32020043
:10D060006F3202006F320200CDF501006F32020014
:10D070006F3202006F3202006F3202006F32020024
:10D080006F32020061DD01006F3202006F32020078
:10D090004DDE01006F320200F53102006F320200F6
:10D0A0006F3202006F32020000000000000000003A
:10D0B0000000000000000000000000000000000070
:10D0C000164B002B00D1144B9D46402292029A1A17
:10D0D000924600218B460F461348144A121A00F05C
:10D0E00067F80F4B002B00D098470E4B002B00D059
:10D0F00098470020002104000D000D48002802D0B0
:10D100000C4800E000BF00F02DF82000290004F0DA
:10D1100059F900F011F8C046000008000040002056
:10D1200000000000000000006828002038310020C6
:10D130000000000000000000084B10B5041C002B8C
:10D1400002D0002100E000BF054B1868836A002B65
:10D1500000D09847201C00F033F8C04600000000C3
:10D160009C41020070B50E4B0E4D0024ED1AAD101F
:10D170001E1CAC4204D0A300F35898470134F8E7D2
:10D1800006F0FEFF084B094D0024ED1AAD101E1CE1
:10D19000AC4204D0A300F35898470134F8E770BDBF
:10D1A00068280020682800206828002068280020BF
:10D1B000031C8218934202D019700133FAE77047BA
:10D1C000FEE7C046BFF34F8F024A034BDA60BFF35E
:10D1D0004F8FFEE70400FA0500ED00E070B50D4B3F
:10D1E0000C1C5A5C002A06D05A5C013AD2B25A543E
:10D1F0005B5C002B00D070BD074D8E00735902217F
:10D20000586802F0D9F97359201C1B68DB699847EC
:10D21000F1E7C0460C31002068280020F8B55F46D1
:10D2200056464D464446F0B404682023071CE05C93
:10D2300088464E0091469A4602F06EFB2123E05C40
:10D2400002F06AFB46443B68B600A5199E19307A85
:10D2500002F062FB707A02F05FFB22264A4600234E
:10D260007868414602F04CF9A15D204802F08EFC3E
:10D27000287A01239B468340181CA15D02F000FD23
:10D28000687A5B468340181CA15D02F0F9FC6B686C
:10D29000002B1AD05346E35C02217868984602F0CE
:10D2A00021F9A25D124BD200011CD218404602F0B7
:10D2B000F5FA2023E05C02F015FB4B466B603CBCAA
:10D2C00090469946A246AB46F8BD5346E35C4146BC
:10D2D00078689A4602F006F9A25D054BD200011C5F
:10D2E000D218504602F0DAFAE3E7C046FF3F0000EA
:10D2F00000F00140F8B55F4656464D464446F0B44E
:10D30000046820234E008046E05C934676180F1C8C
:10D31000994602F001FB2123E05C2225B60002F0D1
:10D32000FBFAA619615D224802F030FC307A012335
:10D330009A468340181C615D02F0A2FC707A534645
:10D340008340181C615D02F09BFC5B46002B1DD0E6
:10D350004B46E35C0221994643465868A76902F0B0
:10D36000C1F8625D134BD200011CD218484602F08E
:10D3700095FA3D042D0C2023E05C02F0B3FA7560B1
:10D380003CBC90469946A246AB46F8BD4B46E35C92
:10D39000391C99464346586802F0A4F8625D054B73
:10D3A000D200011CD218484602F078FA0025E2E7C4
:10D3B000FF3F000004F00140F8B55F4656464D4679
:10D3C0004446F0B488464B000468434422259B0041
:10D3D000061C1B19615D2D489A46171C02F0D6FBEE
:10D3E0002022A05C93460122131C8340181C615D1F
:10D3F000914602F045FC2122A05C4B468340181C5C
:10D40000615D02F03DFC605D02F0AEFB5A46A25C3D
:10D4100003217068934602F065F8736842461B6802
:10D42000103292009A18011C584602F037FA5346FF
:10D430005B6821229F4218D3A05C4B468340181C96
:10D44000615D02F0A3FB2223E05C02F075FB524613
:10D45000576070683A1C0321002302F051F83CBC6D
:10D4600090469946A246AB46F8BDA25C032170687F
:10D47000904602F037F85346051C186801F0F8FC96
:10D48000291C021C404602F009FADCE7FF3F0000BD
:10D49000F8B55F4656464D464446F0B40368041C52
:10D4A00023201D5C0F1C161C0820022D05D03CBC3F
:10D4B00090469946A246AB46F8BD480041188900FF
:10D4C000591849689046834662688E425AD0474848
:10D4D000527981469446021C624412781120002A37
:10D4E000E5D1484660440570002911D09869814211
:10D4F0000ED2002E01D0864272D3201C391C321C61
:10D50000FFF7F8FE6068022102F044F80020CEE741
:10D51000002E3CD09B699E425CD325685846202350
:10D52000C2199200E85C924602F0F6F92123E85C09
:10D5300002F0F2F92368A9469B46D3445A46107A72
:10D5400002F0EAF95B46587A02F0E6F9AD69D14497
:10D55000AE420DD322682D04131C5344997A2D0C2E
:10D560004B1E99414B46C9B2186801F08FFCA84682
:10D5700060684246391C002301F0C2FF40464A461B
:10D580005060BFE75079DB69984700208FE75B4622
:10D590002668DA199500701920238146F05C02F0A4
:10D5A000BBF92123F05C02F0B7F922685619307AF2
:10D5B00002F0B2F9707A02F0AFF923684A465D19B9
:10D5C000A97A10684B425941C9B201F05FFC0023AF
:10D5D0009846CDE7201C391C321CFFF71FFE91E74F
:10D5E000201C391C321CFFF7E7FE8BE70C310020B2
:10D5F000F0B544465F4656464D46F0B4041C83B031
:10D600000F1C40680221904601F074FF2568232317
:10D61000EE5C021C0820022E06D003B03CBC9046F3
:10D620009946A246AB46F0BD40465043642105F002
:10D630001FFE7900CB199B00EB18021C5B680004ED
:10D640008146000C8046019198424ED0606847495F
:10D6500040798A468446081C6044007883465946CF
:10D6600011200029D9D15046604492B20670002B97
:10D6700010D0A86983420DD2002A01D0804570D312
:10D68000201C391CFFF736FE6068022101F082FF82
:10D690000020C2E7002A2ED0AB6998455CD3019ADE
:10D6A0002568D11920238900E85C8A466E1802F0AB
:10D6B00033F92123E85C02F02FF923689B46D34419
:10D6C0005946087A02F028F95A46507A02F024F9AD
:10D6D000AD69A84533D24B461D0C6068391C2A1C25
:10D6E000002301F00DFF7560CEE763685879EB69A0
:10D6F0009847002091E7019B2268D9192023904682
:10D700008D00D05C561902F007F941462123C85C10
:10D7100002F002F9226852199046107A02F0FCF8E1
:10D720004346587A02F0F8F820684519A97A30681B
:10D730004B425941C9B201F0A9FB0025CDE7216850
:10D7400030680B1C5344997A2D044B1E9941C9B281
:10D7500001F09CFB2D0CC0E7201C391CFFF75EFD7F
:10D7600092E7201C391CFFF727FE8DE70C310020C3
:10D77000F0B55F464D4644465646F0B490468BB0F1
:10D78000071C0D1E0DD006682323F35C0824002B14
:10D7900009D0201C0BB03CBC90469946A246AB4633
:10D7A000F0BD0B24F5E701F075FF002802D004243A
:10D7B0008528EED101F0B4FA002800D174E1FF23EE
:10D7C000202021223354B3542222B3540122524246
:10D7D00000218146301CF172337273723260F17530
:10D7E00032757375F260203001F060FF002800D0C0
:10D7F0009EE1301C213001F059FF002800D097E154
:10D80000301C223002F0A0F8041E00D013E10020EA
:10D81000A146B246041C2E1CA300F558E1B20591A6
:10D820006A1C00D195E033191B7A232106933B68CB
:10D830009B46181C5B5C002B00D1AFE15D460824C1
:10D840002023E85CFF2801D001F0BAFF2123E85C27
:10D85000FF2801D001F0B4FF2223E85CFF2801D0AB
:10D8600002F0FAF80123FF205B42002102268046E5
:10D870009A468946287AFF2803D001F0A1FF404646
:10D880002872687AFF2803D001F09AFF4146697236
:10D890002868421C03D001F0B3FA52462A60013EC8
:10D8A0004B46F6B2EB720C35002EE3D1786801F0EE
:10D8B000D1FD6EE70C2363435946281C5D5001F0EF
:10D8C000B9FA0798083001F0F1FE002800D081E194
:10D8D0000798093001F0EAFE002800D07AE1079AA3
:10D8E000107A02F019F8079B587A02F015F8079899
:10D8F000211C057A786801F0F5FD079983460968CF
:10D90000081C049101F0B4FA5946021C281C01F0CD
:10D91000C5FF079A02217868557A01F0E3FD079B5D
:10D9200083461B68181C039301F0A2FA5946021C97
:10D93000281C01F0B3FF0698012800D173E1079A73
:10D94000069B381C93720123D37205990022FFF7BE
:10D950009FFD0134022C00D05EE7351C2A69B54BCF
:10D960004C4656469A4200D846E15108994200D8A2
:10D9700044E19108994200D846E1D108994200D883
:10D980003FE11109994200D847E15109994200D875
:10D9900040E19109994200D839E1D109994200D872
:10D9A0003EE1120A9A4200D8BFE0A2495208092378
:10D9B0008A4200D8BAE008A90B7000234B708B7024
:10D9C00078680323CB7043799B4A4B6001F0ECFCF1
:10D9D000814600286FD12969786801F0CDFDB061DA
:10D9E00082460125786801F079FD009552460423AE
:10D9F0007868022101F09AFD7868022101F0DCFDCF
:10DA00004046F0617B688D495A79484688541B68C6
:10DA10008B498B4200D1E0E08A498B4200D1E1E0A2
:10DA200089498B4200D1E2E0884B9200D750012215
:10DA30002323F254ADE63C684B46E05CFF2801D05E
:10DA400001F0BEFE2123E05CFF2801D001F0B8FE0A
:10DA50002223E05CFF2801D001F0FEFF01235B429E
:10DA600000200225FF2699468046207AFF2802D012
:10DA700001F0A6FE2672607AFF2802D001F0A0FE17
:10DA800066722068431C03D001F0BAF94946216050
:10DA9000013D4246EDB2E2720C34002DE5D17868CA
:10DAA00001F0D8FC042474E601F002F903240028F4
:10DAB00000D06EE683E63C682023E05CFF2801D0BE
:10DAC00001F07EFE2123E05CFF2801D001F078FE0A
:10DAD0002223E05CFF2801D001F0BEFFFF2398461F
:10DAE00001235B4202259A460026207AFF2803D0B4
:10DAF00001F066FE41462172607AFF2803D001F0F2
:10DB00005FFE424662722068431C03D001F078F940
:10DB100050462060013DEDB2E6720C34002DE4D198
:10DB2000786801F097FC4C4633E60823DBB242E705
:10DB30003C682023E05CFF2801D001F041FE212356
:10DB4000E05CFF2801D001F03BFE2223E05CFF28CF
:10DB500001D001F081FF0123FF225B4202259046A4
:10DB600099460026207AFF2803D001F029FE40467E
:10DB70002072607AFF2803D001F022FE41466172D4
:10DB80002068421C03D001F03BF94B462360013D65
:10DB9000EDB2E6720C34002DE4D180E76200121978
:10DBA0009200801843603968079008AB03208A18F8
:10DBB0001870937A22205A42534121226A446844C1
:10DBC00013700123037008A9281C01F0B1F8002884
:10DBD00000D16FE63D68042432E61D4B1D60796874
:10DBE0004A7921E71B4B1D607B685A791CE71A4B69
:10DBF0001D607868427917E70023DCE60123DBB279
:10DC0000D9E60323DBB2D6E60223DBB2D3E6062352
:10DC1000DBB2D0E60523DBB2CDE60423DBB2CAE6F5
:10DC20000723DBB2C7E607990968081C029101F0D7
:10DC300049F984E6FF0F0000DDD101000C3100201E
:10DC4000008000400090004000A0004068280020B4
:10DC50000C8C00400C9C00400CAC004010B50468DB
:10DC6000406801F031FC02222323E25410BDC0467B
:10DC700010B500290DD00923002A01D1181C10BDB0
:10DC8000541E2240FAD1826001608480C260002369
:10DC9000F4E70E23F2E7C04610B5031C9A888068AB
:10DCA000DC68241A0420A24200D210BDD8680240C9
:10DCB00018688154DA6800200132DA60F5E7C0465E
:10DCC00010B58468C268031C0520944209D0986886
:10DCD0009A8802401868825C00200A709A680132B3
:10DCE0009A6010BD1A4A802189028023D150194BB5
:10DCF0008022D221520289005A50C22189005A50F2
:10DD000001225A602F200138C046C046C046C04696
:10DD1000C046C046C046C046C046C046C046C046D3
:10DD2000F1D19A600C4B00221A602F200138C046B6
:10DD3000C046C046C046C046C046C046C046C046B3
:10DD4000C046C046C046F1D1044B1A707047C04669
:10DD500000E100E0001001406C2800209428002021
:10DD6000F0B5304BA02100224900474680B45A50FC
:10DD7000A22149005A50A42149005A50A621490025
:10DD80005A50802149005A50822149005A50264A4F
:10DD90001468601C37D0254A00269D58244B254A1C
:10DDA0001B68254FED1A2D022D0A904601E0621CDA
:10DDB0001AD0E3001B1938689B00C3185A68AA429E
:10DDC00012D84046AD1AB6181C6A9A69D969036818
:10DDD000002B1BD0101C98470028E8D000220021FF
:10DDE000FFF7F0F9621CE4D1144B15491A780B784F
:10DDF0009A420ED0134A9B009E5080218023124AE3
:10DE000049035B00D15004BC9046F0BD081C90470C
:10DE1000CDE7531CDBB2022B01D00B70EAE70023E5
:10DE20000B70E7E700100140842800200405000083
:10DE30006C280020702800207428002080280020F2
:10DE4000812800208C28002000E100E0F0B55F462A
:10DE500056464D464446F0B4BA48BB4BBB490068F1
:10DE60001A7809788BB00690914200D134E20132E1
:10DE7000D2B2022A00D1FDE11A70B54B9200D258FD
:10DE80000699039253181B02AE4A1B0A1360012322
:10DE90000793111CAF4EB04BB04FB14C36681B7896
:10DEA000B0483F6809682478026804960293019795
:10DEB00009910894B14605969B460020351C5B46A7
:10DEC000013BDBB29B46FF2B72D05F460199FE00FF
:10DED0008E1974783378A4466345F0D05C00776877
:10DEE000E418B1780133DBB2E4003C19C91A4F1EC3
:10DEF000B941277849420B40022F15D0032F10D18A
:10DF0000291C6C1C0DD0CC006118890051180875B3
:10DF1000096A4C1CF7D175788946AC460C1C251C47
:10DF2000DAE72C1C251CD7E76168CF007C18A40019
:10DF3000A418BA46277DA0462C1C002FEFD06F1CDA
:10DF400014D0A94200D183E19C462F1C0B1C0095E4
:10DF500002E0A34210D0271CF900C919890051180A
:10DF60000C6A651CF5D1009D63462C1C454628753E
:10DF70007778251CBC46AFE70C1C009D191C634636
:10DF8000A4468F4200D14FE154466718BF00D7190D
:10DF90002C1C396A7D68674639624F1CE6D0CC007C
:10DFA0006118890051184C6865194D604C46DDE7D1
:10DFB000684F4E4605953E6009986249089D684C39
:10DFC000079E08602570002E00D055E10598049941
:10DFD000431A5A1E9341DBB2069301235B429C46CF
:10DFE0005E4E604F3668574804965D4C594E3D680A
:10DFF000076824783668BB460021059F0394009685
:10E000008946029B013BDBB20293FF2B00D1ADE0BE
:10E01000049CDB00E418A246644601343FD0664607
:10E02000F4006444A4002C19216AA368E068E04667
:10E030008C465E469A1B4C491202120A8A4263D8E9
:10E040001018606001214E4601204942A660E6603A
:10E05000207521627A1C6DD0F900C91989006918F0
:10E06000626848683E1C824208D855E0D900C91849
:10E07000890069184868904259D21E1C0B6A121A0E
:10E08000581CF3D12362F3009E19B600AE19414625
:10E0900062603B1C31621F1C64460134BFD156468E
:10E0A000337872789A42ACD05A0056465446D21809
:10E0B00064680133B178D200DBB2A21833709942A0
:10E0C0003CD051683B1C884611780129E3D1434676
:10E0D000DC004444A4002C19217D3B1C0029DAD12A
:10E0E0009368A360D068E060166926615269E261B6
:10E0F000039A002A9DD000235E46A1609A1B1A490C
:10E100001202120A8A429BD9F31A1B021B0A83428B
:10E110000AD2C01A606095E7821A4A6043462762B5
:10E12000444600941F1CB7E74B4663608AE7801A99
:10E130004860A7E7434600931F1CADE74846307090
:10E14000BFE7C0466C2800208028002081280020DE
:10E150008C28002084280020782800207C2800209B
:10E160008828002074280020FEFF7F000098634963
:10E17000059A0860974200D16EE07C1C00D1BAE09D
:10E180005F4DFA002B68D719BF00DB195C685D4A48
:10E190005D4B5E4E9A5831685D4D571A3F023F0AFB
:10E1A00028780337B846002821D18020D1264002A4
:10E1B000B6009851C126B6009851C0275548802610
:10E1C000B6027F00C6510660012018602F2001387A
:10E1D000C046C046C046C046C046C046C046C0460F
:10E1E000C046C046C046C046F1D101232B7043460D
:10E1F000A34200D2231C5B181B024349A8201B0A20
:10E20000C0000B503F489B1A09581B02891A09028B
:10E21000090A03311B0A994222D9802180233D4AF1
:10E2200089025B00D1501BE0E900491989005118AF
:10E23000271C096A4C1C02D089460C1CA9E6324CEA
:10E240000125A56089460C1C002108950991A0E6CE
:10E2500047464146C446ECE7069B002B00D08CE7BE
:10E260002D4C002323700BB03CBC90469946A2462F
:10E27000AB46F0BD0022FFE5214A012317685B424F
:10E280004A46059D00240026181CBC461BE0EB00F6
:10E290005B199B0063445968039FB94222D87A1ADC
:10E2A00003921F6A1A6964185E601E75B846002AD8
:10E2B00007D00699186267183F023F0A9F60DA602C
:10E2C000281C454642466B1CE1D10C4C05950125A6
:10E2D00084462260069583E6002400250394079572
:10E2E0000A49D7E5C91B84460448596001210260E8
:10E2F0000595069174E6FFF7F5FCB1E78428002048
:10E300007428002004050000001001406C28002043
:10E310009428002000E100E088280020F0B557464E
:10E320004E464546E0B481468A4690461F1C07206B
:10E33000990704D01CBC90469946A246F0BD002B1C
:10E34000F8D0FFF7CFFC314B089A50461A60304B9B
:10E35000514618702F4B1F60002955D05146CA00F6
:10E3600053189B003C1C002500262435267026757A
:10E3700024349D42F9D152449200274BBF18032206
:10E380001A70264B391C1F6043465A00424418310C
:10E39000D200796089188A18F9607A610121204ACF
:10E3A000494211601F4A002313701F4A3B701370CB
:10E3B0007B703B727B723B747B7480221B4BC02151
:10E3C000404652034900B870B872B8745A50C5211B
:10E3D00089005858FF24A043C024204358501A6095
:10E3E000A121134AC90048465050C42189005C58F5
:10E3F00010482040C0242402204358500E4B0020D7
:10E40000D2580E4B1A6095E70022B4E7702800201E
:10E410008228002074280020782800207C280020F2
:10E4200084280020802800208128002000E100E0CE
:10E4300000100140FF00FFFF040500006C280020D1
:10E44000F0B5174B94461C68002C1CD0002A18D03D
:10E45000002816D0134B1E78002E10D02378002BE6
:10E4600013D02434002307E0271C2434251C243D2A
:10E470002D781A1C002D0AD00133B342F4DB04209E
:10E48000F0BD0720FCE70820FAE7271C0022012343
:10E490003B7063467970BB6102600020F0E7C046C4
:10E4A0007428002082280020F0B5474680B43D4BF8
:10E4B0001C68002C47D03C4B1D780723854203D8AD
:10E4C000181C04BC9046F0BD0429F9D9C3001B18E0
:10E4D0009B00E41825780823012DF1D16378012BE6
:10E4E00033D000239846314B5C681023E405E40DDB
:10E4F0002FD12F4C2668F6187378B4785D1C2C1B2E
:10E50000671EBC41644225403478AC421FD05C0099
:10E51000E4187368E4001C190423002CD0D00123F4
:10E5200023706060234B24484746C358E160A360D2
:10E53000626180218023214A5B0049032761757055
:10E54000D1500023BCE70823BAE78846CBE7042371
:10E55000B6E7103CE3B25DB2002D13DBAD08C03569
:10E56000164BAD00EB5803252C40E400E3401C069D
:10E57000A40FE4B20023012CBBD00823032CB8D095
:10E580001023B6E70F241C40083C0D4DA408A4003E
:10E590006419032564682B40AB40DC40E4B2A40955
:10E5A000E7E7C046742800208228002000ED00E044
:10E5B0007C280020040500000010014000E100E07C
:10E5C00018ED00E030B5334B1A68002A35D0324BD5
:10E5D00019780723814201D8181C30BDC3001B18CD
:10E5E0009B009A5C0823012AF6D12C4B5A68102311
:10E5F000D205D20D25D12A4A1168C9184B788C78DA
:10E600005A1C141B651EAC41644222400C78944293
:10E6100015D05C00E4184B68E4001C190423002C9E
:10E62000DAD002232370606080234A7080211D4A63
:10E630005B004903D1500023CEE70823CCE7042335
:10E64000CAE7103AD1B24BB2002B13DB9908C031A4
:10E65000144B8900CB5803210A40D200D3401A063C
:10E66000920FD2B20023012AC5D00823032AC2D0B8
:10E670001023C0E70F230B40083B0B4A9B089B006D
:10E680009B185A68032319409940CA40D2B2920994
:10E69000E7E7C046742800208228002000ED00E053
:10E6A0007C28002000E100E018ED00E070B5161CA9
:10E6B0000C1C8D18002A05DD2078013400F07AFA50
:10E6C000AC42F9D1301C70BD10B50C1C201C00F000
:10E6D00069FA0528FAD0012010BDC04630B51F4C9C
:10E6E00085B02378DBB2002B05D0032B01D10223A8
:10E6F000237005B030BD1A4BA0220421D2009950DE
:10E70000184801221A608568C1688D4218D02178A6
:10E71000022900D09A6069460731FFF7D1FA002834
:10E7200010D10F4BC221802289005A506946C87906
:10E730000D49585002212170C12189005A50D8E753
:10E740002270D6E7064A0123D36002A82370032370
:10E750000370064B1B689847CBE7C046AC280020E7
:10E76000002000409C2800201C0500009828002064
:10E7700010B5204C84B02378DBB2002B0CD0022BD8
:10E780000CD9032B08D11C4B012100222270D96027
:10E790005960A021C9005A5004B010BD17488268C2
:10E7A000C3689A421AD02378022B02D0124B01225E
:10E7B0009A6069460731FFF783FA00280ED10E4BA5
:10E7C000C221802289005A506946C8790C495850A4
:10E7D00002212170C12189005A50DDE7064A012338
:10E7E000D36002A8237003230370064B1B6898476D
:10E7F000D2E7C046AC280020002000409C28002022
:10E800001C0500009828002030B585B000F098FC69
:10E8100000282FD1274C2378DBB2002B05D0032B07
:10E8200001D10223237005B030BD234BA022042167
:10E83000D2009950214801221A608568C1688D4232
:10E8400022D02178022900D09A6069460731FFF76B
:10E8500037FA002823D1184BC221802289005A5050
:10E860006946C8791649585002212170C121890092
:10E870005A50D8E70F4A1378DBB2012B06D0022B8F
:10E88000D1D103231370CEE72270CCE700211170A1
:10E89000094AD3605360A023DB00D150C3E7064A86
:10E8A0000123D36002A8237003230370054B1B6868
:10E8B0009847B8E7AC280020002000409C280020A2
:10E8C0001C0500009828002010B5244B842252001B
:10E8D000995882B0002920D1204A8E235B00D1585C
:10E8E000002915D11D4B92225200995800290DD0B4
:10E8F000002199509021C9005A5868465A50022365
:10E9000069460B70164B01921B68984702B010BD08
:10E910000021D150FFF72CFFE4E700219950A322FA
:10E92000D20099580F4CC9B2201CFFF7B5F9002846
:10E930000BD1A368E268D31A012BCDD1084B6A46EC
:10E9400010701B6868469847C6E7012369460B703C
:10E95000034B01901B6868469847BDE700200040C4
:10E9600098280020B0280020F0B557464E4645466E
:10E97000E0B47F4D0C1C002129707E49061C82B03A
:10E980001F1C0A600720002C06D0A2887A48216844
:10E99000FFF76EF9002805D002B01CBC90469946DE
:10E9A000A246F0BDA168A2897448FFF761F9041C72
:10E9B000002CF1D17278A023C132FF32DB05920026
:10E9C0000321D1503278C132FF329200D450717895
:10E9D0006B4B6C4A995031786B4A9950B1686B4ACD
:10E9E00099507279002A4CD0694A0E219950337996
:10E9F000022B65D0012B47D0614BA0220421D2000D
:10EA000099508421002249005A508E2149005A50C1
:10EA10005F4901225858904358500121A120494292
:10EA2000C0001950A220C00019509A601A602A70C4
:10EA30000A990B88002B05D1564A1378591C11707E
:10EA40000A9A13804E4B0121C222494292009950EA
:10EA5000A121C1228900920099504F4BC02104226C
:10EA600049005A50C02189005D58FF20BF0107406E
:10EA70004A4C38042F1C274007435F5000201A607F
:10EA80008AE743495A50B2E73D4AA0210420C90011
:10EA9000505084200021400011508E204000115021
:10EAA0003B49505818435050F078A221C9005050AB
:10EAB000B078A121C9005050936013602B70B7E764
:10EAC00000F02EF9002804D100F0F2F8002800D060
:10EAD00062E76A4600231380002401239470537078
:10EAE000B0786946984600F023F9002800D053E733
:10EAF000234AA2239146012249465242DB00CA50D2
:10EB0000B278A123DB00CA50214BCA5841460A43C0
:10EB10004946CA5001A903220A704C708C70CC700F
:10EB20009046F0781E4A00F0DDF98246002800D0B9
:10EB300032E7F078012100F0B7FAF07800F000FB3E
:10EB4000002809D02B78DBB2012B08D0022B00D093
:10EB50006EE743462B706BE7FFF7C0FD68E7494659
:10EB60002C70CB604B60A023DB005246CA505FE79D
:10EB7000AC28002098280020B02800209C280020E5
:10EB8000002000400C0500001405000024050000D2
:10EB90006C0500006428002000E100E0FFFF00FF9A
:10EBA00009E8010008B5011C0148FFF789F808BD14
:10EBB000B028002070B51A4D011C84B0281CFFF746
:10EBC0006BF8184C061C2378DBB2012B02D0301CEA
:10EBD00004B070BD2278022A01D0134A93606946BE
:10EBE000281C0731FFF76CF800280ED10E4BC2210C
:10EBF000802289005A506946C8790C495850022130
:10EC00002170C12189005A50E1E7074A0123D360EE
:10EC100002A8237003230370054B1B689847D6E7AF
:10EC20009C280020AC280020002000401C0500008B
:10EC300098280020F0B500281FDB82081A4B9200AC
:10EC4000D218C0B2C02303249B00FF250440E40077
:10EC5000D6582F1CA7408901BE430D40A540341C47
:10EC60002C43D4501F23184001238340181CC0227A
:10EC70000D4B520098501860F0BDC0B20F230340F6
:10EC8000083B0A4A9B089B009B180322FF24024072
:10EC9000D200DE69251C95408901AE430C409440AA
:10ECA000321C2243DA61DDE700E100E000ED00E024
:10ECB00038B5194C08202378002B00D038BD012529
:10ECC0006D42201C291C20222C30FEF771FA4C23A7
:10ECD000E554FF224D23E2544E23E5544F23E554DF
:10ECE0005023E554062051230121E5546560A560B9
:10ECF000E56025616561A561E56125626562A562E2
:10ED0000FFF798FF8021C123044A9B000906D150D8
:10ED1000012323700020D1E7C028002000600040BC
:10ED2000024B1878431E9841C0B27047C02800209B
:10ED3000F0B52F4B04251C1828346557021C0820F9
:10ED4000013500D0F0BD8878002830D058680130F7
:10ED500047D09C68013446D0D868013045D01C6942
:10ED600004200134EED103209C1828342071800047
:10ED70001B1800245C601F4B1F4CC018A223DB0033
:10ED8000C5584E782C400F78C45080246403360553
:10ED90002640C0243F04A4023C402643F824170226
:10EDA0006401C5583C4034432C43C45001E0FE2369
:10EDB0002371E02464001019A023DB0580000324E4
:10EDC000C4504978012906D0012191400A1C0B4901
:10EDD00000205A50B6E7A120C000914019500020F1
:10EDE000B0E70020C0E70120BEE70220BCE7C04634
:10EDF000C028002000600040FFE0ECFF0C05000090
:10EE00000B4B1A1828321279032A04D892000121D8
:10EE10009A18494251601B182833FF22C1301A71D9
:10EE2000FF30A02380000222DB05C2507047C0469D
:10EE3000C028002010B50B4B0B4A181828300423AB
:10EE4000C3560A4C9B009B18A222D200995803205B
:10EE5000084321439950C046C046C046A222D20072
:10EE6000985010BDC028002000600040031F000023
:10EE7000044B181828300079034B8000C0B2C0182A
:10EE80007047C046C02800200060004010B50A4B03
:10EE90000422181828308256084B9200D218A22358
:10EEA000DB00D45806482040D050D0584C1EA14119
:10EEB00009050143D15010BDC0280020006000406A
:10EEC000FFFFEFFF054B064A1818283003799B0017
:10EED000DBB29B1801221A607047C046C028002090
:10EEE00000600040F0B5454657464E46E0B46B4BD7
:10EEF000041C18182830057908207F2D04D81CBC64
:10EF000090469946A246F0BDC878824600286CD14A
:10EF10000425AC4604200A258700B9469846C84413
:10EF20004646776801376AD0461CB046B5425AD982
:10EF3000B600B4469C446646776801375AD0861CB2
:10EF4000B046B5424FD9B600B4469C446646776891
:10EF500001374FD0C61CB046B54244D9B600B446BE
:10EF60009C4466467768013744D0061DB046B542DA
:10EF700039D9B600B4469C4466467768013739D023
:10EF8000461DB046B5422ED9B600B4469C446646EE
:10EF9000776801372ED0861DB046B54223D9B6001A
:10EFA000B4469C4466467768013723D0C61DB046F8
:10EFB000B54218D9B600B4469C4466467768013716
:10EFC00018D008263618B046B5420CD9B600B4465B
:10EFD0009C446646776801370CD00930854202D9D7
:10EFE000986A01303ED0042089E70026B44600200C
:10EFF000042591E74046C6B28700B446B9461D19BC
:10F000002E1C283665464F463571DE197260524611
:10F01000002A02D11818443004718A78002A16D1C7
:10F02000E0264D787600A019A022AD008000D20520
:10F030008550CA78002A17D165466AB29B184433B6
:10F040000A78197992010A431A71002057E7A0251E
:10F05000ED05A000E0224019D20085580226B543F4
:10F060008550E6E70920C6E767460D487AB2920068
:10F07000A2231218DB00D0580D780A49240201405F
:10F08000F82040010440C020D1502D048002D15806
:10F09000284004430C43D450002030E7C02800200F
:10F0A00000600040FFE0FCFF30B5224C23182833FD
:10F0B0001A7953B2032B17DDE31844331B799B09EC
:10F0C000032B2AD0012B31D0C0229202A023DB05D2
:10F0D0008000C018E023DB00C45817492140C1500C
:10F0E000C1580A43C25030BD032AFCD8134A9800C5
:10F0F0008018A222D2008558012425438550181C6F
:10F10000403080000D4A80B2002585500029EAD0A9
:10F11000C1219C4089005450E5E7A223A022DB00D6
:10F12000D205D258012383401A42CDD180229202C7
:10F13000CCE7C046C0280020FFFFFCFF0060004075
:10F14000A223A022D205DB00D358C340181C012300
:10F1500018407047F0B544465F4656464D46F0B4F9
:10F16000874A85B013680024012B6AD0854B196843
:10F17000012900D173E0844B1A68012A00D17EE096
:10F18000824B1968012900D189E0814B002219685E
:10F190009046012900D194E022070BD0E30700D567
:10F1A000A6E0A10700D5B2E0620700D5BDE02307C5
:10F1B00000D591E0002C06DB05B03CBC904699469A
:10F1C000A246AB46F0BD734DE0232C1C2F1CDB0088
:10F1D0004C345237C026AA46994606E05B46032BBC
:10F1E00000D1B2E00134BC42E6D02178081CB04323
:10F1F0002B1828331B795BB2032BF3DD9B005344A0
:10F200005B680093002BEDD089090291A021820058
:10F21000C90551184A468B58019101229903890F5B
:10F22000131C8B46834041461942D7D05A46022AC6
:10F23000D8D10299032900D19EE00299009A904703
:10F24000D0E7C1215448890041580B4200D18DE7D5
:10F250004C4B146019680124012900D08BE7C122AE
:10F260004D499200895802220A4200D183E70021C9
:10F270001960454B14431A68012A00D080E7C12267
:10F2800045499200895804220A4200D178E70021BA
:10F2900019603E4B14431968012900D075E7C1225B
:10F2A0003D499200895808220A4200D16DE70021A9
:10F2B0001960374B1443196800229046012900D089
:10F2C0006AE71A6080231B061C43A022A223DB00EE
:10F2D000D205D15888465FE72F4A304BD058D158D5
:10F2E0002C4BC0048903C00E890F1B69984761E746
:10F2F000294AA223DB00D058D158264BC0048903E9
:10F30000890FC00E5B689847A10700D44CE7224ADA
:10F31000234BD058D1581F4BC0048903C00E890F0E
:10F320009B689847620700D441E71B4AA323DB0090
:10F33000D058D158174BC0048903DB68C00E890F21
:10F340009847230700D435E7C6E7029B032B00D07C
:10F3500073E702210391019B49465A58114B111C36
:10F360001940019B4A4699509958039A4B461204FA
:10F370000A430199CA5060E7029A0392EBE7C0463C
:10F380000061004004610040086100400C610040E1
:10F390007C610040C0280020006000401C05000087
:10F3A00014050000FFFFFCFFF8B5244D43790E1C47
:10F3B000E95C041C171C0820002900D0F8BD002EB1
:10F3C00037D01F4B2068984231D00420F178205666
:10F3D000FFF730FC63791B4A71689B009950002F3E
:10F3E00025D0194A19499F5022687778505801232F
:10F3F0001F409843384350502068A121C90042580B
:10F40000B778032082430740101C226838435050CD
:10F410002268A221C90057580F203678874306403A
:10F42000381C3043505062790020AB54C6E70720A7
:10F43000C4E7074EDB00F618C3E7C0461C290020CE
:10F440000080004018290020142900200405000035
:10F45000A0410200037970B51F241C4001231A1C2F
:10F46000A2401549141C80228C504479134A002173
:10F47000A400A1500268124D13614479114A13553A
:10F4800003688024A4001E5935401D510568C2231D
:10F4900080249B006402EC5005688024A402EC5098
:10F4A00005688024E402EC50056880242403EC50B5
:10F4B0004379D15470BDC04600E100E0142900201A
:10F4C000F0F0FFFF1C290020036801221A60437935
:10F4D000014A0221D15470471C29002003680122EF
:10F4E000DA6070470B1C503300689B009BB2C01859
:10F4F0007047C04651310368FF318900C8587047D2
:10F5000030B5802464028C40002B09D1C2230568E9
:10F510009B00EC5051310368FF318900CA5030BD67
:10F52000C12305689B00EC50F4E7C046F0B505AC7C
:10F53000056826788024A4002F590225FF358D40C8
:10F54000AF4305682F5105682F593B432B5180234A
:10F550005B028B40002E09D1C2240568A4002B5108
:10F5600051310368FF318900CA50F0BDC1240568DC
:10F57000A4002B51F4E7C0460268A223DB00D35855
:10F58000FF20184080239B00C340181C48434009BB
:10F590007047C0460B1C503302689B009BB2D318C7
:10F5A00000221A6080235B028B40191C0268C12371
:10F5B0009B00D1507047C04680235B028B40191CD2
:10F5C0000268C2239B00D1507047C04608B5284B43
:10F5D0001A68002A05D0C122264992008A58D10310
:10F5E00028D4254B1A68002A05D0C122214992004F
:10F5F0008A58910328D4214B1A68002A05D0C122C9
:10F600001C4992008A58510328D41D4B1A68002ABD
:10F6100005D0C122174992008A58110300D408BDB1
:10F6200000221A60174BA6201968174B40001B6870
:10F630009847F4E700221A60124BA0201968124B79
:10F6400040001B689847CCE700221A600D4BA220AF
:10F6500019680D4B40001B689847CCE700221A60E0
:10F66000084BA4201968084B40001B689847CCE75A
:10F6700040A1004000A0004044A1004048A100403B
:10F680004CA10040182900201429002036DF7047C3
:10F6900037DF7047044B85201A78002A00D0704766
:10F6A00001221A700020FAE720290020F0B5564602
:10F6B00044465F464D46F0B4042290463B4B3C4ADC
:10F6C00085B0002601903B4CB24691469B461DE01A
:10F6D00002A8FFF7DBFF022842D0002842D1012513
:10F6E000B5402C4231D1012F08D062B66B46187A52
:10F6F000FFF7CEFF0223021C9A4338D14346002B6A
:10F700003CD00136AC43F6B2002C37D053466A46A3
:10F7100013724A4653680427DB05DB0DD8D0103B33
:10F72000D9B24AB2002A31DB9208C0322249920093
:10F73000575803221340DB00DF403F06BF0F012F65
:10F74000C6D10125B5402C42CDD05A4613682B4274
:10F75000C9D12B431360019B00221E709046C2E763
:10F7600072B6BCE700210022FDF72CFDB7E70021AF
:10F770000022FDF727FD4346002BC2D1404605B0CD
:10F780003CBC90469946A246AB46F0BD0F230B40C9
:10F79000083B9B08094A9B009B185F68032319409C
:10F7A000C900CF403F06BF0FC9E7C046242900204B
:10F7B00000ED00E0FF3F000000E100E018ED00E098
:10F7C00030B50124844083B0A3040720002B01D16D
:10F7D00003B030BD2C4AA123DB00D45000236A467D
:10F7E00013702A4B04255B68DB05DB0D22D16846CC
:10F7F000FFF74CFF022835D0002816D1244B1A6899
:10F80000A2431A60012D08D062B66B461878FFF744
:10F810003FFF0223021C9A4301D10020D8E70021B8
:10F820000022FDF7CFFC0020D2E700210022FDF7E7
:10F83000C9FCE3E7103BD9B24AB2002A14DB9108B5
:10F84000C031144A89008D5803221340DB00DD408B
:10F850002D06AD0F012DCAD10D4B00201A68A24311
:10F860001A60B5E772B6C9E70F230B40083B9B0847
:10F87000094A9B009B185D6803231940C900CD40CD
:10F880002D06AD0FE6E7C04600F0014000ED00E0B8
:10F890002429002000E100E018ED00E030B5002947
:10F8A00009D0002A07D001248440A5040723002D95
:10F8B00003D1181C30BD0E23FBE7074B1D6808233E
:10F8C0002542F6D0054BC000C018A223DB00C15072
:10F8D000034BC2500023ECE72429002000F0014034
:10F8E00014050000012383409A0B0720002A00D052
:10F8F0007047002B04D0054A082012681A42F7D03E
:10F90000034A044900208B50F2E7C0462429002016
:10F910000405000000F00140012383409A0B0720FA
:10F92000002A00D07047002B04D0054A0820126836
:10F930001A42F7D0A1220349D2008B500020F1E7F0
:10F940002429002000F00140F0B5564644465F46A9
:10F950004D46F0B4042290463B4B3C4A85B000260D
:10F9600001900324B24691469B461DE002A8FFF792
:10F970008DFE022842D0002842D10125B5402C42FC
:10F9800031D1012F08D062B66B46187AFFF780FE9E
:10F990000223021C9A4338D14346002B3CD0013647
:10F9A000AC43F6B2002C37D053466A4613724A462F
:10F9B00053680427DB05DB0DD8D0103BD9B24AB21F
:10F9C000002A31DB9208C0322149920057580322A5
:10F9D0001340DB00DF403F06BF0F012FC6D10125DA
:10F9E000B5402C42CDD05A4613782B42C9D12B4377
:10F9F0001370019B00221E709046C2E772B6BCE7EE
:10FA000000210022FDF7DEFBB7E700210022FDF711
:10FA1000D9FB4346002BC2D1404605B03CBC9046C2
:10FA20009946A246AB46F0BD0F230B40083B9B080E
:10FA3000084A9B009B185F6803231940C900CF4008
:10FA40003F06BF0FC9E7C0462129002000ED00E0B6
:10FA500000E100E018ED00E0F0B501231C1C84403B
:10FA60000321021C83B00720214201D103B0F0BD65
:10FA70002C4D08202E782642F8D02B48D2001218A0
:10FA8000536000236A461370284B04275B68DB052C
:10FA9000DB0D15D16846FFF7F9FD02282BD00028B1
:10FAA0002CD1A6432E70012F08D062B66B46187871
:10FAB000FFF7EEFD0223021C9A4316D10020D5E782
:10FAC000103BD8B242B2002A1EDB9008C030184A60
:10FAD000800087580B40DB00DF403F06BF0F012F3F
:10FAE000D8D1A6432E700020C0E700210022FDF7E8
:10FAF00069FB0020BAE772B62E78D2E70021002217
:10FB0000FDF760FB2E78CCE70F230340083B9B08F2
:10FB1000084A9B009B185F680140C900CF403F0620
:10FB2000BF0FDCE72129002000F0014000ED00E0DC
:10FB300000E100E018ED00E001210A1C824010B550
:10FB40000723940701D1181C10BD054B1C7808230E
:10FB50001442F8D0034BC000C1500023F3E7C04665
:10FB60002129002000F001400122111C814010B524
:10FB700007238C0701D1181C10BD034BC000C0180F
:10FB800042600023F7E7C04600F0014070B5012352
:10FB90008B400322051C82B00C1C07201A4201D1A5
:10FBA00002B070BD3149082009781942F8D0AB0B7A
:10FBB0009B030720002BF3D169460B702C4B0426C6
:10FBC0005B68DB05DB0D21D16846FFF75FFD02288E
:10FBD00037D0002837D1274AA4008023A4181B015E
:10FBE000E258AA43E250012E08D062B66B4618785C
:10FBF000FFF74EFD0223011C994301D10020CFE7FE
:10FC000000210022FDF7DEFA0020C9E7103BD8B240
:10FC100041B200291CDB8808C030174980004658D3
:10FC20001340DB00DE403606B60F012ECCD1114A60
:10FC3000A4008023A4181B01E2580020AA43E2502C
:10FC4000AEE772B6C7E700210022FDF7BBFAC2E7B4
:10FC50000F230340083B9B0808499B005B185E6824
:10FC60000240D200D640F6B2B609DEE721290020D4
:10FC700000ED00E000F0014000E100E018ED00E0E0
:10FC800070B501238B400322051C82B00C1C072099
:10FC90001A4201D102B070BD3149082009781942D9
:10FCA000F8D0AB0B9B030720002BF3D169460B70F8
:10FCB0002C4B04265B68DB05DB0D21D16846FFF782
:10FCC000E5FC022837D0002837D1274AA40080233A
:10FCD000A4181B01E2581543E550012E08D062B666
:10FCE0006B461878FFF7D4FC0223011C994301D11D
:10FCF0000020CFE700210022FDF764FA0020C9E7C9
:10FD0000103BD8B241B200291CDB8808C03017492B
:10FD1000800046581340DB00DE403606B60F012E49
:10FD2000CCD1114AA4008023A4181B01E258002062
:10FD30001543E550AEE772B6C7E700210022FDF794
:10FD400041FAC2E70F230340083B9B0808499B0088
:10FD50005B185E680240D200D640F6B2B609DEE714
:10FD60002129002000ED00E000F0014000E100E06A
:10FD700018ED00E029DF704728DF7047F8B54F46DF
:10FD80004646C0B46F4C814625788846161C1F1C19
:10FD9000002D15D1131C3B4319D10223237040467B
:10FDA000FFF7EAFF002835D1002E00D0C6E0002F73
:10FDB00000D0B8E049460B78042B00D0AEE049E013
:10FDC000062D00D9ADE0604BAD005B599F46012385
:10FDD00023705E4B586980235B05411C00D1A5E070
:10FDE00019690904090C03F043FA80235B051D69B6
:10FDF00019691A69431E2804000C09045843090CA8
:10FE0000434692B259439208FFF7B4FF002801D14C
:10FE1000022323700CBC90469946F8BD4B4B5869A1
:10FE200080235B05411C00D186E019690904090C97
:10FE300003F01EFA80235B051A691969431E10043A
:10FE4000000C09045843090C03F012FAFFF794FF61
:10FE50000028DFD107232370DCE780235B051869C6
:10FE600093000004000C484318184B465A8819693F
:10FE70009208FFF77FFF0028CCD13E43EAD006234B
:10FE80002370C7E780235B051D69304A2D04506944
:10FE90002D0C4D43411C4DD019690904090C03F088
:10FEA000E7F980235B05196901380904090C41430E
:10FEB000321C281CFFF75EFF0028ABD1002F32D187
:10FEC0004A461378042B29D1D9E780235B051A69A8
:10FED00041461204120C4A434588B6005219921941
:10FEE00090461A4A5069421C22D019690904090C2B
:10FEF00003F0BEF980235B05196901380904090C78
:10FF000041437619711840463A1CFFF733FF002829
:10FF100000D07FE749460B78042BB0D0052323702F
:10FF200078E7032076E70423237073E758695CE7DA
:10FF30005869DFE75869B4E758697BE70323237002
:10FF400068E7C0460D2A0020A841020000100010FA
:10FF5000F8B5384D2B789A00D3189B00EB181C1D70
:10FF60001B79E668042B38D0052B14D00F20022B08
:10FF700000D0F8BD304B20691B8862889B02C118F5
:10FF8000A088D21A8619F0182C4B9A423AD89208B7
:10FF9000FFF7F0FE1CE080277F053969301C09045B
:10FFA000090C03F065F9A388011C9E193A693B69A5
:10FFB0001204120C1B04481C4A431B0C4343608868
:10FFC000B21A86199B1B92089B08201CFFF7D6FECD
:10FFD0000028CED10123AB70CBE7A26818491301EA
:10FFE000CB18198958895B68B34210D0022A12D005
:10FFF00080277F053969301C0904090C03F038F9A2
:020000022000DC
:10000000011CD3E780225200FFF7B4FEE0E7414332
:1000100063889942EAD180235B051969301C090481
:10002000090C03F025F9044B1B88C018FFF7A4FE48
:10003000CEE7C046282900200E2A0020FF0300003A
:10004000F4290020F8B506AC2488071CA446144CFB
:10005000042066780A2E1BD025787519EDB2092D7B
:1000600001D90A3DEDB2A8004519AD00651900207F
:100070006A612A1C68712F710C3281C981C2604685
:100080002881EB80A3780020002B02D00136667017
:10009000F8BDFFF75DFF66781128F7D10020F5E77E
:1000A00028290020F0B544465F4656464D46F0B438
:1000B000634C85B0A378002B27D0624B00221978BF
:1000C000A270082928D0022844D003281DD1237803
:1000D0009A00D3189B00E418251D6B780133DBB21E
:1000E0006B70032B00D19DE0FFF732FF021E0CD096
:1000F00011280AD0AB68201C21796C881E012B695D
:100100000094514C0C303459A04705B03CBC90468B
:100110009946A246AB46F0BD022800D04B4B1A7060
:100120006378002BF1D0FFF713FF021EEDD01128EA
:10013000EBD023789900CB189B00E418E76821796D
:100140006369201CE4883E0100943F4C0C30345914
:10015000A047DAE72578A8004619B600A619029646
:10016000321C3B4E834637880120B8468044B24655
:100170004646B6B25746B0463E80029E04323679B5
:10018000022E42D0052E3AD0042E3AD1072906D0AD
:10019000568840468002B04228DB002926D1002143
:1001A0001970534619806378013B63706B1CDBB296
:1001B000092B01D92B1C093B237096681369101C6D
:1001C000029F5288397900921F4A36010830B6588A
:1001D0000022B047584643199B00E3180022012033
:1001E0001A71DA80D8601A615A611A816378002B1B
:1001F00000D18AE7A378002B00D086E793E7072990
:10020000CDD000210029F1D0C9E750884746BF0270
:100210000390B846039E4146FF17C00FB1424741C5
:10022000391CEFE7A9686A880E012B6921790092D1
:10023000054A201C0C30B4580D22A04765E7C04683
:10024000282900200D2A0020F42900200C2A002053
:100250000E2A002010B5554C00222C20225440209C
:100260000023225442202352442023525049542038
:10027000225456200B802352012158202270627094
:10028000A2702271E38023616361238122766383FC
:100290006362A362A383E385A363E3632386E364CA
:1002A0002365E16021626163A164E16523526820F6
:1002B00022546A2023526C2023527C2022547E2018
:1002C000235284202150882023508C2023508020CA
:1002D00023529020225492202352982021509C2077
:1002E0002350A020235094202352A4202254A6203F
:1002F0002352AC202150B0202350B4202350A820FA
:100300002352B8202254BA22A352C022A150C422A0
:10031000A350C822A350BC22A352264A2366636678
:100320006367A36721671380234B5869431C36D04A
:1003300080235B0519690904090C02F099FF8021EB
:1003400049050A69831E1004000C58431B4B002208
:1003500018601B4B1A601A819A815A81194B082226
:100360001A70154B5869431C1DD009690904090C02
:1003700002F07EFF80235B051A691969431E100491
:10038000000C09045843090C02F072FFFFF7F4FC5B
:10039000002803D10C4A0123A370137010BD8023E1
:1003A0005B055869CBE74869E4E7C0462829002087
:1003B0000E2A0020042A002000100010082A002025
:1003C000F42900200D2A00200C2A0020F8B55646FA
:1003D0004D4644465F46F0B4454B051C1B780E1C49
:1003E0000824002B06D1201C3CBC90469946A2460E
:1003F000AB46F8BD002873D0002971D001680029F0
:100400006ED080235B051A69878892B207249742D1
:10041000E9D80F2FE7D9C288002AE4D07A43924660
:10042000344AD34611689146334A88465069C344DA
:10043000421C57D019690904090C02F019FF8023E6
:100440005B051A69411E1204120C4A4307249345A6
:10045000C9D81A6992B2524507DA1869391C80B2B4
:1004600002F04AFF89B20029BDD10724BB07BAD1E7
:10047000224904248C4609880129B4D04346204FE0
:10048000736031600E01BB1942465A602A684446C7
:10049000BA51AA881A81E8885881424380200023F3
:1004A000400509E005692D042D0C521B05692D043A
:1004B0002D0C6419002A17D005690133ADB29BB227
:1004C0009542EFD380225205126992B2A4184A468F
:1004D0001460BE19B381013163461980002482E79C
:1004E0000E2480E75869AAE74A461460F1E7C0463F
:1004F0000C2A0020082A002000100010042A0020E6
:10050000F429002030B5114B1C780823002C01D1B0
:10051000181C30BD002806D0002A04D00368002B28
:1005200003D00723F4E70E23F2E7094C2568002DDA
:10053000F7D0258940686943091860894543606898
:100540002D18A942EDD213605160E1E70C2A00207A
:10055000F4290020F0B5474680B41E4C051C2478D1
:1005600082B00E1C171C0820002C03D102B004BC62
:100570009046F0BD00292BD0002D29D029680720F6
:100580000029F3D1144A1468002CEFD0696854890B
:100590008846118952684C43A44662449045E5D28E
:1005A000002FE3D0B942E1D3FA189142DEDB1020EC
:1005B000B107DBD103221342D8D144461442D5D12E
:1005C0000093291C321C3B1C0220FFF73BFDCDE7AA
:1005D0000E20CBE70C2A0020F4290020F0B5474676
:1005E00080B41E4C051C247882B00E1C171C0820F9
:1005F000002C03D102B004BC9046F0BD00292BD0E2
:10060000002D29D0296807200029F3D1144A146845
:10061000002CEFD0696854898846118952684C4390
:10062000A44662449045E5D2002FE3D0B942E1D31D
:10063000FA189142DEDB1020B107DBD1032213420E
:10064000D8D144461442D5D10093291C321C3B1CFE
:100650000520FFF7F7FCCDE70E20CBE70C2A0020A2
:10066000F4290020F0B5454657464E46E0B4264CE6
:1006700082B02578071C0E1C90460824002D06D158
:10068000201C02B01CBC90469946A246F0BD002931
:1006900006D0002804D00C68002C03D00724EFE714
:1006A0000E24EDE7194D28680028F7D02A896889BB
:1006B000496850438446686884446145EED24046A8
:1006C0000028EBD04245E9D39C46C4446245E5DBB3
:1006D000BA0701D01024D3E703208146021C03424D
:1006E000F8D10A409246F5D159184246381C02F01A
:1006F0001EFE3068424603010092ED58301C494608
:1007000052463B1CA847BBE70C2A0020F4290020D6
:1007100070B5174A041C127882B00D1C0820002AFC
:1007200001D102B070BD002C20D022680720002A21
:10073000F7D1104B1A68002AF3D05E6819895B89DB
:1007400062684B439B199A42EBD210209307E8D181
:10075000901B02F0D1FD07200029E2D10091002278
:10076000211C2B1C0420FFF76DFCDAE70E20D8E7D4
:100770000C2A0020F4290020074B1A780823002AAD
:1007800001D1181C7047002804D0044B5B7803602B
:100790000023F6E70E23F4E70C2A00202829002086
:1007A00010B5074AA023DB05995880221203141CB8
:1007B000A1208C43C0001C5002480A401A5010BDB2
:1007C000040500000C050000F8B5A34B1B68DA0710
:1007D00000D4F8BDA14B1C78172CFAD8A049A20070
:1007E0008A5897469F4AA023DB0599588022120217
:1007F000141CA1208C43C0001C509B480A401A5076
:100800009A4B002218689A4B1B689900C918FDF78B
:100810004BFEDEE7A0239749DB05934A9950A122BE
:100820000021D2009950D4E78E4AA023DB059958C5
:1008300080221202141CA120C0008C431C508A4844
:100840000A401A50894B00221868894B1968FDF735
:100850002BFEBEE7A022A1218020D2050002C90004
:100860005050814800267F4C16501459814D6540E8
:100870008024254000D1E6E0545016500321082280
:1008800019707A4B18687A4B196851430022FDF7AA
:100890000BFE9EE7A022A1218020D2050002C90004
:1008A0005050714800266F4C16501459714D6540D8
:1008B0008024254000D1C1E0545016500421282244
:1008C000DEE7A023A1228821DB05D20009036648C8
:1008D00099508024002119501C50995079E7664D99
:1008E0002868FDF76FFE11231C1B00D196E000283D
:1008F00000D093E0012C0CD0C8206421604302F0AA
:10090000B7FC5B4B2D68196800224143281CFDF79A
:10091000CBFDA0238021DB0509037EE7A0235749F7
:10092000DB05A122D20099504F4A0021995050E78F
:10093000A022A1218020D2050002C90050504A48BF
:100940000027484D175055594A4E6E4080252E407D
:1009500069D0555017502822022C5CD01C7090E7AB
:10096000A023A1228021DB05D20009033E48434C8D
:100970009950002119501C5099502AE74049A02352
:10098000A122DB05D200384880249950240200219E
:1009900019501C5099501CE7A023DB053549C0E7CE
:1009A000A023A1228021DB05D20009028FE7A0222B
:1009B000A1218020D2050002C90050502A480026FB
:1009C000284C165014592B4D65408024254032D0B8
:1009D0005450165005221A70244B00221868244BDC
:1009E00019684900FDF760FDF3E6A022A1218020EF
:1009F000D2050002C90050501B480026194C165061
:100A000014591C4D65408024254021D05450165067
:100A100006221A7016E712221C7032E7A0238021EA
:100A2000DB0509037DE7155056500422022C95D1B1
:100A300002221C7025E714505550CBE71450555036
:100A4000042204211CE7145055500222032117E709
:100A500014505550DCE7C046102A00201C2A002004
:100A6000C4410200040500000C050000202A0020FB
:100A7000142A002080800800182A002080800000AE
:100A800080000800002300200B70704770B5C34B36
:100A9000041C1B680020DA0700D470BD172CFCD89A
:100AA000BF4AA300D3589F46BE4AA023DB059958EE
:100AB00080221202141CA1208C43C0001C50BA4892
:100AC0000A401A50B94B00221868B94B1B689900AC
:100AD000C918FDF7E9FCE0E7B24AA023DB05995805
:100AE00080221202141CA120C0008C431C50AE486E
:100AF0000A401A50AD4B00221868AD4B1968FDF73B
:100B0000D3FCCAE7AB4D2868FDF75CFD11231C1B25
:100B100000D11FE1002800D01CE1012C0CD0C8201E
:100B20006421604302F0A4FBA14B2D6819680022E8
:100B30004143281CFDF7B8FC9B4AA0238021DB051C
:100B400009039950A1220021D2009950A5E79A49A2
:100B5000A023A122DB05D2009950934A002199508D
:100B6000964B12221A70002097E7A023A122882119
:100B7000DB05D2008C4809039950802400211950CC
:100B80001C5099508D4B13221A70002085E78A491A
:100B9000854AA023DB059950A1220021D20099505B
:100BA000864B00201C7078E78549A022A123D2053E
:100BB000DB00D1507C4900235350804A0020137041
:100BC0006BE7A023A1228021DB050902D200995006
:100BD0007549002673485E501858774D454080206F
:100BE000054000D1C9E098505E502823022C00D166
:100BF000D2E0724A14706D4A10686D4A1168002282
:100C00005943FDF751FC48E76B49674AA023DB05D0
:100C10009950A1220021D200995000203DE7694956
:100C2000A023A122DB05D2005F4880249950240232
:100C3000002119501C509950604B14221A7000204A
:100C40002BE7A023A1228021DB050902D2009950C5
:100C50005549002553485D501858574C4440802052
:100C6000044000D181E098505D500823032114E036
:100C7000A023A1228021DB050902D20099504A4914
:100C8000002548485D5018584B4C44408020044093
:100C90007BD098505D5028230421484A1170AAE760
:100CA000A023A1228021DB05D2003F4809029950F0
:100CB0008024002119501C509950404B07221A7073
:100CC0000020EAE6A023A1228021DB05D2003648DD
:100CD00009033B4C9950002119501C509950374B37
:100CE00015221A700020D8E6A023A1228021DB055E
:100CF0000902D20099502C4900252A485D50185805
:100D00002D4C44408020044034D098505D502B4BF3
:100D100005221A70254B00221868254B19684900D6
:100D2000FDF7C2FBB9E6A023A1228021DB05090261
:100D3000D20099501C4900251A485D5018581E4C85
:100D400044408020044024D098505D501B4B062224
:100D50001A70CFE6A0238021A122DB050903D2006F
:100D60009950114A0021995097E658509C50032100
:100D7000022392E758509C50C9E758509D500423D5
:100D8000022C00D035E7022333E758509C5004234F
:100D900082E758509C50D9E712232AE7102A0020F6
:100DA00024420200040500000C050000202A002057
:100DB000142A0020182A0020808008001C2A002005
:100DC000808000008000080008B50F4B19600F4BB1
:100DD0001860C3070BD50E4AA023A121DB05C9006B
:100DE0005A500C4900205850A321C9005A500A48B3
:100DF00000210A4AFDF724FB002804D108480121FC
:100E0000084AFDF71DFB08BD142A0020102A002007
:100E1000808008000C050000202A0020C90702007D
:100E2000182A0020A10702000720704706207047FB
:100E300008B50320FFF7FAFF031C0020002B04D0A5
:100E4000981F421E90414042184008BD10B50388CB
:100E5000102B08D0112B05D1294A1368013B1360D0
:100E6000002B07D010BD264C2368002B11D0013376
:100E70002360F7E7002002210122FFF7D5FF0028B9
:100E80002BD0072829D01F4B1B68002BEAD098478E
:100E9000E8E7002000210122FFF7C6FF002808D064
:100EA000072806D0174B1B68002B00D098472368F3
:100EB000DDE7012002210722FFF7B6FF002801D05D
:100EC0000728EFD1002002210422FFF7ADFF002800
:100ED000EDD00728E6D12368C9E7012002210722C7
:100EE000FFF7A2FF002801D00728CCD10020002165
:100EF0000A22FFF799FF0028B4D00728C3D1B1E731
:100F0000282A0020242A002010B5234B84B00C1C72
:100F1000186016D000206946FFF7B4FD002801D004
:100F200004B010BD012002A9FFF7ACFD0028F7D1E5
:100F30006A46137A002B29D16A461378002B28D1F0
:100F40002370164B00201B68002BE9D102210122DF
:100F5000FFF76AFF002801D00728E1D10120022114
:100F60000722FFF761FF002801D00728D8D1002011
:100F700000210A22FFF758FF031C0020002BCFD0CE
:100F8000D81F421E904140421840C9E702232370F7
:100F9000D7E70B232370D4E7242A0020282A002037
:100FA0003CDF704748DF704775DF704776DF70477A
:100FB00086DF704787DF704788DF704760DF7047E4
:100FC000014B01221A707047902B002008B503785E
:100FD000013B012B00D908BD406800210022FCF72D
:100FE000F1F8F8E700B597B06846FFF7C5FB0028B1
:100FF0002ED1009B002B04D01D4B01221A7017B07C
:1010000000BD02A90B7306AB0822029319480EAB70
:101010000A718B6001F02AFD002823D11648FC23B9
:10102000027813400370A0230381502343810023DF
:1010300043608381FFF7BCFF00280ED10120FFF73A
:1010400025FD0028DBD000210022FCF7BBF8D6E705
:1010500000210022FCF7B6F8CBE700210022FCF7C4
:10106000B1F8EBE700210022FCF7ACF8D6E7C04668
:10107000A42B0020792B0020942B002010B5041CF9
:10108000023CFFF70FF8012C03D8054B1A78002A11
:1010900000D110BD00221A70FFF7A4FFF9E7C04687
:1010A000A42B0020F8B5041C01F048FD4448211C85
:1010B00000F0C0FD4348211C01F08EF84248211C7D
:1010C00000F00CFB201CFFF7C1FE23881B2B15D062
:1010D0001D2B08D0192B00D0F8BDA379022BFBD112
:1010E000FFF780FFF8E7A088A11DFFF75DFF00284C
:1010F000F2D000210022FCF765F8EDE7A57B221C69
:101100000F32ED08E8D0E67B277C311C0023022F4C
:1011100005D150E0D0184078D15C022811D00131BF
:101120005B189D42F6D8032F48D0002304E0D11865
:101130004978D65C032934D001369B199D42F6D8F4
:10114000CAE702330139D21889B24908C4D05378AA
:1011500010781E4E1B020343B3420ED0023200230E
:1011600007E0577815783F02381C02322843B04216
:1011700003D001338B42F4D3AEE7FFF71BFF00200F
:10118000FFF784FC002811D1114902220B78A01D21
:101190009343104A0B70FFF70FFF0F4B00221A709A
:1011A0009AE70233711ED21889B2CEE700210022DD
:1011B000FCF708F8E8E7311C0223C3E70223F1E754
:1011C000842D0020E82D00207C2B00200F1800002B
:1011D000942B002000430200782B002070B50B7880
:1011E000061C113BDBB20C1C122B16D82E4D9B009B
:1011F000EB589F46002162222C48FBF7D9FF2C4870
:1012000002F09EF80020FFF741FC002843D1294C52
:101210002378012B44D0013B2370002070BD002AAD
:10122000FBD0101C00210022FBF7CCFFF5E7224881
:1012300001F020F80028F0D0F4E70720FFF726FCA3
:10124000002823D164681D4B2288311C1A801C4859
:10125000042202F06CF82188144800F0B3FC002846
:101260000FD1144A13780133DBB21370002BD4D1A1
:10127000FFF7B8FED1E7124801F05AFB0028CCD0A6
:10128000D0E700210022FBF79DFFEAE700210022C2
:10129000FBF798FFD6E700210022FBF793FFB6E7A4
:1012A000FFF7A0FE2378B6E784420200842D0020D9
:1012B00008430200882B0020E82D0020802D00200C
:1012C0008C2B002008B5072820D00A2810D004282D
:1012D00000D008BD144B13211888FFF767FE0823C0
:1012E000021C9A43F5D000210022FBF76BFFF0E7C8
:1012F0000020FFF7CBFB002811D1FFF799FD002854
:1013000008D1FFF74DFE0028E3D0ECE7074B0122A0
:101310001A70DEE700210022FBF754FFF1E70021FD
:101320000022FBF74FFFE8E7802D0020782B0020FC
:1013300070B50B78041C002B19D0012B16D14B78FB
:101340001C1C642B24D8E4B21548211C01F0F8FFC2
:10135000144D154E03E0301C211C01F0F1FF281C38
:101360000021221CFCF744F91128F4D070BD00F0D4
:101370004BFA00280ED1201C00F004FA002803D0FC
:1013800000210022FBF71EFF084801F0D9FFEDE71E
:101390006424D8E700210022FBF714FFEBE7C046E6
:1013A00040430200F842020058430200204302007A
:1013B00008B5031C0A1C0248191CFBF703FF08BDF3
:1013C000EFBEADDEF0B5474680B400238EB000938B
:1013D0000020042103227B4BFCF7A0FF002803D050
:1013E00000210022FBF7EEFE03207749774AFFF742
:1013F000EBFC002803D000210022FBF7E3FE08AC41
:101400000020211CFFF780FD002803D000210022CE
:10141000FBF7D8FE27786E4E023F7B425F4104AD5A
:10142000FFB22B1C321CB84683CA83C36B46002212
:10143000DA81684A0E33089201226260664A281CEB
:10144000A26080225200E260211C0093634A0323C1
:10145000FDF78AFA002803D000210022FBF7B2FE34
:101460005F4801F06DFF08205E494822002301F02B
:1014700087FE002803D000210022FBF7A3FE0222F2
:10148000201C0021FBF794FE63780122934322780D
:10149000637003239A4302231343201C2370FFF736
:1014A0008DFD002803D000210022FBF78BFE4E4863
:1014B00001F08CFE002803D000210022FBF782FE01
:1014C0004A4801F08DFE002803D000210022FBF7DE
:1014D00079FE40462870FEF7BDFE002803D00021AB
:1014E0000022FBF76FFE281C01F05AF9002803D0F8
:1014F00000210022FBF766FE684600210522253008
:10150000FBF756FE02226079394B2271012210430B
:101510000893C0B202231843E32108400C2108437A
:10152000CF21014061710721A1711021E171217A60
:1015300030480A431343211C237201F0CBF90028E1
:1015400003D000210022FBF73DFE00F0FDFA002849
:1015500003D000210022FBF735FE274B2748211C32
:10156000089300F099F8002803D000210022FBF72F
:1015700029FE331C0C33221CA2CBA2C2204D03CB6C
:1015800003C2281C211C1F4AFCF7F2F8002803D0D4
:1015900000210022FBF716FE281C00216422FCF724
:1015A00027F81128F8D0281CFCF758FBFFF71AFD84
:1015B000FFF7F8FC0028FBD000210022FBF702FE19
:1015C000F6E7C046A82B0020CD0C0000C512020093
:1015D000D0420200742B00202C2A0020CD0F0200E4
:1015E0006C4302002C2B0020A51002007D1002008D
:1015F000DD110200792B0020311302007C2B00202A
:10160000F8420200C10F020095DF704797DF704774
:1016100010B5037882B0002B05D141681B4B0A023C
:10162000120A9A4201D002B010BD194B42881B68C1
:101630001A80027A002A0DD0164944898C4222D0A1
:10164000012A07D9C48A8C421BD0022A02D9428CB3
:101650008A4206D0002269460A70181C9A68904790
:10166000E1E7022251008A1892008018828A6946B6
:101670005A80428A181C9A8000220A709A68904701
:10168000D1E70122EEE70022ECE7C0460F18010087
:101690009C2E0020192A000000B5031C83B00E20E8
:1016A000002B13D0002911D001A801228270084A12
:1016B0000280084A1360012252421A8000225A8096
:1016C0009A8009689960044900F052FA03B000BD9D
:1016D0000F1800009C2E00201116020030B583B0B8
:1016E00000280DD000290BD00B88352B0FD009D93D
:1016F000372B18D0382B03D18A8983889A4231D06E
:1017000003B030BD102BFBD18B880380F8E78A89AA
:1017100083889A4207D102236A4613708B7C6946FC
:10172000537083689847144C144B25681B689D427E
:10173000E6D0AA00124B5219920099188878002816
:101740000AD0D05A0831FFF761FF0028D8D10135FF
:1017500007231D402560D3E7D05A89880022FFF770
:1017600053FFF2E76A46012313708B7C694653707E
:1017700083689847C4E7C046F82D0020F42D002068
:10178000FC2D0020031C70B50E20002B2FD01B4910
:101790005D880A681C8893009B1819489B00C31831
:1017A0000132072632405D8100250A605D71022109
:1017B000144DD981191D19611C8000212C68998153
:1017C0000121197219719970A24211D0A3001B193D
:1017D0009B00C1188A78185A002A0BD18988FFF714
:1017E00013FF002804D1013407231C402C6070BD76
:1017F0000020FCE70831FFF709FFF2E7F42D002095
:10180000FC2D0020F82D002070B5164907240B6828
:10181000154D9A00D218013323400B608188920045
:10182000AA189180114E01883468118000219170AE
:10183000A34210D0A3001B199B00E9188A78585BBB
:10184000002A0AD00831FFF7E1FE002803D1013455
:1018500007231C403460002070BD8988FFF7D4FE48
:10186000F3E7C046F42D0020FC2D0020F82D0020C9
:1018700090DF704792DF704793DF7047F0B55F46A7
:101880004D4644465646F0B46023C35C2E255D4366
:10189000354F85B03C688C4601934519002C09D022
:1018A000324BAA789E7896420BD0012C02D99E7AB0
:1018B00096420CD005B03CBC90469946A246AB4639
:1018C000F0BD19882E88B142EFD1002204E01E89B4
:1018D0002A889642EED10122D2009B185A6892467D
:1018E000002AE7D0224E3568012DE3D85C23C35A85
:1018F0002049EA009B46531B8846DB000393434480
:10190000191C02935B464B8061469146002925D005
:10191000039B002241465A5401992E235943029AAF
:1019200041180432101C2E2201F001FD4A46531BBF
:10193000DB0043445146013559633560A542B9D1B6
:101940004046426B90473B68012B04D940464146D4
:101950003830CB6E984700233360ABE7039B0222FD
:1019600041465A54E2E7C0462C2F0020182F002091
:10197000142F0020A42E0020F0B5474680B4602329
:10198000C35C2E255D435F23C35C45195A00D21802
:101990009200AA188846911D2A795C1C82B0944254
:1019A00039D0AC465F2793422DD2541EA3421AD0A1
:1019B00001335E00F618B600AE1906360C89F288BF
:1019C0000134944219D06B46013A1C805A8000229F
:1019D00041460A705C22805A6946FFF74DFF02B00B
:1019E00004BC9046F0BD63460E899C8DA6420FD084
:1019F0006B4601361E805C80E9E7311CDBB2C355C3
:101A00002A799A42D1D8012341460B700020E6E79B
:101A10000021131CF2E70C89AA8D9442F3D06B4687
:101A200001341C805A80D2E7F8B556464D464446EC
:101A30005F46F0B43F4A404E136835680133041CDA
:101A40001360AB4208D300226123C2543CBC9046D1
:101A50009946A246AB46F8BD00215F23E1546023BE
:101A60008946C15C2E220131C9B2171C4F43C154B3
:101A70009846324BC7199A46C90051449346381CC0
:101A8000042201F054FC494639715C23E05A0121DB
:101A90003A1CFFF7EDFE0028D8D061234A46E254F5
:101AA0004346E25C5F467A435746A2189378B9787A
:101AB000994238D0012DC9D95746B97A9942C5D132
:101AC000398913889942C1D10123DB0053445968F5
:101AD0008C460029BAD01A4F3B68012BB6D8D900E2
:101AE0005C22A25AC91A174CC90090468946221C8A
:101AF0004A44A24644465480012164460133117091
:101B0000506054633B609D42A0D15046416B884772
:101B10003368012B04D9504652463830D36E98476B
:101B200000233B6092E73F8811888F42C2D1002397
:101B3000CBE7C046A02E00202C2F0020182F00201D
:101B4000142F0020A42E0020054A00231360054A0C
:101B500001211170044A00201360044A1360704789
:101B60002C2F0020282F0020A02E0020142F002032
:101B7000F8B5021C0C1C002807D0002905D00E4B1C
:101B800008201978002902D1F8BD0E20FCE70B4E81
:101B900006203568022DF7D00420012DF4D8084F17
:101BA000EB00FF18111C381C0422013501F0BFFBAB
:101BB0007C6035600020E7E7282F00202C2F0020D4
:101BC000182F002070B5041C0D1C002825D0144BC4
:101BD00008201B78002B00D170BD124B1B68002B16
:101BE000FAD06126A35D1120002BF5D10E4A201CEE
:101BF00013600E4A13606022A3545C23E152042256
:101C00000B4901F094FB281C0121221CFFF730FE38
:101C10000028E1D10123A355DEE70E20DCE7C04612
:101C2000282F00202C2F0020A02E0020142F002071
:101C3000182F0020F0B54D4644465F465646F0B496
:101C4000041C83B00D1C002873D0002971D0C94B2F
:101C50001B78002B6DD00B88103B9BB2232B68D8D0
:101C6000C54A9B00D3589F4600235A00D3185B00F7
:101C7000ED187B00DB19EA899B0063441A825F231D
:101C8000E75C00256846057061460B7901379F4285
:101C900000D1B9E15F23E754201C6946FFF76CFED1
:101CA000002800D180E16123E5546023E35C2E210C
:101CB0005943B24A611813689046002B39D0B04D91
:101CC0008A78AE78964200D155E2012B31D9AE7AAE
:101CD00096422ED12E890A8896422AD10122D2001C
:101CE000AD1869688946002923D0A64F3A68012AB1
:101CF0001FD85C21615AD500A34CAD1A8C46ED006B
:101D0000611966464E800126665501324860484694
:101D100048633A6093420CD1201C616B884742466D
:101D20001368012B03D9201C3830E36E9847002339
:101D30003B6003B03CBC90469946A246AB46F0BD22
:101D40006023C35C2E2253431B189C465F23C75C51
:101D5000CB88002B95D18889002800D191E78B4E44
:101D60000B8AB34200D17FE70A1C1632002305E03C
:101D70000632911F0988B14200D176E701339842BB
:101D8000F6D87EE76023C25CCB88002B00D001E14F
:101D90002E275743C7193E790B7BF318032B00DD21
:101DA0003CE1DBB2984641463971B34236D9730003
:101DB0009B199B00DB19181C291C99460A22063026
:101DC0000E3101F0B4FA4B4600221A82731C914680
:101DD000984500D82FE15A00D3189B00DB19181C36
:101DE000291C9A46183106300A2201F0A0FA5346FF
:101DF00049461982B31C434500D31CE15A00D3184D
:101E00009B00DB19181C291C9A460A220630223135
:101E100001F08DFA53464A461A820336013E60238A
:101E20007200E35C96192E225343B600BF19E318E3
:101E3000F9899A8D914200D3ACE04046032800D145
:101E4000A8E05F2246464046A654002800D099E10B
:101E50005A8D69460A809B8D4B805C23E05AFFF7C0
:101E600009FD002800D164E700226123E2546023C9
:101E7000E35C2E225A43414BA21898461B68002B64
:101E800000D156E73E4D9178AE788E4200D192E176
:101E9000012B00D84DE7AE7A8E4200D049E7298960
:101EA0001288914200D044E70122D200AD1869683F
:101EB0008C46002900D13CE7324F3A68012A00D90C
:101EC00037E75C21615A3824261C56432E4D89463B
:101ED000B246A919A34601264C464C80B146544649
:101EE0002E554A444860604648633A609A4200D0A2
:101EF0001FE700245E46414609688C4200D316E77E
:101F0000301C60432818436B98470134F3E7622282
:101F10000021FBF74DF9012252425C23E25208E70F
:101F2000CB88002B46D06023C35C2E215943134B32
:101F3000411898461B68002B00D12EE1104D8A787D
:101F4000A878904200D1D4E0012B00D82AE1A87AE9
:101F50001E1C904200D107E10D4A13680133136043
:101F6000B3426AD300226123E254E2E68A885C230A
:101F7000C252DEE6282F0020884302002C2F0020CA
:101F8000182F0020142F0020A42E0020022900006A
:101F9000A02E002000255F23E554201C6946FFF792
:101FA000EBFC002800D07EE66E463378002B00D193
:101FB000BFE62BE06027C35D2E2673431B189846AF
:101FC000181C0E31042201F0B2F94046291C2A30B7
:101FD0001231042201F0ABF9E35D5E435F23E35C61
:101FE000A619002B1DD1738D68460380B38D6946F9
:101FF00043805C23E05AFFF73DFC002800D198E6BF
:1020000000226123E25450E601230370201C0121C9
:10201000FFF734FC201CFFF707FD8AE603239846F0
:10202000C1E6013BDBB25A00D3189B00F318DB89F1
:1020300001339BB2D8E71E1CF0E600215F23E15478
:102040006023181C9946E35C8A4601332E21DBB2DB
:102050000F1C5F432354E719DB0004228B46381C16
:10206000E91801F064F952463A715C23E05A012103
:102070003A1CFFF7FDFB002800D15AE661235146C8
:10208000E1544B46E25C59464A43A2189378A9783A
:10209000994200D188E0012E00D84AE6A97A9942F7
:1020A00000D046E629891388994200D041E60123F1
:1020B000DB00ED186A689146002A00D139E6414FED
:1020C0003B68012B00D934E65C22A25ADD003E4C6D
:1020D000ED1A9446ED006219614651800121615567
:1020E00001335060484650633B60B34200D020E665
:1020F00012E62E880888864200D025E70022D2000A
:10210000AA1850681E1C8446002800D124E72D4FD1
:102110003A68012A00D91FE7D0005C21615A2A4E93
:10212000801AC0008A468346311C5944B14656463F
:102130004E800220664601324E6308703A601E1CD3
:102140009A4200D008E74846416B884742461668E5
:10215000012E06D94E4648463830F36E9847404621
:10216000066800233B60F7E628890A88904200D081
:10217000F2E60122C3E72F880E88B74200D0A4E51B
:102180000022ACE54246013AD2B251008A189200D0
:102190009A18D289013292B25BE60C4B1A6801326E
:1021A0001A60DFE60126D7E62F8811888F4200D01B
:1021B00071E700237CE72F881688B74200D067E6D6
:1021C000002272E6142F0020A42E0020A02E002052
:1021D00095DF704797DF704730B583B0002808D08F
:1021E000002906D00B88372B1CD0382B03D0102B9E
:1021F00015D003B030BD8A8983889A42F9D1022371
:102200006A4613708B7CDA072BD50B7DCA7C1B02C8
:1022100013436A465380694683689847E9E78B8889
:102220000380E6E7104D114B2C681B689C42E0D000
:10223000A2000F4B121992009918887800280BD130
:10224000D05A89880022FFF7C3FF0028D1D101347A
:1022500007231C402C60CCE7D05A0831FFF7BAFFA7
:10226000F3E7CB7CD5E7C046342F0020302F002089
:10227000382F0020031C70B50E20002B2FD01B49D7
:102280005D880A681C8893009B1819489B00C31836
:102290000132072632405D8100250A605D7102210E
:1022A000144DD981191D19611C8000212C68998158
:1022B0000121197219719970A24211D0A3001B1942
:1022C0009B00C1188A78185A002A0BD18988FFF719
:1022D0007FFF002804D1013407231C402C6070BD0F
:1022E0000020FCE70831FFF775FFF2E7302F0020F0
:1022F000382F0020342F00207EDF70477FDF7047AB
:1023000081DF7047A9DF7047AADF70470020704760
:102310000020704700207047002070470020704761
:1023200000207047F8B54378114D5800C118890056
:102330004A59002A08D00F4C6618B67A77B2002F97
:1023400010DB0022002102E00A4C00220021C31809
:102350009B00E41820890323FFF7D4FF002800D056
:102360000548F8BD7706ECD46918043192B2EEE75F
:10237000D0300020F82F002041800000002070475E
:10238000F0B585B00623061C684603804B78274DC0
:102390005A00D3189B00EB180C1C188902A96A4636
:1023A0000323FFF7B1FF002802D0002005B0F0BDE5
:1023B00063781F4F5800C0188000694638180A8893
:1023C000043002A900F0A4FF637800281ED0590051
:1023D000CA189200D259002A25D0164D68460288A4
:1023E000CB189B00FA50637802A95800C0188000EF
:1023F0003818043000F09BFF6378301C5900C9186E
:10240000890079180C223423A847CEE75A00D31844
:102410009B00ED18AA7A9007C7D4F81800210C2267
:10242000FAF7C6FEC1E7044DD8E7C046F82F0020F2
:10243000D0300020DD0502005505020038B54B788C
:10244000021C5800C0180A4C80000D1C2018111CDA
:1024500034230C22FEF706F9002806D16B785A00C7
:10246000D3189B001A59013200D038BD1851FCE72F
:10247000D0300020F0B55F4656464D464446F0B495
:10248000504F8A46396891B0814693469846002954
:102490004AD01A9A5C2A47D84B4B694600930023CE
:1024A0000B741A9B4246099208930024474E02E09F
:1024B0000134072C12D0A5B2301C291C02AAFEF749
:1024C00021F80028F4D1484602A9082200F020FF94
:1024D0000028EDD1E4B26D46AC7003E06D46AC78F7
:1024E000FF2C21D05146042930D0394B4146CB1A1C
:1024F000A72B20D9374B4146CB1A1B2B33D80023AF
:102500006B700AAB09931823089320235246032AC1
:1025100052D0022213436A46137407AB05936846F0
:102520003B6804A95A46984711B03CBC904699466E
:10253000A246AB46F0BD5A46274B002A0DD01A687A
:102540000121A1408A431A602023DFE71A9A5C2AFE
:1025500030D0432369460B74DFE701211A68A1409C
:102560000A42E1D0ECE71D480B1A0B2B0FD91C4B8C
:102570009845EED01B4BA200D3589845D4D11A4BA6
:10258000DA7A4023A242C1D100226A70BEE730232A
:1025900069460B7400236B700123EB70124B9A7A1F
:1025A00030239107B2D40C220021FAF701FE6A46CB
:1025B000137CABE72323CDE70122134369460B7459
:1025C000ABE7C046E030002000FFFFFFAC3000204A
:1025D00004300020B4300020DC300020D030002057
:1025E00048440200D82F0020F82F002038B54B783F
:1025F000021C5800C0180A4C80000D1C2018111C29
:1026000034230C22FEF72EF8002806D16B785A00EE
:10261000D3189B001A59013200D038BD1851FCE77D
:10262000D0300020F8B54378114D5800C11889000A
:102630004A59002A08D00F4C6618B67A77B2002F94
:1026400010DB0022002102E00A4C00220021C31806
:102650009B00E41820890323FFF754FE002800D0D4
:102660000548F8BD7706ECD46918043192B2EEE75C
:10267000D0300020F82F002041800000F0B585B058
:102680000623061C684603804B78274D5A00D31852
:102690009B00EB180C1C188902A96A460323FFF75C
:1026A00033FE002802D0002005B0F0BD63781F4F34
:1026B0005800C0188000694638180A88043002A9FA
:1026C00000F026FE637800281ED05900CA18920038
:1026D000D259002A25D0164D68460288CB189B0097
:1026E000FA50637802A95800C018800038180430E6
:1026F00000F01DFE6378301C5900C9188900791854
:102700000C223423A847CEE75A00D3189B00ED18BB
:10271000AA7A9007C7D4F81800210C22FAF748FDCE
:10272000C1E7044DD8E7C046F82F0020D030002084
:10273000DD0502005505020070B54378164D5A00BC
:10274000D3189B00041CEB1818892378134E5900EA
:10275000C918890071180431FFF7CEFD00281AD17D
:1027600023785A00D3189B00F618727A012313437A
:10277000737263785A00D3189B00EB18997A04227D
:102780000A439A7263785A00D3189B00ED18AB7A0B
:1027900020229343AB7270BDF82F0020E030002060
:1027A000F0B556465F464D464446F0B4824685B085
:1027B000002869D03D4B00223D481A605A729A7237
:1027C000012383725B420381C37200210722FAF75F
:1027D000EFFC00210C223748FAF7EAFC3649374A69
:1027E0000123374F8B460C1C00259146FF26984647
:1027F000201C002106221130FAF7DAFC201C0021EF
:102800001022FAF7D5FC39684346AB40994339604A
:10281000AB000022494601352674E675CA501834CB
:10282000072DE5D15C236A46264E9380264B6846E9
:10283000311CD5800093FDF7C9FD00281DD1234927
:1028400001230B70884651460B78002B1ED15D4644
:102850000024A1B2301C02AAFDF754FE071E1ED1AF
:10286000281C02A918220023FDF7FCFE00281AD11B
:1028700001341835072CECD1002005B03CBC904643
:102880009946A246AB46F0BD1148F6E76A46D188A4
:102890009388301C594389B2FDF73AFFEDE70023D6
:1028A00041460B70E9E742461770E6E7E03000204A
:1028B000F82F0020D030002004300020D82F002036
:1028C000DC300020AC30002075240200F42F002002
:1028D0000E800000F8B5114B051C1B780C1C002B5A
:1028E00001D10F48F8BD00280AD0002908D00B6894
:1028F000002B05D00B4E3768002F03D00A48F1E7B4
:102900000A48EFE7301C08C00531052200F00FFD32
:1029100023790020B3722F70E4E7C046F42F002023
:1029200008800000E0300020048000000E800000DD
:10293000F8B5454B1B78002B01D14448F8BD002861
:102940000BD00378002BF8D1414B1A68002AF4D041
:102950004278002A03D03F48F0E73F48EEE73F4A7D
:10296000917A0129F7D08C07E7D58178FF2908D023
:10297000D17A817010893A4A111C1231FFF7C0FCDC
:10298000DCE7D17AFF29F4D1364CE17DFF2919D05B
:102990002F21615CFF2954D04721615CFF294ED073
:1029A0005F21615CFF2948D07721615CFF2942D01B
:1029B0008F21615CFF293CD0A721615CFF2936D0C3
:1029C0002948BBE700211578022D2ED018264E434A
:1029D0001768A6193761351C9688AE829679AE7550
:1029E000FD2518264E43A419E57545780C2465434A
:1029F000C9B25519E9728170017861435918497A51
:102A0000CD070FD54178202561435218917A29438B
:102A100091720278022154431B195A7A00200A430A
:102A20005A728BE7FFF788FE88E7FE25D9E7062173
:102A3000C9E70521C7E70421C5E70321C3E7022150
:102A4000C1E70121BFE7C046F42F00200880000045
:102A5000E0300020108000000E800000F82F0020E1
:102A6000B43000200430002043800000F0B55F4601
:102A700056464D464446F0B42A4B1B78002B06D1EF
:102A800029483CBC90469946A246AB46F0BD00287A
:102A900040D000293ED00B68002B3BD08E68002E22
:102AA00038D00378002BEBD1204B1B68002BE7D0EC
:102AB0001F4A00240220012610320023A3461D4D88
:102AC0008146B4461EE0087BA0420AD9D779604609
