:020000021000EC
:10D0000000400020ED01020035020200370202005C
:10D010000000000000000000000000000000000010
:10D0200000000000000000000000000039020200C3
:10D0300000000000000000003B0202003D02020070
:10D040003F0202003F020200C1D201003F02020083
:10D050003F0202000000000061D301003F02020015
:10D060003F0202003F0202003F0202003F020200B4
:10D070003F0202003F0202003F0202003F020200A4
:10D080003F0202003F0202003F0202003F02020094
:10D090003F0202003F020200C50102003F020200FF
:10D0A0003F0202003F0202000000000000000000FA
:10D0B0000000000000000000000000000000000070
:10D0C000164B002B00D1144B9D46402292029A1A17
:10D0D000924600218B460F461348144A121A00F05C
:10D0E00067F80F4B002B00D098470E4B002B00D059
:10D0F00098470020002104000D000D48002802D0B0
:10D100000C4800E000BF00F02DF82000290001F0DD
:10D1100057FA00F011F8C046000008000040002057
:10D12000000000000000000060280020E42F002024
:10D130000000000000000000084B10B5041C002B8C
:10D1400002D0002100E000BF054B1868836A002B65
:10D1500000D09847201C00F033F8C04600000000C3
:10D160002C03020070B50E4B0E4D0024ED1AAD10CD
:10D170001E1CAC4204D0A300F35898470134F8E7D2
:10D1800003F0C6F8084B094D0024ED1AAD101E1C23
:10D19000AC4204D0A300F35898470134F8E770BDBF
:10D1A00060280020602800206028002060280020DF
:10D1B000031C8218934202D019700133FAE77047BA
:10D1C000FEE7C046BFF34F8F024A034BDA60BFF35E
:10D1D0004F8FFEE70400FA0500ED00E010B5031CD8
:10D1E0009A888068DC68241A0420A24200D210BD0C
:10D1F000D868024018688154DA6800200132DA6089
:10D20000F5E7C04610B58468C268031C0520944247
:10D2100009D098689A8802401868825C00200A70D9
:10D220009A6801329A6010BD10B5204C84B0237802
:10D23000DBB2002B0CD0022B0CD9032B08D11C4BDA
:10D24000012100222270D9605960A021C9005A50E2
:10D2500004B010BD17488268C3689A421AD0237878
:10D26000022B02D0124B01229A6069460731FFF768
:10D27000C9FF00280ED10E4BC221802289005A50CE
:10D280006946C8790C49585002212170C121890092
:10D290005A50DDE7064A0123D36002A82370032316
:10D2A0000370064B1B689847D2E7C04674280020DD
:10D2B00000200040642800201C0500006028002099
:10D2C00010B5244B84225200995882B0002920D1F5
:10D2D000204A8E235B00D158002915D11D4B922284
:10D2E0005200995800290DD0002199509021C90071
:10D2F0005A5868465A50022369460B70164B0192E1
:10D300001B68984702B010BD0021D150FFF78CFF79
:10D31000E4E700219950A322D20099580F4CC9B2DA
:10D32000201CFFF75BFF00280BD1A368E268D31A2B
:10D33000012BCDD1084B6A4610701B686846984790
:10D34000C6E7012369460B70034B01901B686846D2
:10D350009847BDE700200040602800207828002082
:10D36000F8B5704A00241368012B48D06E4B1A6838
:10D37000012A50D06D4B1A68012A5AD06C4B1A689A
:10D38000012A64D06B4B00251A68012A00D16FE096
:10D3900023070BD0E20700D574E0A30700D59CE07B
:10D3A000620700D57EE0230700D58AE0002C00DB71
:10D3B000F8BD614B3822995CC022081C90431A18B2
:10D3C000127E52B2032AF3DD92009B185B68002B99
:10D3D000EED0A024E40582001219E024E4001459E0
:10D3E0008909A403A60F012484402C4200D083E0C5
:10D3F000032EDDD1032900D191E09847D8E7C12160
:10D400004E48890041580B42B0D0474B14601A680F
:10D410000124012AAED1C122484992008958022232
:10D420000A42A7D000211960404B14431A68012A10
:10D43000A4D1C12241499200895804220A429DD0B8
:10D44000002119603A4B14431A68012A9AD1C1226B
:10D450003A499200895808220A4200D192E70021F5
:10D460001960344B14431A680025012A00D08FE755
:10D470001D6080231B061C43A022A223DB00D205D3
:10D48000D55885E72D4AA223DB00D058D1582A4B26
:10D49000C00489035B68C00E890F9847A30700D4B6
:10D4A0007EE71AE0254AA323DB00D058D158224B4F
:10D4B000C0048903DB68C00E890F9847230700D496
:10D4C00074E71E4A1E4BD058D1581B4BC004890329
:10D4D000C00E890F1B69984768E7184A194BD05846
:10D4E000D158154BC0048903C00E890F9B6898471B
:10D4F000620700D457E7D5E7022E00D058E703298A
:10D5000000D07AE70D1CE024E40017590E4E2D04DC
:10D510003E401651165935431551984748E70225A4
:10D52000F1E7C0460061004004610040086100402E
:10D530000C6100407C6100408828002000600040B1
:10D540001C05000014050000FFFFFCFF29DF7047E9
:10D5500028DF7047F8B54F464646C0B46F4C814649
:10D5600025788846161C1F1C002D15D1131C3B4323
:10D5700019D1022323704046FFF7EAFF002835D176
:10D58000002E00D0C6E0002F00D0B8E049460B784E
:10D59000042B00D0AEE049E0062D00D9ADE0604B91
:10D5A000AD005B599F46012323705E4B5869802371
:10D5B0005B05411C00D1A5E019690904090C02F0C2
:10D5C0003FFE80235B051D6919691A69431E280403
:10D5D000000C09045843090C434692B2594392087F
:10D5E000FFF7B4FF002801D1022323700CBC904642
:10D5F0009946F8BD4B4B586980235B05411C00D10F
:10D6000086E019690904090C02F01AFE80235B0503
:10D610001A691969431E1004000C09045843090CC7
:10D6200002F00EFEFFF794FF0028DFD107232370DE
:10D63000DCE780235B05186993000004000C484375
:10D6400018184B465A8819699208FFF77FFF00287F
:10D65000CCD13E43EAD006232370C7E780235B0585
:10D660001D69304A2D0450692D0C4D43411C4DD08D
:10D6700019690904090C02F0E3FD80235B051969AF
:10D6800001380904090C4143321C281CFFF75EFFD6
:10D690000028ABD1002F32D14A461378042B29D170
:10D6A000D9E780235B051A6941461204120C4A43EC
:10D6B0004588B6005219921990461A4A5069421C80
:10D6C00022D019690904090C02F0BAFD80235B0518
:10D6D000196901380904090C41437619711840464B
:10D6E0003A1CFFF733FF002800D07FE749460B784C
:10D6F000042BB0D00523237078E7032076E70423BA
:10D70000237073E758695CE75869DFE75869B4E745
:10D7100058697BE70323237068E7C046312900205E
:10D720003003020000100010F8B5384D2B789A0035
:10D73000D3189B00EB181C1D1B79E668042B38D00E
:10D74000052B14D00F20022B00D0F8BD304B2069E0
:10D750001B8862889B02C118A088D21A8619F0180B
:10D760002C4B9A423AD89208FFF7F0FE1CE0802733
:10D770007F053969301C0904090C02F061FDA3889A
:10D78000011C9E193A693B691204120C1B04481CC7
:10D790004A431B0C43436088B21A86199B1B9208AC
:10D7A0009B08201CFFF7D6FE0028CED10123AB70CA
:10D7B000CBE7A26818491301CB18198958895B680F
:10D7C000B34210D0022A12D080277F053969301C5D
:10D7D0000904090C02F034FD011CD3E78022520039
:10D7E000FFF7B4FEE0E7414363889942EAD1802322
:10D7F0005B051969301C0904090C02F021FD044B7A
:10D800001B88C018FFF7A4FECEE7C046C42800203E
:10D8100032290020FF03000018290020F8B506ACCB
:10D820002488071CA446144C04206678042E1BD0C0
:10D8300025787519EDB2032D01D9043DEDB2A8008C
:10D840004519AD00651900206A612A1C68712F71A5
:10D850000C3281C981C260462881EB80A378002008
:10D86000002B02D001366670F8BDFFF75DFF6678C9
:10D870001128F7D10020F5E7C4280020F0B5444670
:10D880005F4656464D46F0B4624C85B0A378002BF7
:10D8900027D0614B00221978A270082928D00228CD
:10D8A00044D003281DD123789A00D3189B00E41894
:10D8B000251D6B780133DBB26B70032B00D19CE02C
:10D8C000FFF732FF021E0CD011280AD0AB68201CD3
:10D8D00021796C881E012B690094504C0C3034590E
:10D8E000A04705B03CBC90469946A246AB46F0BD69
:10D8F000022800D04A4B1A706378002BF1D0FFF752
:10D9000013FF021EEDD01128EBD023789900CB181D
:10D910009B00E418E76821796369201CE4883E01D4
:10D9200000943E4C0C303459A047DAE72578A80023
:10D930004619B600A6190296321C3A4E834637881D
:10D940000120B8468044B2464646B6B25746B04675
:10D950003E80029E04323679022E41D0052E39D007
:10D96000042E39D1072906D0568840468002B0429D
:10D9700027DB002925D100211970534619806378CF
:10D98000013B63706B1CDBB2032B00D9EB1E2370D1
:10D9900096681369101C029F5288397900921F4AB9
:10D9A00036010830B6580022B047584643199B004C
:10D9B000E318002201201A71DA80D8601A615A61D6
:10D9C0001A816378002B00D18BE7A378002B00D05D
:10D9D00087E794E70729CED000210029F1D0CAE7D4
:10D9E00050884746BF020390B846039E4146FF1742
:10D9F000C00FB1424741391CEFE7A9686A880E01A0
:10DA00002B6921790092054A201C0C30B4580D2254
:10DA1000A04766E7C42800203129002018290020EB
:10DA2000302900203229002010B5344C00222C204F
:10DA300022544020002322706270A270227122764C
:10DA400022544222A3524422A3522D492D4A0B8034
:10DA5000E380012123616361238163836362A362A5
:10DA6000A383E385A363E3632386E36423651380D1
:10DA7000254BE16021626163A1645869431C36D083
:10DA800080235B0519690904090C02F0D9FB802188
:10DA900049050A69831E1004000C58431B4B0022E1
:10DAA00018601B4B1A601A819A815A81194B0822FF
:10DAB0001A70154B5869431C1DD009690904090CDB
:10DAC00002F0BEFB80235B051A691969431E10042E
:10DAD000000C09045843090C02F0B2FBFFF738FDB3
:10DAE000002803D10C4A0123A370137010BD8023BA
:10DAF0005B055869CBE74869E4E7C046C4280020C5
:10DB00003229002028290020001000102C29002094
:10DB1000182900203129002030290020F8B5564668
:10DB20004D4644465F46F0B4454B051C1B780E1C21
:10DB30000824002B06D1201C3CBC90469946A246E6
:10DB4000AB46F8BD002873D0002971D001680029C8
:10DB50006ED080235B051A69878892B207249742AA
:10DB6000E9D80F2FE7D9C288002AE4D07A43924639
:10DB7000344AD34611689146334A88465069C344B3
:10DB8000421C57D019690904090C02F059FB802383
:10DB90005B051A69411E1204120C4A43072493457F
:10DBA000C9D81A6992B2524507DA1869391C80B28D
:10DBB00002F08AFB89B20029BDD10724BB07BAD184
:10DBC000224904248C4609880129B4D04346204FB9
:10DBD000736031600E01BB1942465A602A684446A0
:10DBE000BA51AA881A81E8885881424380200023CC
:10DBF000400509E005692D042D0C521B05692D0413
:10DC00002D0C6419002A17D005690133ADB29BB2FF
:10DC10009542EFD380225205126992B2A4184A4667
:10DC20001460BE19B381013163461980002482E774
:10DC30000E2480E75869AAE74A461460F1E7C04617
:10DC4000302900202C290020001000102829002055
:10DC50001829002030B5114B1C780823002C01D165
:10DC6000181C30BD002806D0002A04D00368002B01
:10DC700003D00723F4E70E23F2E7094C2568002DB3
:10DC8000F7D0258940686943091860894543606871
:10DC90002D18A942EDD213605160E1E73029002030
:10DCA00018290020F0B5474680B41E4C051C247886
:10DCB00082B00E1C171C0820002C03D102B004BC3B
:10DCC0009046F0BD00292BD0002D29D029680720CF
:10DCD0000029F3D1144A1468002CEFD069685489E4
:10DCE0008846118952684C43A44662449045E5D267
:10DCF000002FE3D0B942E1D3FA189142DEDB1020C5
:10DD0000B107DBD103221342D8D144461442D5D106
:10DD10000093291C321C3B1C0220FFF77FFDCDE73E
:10DD20000E20CBE73029002018290020F0B5474607
:10DD300080B41E4C051C247882B00E1C171C0820D1
:10DD4000002C03D102B004BC9046F0BD00292BD0BA
:10DD5000002D29D0296807200029F3D1144A14681E
:10DD6000002CEFD0696854898846118952684C4369
:10DD7000A44662449045E5D2002FE3D0B942E1D3F6
:10DD8000FA189142DEDB1020B107DBD103221342E7
:10DD9000D8D144461442D5D10093291C321C3B1CD7
:10DDA0000520FFF73BFDCDE70E20CBE73029002013
:10DDB00018290020F0B5454657464E46E0B4264C9B
:10DDC00082B02578071C0E1C90460824002D06D131
:10DDD000201C02B01CBC90469946A246F0BD00290A
:10DDE00006D0002804D00C68002C03D00724EFE7ED
:10DDF0000E24EDE7194D28680028F7D02A89688994
:10DE0000496850438446686884446145EED2404680
:10DE10000028EBD04245E9D39C46C4446245E5DB8B
:10DE2000BA0701D01024D3E703208146021C034225
:10DE3000F8D10A409246F5D159184246381C02F0F2
:10DE40005EFA3068424603010092ED58301C4946A4
:10DE500052463B1CA847BBE7302900201829002068
:10DE600070B5174A041C127882B00D1C0820002AD5
:10DE700001D102B070BD002C20D022680720002AFA
:10DE8000F7D1104B1A68002AF3D05E6819895B89B4
:10DE900062684B439B199A42EBD210209307E8D15A
:10DEA000901B02F011FA07200029E2D10091002214
:10DEB000211C2B1C0420FFF7B1FCDAE70E20D8E769
:10DEC0003029002018290020074B1A780823002A3F
:10DED00001D1181C7047002804D0044B5B78036004
:10DEE0000023F6E70E23F4E730290020C4280020A1
:10DEF00097DF704763DF7047F0B53E4B5C21428887
:10DF0000595A87B0914200D163E0C421595A9142D5
:10DF100061D096214900595A91425ED0CA214900E8
:10DF2000595A91425BD0FE214900595A914258D02A
:10DF300099218900595A914255D0B3218900595AE3
:10DF4000914252D0CD218900595A082791424ED092
:10DF500068225743DF190378002B35D1047A002C4F
:10DF600032D0254B0A301E7800220023234D04E0D6
:10DF70000133DAB20C30944226D90188A942F7D194
:10DF80008178B142F4D166217A54022267217A5411
:10DF90000124694600200C70487002A90C705C00D6
:10DFA000E3189B00FB181B8A88804B8000AB8B60BA
:10DFB000CA805C23F85AFFF79BFF002807D0002196
:10DFC0000022FFF7FFF802E004226723FA5407B0AB
:10DFD000F0BD0027BCE70127BAE70227B8E703270F
:10DFE000B6E70427B4E70527B2E70627B0E7072717
:10DFF000AEE7C04638290020342900200A900000EE
:10E0000030B50B7887B04078152B01D1002A02D0AB
:10E01000002007B030BD68235843114B6721181802
:10E0200002234354012469460C704A7002A90C7003
:10E030006624045D65002C19A4000419248ACB8091
:10E0400000AB8B604C808A805C23C05AFFF750FF86
:10E050000028DDD000210022FFF7B4F8D8E7C04641
:10E0600038290020F0B5644B5C218288595A83B06E
:10E07000041C914200D19DE0C421595A914200D123
:10E080009DE096214900595A914200D199E0CA2158
:10E090004900595A914200D195E0FE214900595A50
:10E0A000914200D191E099218900595A914200D1C1
:10E0B0008DE0B3218900595A914200D189E0CD21E8
:10E0C0008900595A914200D185E00826002523880D
:10E0D000382B30D0392B25D0372B07D0002D03D04B
:10E0E000281C211C00F018FD03B0F0BD0622E388B7
:10E0F000FF32934250D01022FF3293424CD0002D79
:10E10000F2D06723EA5C022AEAD16622AA5C5100B7
:10E110008A189200AA18A189128A914247D0042233
:10E12000EA54DDE7237B002B30D1002DDCD0042224
:10E130006723EA54D4E7002DD6D06723EB5C032B8A
:10E14000CED16623EB5C5A00D3189B00EB18A28952
:10E15000DB899A42C4D1278A012FC1D1012EBFD8B1
:10E16000022201A8254902F0CAF8A27C01AB002ACC
:10E1700033D1985D224B8740381C1840A121A02341
:10E18000DB05C90058501F495A50A9E7002000215B
:10E190000022FFF717F8C8E7281C623001F09AFA4E
:10E1A0000028ACD000210022FFF70CF8A7E70322DB
:10E1B000EA5495E70026682575435D1987E701262F
:10E1C000F9E70226F7E70326F5E70426F3E7052635
:10E1D000F1E70626EFE70726EDE7995D084B8F404C
:10E1E000391C1940074AA023DB059950A1220021C0
:10E1F000D200995074E7C046382900204C03020031
:10E20000800008000C05000010B5214986B00431DB
:10E2100002A8102202F073F81E4C02A8211CFFF77E
:10E2200069FE00282ED11C4A002367215354CF21B8
:10E2300053543821FF315354A021FF31535417490F
:10E240005354174953541749535417495354174AB1
:10E25000137000F0EBFB002803D000210022FEF732
:10E26000B1FF23786A469370114B684611491380B9
:10E2700000F0F0FB002803D000210022FEF7A2FFEF
:10E2800006B010BD00210022FEF79CFFCBE7C04680
:10E290004C03020034290020382900200702000026
:10E2A0006F020000D70200003F0300003529002064
:10E2B0000190FFFFF9DE0100F8B54378682673434B
:10E2C000134D0127EB186033DF714378041C73434F
:10E2D000EB18583399800F4B211C1A7801321A70B1
:10E2E0004078042270432818623002F008F8607801
:10E2F00067234643A819C7545C23C15A00F0D4FBD6
:10E30000002803D000210022FEF75CFF0020F8BDAA
:10E31000382900203529002070B5437868245C43F3
:10E32000134B82B01C19134B6946143360CB60C188
:10E330006721655C6A460823002D02D1181C02B0D3
:10E3400070BD0D4B1D78013D1D7000236354417855
:10E350000129F3D889008A5801209040074AA12159
:10E360001040A022D205C900505005495350E5E79E
:10E37000382900204C0302003529002080000800C5
:10E380000C05000048DF704786DF704787DF704765
:10E3900088DF704760DF7047F8B5051C01F050FA60
:10E3A000281CFFF75FFE2B881B2B21D1A87B291C83
:10E3B0000F31C0081CD0EE7B2F7C321C0023092FAC
:10E3C00005D12CE0CC186478CA5C092C11D001323C
:10E3D0009B188342F6D3082F24D0002304E0CA18E8
:10E3E0005278CE5C082A15D001369B198342F6D3A9
:10E3F000F8BD0233013AC91892B20B4801F070FF20
:10E400000028F5D1FFF7C2FFA81D0849084AFFF709
:10E41000BFFFEDE70233721EC91892B2EDE7321C5E
:10E420000223E7E70223F6E7BC030200C803020069
:10E43000B403020010B5041C82B0023CFFF71EFAC0
:10E44000012C03D8104C2378002B01D102B010BD51
:10E45000002368462370FFF737FD00280FD1009B8B
:10E46000002B02D001232370F0E70848FFF78CFF50
:10E470000028EBD000210022FEF7A4FEE6E70021F1
:10E480000022FEF79FFEEAE7C22C0020C80302002C
:10E49000F0B50B7885B0113BDBB2061C0C1C151CCB
:10E4A000122B1BD83D4A9B00D3589F464B681988B6
:10E4B000FFF702FF00283DD1394A13780133DBB260
:10E4C0001370072B0AD86846FFF7FEFC00284ED1D0
:10E4D000009B002B45D0334B01221A70301C211CAD
:10E4E0002A1CFFF78DFD002803D000210022FEF733
:10E4F00069FE002005B0F0BD002DEFD0281C0021E2
:10E500000022FEF75FFEE9E7FFF706FF002816D1BD
:10E51000234F3B78082B17D0013B3B70DEE702A866
:10E52000311C042201F0EBFE02A801F0D3F8002810
:10E53000D4D0E4E700210022FEF744FEBCE700212E
:10E540000022FEF73FFEE3E702A8FFF7BDFC00282C
:10E550001FD1029B002B0FD0124B01221A703B7867
:10E56000DAE71148FFF710FF0028B7D0C7E700210E
:10E570000022FEF727FEABE70B48FFF705FF002858
:10E5800001D13B78C8E700210022FEF71BFE3B7853
:10E59000C2E700210022FEF715FEDAE76803020059
:10E5A000C12C0020C22C0020C803020008B5031CA7
:10E5B0000A1C0248191CFEF705FE08BDEFBEADDEC1
:10E5C00070B5A0215A4C86B000230120C905032252
:10E5D0000133202B0BD0251C1D412842F8D0E0260A
:10E5E00076009D19AD0001336A50202BF3D15049BC
:10E5F000A023A122DB05D20099504E4A0021995058
:10E6000008204D494822002301F0A2FD002803D034
:10E6100000210022FEF7D6FD02AC0222201C0021C0
:10E62000FEF7C6FD637801229343227863700323CB
:10E630009A4302231343201C2370FFF7ABFE0028EC
:10E6400003D000210022FEF7BDFD3C4801F0A6FDED
:10E65000002803D000210022FEF7B4FD384801F065
:10E66000A7FD002803D000210022FEF7ABFDFFF735
:10E67000CBFDFFF7D9F9002803D000210022FEF7D7
:10E68000A1FD00236A466846137000F05BFF002876
:10E6900003D000210022FEF795FD684600210522E7
:10E6A0000D30FEF785FD02226079264B2271012292
:10E6B00010430293C0B202231843E32108400C2107
:10E6C0000843CF21014061710721A1711021E1713F
:10E6D000217A1D480A431343211C237200F0CCFF0A
:10E6E000002803D000210022FEF76CFD201CFFF75C
:10E6F000EBFB002803D000210022FEF763FD029B04
:10E70000002B0BD0114B01221A70FFF73BFE0028A3
:10E71000FBD000210022FEF755FDF6E70C48FFF77D
:10E7200033FE0028F1D000210022FEF74BFDECE77C
:10E73000800008000C050000782C002099E30100FF
:10E7400035E4010091E40100C02C0020C22C00201F
:10E75000C803020090DF704792DF704793DF704775
:10E76000F0B55F464D4644465646F0B46023C35C60
:10E770002E255D43354F85B03C688C460193451985
:10E78000002C09D0324BAA789E7896420BD0012CEF
:10E7900002D99E7A96420CD005B03CBC9046994670
:10E7A000A246AB46F0BD19882E88B142EFD10022B7
:10E7B00004E01E892A889642EED10122D2009B18DD
:10E7C0005A689246002AE7D0224E3568012DE3D8D8
:10E7D0005C23C35A2049EA009B46531B8846DB0052
:10E7E00003934344191C02935B464B806146914658
:10E7F000002925D0039B002241465A5401992E231B
:10E800005943029A41180432101C2E2201F077FD60
:10E810004A46531BDB00434451460135596335607A
:10E82000A542B9D14046426B90473B68012B04D9C1
:10E83000404641463830CB6E984700233360ABE703
:10E84000039B022241465A54E2E7C046502D002065
:10E850003C2D0020382D0020C82C0020F0B5474664
:10E8600080B46023C35C2E255D435F23C35C4519E0
:10E870005A00D2189200AA188846911D2A795C1C69
:10E8800082B0944239D0AC465F2793422DD2541EB9
:10E89000A3421AD001335E00F618B600AE19063650
:10E8A0000C89F2880134944219D06B46013A1C80DD
:10E8B0005A80002241460A705C22805A6946FFF75E
:10E8C0004DFF02B004BC9046F0BD63460E899C8D9E
:10E8D000A6420FD06B4601361E805C80E9E7311CF2
:10E8E000DBB2C3552A799A42D1D8012341460B7035
:10E8F0000020E6E70021131CF2E70C89AA8D944260
:10E90000F3D06B4601341C805A80D2E7F8B55646E6
:10E910004D4644465F46F0B43F4A404E1368356862
:10E920000133041C1360AB4208D300226123C2549C
:10E930003CBC90469946A246AB46F8BD00215F23F9
:10E94000E15460238946C15C2E220131C9B2171CF3
:10E950004F43C1549846324BC7199A46C900514497
:10E960009346381C042201F0CAFC494639715C23E5
:10E97000E05A01213A1CFFF7EDFE0028D8D06123B0
:10E980004A46E2544346E25C5F467A435746A21841
:10E990009378B978994238D0012DC9D95746B97AB8
:10E9A0009942C5D1398913889942C1D10123DB002D
:10E9B000534459688C460029BAD01A4F3B68012B42
:10E9C000B6D8D9005C22A25AC91A174CC900904681
:10E9D0008946221C4A44A24644465480012164468A
:10E9E00001331170506054633B609D42A0D150468A
:10E9F000416B88473368012B04D950465246383062
:10EA0000D36E984700233B6092E73F8811888F427E
:10EA1000C2D10023CBE7C046C42C0020502D0020DB
:10EA20003C2D0020382D0020C82C0020054A002352
:10EA30001360054A01211170044A00201360044A42
:10EA400013607047502D00204C2D0020C42C002056
:10EA5000382D0020F8B5021C0C1C002807D0002916
:10EA600005D00E4B08201978002902D1F8BD0E20E0
:10EA7000FCE70B4E06203568022DF7D00420012D4F
:10EA8000F4D8084FEB00FF18111C381C0422013584
:10EA900001F035FC7C6035600020E7E74C2D00205C
:10EAA000502D00203C2D002070B5041C0D1C0028AA
:10EAB00025D0144B08201B78002B00D170BD124BC1
:10EAC0001B68002BFAD06126A35D1120002BF5D125
:10EAD0000E4A201C13600E4A13606022A3545C236C
:10EAE000E15204220B4901F00AFC281C0121221CDE
:10EAF000FFF730FE0028E1D10123A355DEE70E2009
:10EB0000DCE7C0464C2D0020502D0020C42C0020F6
:10EB1000382D00203C2D0020F0B54D4644465F4680
:10EB20005646F0B4041C83B00D1C002873D0002995
:10EB300071D0C94B1B78002B6DD00B88103B9BB25A
:10EB4000232B68D8C54A9B00D3589F4600235A0000
:10EB5000D3185B00ED187B00DB19EA899B00634446
:10EB60001A825F23E75C00256846057061460B79D1
:10EB700001379F4200D1B9E15F23E754201C694669
:10EB8000FFF76CFE002800D180E16123E55460238B
:10EB9000E35C2E215943B24A611813689046002B5A
:10EBA00039D0B04D8A78AE78964200D155E2012B2B
:10EBB00031D9AE7A96422ED12E890A8896422AD130
:10EBC0000122D200AD1869688946002923D0A64FDA
:10EBD0003A68012A1FD85C21615AD500A34CAD1AAE
:10EBE0008C46ED00611966464E800126665501325D
:10EBF0004860484648633A6093420CD1201C616BE0
:10EC0000884742461368012B03D9201C3830E36E35
:10EC1000984700233B6003B03CBC90469946A2460F
:10EC2000AB46F0BD6023C35C2E2253431B189C46A9
:10EC30005F23C75CCB88002B95D18889002800D141
:10EC400091E78B4E0B8AB34200D17FE70A1C163244
:10EC5000002305E00632911F0988B14200D176E712
:10EC600001339842F6D87EE76023C25CCB88002B44
:10EC700000D001E12E275743C7193E790B7BF318CB
:10EC8000032B00DD3CE1DBB2984641463971B342CB
:10EC900036D973009B199B00DB19181C291C994657
:10ECA0000A2206300E3101F02AFB4B4600221A825E
:10ECB000731C9146984500D82FE15A00D3189B0049
:10ECC000DB19181C291C9A46183106300A2201F05B
:10ECD00016FB534649461982B31C434500D31CE139
:10ECE0005A00D3189B00DB19181C291C9A460A22CB
:10ECF0000630223101F003FB53464A461A8203369E
:10ED0000013E60237200E35C96192E225343B60045
:10ED1000BF19E318F9899A8D914200D3ACE04046BF
:10ED2000032800D1A8E05F2246464046A6540028AA
:10ED300000D099E15A8D69460A809B8D4B805C23F7
:10ED4000E05AFFF709FD002800D164E700226123A3
:10ED5000E2546023E35C2E225A43414BA2189846AA
:10ED60001B68002B00D156E73E4D9178AE788E425D
:10ED700000D192E1012B00D84DE7AE7A8E4200D04F
:10ED800049E729891288914200D044E70122D20044
:10ED9000AD1869688C46002900D13CE7324F3A68CB
:10EDA000012A00D937E75C21615A3824261C5643D2
:10EDB0002E4D8946B246A919A34601264C464C80E1
:10EDC000B14654462E554A444860604648633A600E
:10EDD0009A4200D01FE700245E46414609688C42F3
:10EDE00000D316E7301C60432818436B9847013462
:10EDF000F3E762220021FEF7DBF9012252425C2395
:10EE0000E25208E7CB88002B46D06023C35C2E215A
:10EE10005943134B411898461B68002B00D12EE133
:10EE2000104D8A78A878904200D1D4E0012B00D808
:10EE30002AE1A87A1E1C904200D107E10D4A13680E
:10EE400001331360B3426AD300226123E254E2E645
:10EE50008A885C23C252DEE64C2D0020D8030200D3
:10EE6000502D00203C2D0020382D0020C82C0020E3
:10EE700002290000C42C002000255F23E554201C3B
:10EE80006946FFF7EBFC002800D07EE66E4633783B
:10EE9000002B00D1BFE62BE06027C35D2E26734315
:10EEA0001B189846181C0E31042201F028FA40461F
:10EEB000291C2A301231042201F021FAE35D5E435D
:10EEC0005F23E35CA619002B1DD1738D6846038078
:10EED000B38D694643805C23E05AFFF73DFC002870
:10EEE00000D198E600226123E25450E6012303702A
:10EEF000201C0121FFF734FC201CFFF707FD8AE6E8
:10EF000003239846C1E6013BDBB25A00D3189B00AD
:10EF1000F318DB8901339BB2D8E71E1CF0E6002111
:10EF20005F23E1546023181C9946E35C8A46013351
:10EF30002E21DBB20F1C5F432354E719DB000422B0
:10EF40008B46381CE91801F0DAF952463A715C2315
:10EF5000E05A01213A1CFFF7FDFB002800D15AE6D8
:10EF600061235146E1544B46E25C59464A43A2189C
:10EF70009378A978994200D188E0012E00D84AE61A
:10EF8000A97A994200D046E629891388994200D08F
:10EF900041E60123DB00ED186A689146002A00D1A2
:10EFA00039E6414F3B68012B00D934E65C22A25A76
:10EFB000DD003E4CED1A9446ED0062196146518029
:10EFC0000121615501335060484650633B60B342B4
:10EFD00000D020E612E62E880888864200D025E779
:10EFE0000022D200AA1850681E1C8446002800D1B6
:10EFF00024E72D4F3A68012A00D91FE7D0005C2191
:10F00000615A2A4E801AC0008A468346311C5944F0
:10F01000B14656464E800220664601324E63087065
:10F020003A601E1C9A4200D008E74846416B884768
:10F0300042461668012E06D94E4648463830F36ED1
:10F0400098474046066800233B60F7E628890A880F
:10F05000904200D0F2E60122C3E72F880E88B74223
:10F0600000D0A4E50022ACE54246013AD2B25100FC
:10F070008A1892009A18D289013292B25BE60C4B40
:10F080001A6801321A60DFE60126D7E62F88118858
:10F090008F4200D071E700237CE72F881688B742A3
:10F0A00000D067E6002272E6382D0020C82C002030
:10F0B000C42C00207EDF70477FDF704781DF704700
:10F0C000A9DF7047AADF7047002070470020704713
:10F0D00000207047002070470020704700207047D4
:10F0E000F8B54378114D5800C11889004A59002AD3
:10F0F00008D00F4C6618B67A77B2002F10DB0022CA
:10F10000002102E00A4C00220021C3189B00E418F1
:10F1100020890323FFF7D4FF002800D00548F8BD5D
:10F120007706ECD46918043192B2EEE7602F002024
:10F13000582D00204180000000207047F0B585B0B8
:10F140000623061C684603804B78274D5A00D318C7
:10F150009B00EB180C1C188902A96A460323FFF7D1
:10F16000B1FF002802D0002005B0F0BD63781F4F2A
:10F170005800C0188000694638180A88043002A96F
:10F1800001F0AEF8637800281ED05900CA1892002A
:10F19000D259002A25D0164D68460288CB189B000C
:10F1A000FA50637802A95800C0188000381804305B
:10F1B00001F0A5F86378301C5900C9188900791846
:10F1C0000C223423A847CEE75A00D3189B00ED1831
:10F1D000AA7A9007C7D4F81800210C22FDF7E8FF9F
:10F1E000C1E7044DD8E7C046582D0020602F00200D
:10F1F0002DDD0100A5DC010038B54B78021C58005C
:10F20000C0180A4C80000D1C2018111C34230C223D
:10F21000FEF7D0FD002806D16B785A00D3189B006A
:10F220001A59013200D038BD1851FCE7602F002078
:10F23000F0B55F4656464D464446F0B44C4F8A46BC
:10F24000396891B080469346994600294BD01A9A66
:10F25000442A48D8474B6946009300230B741A9BF5
:10F260004A46099208930024434E02E00134082CD8
:10F2700012D0A5B2301C291C02AAFEF7EBFC002814
:10F28000F4D1404602A9082201F02AF80028EDD165
:10F29000E4B26D46AC7003E06D46AC78FF2C22D032
:10F2A0005146042931D0354B4946CB1ABF2B21D9C1
:10F2B0003348081A1C2100F0C3FF072832D80AABD4
:10F2C000099318230893687020235246032A48D0D4
:10F2D000022213436A46137407AB059368463B68E2
:10F2E00004A95A46984711B03CBC90469946A2469C
:10F2F000AB46F0BD5A46234B002A0DD01A680121B7
:10F30000A1408A431A602023DFE71A9A442A2DD0AD
:10F31000432369460B74DFE701211A68A1400A42C2
:10F32000E1D0ECE7184C4946081B0C2100F088FF9F
:10F330000728D8D830236A4613740123EB704300A2
:10F3400068701818114B80001B189A7A30239107A7
:10F35000BBD40C2220180021FDF72AFF6A46137C3B
:10F36000B3E70122134369460B74B5E72323D0E7C3
:10F37000C42F002000FFFFFF782E0020B82D0020B2
:10F38000802E0020C02F0020602F0020582D00204C
:10F3900038B54B78021C5800C0180A4C80000D1C70
:10F3A0002018111C34230C22FEF704FD002806D17E
:10F3B0006B785A00D3189B001A59013200D038BD1F
:10F3C0001851FCE7602F0020F8B54378114D580024
:10F3D000C11889004A59002A08D00F4C6618B67A1D
:10F3E00077B2002F10DB0022002102E00A4C00223D
:10F3F0000021C3189B00E41820890323FFF760FE57
:10F40000002800D00548F8BD7706ECD4691804310F
:10F4100092B2EEE7602F0020582D002041800000BE
:10F42000F0B585B00623061C684603804B78274D4F
:10F430005A00D3189B00EB180C1C188902A96A46C5
:10F440000323FFF73FFE002802D0002005B0F0BDE7
:10F4500063781F4F5800C0188000694638180A8822
:10F46000043002A900F03CFF637800281ED0590048
:10F47000CA189200D259002A25D0164D6846028833
:10F48000CB189B00FA50637802A95800C01880007E
:10F490003818043000F033FF6378301C5900C91865
:10F4A000890079180C223423A847CEE75A00D318D4
:10F4B0009B00ED18AA7A9007C7D4F81800210C22F7
:10F4C000FDF776FEC1E7044DD8E7C046582D002071
:10F4D000602F00202DDD0100A5DC010070B5437810
:10F4E000164D5A00D3189B00041CEB18188923787A
:10F4F000134E5900C918890071180431FFF7DAFD5D
:10F5000000281AD123785A00D3189B00F618727A73
:10F5100001231343737263785A00D3189B00EB18CE
:10F52000997A04220A439A7263785A00D3189B008E
:10F53000ED18AB7A20229343AB7270BD582D00209A
:10F54000C42F0020F0B5454657464E46E0B48046ED
:10F5500084B000286CD03F4F3F4B00223C1C01255B
:10F560001A605A729A720A346A3701266D42A31ED3
:10F57000201C26700A381D800021657007220C347B
:10F58000FDF716FEBC42F2D1602234480021FDF79F
:10F590000FFE334A0123334F9246141C0025FF26E9
:10F5A0009946201C002106221130FDF701FE201C87
:10F5B00010220021FDF7FCFD3A684B46AB409A4310
:10F5C00001352674E6753A601834082DE9D14423D4
:10F5D0006A46254E9380254B6846311CD5800093A2
:10F5E000FEF79CFA00281DD1214A01231370914691
:10F5F00042461378002B1DD155460024A1B2301C81
:10F6000002AAFEF727FB071E1DD1281C02A91822FB
:10F610000023FEF7CFFB002819D101341835082C40
:10F62000ECD1002004B01CBC90469946A246F0BD27
:10F630001048F7E76B46D9889B88301C594389B23C
:10F64000FEF70EFCEEE700234A461370EAE74B464E
:10F650001F70E7E7582D0020C42F0020602F0020E6
:10F66000B82D0020C02F0020782E002031F201009C
:10F67000542D00200E800000F8B5114B051C1B789E
:10F680000C1C002B01D10F48F8BD00280AD000291E
:10F6900008D00B68002B05D00B4E3768002F03D025
:10F6A0000A48F1E70A48EFE7301C08C00531052297
:10F6B00000F025FE23790020B3722F70E4E7C046E6
:10F6C000542D002008800000C42F0020048000007A
:10F6D0000E800000F8B5514B1B78002B01D150482B
:10F6E000F8BD00280BD00378002BF8D14D4A1368E1
:10F6F000002BF4D04378072B03D94B48F0E74B4855
:10F70000EEE75D004A4CEE18B600A6190836B1784F
:10F710000129F2D08F07E2D58178FF290FD0F17847
:10F720008170D900ED18434ACB1A9B00AD00D11867
:10F73000641920891231D218FFF7C0FCD0E7F178A4
:10F74000FF29EDD13C4DE97DFF291DD02F21695CBA
:10F75000FF2960D04721695CFF295AD05F21695C8D
:10F76000FF2954D07721695CFF294ED08F21695C35
:10F77000FF2948D0A721695CFF2942D0BF21695CDD
:10F78000FF293CD02D48ABE700210C267343E65CF3
:10F79000022E32D018274F431026EF19F619E3181E
:10F7A000B4461E683E619F886646B7809B79B371F8
:10F7B000FD2318264E43AD19EB7545780C235D43A8
:10F7C000C9B26519E9728170017859435118497AB3
:10F7D000CF070FD54178202559436418A17A2943D2
:10F7E000A172017800204B43D218537A02210B43B7
:10F7F000537275E7FFF772FE72E7FE23D9E7072120
:10F80000C3E70621C1E70521BFE70421BDE70321C6
:10F81000BBE70221B9E70121B7E7C046542D00201C
:10F8200008800000C42F0020108000000E8000001F
:10F83000582D0020802E0020B82D0020438000008D
:10F84000F0B55F4656464D464446F0B4A14B8FB0E6
:10F850001B78002B65D0A04E31688C46002960D003
:10F86000FF236F4604AD7B72BB72FB72031D6B609E
:10F870002A232B8100233B720388102B00D1CAE07E
:10F8800082889649964C8A4200D16FE2A17A8F070E
:10F8900003D52189914200D130E2A17D8F0703D5A4
:10F8A000A18A914200D136E22221615C8F0703D503
:10F8B000218C914200D134E22E21615C8F0703D567
:10F8C000A18D914200D129E23A21615C8F0703D5D5
:10F8D000218F914200D12AE24621615C8F0704D535
:10F8E0004421615A914200D11EE25221615C8F078E
:10F8F00004D55021615A914200D11BE25E21615C26
:10F900008F0715D4FF21002789460097172B63D056
:10F9100015D91C2B00D153E1522B00D149E1182BF2
:10F9200037D00FB03CBC90469946A246AB46F0BDDE
:10F930005C21615A9142E5D107270097E0E1112B44
:10F9400000D1D5E0132BECD1009F6648F900C91B0C
:10F950008900411808917900CF190023BF000B934B
:10F960000C930D93E419E17A0A93480041185E481C
:10F97000C90041180991101C0021002208AB08346D
:10F98000FFF79AFB0028CCD1A27804231343A3707D
:10F99000C7E7009F83797F00B8460098112B00D1FC
:10F9A00089E1031C43449B00E3189B7A009902A859
:10F9B0000A1C42448021494292000B43A2189372D0
:10F9C00015232B70B27A494B9200D358984732686E
:10F9D000944600229146F7E0737A009F0122009935
:10F9E00093437F007372B8460B1C43449B00E3189B
:10F9F0000833997804229143142299702A708279ED
:10FA0000002A00D054E1C7797F0700D5D0E1012753
:10FA10000022B946D8E0324C0123A27A134200D02A
:10FA20008AE2A27D134200D087E12222A25C134227
:10FA300000D085E22E22A25C134200D084E23A225A
:10FA4000A25C134200D087E24622A25C134200D09F
:10FA50007EE25222A25C134200D085E25E23E35C88
:10FA6000DA0700D45DE707270097391C7F00B84606
:10FA70000B1C43449B00E3180822D218022191700A
:10FA800091461127009A2F706F467A728788063048
:10FA90001F8183464F46B970181C5946072200F053
:10FAA0002EFC114B002010339A4681465046594691
:10FAB000072200F015FC002800D122E20120814439
:10FAC00018214A468A44082AF0D1316800228C461F
:10FAD000914679E0542D0020C42F0020FFFF000044
:10FAE000582D0020802E0020B82D00206804020030
:10FAF000009F00987F00B846031C43449B00E31816
:10FB000008339A789A46111C0223994357460B1CD6
:10FB1000B970100700D491E04AB2002A00DBB1E0CE
:10FB200008A98A46DB4849465246FEF793F8002862
:10FB300038D16A46537A5A00D3189B00E3189B7A4F
:10FB40005F0600D438E2D44881466A46937AD349A6
:10FB50005A00D318DB00C918504618220023C847A2
:10FB6000002812D16F467B7A40205A00D2189200AA
:10FB7000A218917A81439172DA00D31AC8499B0086
:10FB8000C91850461C221823C8476846037A02A9A0
:10FB90005A00D3189B00F3189A7AC24B9200D3589C
:10FBA0005046984700990B1C43449B00E3189B7AEE
:10FBB00068E0B27ABC4B9200D35802A89847B0E6EE
:10FBC000132300222B70914602A8291CE0472B78B2
:10FBD000122B00D1B5E04846002800D1A1E6727A88
:10FBE000910700D49DE6A17A20230B4200D061E169
:10FBF000A17D0B4200D076E12221615C0B4200D056
:10FC000073E12E21615C0B4200D070E13A21615C0E
:10FC10000B4200D06DE14621615C0B4200D06AE1ED
:10FC20005221615C0B4200D067E15E21615C0B42B6
:10FC300000D064E102239A43727272E64A46FF2AB8
:10FC400020D0964B9B4653004B44DF005946781812
:10FC5000BB44002106221130FDF7AAFA0021102230
:10FC60005846FDF7A5FAFF235A461374D3758F4AF9
:10FC7000012110684F46B9408843694610608B7275
:10FC8000524693780027B946580704D5737A012263
:10FC9000934373729146009A131C43449B00E318EC
:10FCA00010229A7212232B70336800229C468BE735
:10FCB0000123994688E7021C42449200A3180833A6
:10FCC00099469B78190700D470E67948002182187C
:10FCD000101D0622FDF76CFA16232B704B469A78FE
:10FCE000602313434F46BB70727A0223306813437C
:10FCF0000121737284460022894665E70027009738
:10FD00007900C91989006118C97A6F468946B972A4
:10FD100000997972FAE501270097F1E70327009728
:10FD2000EEE702270097EBE705270097E8E70427AF
:10FD30000097E5E706270097E2E701270097391CBF
:10FD400094E6009F7800C01980002018827A031C76
:10FD50000833012A00D13EE701229A705242028103
:10FD60000021DA700722FDF723FA34E7A77A02218F
:10FD70003942C3D1A77D3942CDD12227E75D39422F
:10FD8000CFD12E27E75D3942C8D13A27E75D394206
:10FD9000CDD14627E75D3942C6D15221675C0221A9
:10FDA0003942C7D15E27E75D394200D0C4E5A9E5F5
:10FDB0004A46FF2A00D1D3E0082211439970837A82
:10FDC0009B07DB0F012B00D1D2E00098021C4244BC
:10FDD0009200A318D97AFF2900D1D3E0125D022A3C
:10FDE00010D049464A004A442C491F68D20089185D
:10FDF0000F610A1C998891829B7902219375D37DAA
:10FE00008B43D37508A88246494622485246FDF7DF
:10FE100021FF002838D169464B7A5A00D3189B003D
:10FE2000E3189B7A5A0600D4B0E01B4B984668460C
:10FE3000837A1A495A00D318DB00C9185046182291
:10FE40000023C047002812D169464B7A40205A004F
:10FE5000D2189200A218917A81439172DA00D31AD3
:10FE60000F499B00C91850461C221823C0476A46F8
:10FE7000137A50465A00D3189B00F3189A7A094B0C
:10FE80009200D35802A99847336801279C46002264
:10FE9000B94699E6782E00202DDD0100B82D00200E
:10FEA000802E00207804020068040200C02F002089
:10FEB000602F002000235A00D3189B00E418251C53
:10FEC0002089311D0835FFF7F5F8002800D028E516
:10FED000727A012313437372AB7820229343042276
:10FEE0001343AB701DE50123E5E70223E3E703239A
:10FEF000E1E70423DFE70523DDE70623DBE707234C
:10FF0000D9E7009948460B1C43449B00E318C2B252
:10FF1000987A082101439972DA724F466B469A72B9
:10FF2000B9B2274808AAFDF795FE002831D03068FD
:10FF300000228446914647E600270097391C95E544
:10FF400002270097391C91E503270097391C8DE59E
:10FF500005270097391C89E504270097391C85E59A
:10FF60000120002281462FE606270097391C7DE5F7
:10FF70004F467A0013494A44D2008A18D17D9943EA
:10FF8000D17522E70121002289461DE60E4FB846B1
:10FF90004DE7009F0D48FB00DB1B9B0008A9C01824
:10FFA0001C221823FDF706FFB27A094B9200D358A2
:10FFB00008A802A99847BAE706498946C5E5C04698
:10FFC000782E0020B82D0020A5DC0100802E002016
:10FFD00088040200C9F001001B4B1B78012B00D0E4
:10FFE00070471A4B1B681A07FAD1194AF023126896
:10FFF0001A4003D0102A01D0302A03D1154A1268C2
:020000022000DC
:100000001A4210D0124AF02312681A40402AE7D14F
:10001000104A12681A42E3D1C12380220121DB0079
:10002000D205D150DCE70C4A0C4B1A600C4B8022F5
:1000300012021A60044B1B78012BD1D1034B1B68B1
:100040001A07DFD0CCE7C046E00F00F0E40F00F065
:10005000E80F00F0EC0F00F0DFFF07C004050040E0
:10006000186C00402EDF704751DF704710DF70477B
:1000700061DF704708B5081C111CFEF797FA08BD30
:10008000F0B55F4656464D464446F0B42B4B83B020
:100090001B78002B14D02A492A4E0A6889465542FB
:1000A0005541294BEDB2196898464B424B41274ABE
:1000B000DBB29A469346002D0DD0514600291CD044
:1000C00003B03CBC90469946A246AB46F0BD002D1D
:1000D000F6D10122924668466C46FFF7C5FF052817
:1000E00029D000281DD000210022FDF76BF85146D1
:1000F000002903D0002DE3D1EDE76C465A4637685E
:100100001388381C69462380FFF7B2FF0528DED02C
:1001100000280BD000210022FDF754F800239A4656
:10012000C9E74B4600981B689847E0E74346381CF0
:100130001B689847F2E70125D9E7C046D02F002079
:10014000D82F0020D42F0020DC2F0020D22F002019
:1001500038B5041C0720002901D08D0700D038BD18
:10016000094801600949201C0A80094A09491360AD
:10017000FFF77CFF0028F2D1074B012216201A70EE
:10018000FFF770FFEBE7C046D42F0020D22F0020EE
:10019000E02F002075000200D02F0020002803D09F
:1001A000024B1860002070470E20FCE7DC2F002077
:1001B000002803D0024B1860002070470E20FCE797
:1001C000D82F002008B5084B1B68002B08D0984793
:1001D000002800D108BD00210022FCF7F3FFF9E759
:1001E000FFF74EFFF6E7C046E02F002003210A4844
:1001F00002680A430260094802680A43026008492B
:10020000084A094B9B1A03DD043BC858D050FBDC5D
:100210000648804706480047240500405405004032
:10022000A00402000028002060280020D9FF01005F
:10023000C1D00100FEE7FEE7FEE7FEE7FEE7FEE7CE
:10024000002934D00123002210B488422CD3012489
:100250002407A14204D2814202D209011B01F8E71E
:10026000E400A14204D2814202D249005B00F8E7D7
:10027000884201D3401A1A434C08A04202D3001B03
:100280005C0822438C08A04202D3001B9C08224336
:10029000CC08A04202D3001BDC082243002803D074
:1002A0001B0901D00909E3E7101C10BC70470028A6
:1002B00001D00020C04307B4024802A140180290B8
:1002C00003BDC046190000000029F0D003B5FFF7B8
:1002D000B9FF0EBC4243891A1847C0467047C04652
:1002E00030B50023934208D0C55C0133CC18013CE3
:1002F0002478A542F6D0281B00E0002030BD10B5C0
:100300000023934203D0CC5CC4540133F9E710BD01
:10031000F8B5C046F8BC08BC9E467047F8B5C04664
:10032000F8BC08BC9E46704743000000002800202F
:10033000FAD60100AAD5010076D501005CD60100ED
:10034000A2D6010032D60100F4D501000713000047
:10035000B3585540506011E38F96080000009A662C
:100360000700000013000000ACE4010008E50100F4
:100370001EE50100DCE40100DCE40100DCE4010036
:10038000DCE40100DCE40100DCE40100DCE4010069
:10039000DCE40100DCE40100DCE40100DCE4010059
:1003A000DCE40100DCE40100F8E40100F8E4010011
:1003B000F8E4010018003000000090014D756C74E5
:1003C000696C696E6B000000000000000000000016
:1003D000A00050000000000050EE0100F2ED01000E
:1003E00016EC010016EC010016EC010016EC010001
:1003F00016EC010016EC010016EC010016EC0100F1
:1004000016EC010016EC010016EC010016EC0100E0
:1004100016EC010016EC010016EC010016EC0100D0
:1004200016EC010016EC010016EC010016EC0100C0
:1004300016EC010016EC010016EC010016EC0100B0
:1004400016EC010016EC010016EC010016EC0100A0
:1004500016EC010016EC010004EE010016EC0100A0
:1004600068EC010024EC0100DDF00100E1F0010086
:1004700039F10100C9F30100CDF001003DF10100A7
:10048000D1F0010021F40100D5F00100F9F10100E3
:08049000D9F0010091F3010015
:0804980028CCFF7F01000000E9
:1004A000000000000000000000000000000000004C
:1004B000000000000000000000000000000000003C
:1004C00028030200000000000000000000000000FF
:1004D000000000000000000000000000000000001C
:1004E000000000000000000000000000000000000C
:1004F00000000000000000000000000000000000FC
:04000003200001EDEB
:00000001FF
