:1000000000400020D91C0000211D0000231D00001D
:1000100000000000000000000000000000000000E0
:10002000000000000000000000000000251D00008E
:100030000000000000000000271D0000291D000036
:100040002B1D00002B1D00002B1D0000D10E0000F9
:100050002B1D000000000000A50B00002B1D000060
:100060002B1D00002B1D00002B1D00002B1D000070
:100070002B1D00002B1D00002B1D00002B1D000060
:100080002B1D0000590200002B1D00002B1D00003D
:10009000450300002B1D00002B1D00002B1D000040
:1000A0002B1D00002B1D00000000000000000000C0
:1000B0000000000000000000000000000000000040
:1000C000164B002B00D1144B9D46402292029A1AE7
:1000D000924600218B460F461348144A121A00F02C
:1000E00067F80F4B002B00D098470E4B002B00D029
:1000F00098470020002104000D000D48002802D080
:100100000C4800E000BF00F02DF82000290001F0AD
:1001100053FC00F011F8C046000008000040002029
:10012000000000000000000064000020C802002061
:100130000000000000000000084B10B5041C002B5C
:1001400002D0002100E000BF054B1868836A002B35
:1001500000D09847201C00F033F8C0460000000093
:10016000EC4B000070B50E4B0E4D0024ED1AAD1097
:100170001E1CAC4204D0A300F35898470134F8E7A2
:1001800004F026FD084B094D0024ED1AAD101E1C8D
:10019000AC4204D0A300F35898470134F8E770BD8F
:1001A000640000206400002064000020640000203F
:1001B000031C8218934202D019700133FAE770478A
:1001C000FEE7C046BFF34F8F024A034BDA60BFF32E
:1001D0004F8FFEE70400FA0500ED00E01A4A802187
:1001E00089028023D150194B8022D22152028900EA
:1001F0005A50C22189005A5001225A602F200138DA
:10020000C046C046C046C046C046C046C046C046BE
:10021000C046C046C046C046F1D19A600C4B002291
:100220001A602F200138C046C046C046C046C046AE
:10023000C046C046C046C046C046C046C046F1D1D2
:10024000044B1A707047C04600E100E00010014006
:10025000640000208C000020F0B5304BA02100226B
:100260004900474680B45A50A22149005A50A4215F
:1002700049005A50A62149005A50802149005A503D
:10028000822149005A50264A1468601C37D0254AFA
:1002900000269D58244B254A1B68254FED1A2D0238
:1002A0002D0A904601E0621C1AD0E3001B19386841
:1002B0009B00C3185A68AA4212D84046AD1AB61815
:1002C0001C6A9A69D9690368002B1BD0101C9847D7
:1002D0000028E8D000220021FFF774FF621CE4D15F
:1002E000144B15491A780B789A420ED0134A9B008A
:1002F0009E5080218023124A49035B00D15004BCE8
:100300009046F0BD081C9047CDE7531CDBB2022B92
:1003100001D00B70EAE700230B70E7E70010014003
:100320007C0000200405000064000020680000201C
:100330006C0000207800002079000020840000205C
:1003400000E100E0F0B55F4656464D464446F0B445
:10035000BA48BB4BBB4900681A7809788BB0069045
:10036000914200D134E20132D2B2022A00D1FDE141
:100370001A70B54B9200D2580699039253181B027B
:10038000AE4A1B0A136001230793111CAF4EB04BFA
:10039000B04FB14C36681B78B0483F680968247884
:1003A000026804960293019709910894B146059654
:1003B0009B460020351C5B46013BDBB29B46FF2B76
:1003C00072D05F460199FE008E1974783378A44686
:1003D0006345F0D05C007768E418B1780133DBB294
:1003E000E4003C19C91A4F1EB941277849420B4015
:1003F000022F15D0032F10D1291C6C1C0DD0CC005E
:100400006118890051180875096A4C1CF7D1757874
:100410008946AC460C1C251CDAE72C1C251CD7E7AA
:100420006168CF007C18A400A418BA46277DA046B6
:100430002C1C002FEFD06F1C14D0A94200D183E1F7
:100440009C462F1C0B1C009502E0A34210D0271CD9
:10045000F900C919890051180C6A651CF5D1009D75
:1004600063462C1C454628757778251CBC46AFE7AB
:100470000C1C009D191C6346A4468F4200D14FE11D
:1004800054466718BF00D7192C1C396A7D68674627
:1004900039624F1CE6D0CC006118890051184C68B5
:1004A00065194D604C46DDE7684F4E4605953E6048
:1004B00009986249089D684C079E08602570002EC7
:1004C00000D055E105980499431A5A1E9341DBB2B6
:1004D000069301235B429C465E4E604F3668574848
:1004E00004965D4C594E3D68076824783668BB46D3
:1004F0000021059F039400968946029B013BDBB2D5
:100500000293FF2B00D1ADE0049CDB00E418A2466F
:10051000644601343FD06646F4006444A4002C19BC
:10052000216AA368E068E0468C465E469A1B4C4907
:100530001202120A8A4263D81018606001214E46E6
:1005400001204942A660E660207521627A1C6DD0C8
:10055000F900C91989006918626848683E1C82421E
:1005600008D855E0D900C918890069184868904230
:1005700059D21E1C0B6A121A581CF3D12362F300C5
:100580009E19B600AE19414662603B1C31621F1CC9
:1005900064460134BFD15646337872789A42ACD063
:1005A0005A0056465446D21864680133B178D200D6
:1005B000DBB2A218337099423CD051683B1C88468C
:1005C00011780129E3D14346DC004444A4002C19EE
:1005D000217D3B1C0029DAD19368A360D068E060DC
:1005E000166926615269E261039A002A9DD00023B0
:1005F0005E46A1609A1B1A491202120A8A429BD9CE
:10060000F31A1B021B0A83420AD2C01A606095E7E4
:10061000821A4A6043462762444600941F1CB7E78B
:100620004B4663608AE7801A4860A7E74346009319
:100630001F1CADE748463070BFE7C046640000208D
:100640007800002079000020840000207C00002039
:100650007000002074000020800000206C0000204A
:10066000FEFF7F0000986349059A0860974200D119
:100670006EE07C1C00D1BAE05F4DFA002B68D71900
:10068000BF00DB195C685D4A5D4B5E4E9A5831686D
:100690005D4D571A3F023F0A28780337B8460028B5
:1006A00021D18020D1264002B6009851C126B60043
:1006B0009851C02755488026B6027F00C651066073
:1006C000012018602F200138C046C046C046C046F1
:1006D000C046C046C046C046C046C046C046C046EA
:1006E000F1D101232B704346A34200D2231C5B1897
:1006F0001B024349A8201B0AC0000B503F489B1A0D
:1007000009581B02891A0902090A03311B0A994276
:1007100022D9802180233D4A89025B00D1501BE011
:10072000E900491989005118271C096A4C1C02D09C
:1007300089460C1CA9E6324C0125A56089460C1C93
:10074000002108950991A0E647464146C446ECE7DA
:10075000069B002B00D08CE72D4C002323700BB0A0
:100760003CBC90469946A246AB46F0BD0022FFE550
:10077000214A012317685B424A46059D0024002652
:10078000181CBC461BE0EB005B199B0063445968D6
:10079000039FB94222D87A1A03921F6A1A69641811
:1007A0005E601E75B846002A07D006991862671861
:1007B0003F023F0A9F60DA60281C454642466B1C98
:1007C000E1D10C4C0595012584462260069583E60F
:1007D00000240025039407950A49D7E5C91B8446E0
:1007E00004485960012102600595069174E6FFF7FF
:1007F000F5FCB1E77C0000206C000020040500003F
:1008000000100140640000208C00002000E100E0A6
:1008100080000020F0B557464E464546E0B481467C
:100820008A4690461F1C0720990704D01CBC90469E
:100830009946A246F0BD002BF8D0FFF7CFFC314B14
:10084000089A50461A60304B514618702F4B1F6063
:10085000002955D05146CA0053189B003C1C002566
:10086000002624352670267524349D42F9D1524441
:100870009200274BBF1803221A70264B391C1F60A9
:1008800043465A0042441831D200796089188A18C8
:10089000F9607A610121204A494211601F4A002310
:1008A00013701F4A3B7013707B703B727B723B74FA
:1008B0007B7480221B4BC021404652034900B87014
:1008C000B872B8745A50C52189005858FF24A04303
:1008D000C024204358501A60A121134AC900484639
:1008E0005050C42189005C5810482040C024240284
:1008F000204358500E4B0020D2580E4B1A6095E7FB
:100900000022B4E7680000207A0000206C0000207C
:1009100070000020740000207C000020780000207F
:100920007900002000E100E000100140FF00FFFF1F
:100930000405000064000020F0B5174B94461C68C5
:10094000002C1CD0002A18D0002816D0134B1E787B
:10095000002E10D02378002B13D02434002307E07E
:10096000271C2434251C243D2D781A1C002D0AD068
:100970000133B342F4DB0420F0BD0720FCE708207C
:10098000FAE7271C002201233B7063467970BB61A4
:1009900002600020F0E7C0466C0000207A000020D2
:1009A000F0B5474680B43D4B1C68002C47D03C4B0B
:1009B0001D780723854203D8181C04BC9046F0BD5F
:1009C0000429F9D9C3001B189B00E41825780823D3
:1009D000012DF1D16378012B33D000239846314BA0
:1009E0005C681023E405E40D2FD12F4C2668F6181F
:1009F0007378B4785D1C2C1B671EBC416442254093
:100A00003478AC421FD05C00E4187368E4001C1911
:100A10000423002CD0D0012323706060234B244892
:100A20004746C358E160A360626180218023214A68
:100A30005B00490327617570D1500023BCE7082390
:100A4000BAE78846CBE70423B6E7103CE3B25DB2D1
:100A5000002D13DBAD08C035164BAD00EB58032558
:100A60002C40E400E3401C06A40FE4B20023012C58
:100A7000BBD00823032CB8D01023B6E70F241C40AA
:100A8000083C0D4DA408A4006419032564682B409C
:100A9000AB40DC40E4B2A409E7E7C0466C000020AC
:100AA0007A00002000ED00E0740000200405000042
:100AB0000010014000E100E018ED00E030B5334BDC
:100AC0001A68002A35D0324B19780723814201D8A1
:100AD000181C30BDC3001B189B009A5C0823012A18
:100AE000F6D12C4B5A681023D205D20D25D12A4AB3
:100AF0001168C9184B788C785A1C141B651EAC41C0
:100B0000644222400C78944215D05C00E4184B6893
:100B1000E4001C190423002CDAD002232370606047
:100B200080234A7080211D4A5B004903D150002375
:100B3000CEE70823CCE70423CAE7103AD1B24BB280
:100B4000002B13DB9908C031144B8900CB580321CB
:100B50000A40D200D3401A06920FD2B20023012AD3
:100B6000C5D00823032AC2D01023C0E70F230B40AF
:100B7000083B0B4A9B089B009B185A6803231940AB
:100B80009940CA40D2B29209E7E7C0466C00002003
:100B90007A00002000ED00E07400002000E100E099
:100BA00018ED00E0F0B544465F4656464D46F0B4B9
:100BB000824A85B013680024012B68D0804B1968E5
:100BC000012900D170E07F4B1A68012A00D17BE037
:100BD0007D4B1E68012E00D186E07C4B00261968F3
:100BE000012900D191E022070BD0E30700D5A2E054
:100BF000A10700D5AEE0620700D5B9E0230700D514
:100C00008DE0002C06DB05B03CBC90469946A24620
:100C1000AB46F0BD6E4D4D21E0232C1C4919DB0085
:100C200048348846C027AA46994601962178081C70
:100C3000B8432B1828331B785BB2032B19DD9B00BC
:100C400053445B68002B14D0A0268909F605820066
:100C50000291921949465658B103890F01268B46D5
:100C6000311C019E81400E4207D15E46032E00D109
:100C70008EE001344445D9D1C5E759460229F8D15F
:100C8000029E032E00D196E002999847F1E7C12118
:100C90005048890041580B4290D0494B1460196864
:100CA0000124012900D08EE7C1224A4992008958C7
:100CB00002220A4200D186E700211960414B144309
:100CC0001A68012A00D083E7C1224249920089585C
:100CD00004220A4200D17BE7002119603A4B1443F9
:100CE0001E68012E00D078E7C1223A499200895847
:100CF00008220A4200D170E700211960334B1443E7
:100D000019680026012900D06DE71E6080231B06AC
:100D10001C43A022A223DB00D205D65863E72D4A4C
:100D20002D4BD058D1582A4BC0048903C00E890FCF
:100D30001B69984765E7274AA223DB00D058D158A2
:100D4000234BC0048903890FC00E5B689847A10735
:100D500000D450E71F4A214BD058D1581C4BC00437
:100D60008903C00E890F9B689847620700D445E746
:100D7000184AA323DB00D058D158154BC00489036F
:100D8000DB68C00E890F9847230700D439E7C6E710
:100D90000299032900D077E702210391494656586A
:100DA0000F490E404946565056580399090431439D
:100DB0004E46915168E7029E0396EFE700610040BE
:100DC00004610040086100400C6100407C6100400B
:100DD00090000020006000401C0500001405000089
:100DE000FFFFFCFF1F23184001238340181C024B08
:100DF000186000207047C04600E100E01F23184043
:100E000001238340024A181C8023D05000207047E1
:100E100000E100E01F23184001238340181C034A0F
:100E2000C0235B00D05000207047C04600E100E0C6
:100E300070B5002815DB8208154B9200D2180324E8
:100E4000C0239B002040FF24C000D558261C8640AC
:100E50008901B5430C408440281C2043D050002019
:100E600070BDC0B20F230340083B0A4A9B089B0099
:100E70009B1803221040FF22C000DD69141C84402F
:100E80008901A5430A408240281C1043D861E6E747
:100E900000E100E000ED00E010B572B6044B1A78F6
:100EA000111C4C1EA141013201701A70002010BDAE
:100EB000E0000020054B1A78002803D1187062B6B4
:100EC00000207047013A1A70FAE7C046E00000209F
:100ED00070B5394B84225200995882B0012901D053
:100EE00002B070BDC120800018584407F8D5334CBB
:100EF00000209850638B01339BB263832523E25C0F
:100F0000D2B2002A4AD02268A323DB00D05823693A
:100F1000A28A91B2E28A92B2002B07D0914205D9FF
:100F2000E28A92B2511C89B2E1829854A168A389E5
:100F3000E28998B2238B92B29BB29A420BD2266876
:100F40000025002901D0904226D81D4AB550E289DB
:100F5000013292B2E281628B9342C1D8207F01229A
:100F6000131C8340181CA021A123DB00C905C85015
:100F7000E389022198B20023A360A3812361A382A5
:100F80002423E154236A002BAAD06B461A705880A0
:100F90000098236A9847A3E78D5CD6E7E154638BFA
:100FA00099B2236A002BAED06B461A705980009814
:100FB000236A9847A7E7C04600300040E4000020BD
:100FC0001C05000070B50C1E00D189E0002800D17E
:100FD0006BE0002000210022FFF7F4F800252369D0
:100FE0000120011C9940A122A023DB05D2009950C9
:100FF00026690321C136FF36B600F1502669B0409C
:1010000098506068C130FF308000C150E068C13046
:10101000FF308000C150A0680021C130FF30800047
:10102000C150237C2B772B68606898502A68E6684B
:10103000344BD6502A68A068A223DB00D0502A681F
:101040002668314BD650A07E637E40009B0018433B
:10105000237E2A6818432D4BD0502A6884235B00D6
:10106000D150287940B2FFF7D5FE002844D1287925
:10107000217D40B2FFF7DCFE002838D100232B622F
:101080002A68C12304219B00D150287940B2FFF780
:10109000A9FE002826D12A68A023DB000121D15017
:1010A00002222423EA54002070BDCA7E184D531E2C
:1010B0009A41184B24212B6003232B710023A86035
:1010C000A881E8812861A882E882688328832B7739
:1010D00028626B5425216B54D2B22623EA547EE752
:1010E0000E20E1E700210022FFF76CF8D3E7002192
:1010F0000022FFF767F8C1E700210022FFF762F83E
:10110000B5E7C0460C0500002405000054050000AA
:10111000E40000200030004010B50C1C002802D173
:10112000044B1C6210BD002000210022FFF74AF88A
:101130000023F6E7E4000020F0B54E46574645464A
:10114000E0B482B099460AAB8846161C1F88002876
:1011500000D0A6E0684C00236A4613702623E35CA7
:10116000002B25D06846FFF797FE002826D12423C0
:10117000E05C112502282AD02623E35C002B0CD04A
:101180006B461878FFF796FE00280CD1281C02B099
:101190001CBC90469946A246F0BD207940B2FFF7AC
:1011A00021FE0028F2D000210022FFF70BF8EDE726
:1011B000207940B2FFF722FE0028D8D0002100227B
:1011C000FFF700F82423E05C11250228D4D1331C5A
:1011D000BE4200D23B1C9AB20725002ACCD0012186
:1011E0002422A1540022628300212522A1542383BA
:1011F0000C231B19251C221C9A460E35083275D06B
:101200005346002B6CD0002D64D042464346A2606A
:101210005A1E93415B421E400023A681251CE38198
:10122000261C231C1436163510334DD0002E45D005
:10123000002D3DD04A464B4622615A1E93415B42E7
:101240001F400023A782E382237F01219940A0222F
:101250002A4BD205D150A268A189E08989B280B217
:1012600025680023002A02D0814200D9135C24485B
:101270002B50E389002501339BB2E381208B83420D
:1012800000D379E725680020002A02D0994200D9CE
:10129000D05C1B4BE850E389002501339BB2E3810E
:1012A0006AE7002000210022FEF78CFF002452E7AD
:1012B000002000210022FEF785FFBBE7002000216F
:1012C0000022FEF77FFFB3E7002000210022FEF797
:1012D00079FFABE7002000210022FEF773FF94E7BF
:1012E000002000210022FEF76DFF8CE70020002186
:1012F0000022FEF767FF83E7E40000200C050000F2
:101300001C05000010B5074AA023DB059958802270
:101310001203141CA1208C43C0001C5002480A4038
:101320001A5010BD040500000C050000F8B5864BEE
:101330001B68DA0700D4F8BD844B1C78172CFAD848
:101340008349A2008A5897468248A023A12180247D
:10135000DB050022C90024035A501A501C505A5071
:10136000E9E77D4D2868FFF7A9FB11231C1B49D035
:10137000002847D1012C0CD0C8206421604301F023
:101380009FFE764B2D68196800224143281CFFF709
:1013900007FB704AA0238021DB0509039950A12295
:1013A0000021D2009950C6E76D4AA023DB05995869
:1013B00080221203141CA120C0008C431C506548DD
:1013C0000A401A50674B00221868644B1968FFF7EF
:1013D000E7FAB0E7624AA023DB059958802212039E
:1013E000141CA1208C43C0001C505A480A401A50BB
:1013F0005C4B00221868594B1B689900C918FFF70D
:10140000CFFA98E7A0238021A122DB050903D200AF
:101410009950504A002199508DE7A022A1204D4DAE
:10142000D20500214E4EC0001150515197598026CF
:10143000360337406FD1165057512822022C67D0FF
:101440001C7012E0A022A120424CD2050021444D84
:10145000C00011501151565980252D032E4062D1E4
:10146000155003211651082219703E4B18683B4B4A
:10147000196851430022FFF793FA5CE7A023A121EA
:10148000DB050022C9005A5032495A5053E7A022C6
:10149000A120304CD2050021314DC0001150115116
:1014A000565980252D032E404AD11550165106223B
:1014B0001A7087E7A022A120264CD2050021284DD2
:1014C000C00011501151565980252D032E4032D1A4
:1014D0001550042116512822C6E7A022A1201D4C38
:1014E000D20500211E4DC0001150115156598025C2
:1014F0002D032E401CD11550165105221A70194B80
:1015000000221868154B19684900FFF749FA12E7DD
:1015100012221C70A9E7565111500422022C8FD1BF
:1015200002221C70A1E715511150022203219BE7F2
:1015300015511150E1E7155111500422042193E790
:1015400015511150B3E7C0460C01002018010020CE
:10155000F04B00000C0500001401002010010020D9
:10156000040500001C01002070B5BA4B041C1B6868
:101570000020DA0700D470BD172CFCD8B64AA300AF
:10158000D3589F46B54AA023DB0599588022120301
:10159000141CA1208C43C0001C50B1480A401A50B2
:1015A000B04B00221868B04B1B689900C918FFF7B0
:1015B000F7F9E0E7A94AA023DB0599588022120336
:1015C000141CA120C0008C431C50A5480A401A508E
:1015D000A44B00221868A44B1968FFF7E1F9CAE789
:1015E000A24D2868FFF76AFA11231C1B00D10DE1F8
:1015F000002800D00AE1012C0CD0C82064216043EF
:1016000001F05EFD984B2D68196800224143281CAB
:10161000FFF7C6F9924AA0238021DB050903995000
:10162000A1220021D2009950A5E7A0238021A12268
:10163000DB050903D2009950894A002199508C4B4F
:1016400012221A70002096E78548A023A121802449
:10165000DB050022C90024035A501A501C505A506E
:10166000834B13221A70002085E77D4AA023802136
:10167000DB0509039950A1220021D20099507C4B2F
:1016800000201C7077E7A022A121D2050023C90009
:101690005350734900205350754A13706BE7A023D1
:1016A000A1216F48DB0500226C4DC9005A501A5029
:1016B0005E5980252D032E4000D0BAE05D501E50AB
:1016C0002823022C00D1C3E0694A1470654A1068CF
:1016D000654A116800225943FFF762F94BE7604AF7
:1016E000A0238021DB0509039950A1220021D2000B
:1016F000995000203FE75A48A023A1218024DB0510
:101700000022C90024035A501A501C505A50584BFA
:1017100014221A7000202EE7A023A1215048DB05D7
:1017200000224E4CC9005A501A501D5980242403DF
:10173000254076D15C501D500321082311E0A023E1
:10174000A1214748DB050022444CC9005A501A50D9
:101750001D5980242403254073D15C501D5028233B
:101760000421434A1170B1E73D48A023A121802400
:10177000DB050022C90024035A501A501C505A504D
:101780003B4B07221A700020F5E63548A023A12123
:101790008024DB050022C90024035A501A501C5033
:1017A0005A50334B15221A700020E4E6A023A121E1
:1017B0002B48DB050022294CC9005A501A501D59EC
:1017C00080242403254031D15C501D50284B052234
:1017D0001A70244B00221868234B19684900FFF740
:1017E000DFF8C8E6A023A1211D48DB0500221B4C21
:1017F000C9005A501A501D5980242403254024D171
:101800005C501D501A4B06221A70E1E6A02380217D
:10181000A122DB050903D2009950114A00219950F9
:10182000A9E61C505A50022303219AE71C505A5033
:10183000CCE71D505A500423022C00D044E7022369
:1018400042E71C505A5004238AE71C505A50D9E7EB
:10185000122339E70C010020504C00000405000061
:101860000C0500001C0100201001002014010020C4
:101870001801002008B5104B1960104B1860C30701
:101880000CD5A0238022A121DB051203C9005A50E8
:101890000B4900205850A321C9005A500948002183
:1018A000094AFFF749F8002804D108480121084AED
:1018B000FFF742F808BDC046100100200C010020CF
:1018C0000C0500001C0100202D1300001401002055
:1018D0000513000000B5C3B283B00190012B01D005
:1018E00003B000BD0A20FFF73FFE002803D1044BE0
:1018F00001221A70F4E700210022FEF763FCF6E7EC
:10190000600000200000000038B5114D0024201CAC
:1019100001F010FE0F4901F0E3FC03F0E9F800F0DC
:1019200007FA0A4B084A02F0B7FA084B064A01F0D8
:1019300051FE01F0B5FC0134E4B2288002350A2CD6
:10194000E5D138BDC046C046000000000000A04000
:10195000B00200209CC4203E00B58021A322C9050E
:101960000123D2008B50822252000020885083B085
:101970008B608B58002BFCD00023009300200221A9
:1019800003220B4BFEF746FF00280CD1012009492A
:101990000022FFF76FFF002803D000210022FEF78E
:1019A00011FC03B000BD00210022FEF70BFCEDE7A7
:1019B00028010020CD0C0000F0B54D4644465F469E
:1019C0005646F0B48BB0FFF79FFFFFF7C5FF03A9A2
:1019D000954A0B1C31CA31C331CA31C31268002089
:1019E0001A6008234B600B238B600923CB600A230A
:1019F0000B61FFF7E7FA002803D000210022FEF771
:101A0000E1FB00208949FFF787FB89488949C0230A
:101A10009B01894E894D8A4C002780468B469A4609
:101A2000092F00D8BBE00022864F9146404603783C
:101A3000002B00D1EFE03B8880214901CB1A9BB2FB
:101A40001A055046120D02434946120A73700223CA
:101A500032702970697000200093311C02222B1C07
:101A6000FFF76AFB002803D000210022FEF7AAFB43
:101A700002200138C046C046C046C046C046C046E7
:101A8000C046C046C046C046C046C046F1D12378D5
:101A9000002BFCD04A46023F22705F45C6D101238D
:101AA0004046002103705F46894642461378002B6A
:101AB00000D1AEE03B8880204001C31A9BB21A05DA
:101AC0005146120D0A43120A327073704A460223BD
:101AD0002A706A7000200093311C02222B1CFFF731
:101AE0002BFB002803D000210022FEF76BFB022015
:101AF0000138C046C046C046C046C046C046C04683
:101B0000C046C046C046C046C046F1D12378002B2F
:101B1000FCD04D484B46023723708742C5D1002187
:101B2000484F894642461378002B00D175E03B8828
:101B300080204001C31A9BB21A055146120D0A4378
:101B4000120A327073704A4602232A706A700020AB
:101B50000093311C02222B1CFFF7EEFA002803D061
:101B600000210022FEF72EFB02200138C046C046AD
:101B7000C046C046C046C046C046C046C046C04635
:101B8000C046C046F1D12378002BFCD04B46023F23
:101B90002370BB45C6D10023404603700027424650
:101BA0001378002B3BD07B0058461A5A80214901FC
:101BB0008A1A92B2130551461B0D0B431B0A337050
:101BC00000232B706B700223727000200093311C75
:101BD00002222B1CFFF7B0FA002803D000210022BC
:101BE000FEF7F0FA02200138C046C046C046C046A3
:101BF000C046C046C046C046C046C046C046C046B5
:101C0000F1D12378002BFCD0002301372370BFB221
:101C100006E73B8853E73B8812E73B888CE77B006D
:101C200058461A5AC6E7C046B04C0000D518000006
:101C300020010020B0020020C40200202401002066
:101C400060000020C2020020C40200201B4B1B7851
:101C5000012B00D070471A4B1B681A07FAD1194A9A
:101C6000F02312681A4003D0102A01D0302A03D181
:101C7000154A12681A4210D0124AF02312681A400C
:101C8000402AE7D1104A12681A42E3D1C1238022C8
:101C90000121DB00D205D150DCE70C4A0C4B1A6065
:101CA0000C4B802212021A60044B1B78012BD1D1FD
:101CB000034B1B681A07DFD0CCE7C046E00F00F0EB
:101CC000E40F00F0E80F00F0EC0F00F0DFFF07C0BA
:101CD00004050040186C004003210A4802680A43CA
:101CE0000260094802680A4302600849084A094B31
:101CF0009B1A03DD043BC858D050FBDC06488047E4
:101D0000064800472405004054050040304F0000BD
:101D100000000020640000204D1C0000C1000000F5
:101D2000FEE7FEE7FEE7FEE7FEE7FEE70000000055
:101D300010B5021C28480B1C490086B04908814296
:101D40001FDD2648814205DD101C191C02F034FB02
:101D500006B010BD101C191C02AA00F041F80323A4
:101D60001840012822D0022814D0002825D0049A37
:101D7000059B0298039900F06FFA80231B06C9188F
:101D8000E6E700210091101C191C124B104A00F0CC
:101D90009FFFDDE70124049A059B029803990094B4
:101DA00000F096FF80231B06C918D1E7049A059B13
:101DB0000298039900F050FACAE7012402980399A7
:101DC000049A059B009400F083FFC1E7C046C0461B
:101DD0000000000000000000FB21E93FFFFFEF7F53
:101DE000F0B556464D4644465F46F0B44B005E089B
:101DF000A34B91B0041C0D1C91468A469E4200DC08
:101E000086E0A04B9E4223DC002900DCCEE1291CA9
:101E10008C4B8B4A02F0D0FA9B4B041C0D1C9E424B
:101E200000D18FE0884A894B02F0C6FA021C0B1CD5
:101E300049460A604B60201C291C02F0BDFA824A08
:101E4000824B02F0B9FA4A469060D160012067E007
:101E50008E4B9E4200DC91E08D4B9E4267DC8D49AB
:101E60003315C9180B05F51A8B46291C041C02F002
:101E7000CDFD02F0FFFD021C0B1C201C291C0A9248
:101E80000B9302F099FA724A724B02F005F80F1C9C
:101E9000061C02F0BBFD02F0EDFD041C0D1C221C13
:101EA0002B1C301C391C0C940D9502F085FA684AE5
:101EB000684B01F0F1FF684A684B0E900F9101F0FA
:101EC000BFF9002800D192E1634A644B201C291C11
:101ED00001F0B6F9431E984102231B1A0222009218
:101EE0006D4A0AA8019249465A4600F0D9FA52466C
:101EF000002A15DA4C4664688021090663184946B1
:101F0000CA68802424064B601319CB60404207E066
:101F1000111C14605560504A504B8A60CB60002001
:101F200011B03CBC90469946A246AB46F0BD221C7F
:101F30002B1C02F041FA4A469060D160106051605B
:101F40000020EDE7464A474B02F036FA464A474B37
:101F5000041C0D1C02F030FA021C0B1C49460A60DE
:101F60004B60201C291C02F027FA3F4A3F4B02F02D
:101F700023FA4A469060D1600120D1E700F054FF77
:101F80003B4A3C4B041C0D1C01F086FF3A4A3B4B7C
:101F900001F020FB02F03AFD834602F06BFD294B75
:101FA000274A0490059101F077FF021C0B1C201CAE
:101FB000291C02F001FA244A244B02900391049850
:101FC000059901F069FF5B46069007910298039915
:101FD0001F2B65DC5A46013A304B9200D358B3426E
:101FE0005ED0069A079B02F0E7F90D1C0F1C041C3B
:101FF00049460C604D60804642463B1C029803995E
:1020000002F0DAF9069A079B02F0D6F94A46041C58
:102010000D1C9460D5605446031C5846002C00DB10
:102020007EE744461460802212064C46BF18891889
:102030006760A360E160404272E7C046C046C046A8
:1020400000004054FB21F93F3163621A61B4D03D76
:1020500000000000000070410000000000000000CF
:102060000000601A61B4D03D7370032E8A19A33B3F
:1020700083C8C96D305FE43F000000000000E03F0E
:10208000FB21E93F7BD90240FB21F93FFB2139418C
:10209000FFFFEF7FEAFBFFFF4C4D0000CC4C000040
:1020A000069A079B02F088F94B00041C0D1C4A4657
:1020B00036155B0D80460F1C14605560F31A102B0B
:1020C0009ADD584B564A0498059901F0E5FE041C28
:1020D0000D1C221C2B1C0298039902F06DF908902C
:1020E0000991089A099B0298039902F065F9221C4C
:1020F0002B1C02F061F94C4A4C4B041C0D1C04983B
:10210000059901F0C9FE221C2B1C02F055F906901E
:102110000791069A079B0898099902F04DF94B46DA
:102120000D1C041C1C605D604B005B0D0F1C804689
:102130000899099AF31A02910392312B00DC5BE7AC
:102140003B4A3C4B0498059901F0A6FE041C0D1C6B
:10215000221C2B1C0298039902F02EF90290039185
:10216000029A039B0898099902F026F9221C2B1C5D
:1021700002F022F9304A314B041C0D1C04980599D9
:1021800001F08AFE221C2B1C02F016F90690079122
:10219000069A079B0298039902F00EF94A46041C1E
:1021A0000D1C80460F1C1460556025E7291C244A2D
:1021B000244B01F00FFA264B041C0D1C9E4218D034
:1021C000214A224B01F006FA021C0B1C49460A6008
:1021D0004B60201C291C02F0EFF81B4A1B4B01F03E
:1021E000F9F94A469060D1600120404298E6032305
:1021F00074E60C4B0A4A01F0EDF90B4A0B4B041C38
:102200000D1C01F0E7F9021C0B1C49460A604B60EB
:10221000201C291C02F0D0F8034A044BDFE7C0461B
:102220000000601A61B4D03D7370032E8A19A33B7D
:102230000000002E8A19A33BC14920259A837B39CF
:1022400000004054FB21F93F3163621A61B4D03D74
:10225000FB21F93FC046C046F0B5474680B488B080
:10226000029203934B005B089846894B061C0F1C97
:10227000984563DC02F0CAFB002800D1DDE0321C87
:102280003B1C301C391C01F007FE6E4B6C4A041CD1
:102290000D1C01F001FE6C4A6C4B01F09BF9221CF5
:1022A0002B1C01F0F9FD6A4A6A4B02F085F8221CEA
:1022B0002B1C01F0F1FD684A684B01F08BF9221CE0
:1022C0002B1C01F0E9FD664A664B02F075F8221CF2
:1022D0002B1C01F0E1FD644A644B01F07BF9221CE8
:1022E0002B1C01F0D9FD04900591614A614B201C23
:1022F000291C01F0D1FD049A059B00900191201C3E
:10230000291C01F0C9FD029A039B041C0D1C301C02
:10231000391C01F0C1FD021C0B1C201C291C02F001
:102320004BF8021C0B1C0098019902F045F8021CA6
:102330000B1C5148514902F03FF871E0321C3B1C24
:1023400001F0AAFD3F4B3E4A041C0D1C01F0A4FD08
:102350003D4A3E4B01F03EF9221C2B1C01F09CFD36
:102360003B4A3C4B02F028F8221C2B1C01F094FD48
:10237000394A3A4B01F02EF9221C2B1C01F08CFD3E
:10238000374A384B02F018F8221C2B1C01F084FD50
:10239000354A364B01F01EF92B1C221C01F07CFD46
:1023A0003C4B0490059198459FDD3B4B98453BDCA9
:1023B0003A4900220B1C43442F48304900920193B4
:1023C00001F0FAFF06900791294A2A4B201C291C8C
:1023D00001F062FD009A019B01F0EEFF049A059B5B
:1023E00000900191201C291C01F056FD029A039BCC
:1023F000041C0D1C301C391C01F04EFD021C0B1C72
:10240000201C291C01F0D8FF021C0B1C009801990C
:1024100001F0D2FF021C0B1C0698079901F0CCFFBB
:1024200008B004BC9046F0BD154A164B06920793BF
:102430001549164A00910192C6E70F480F49EFE788
:10244000D43888BEE9FAA8BDC4B1B4BD9EEE213E21
:10245000AD529C804F7E923E9015CB19A001FA3E62
:102460007751C1166CC1563F4C5555555555A53F32
:10247000000000000000E03F000000000000F03F0E
:10248000000000000000E73F000000000000D23F15
:10249000FFFF3F3E3233D33F0000E93F0000E0FF43
:1024A000F0B556464D4644465F46F0B48E4C8246E3
:1024B000A544A89D10938D4B141CAA00109DD258C2
:1024C0000E91013DE01E18210C92069500F046FE8B
:1024D000C343DB171840C3435A00D318DB001B1952
:1024E0000F90441B0C980B932F1817D4A998A50094
:1024F000E71926AE4519013707E0286802F0BAFA55
:10250000013403C60435BC4208D0002CF5DA01348E
:102510006C496B48043503C6BC42F6D10C9C002CB8
:1025200000DAADE30C9B109C0133DB00E4009EADB0
:10253000A34699462B1C5B44E93B002076ACFF3B4D
:1025400080460D940493069D002D00DAACE10498BA
:102550000026071C47445B4D594C504683191868A8
:1025600059683A687B6801F097FC021C0B1C201C20
:10257000291C01F02FF80836041C0D1C083F5E458D
:10258000EBD10D9908220B1C434490441C605D6004
:10259000C845D8D10C9D11ACAB000894E418119437
:1025A0000A950A9C0D9DE300EB181E685F68002CDD
:1025B00038DD231C013BDB00ED1812A8A300A84660
:1025C000C418554681460495A2463F4A3F4B301CED
:1025D000391C01F061FC02F019FA02F04BFA3C4A96
:1025E0003C4B041C0D1C01F057FC021C0B1C301C46
:1025F000391C01F0E1FE02F009FA4946043189462E
:10260000043901C1201C4446291C2268636800F07B
:10261000E1FF08256D42061C0F1CA844D145D4D10A
:1026200004988246301C391C0B9A00F0B9FC2A4AE7
:102630002A4B041C0D1C01F02FFC00F0F9FB284A6A
:10264000284B01F029FC021C0B1C201C291C01F04A
:10265000B3FE041C0D1C02F0D9F9814602F00AFAFF
:10266000021C0B1C201C291C01F0A6FE0B9C061C46
:102670000F1C002C00DCF9E00A9A12AD013A92001E
:10268000AB581821091B181C0841814488401B1AAB
:10269000AB5017252D1B2B410993099D002D50DDB3
:1026A0000A9C0125A944002C00DC08E1A10012AB22
:1026B0008022591800240E48550423E0C046C04625
:1026C0000000000000000000000000000000703E5C
:1026D0000000000000007041000000000000C03F4A
:1026E000000000000000204084FDFFFF544E000069
:1026F000FFFFFF00002A02D0AA1A1A600124043347
:102700008B4208D01A68002CF4D0821A1A60043365
:1027100001248B42F6D10B9D002D0EDD012D00D141
:10272000AFE0022D09D10A9B12AA013B9B00D258AF
:1027300012AD02929202920AEA50099D022D00D136
:102740007BE0301C391CCB4BC94A00F079FD0028D6
:1027500000D1B6E00A980C9C013884420CDC810060
:1027600012AD119C6B1800221D68043B2A43A34242
:10277000FAD1002A00D067E20C9B12A8013B9B0013
:10278000C358002B00D079E20C9B0122023B9B0036
:10279000C318043B596801320029FAD00A9B0A9CED
:1027A0000133A4180A94A34200DDFAE60F9DA99C08
:1027B0005A199200A418069DA1460D9CEA18DB0048
:1027C000E318109D0A9C04932B19D20026A8DB0065
:1027D00026AD80185D19804609954946086802F0C3
:1027E00049F9069C424610605160002C22DB4746A6
:1027F0000026A04D9E4C50468319186859683A68C7
:102800007B6801F049FB021C0B1C201C291C00F0FA
:10281000E1FE0836041C0D1C083F5E45EBD104990F
:10282000082330C1099C0422984404919144A04596
:10283000D3D1B6E68F4D8E4CF1E7321C3B1C8E484F
:102840008E4901F0B9FD061C0F1C002C00D178E761
:102850000B9A8948894900F0A3FB021C0B1C301C11
:10286000391C01F0A9FD061C0F1C6AE70B9C002C0B
:1028700011D10A9B12A8013B9B00C558ED15099583
:102880000BE70A9B12A8013B9B00C05812A9420209
:10289000520ACA5051E77A4A7A4B00F0F5FC0028F8
:1028A00005D1002409944CE7724D714C69E602246D
:1028B00009940A9C0125A944002C00DDF6E60024B9
:1028C00029E70B9D4C466A42301C391C0F9400F0DE
:1028D00067FB6D4A6D4B041C0D1C00F0D5FC0028F5
:1028E00000D1D3E16A4A6B4B201C291C01F0D4FAB9
:1028F00002F08CF8061C0A988700301C02F0BAF827
:10290000614A624B01F0C8FA021C0B1C201C291CF6
:1029100001F052FD02F07AF80A9A0B9C90460122CF
:102920009044454612A91834AB00C8510B94CE50C0
:10293000514852490B9A00F033FB4346041C0D1CCE
:10294000002B5CDB0D999E00DB0012A89B460F1C40
:1029500086195F44306802F08DF8221C2B1C01F0B0
:102960009BFA4B4A4B4B38607960201C291C01F0C4
:1029700093FA089A043E041C0D1C083F9642E9D1C4
:102980000D9B45461C1C5C440C9A049401350020A8
:102990004EA9444606958346894692460A94504677
:1029A000002860DB3C49049F8846324D304C0026AD
:1029B00004E00823984408375E4511DC424610685D
:1029C00051683A687B6801F067FA021C0B1C201CF6
:1029D000291C00F0FFFD0136041C0D1CB245E8DA8D
:1029E0005846C3004B441C605D60049C0121069D59
:1029F000083C8B440494AB45D1D10A9A9046A89CDC
:102A0000022C4BDC002C00DDDFE020D14346002B04
:102A100000DA5AE1DC004EAD2C194CAE0025002343
:102A2000281C191C2268636800F0D4FD083C051CB2
:102A30000B1CB442F4D1099C191C002C02D080203C
:102A4000000619180E9C2A1C0B1C226063600F9C48
:102A5000072020409F239B009D443CBC9046994604
:102A6000A246AB46F0BD034D014CB9E7C046C04697
:102A70000000000000000000000000000000F03F27
:102A8000000000000000E03F000000000000704176
:102A9000000000000000703E684E0000A89D032D5D
:102AA000D5D14046002800DC0AE140464EADC000CA
:102AB00083462B1C5B441E685F684346013BA94666
:102AC000DB004B444CAC04930A949A4601E0261C6C
:102AD0002F1C55462C686D68321C201C291C3B1C81
:102AE0000694079500F076FD041C0D1C221C2B1C7F
:102AF0000698079901F060FC321C3B1C00F06AFD4F
:102B000052469060D160082040420A998244146085
:102B100055608A45DBD1424600270026012A3ADD6E
:102B20004B46049D5B441E685F68A84601E0261C76
:102B30002F1C45462C686D68321C201C291C3B1C30
:102B40000494059500F046FD041C0D1C221C2B1C52
:102B50000498059901F030FC321C3B1C00F03AFD52
:102B600042469060D1600820404280441460556025
:102B7000C145DCD14C464D465C4408350027002653
:102B8000381C311C2268636800F024FD083C071CD7
:102B90000E1CAC42F4D1099C002C00D181E00E9CAB
:102BA0004E984D4620606D68802000062B184946DF
:102BB00063604846CB688022120680689B18B6186E
:102BC000A060E3602761666141E74246002500247A
:102BD000002A10DBD3004EA8C6184CAF00250024F5
:102BE000281C211C3268736800F0F4FC083E051CA8
:102BF0000C1CBE42F4D1099A211C002A02D0802369
:102C00001B06E1180E980B1C2A1C026043604E98AC
:102C10004F992A1C231C01F0CFFB4246002A07DDF6
:102C200050ACD50065190CCC00F0D4FCAC42FAD104
:102C3000099C002C02D080252D0649190E9C021CEF
:102C40000B1CA260E36002E70B9D804612A843586C
:102C50004C46183D0F940B95002B00D068E6424679
:102C6000013A9300C318291C00E0013A043B5D6857
:102C70001839002DF9D090460B9159E601228DE5C7
:102C8000109D76ACED00AB460D9483E40A98291CA8
:102C90008600201C01F0BAFE0A9A12A988519046BB
:102CA00046E60E9C4E984F993A1C20606160331C9A
:102CB00049468868C96822616361A060E160C6E630
:102CC0004EA900270026894665E700250023B2E6C5
:102CD000F0B589B004920593514B4A00061C0F1CB5
:102CE00052089A4206DC01F091FE391C031C301C8C
:102CF000002B64D0321C3B1C301C391C01F0CCF87A
:102D0000321C3B1C041C0D1C01F0C6F8374B364A24
:102D100002900391201C291C01F0BEF8344A354B67
:102D200001F04AFB221C2B1C01F0B6F8324A334B4F
:102D300000F050FC221C2B1C01F0AEF8304A314B45
:102D400001F03AFB221C2B1C01F0A6F82E4A2F4B57
:102D500000F040FC0E9B06900791002B31D02C4ACE
:102D60002C4B0498059901F097F8069A079B009060
:102D700001910298039901F08FF8021C0B1C009836
:102D8000019901F019FB221C2B1C01F085F8049A13
:102D9000059B01F011FB204A204B041C0D1C0298DE
:102DA000039901F079F8021C0B1C201C291C00F06F
:102DB00011FC021C0B1C301C391C01F0FDFA09B07F
:102DC000F0BD069A079B201C291C01F065F8124AE9
:102DD000124B01F0F1FA029A039B01F05DF8321CEC
:102DE0003B1C00F0F7FBEAE77CD5CF5A3AD9E53D2A
:102DF000EB9C2B8AE6E55A3E7DFEB157E31DC73EAC
:102E0000D561C119A0012A3FA6F810111111813F07
:102E1000000000000000E03F495555555555C53F9D
:102E2000FFFF3F3EC046C0464B0059087047C046B2
:102E3000F0B556464D4644465F46F0B4524A4F0000
:102E40007F0D83B0BE18041C0D1C89468A4680463F
:102E50000197132E2ADC002E56DB4C4F021C374103
:102E60003B1C0B4003439C46BB4667460B1C002F94
:102E700013D0424B404A00F0ADFB414A414B00F0B9
:102E8000F9F9002807D0002D4EDB53465F46BB43BF
:102E90000022994690464B464246101C191C03B02E
:102EA0003CBC90469946A246AB46F0BD332E0BDDA6
:102EB0000B1C8021021CC9008E42EED1291C00F09F
:102EC00089FB021C0B1CE8E7019F314ABB18012259
:102ED0005242DA4093465F46021C0B1C0742DCD08C
:102EE000264B254A00F076FB254A264B00F0C2F916
:102EF0000028D0D0002D1DDB42465B469A43904609
:102F0000D1464B464246C8E71C4B1B4A00F062FBC9
:102F10001B4A1C4B00F0AEF90028BCD0002D17DB7B
:102F20000027B846B946B6E780235B0333415E19F4
:102F3000B246AAE7142E19D0164B019A9F1A012304
:102F4000BB401B199C420FD96F1CBA469846D3E769
:102F50006B005B081C4302D10027B8469BE70E4F6D
:102F600000239846B94696E79846C5E76B1C9A46F3
:102F7000C2E7C046C046C0469C7500883CE4377E28
:102F8000000000000000000001FCFFFFFFFF0F0039
:102F9000EDFBFFFF330400000000F0BFC046C04659
:102FA000F8B53D4E171C331C0B40041C0D1C0A1CAD
:102FB0001B1525D14B005B0818431ED0201C291C73
:102FC0002E4B2D4A00F068FF344B041C0D1C9F4211
:102FD00031DB0E4033150A1C363B3149DB198B427D
:102FE00015DD221C2B1C2648264900F061F8244AD6
:102FF000244B00F051FF041C0D1C291C201CF8BDA3
:1030000028498B421ED02649DB198B42E9DC002B74
:1030100005DD25491B050A401D1C1543EDE7191C5C
:10302000353118DA214B9F42DBDC17481749221C47
:103030002B1C00F03DF8144A144B00F02DFF041C2B
:103040000D1CDAE7201C291C221C2B1C00F0C2FAE4
:10305000041C0D1CD1E7144936331B050A401D1C06
:103060001543201C291C0A4A0A4B00F015FF041CBA
:103070000D1CC2E7C046C0460000000000005043DF
:103080009C7500883CE4377E59F3F8C21F6EA50199
:10309000000000000000903C0000F07FB03CFFFF0B
:1030A000FE070000FF070000FFFF0F8050C3000075
:1030B00030B5DA0FD2074B005B08111C194330BD45
:1030C000002934D00123002210B488422CD30124DB
:1030D0002407A14204D2814202D209011B01F8E770
:1030E000E400A14204D2814202D249005B00F8E729
:1030F000884201D3401A1A434C08A04202D3001B55
:103100005C0822438C08A04202D3001B9C08224387
:10311000CC08A04202D3001BDC082243002803D0C5
:103120001B0901D00909E3E7101C10BC70470028F7
:1031300001D00020C04307B4024802A14018029009
:1031400003BDC046D90000000029F0D003B5FFF749
:10315000B9FF0EBC4243891A1847C046002941D026
:1031600010B4041C4C40A44601230022002900D5C1
:103170004942002800D5404288422CD3012424072C
:10318000A14204D2814202D209011B01F8E7E40006
:10319000A14204D2814202D249005B00F8E7884292
:1031A00001D3401A1A434C08A04202D3001B5C080A
:1031B00022438C08A04202D3001B9C082243CC0867
:1031C000A04202D3001BDC082243002803D01B09C5
:1031D00001D00909E3E7101C6446002C00D54042E9
:1031E00010BC7047002806D003DB0020C043400815
:1031F00001E08020000607B4024802A140180290B6
:1032000003BDC046190000000029EBD003B5FFF74D
:10321000A7FF0EBC4243891A1847C0467047C046F4
:103220008446101C62468C46191C634600E0C0466A
:103230001FB500F0B3FD002801D40021C8421FBD16
:1032400010B500F0E3FC4042013010BD10B500F0B5
:10325000A5FD002801DB002010BD012010BDC046E7
:1032600010B500F09BFD002801DD002010BD0120FD
:1032700010BDC04610B500F013FD002801DC002091
:1032800010BD012010BDC04610B500F009FD00289A
:1032900001DA002010BD012010BDC0460000000072
:1032A00038B50E4B0C4A041C0D1CFFF7EDFF00282F
:1032B00004D1201C291C01F0A9FB38BD074B064A8C
:1032C000201C291C01F078F801F0A0FB80231B06CC
:1032D000C018F2E7C046C046000000000000E04110
:1032E000F0B55F4656464D464446F0B444024600AB
:1032F00083B00F1C640A360EC50F002E41D0FF2E7E
:1033000022D080231B0400201C43E4007F3E824621
:103310008046391C4B007F02C90F7F0A1B0E8B466B
:103320003BD0FF2B34D0802212041743FF007F3B99
:1033300000215A466A40019252460A430F2A63D836
:103340007A48920082589746002C3FD108220223E7
:1033500092469846DDE70195404602282AD1019A17
:1033600001251540FF2300246402DB05600AED07F8
:103370001843284303B03CBC90469946A246AB464E
:10338000F0BD002C27D10420012282469046C0E7E0
:10339000391C4A1E91410231CBE70121002FC8D0D0
:1033A000381C01F0F7FB431F9F4076235B421B1A3A
:1033B0000021BEE7032800D1AEE001284FD10198DB
:1033C00042461040C5B200230024CDE70C23032061
:1033D0009A4680469DE7201C01F0DCFB7626431FC1
:1033E0009C4076420023361A9A46984691E78024FC
:1033F0000025E403FF23B7E75B463C1C01938846A6
:10340000AAE73C1C8846A7E7250C24043A0C240CA8
:103410003F04F6183F0C211C231C794353436F4390
:103420005543FB180A0C9B18B1469F4202D98022D3
:103430005202AD1809041A04090C521894011B0C0D
:10344000611E8C41920EED181443AD012C432301F3
:1034500005D5012263080120144081441C434B46DA
:103460007F33002B2DDD600704D00F222240042A79
:1034700000D00434220103D52D4B1C404B46803331
:10348000FE2B17DD019B01251D400024FF236BE768
:103490008020C003044208D0074206D1041C3C43EC
:1034A0006402640A5D46FF235EE704436402640A23
:1034B000FF2359E70198A4010125640ADBB2054006
:1034C00052E77E235B424A469B1A1B2B05DD019B7C
:1034D00001251D400024002346E7221CDA404B460C
:1034E0009E339C40231C5C1EA3411343580704D009
:1034F0000F221A40042A00D004335A0105D5019B3B
:1035000001251D40002401232EE701989C0101257F
:10351000640A0540002327E78027FF03019B3C4303
:10352000640201251D40640AFF231DE7A84E000028
:10353000FFFFFFF710B5041E33D001F02BFB9E23D5
:103540001B1A962B09DC083884406402640ADBB23B
:103550006402DB05600A184310BD992B0ADD0522C1
:10356000121A211CD1400A1C011C1B318C40611E07
:103570008C411443052801DD421F9440144A224027
:10358000610704D00F210C40042C00D004325101FB
:103590000AD59F23181AFF2816D09401640AC3B2D3
:1035A000D6E700230024D3E7D208FF2B03D0540230
:1035B000640ADBB2CCE7002A06D08024E40314437B
:1035C0006402640AFF23C3E7FF230024C0E7C04668
:1035D000FFFFFFFBF8B55F46564644464D46F0B444
:1035E0000C034D00CE0F610A440F2143C4001803A1
:1035F00080465800400D8246D80F84464046400A17
:10360000530F0343D0006D0D371C83465246664569
:1036100000D19DE0AF1A002F00DC03E1002A38D171
:10362000184300D0E4E0630709D00F232340042BA4
:1036300005D0231DA342A441644209191C1C0802A1
:1036400000D478E0CE4B6A1C9A4200D105E1CD4B04
:10365000E408194048075205490204430B0B520D78
:10366000371C002000211B03201C1C0B0B0D1B050D
:10367000C54D2343520552081D4015436D006D088A
:10368000FF07291C39433CBC90469946A246AB46ED
:10369000F8BDBB488542C6D0802000040343382FC4
:1036A00000DDECE01F2F00DD20E12020C01B1A1CF4
:1036B000814682405846F8400243944658464A465E
:1036C0009040421E9041FB40624602431F1CA21ADA
:1036D0009442A4416442C91B091B141C0B02A2D5CD
:1036E00049024F0A002F00D1C4E0381C01F052FA01
:1036F000021C083A1F2A00DDB7E02821091A201C05
:103700009740C84007439440954200DDA9E0551B0F
:10371000691C1F2900DDD8E01F22551B3B1C221C01
:10372000AB40CA40AC40651EAC411343CF401C4384
:10373000391C002577E74807E4086A05C908520DD7
:10374000371C04438E4B9D4248D009030B0B88E77E
:10375000AA1A9446002A00DC98E05046002853D06C
:103760008748854200D15EE780200004034362461B
:10377000382A00DDFDE01F2A00DD4BE120226046F3
:10378000101A1A1C82408246914658466246D04022
:103790004A4602439046584652469040421E904147
:1037A000424602436046C3401219A242A441644209
:1037B00059180919141C080200D434E7704B01355C
:1037C0009D4200D124E16F4B600819400123234042
:1037D0001C1C0443CB071C43490824E70B1C234350
:1037E00000D1C7E180231B030B431B031B0B38E7EE
:1037F000013F002F64D15846221A9442A4416442EA
:10380000C91A091B141C69E75846184300D10AE776
:103810000122524294446046002800D0C5E0584638
:103820000219C2E7002F72D1681C4005400D012823
:1038300000DCDEE05A46A21A9442BF41C81A7F4219
:10384000C71B380200D488E05A46141BA345924196
:10385000591A52428F1A664644E7371C0023002447
:10386000FFE64849AD1A3940DDE6271C2838874075
:10387000002449E7201C01F08DF9203038E75A4632
:103880001A43531E9A41D2B2002720E7002A00D0E3
:10389000DDE0681C4205520D012A00DC8EE0384D47
:1038A000A84200D1B3E05D462A19A242A441644275
:1038B00059180919CC07520814434908051CB2E6E7
:1038C0002F48854200D0EAE6ADE62B1C1F3B3A1C90
:1038D000DA40131C20296DD03F22551BAF403C43DA
:1038E000601E84411C43002100259CE6381C2038C2
:1038F0001A1CC240101C202F5ED04022D71BBB4098
:103900005A461A43531E9A4102430027DFE6002D10
:103910003CD01B4DAA4500D194E080252D047F4268
:103920002943382F00DDADE01F2F00DD2CE12025DD
:10393000ED1B081C261CA840FE40AC400643651E3B
:10394000AC413443F9405D462C1BA34592415B1AC0
:103950005242991A55466646C0E6131C3B43141C56
:10396000002B00D0BEE60027002200250021002405
:10397000E8E65A461A43531E9A41D2B2002313E78F
:10398000FF070000FFFF7FFFFFFF0F800D1C254397
:1039900058D0FF43002F51D1041BA3459241591A1F
:1039A0005242891A5546664698E69648854200D0A6
:1039B000DDE638E6002792E70023A1E7081C204354
:1039C000002D00D0C0E0002800D1FBE0584618438D
:1039D00000D128E658460219A242A441644259186F
:1039E0000919141C0A0200D41DE6874B0125194051
:1039F00019E6081C2043002D39D100286DD1594605
:103A0000194300D1BDE0191C5C4666460BE6051C57
:103A10002A1CABE7604620381A1CC240604691461B
:103A2000202800D1ABE04022121A93405A461A4394
:103A3000531E9A414B461A430023B5E6714DAA45E1
:103A400000D06EE7191C5C4655466646EBE5002D36
:103A50001ED10D1C254373D0D543002D6DD15C4480
:103A60005C4592415918524289185546A3E60028F0
:103A700049D15946194300D196E0191C5C46664667
:103A8000604DD0E50C43611E8C41E4B200215AE741
:103A90005C4DAA4554D05542802210040143382D74
:103AA00000DD85E01F2D00DD95E02022501B0A1C63
:103AB00084468240201CE84002439046624694407F
:103AC000601E844142461443E9405C445C45924197
:103AD000CB185242991855466DE65846184300D106
:103AE000A1E55846271ABC429241C81A5242801A90
:103AF00002026AD55846041BA3459241591A524204
:103B0000891A66468FE55846184336D04807E408B8
:103B100004438020C9080003014208D0DD080542A3
:103B200005D15946CA085C071443291C6646630F31
:103B3000C9001943E400334D75E5324A9245AED1D0
:103B4000191C5C4655466EE5002837D05846184388
:103B500013D080254807E408C9082D0304432942EF
:103B6000E5D0D8082842E2D15D46EA085C07144354
:103B7000011CDCE70023002473E5224D53E50023FC
:103B800054E700270022F1E63D1C203D0A1CEA40D4
:103B9000151C202F31D04026F71BB9400C43611E65
:103BA0008C412C430021CEE6164A0027151CDDE689
:103BB0000C43611E8C41E4B2002186E7191C5C466F
:103BC000104D30E5191C5C462DE5031C3B43D8D055
:103BD000011C3C1C27E52020404240190A1CC24021
:103BE0009046202D0BD04020451BA9400C43611E60
:103BF0008C4145462C43002167E70021CEE7002198
:103C0000F4E7C046FF070000FFFF7FFFF0B55F4607
:103C100056464D464446F0B40D1C041C8046E80F41
:103C2000814618030F03000B3F0B83B084461B48EB
:103C3000009749005E00DF0F490D9246760DBB46A6
:103C400081420CD01548864210D00120B14215D0D7
:103C500003B03CBC90469946A246AB46F0BD009FDF
:103C600001202743F4D10D488642EED1604602433D
:103C70000120002AECD10120B142E9D1009B63452B
:103C8000E6D1D045E4D1D94506D00029E0D11C4386
:103C9000201C441EA041DBE70020D9E7FF070000FD
:103CA000F0B55F4656464D464446F0B4CD0FDE0FA4
:103CB000AC461D032D0BB146374E0F034C00AB46EF
:103CC0005D0080463F0B640D92466D0DB44232D0CC
:103CD000314EB54235D0002C0ED1384341424141DE
:103CE000081C002D0BD0002919D1CC452DD06546DC
:103CF00068420123184318E0002DF6D1281C5946CC
:103D00000A4353425341002806D1002BEDD06346AD
:103D100058420123184308E00020002B05D14A46F1
:103D2000504250414042012318433CBC90469946C2
:103D3000A246AB46F0BD3E1C0643C9D0022040421D
:103D4000F3E75E461643C6D0F8E7AC4207DC0BDA71
:103D5000614648424841404201231843E5E7664630
:103D6000704201231843E0E75F450AD80ED00020D7
:103D70005F45DAD2654668426841404201231843F4
:103D8000D3E76246504201231843CEE7D045F8D826
:103D90000020D045EED3C8E7FF070000F0B5564637
:103DA0004D4644465F46F0B40D1C83B0041C0190A0
:103DB000E80F814618030F03000B3F0B844635487C
:103DC000009749005E00DF0F490D9246760DB84618
:103DD000814234D02F48864236D0002918D0002E98
:103DE0001FD1341C67463A4353425341002C1FD025
:103DF0000020002B05D14246504250414042012351
:103E0000184303B03CBC90469946A246AB46F0BD71
:103E10000098044360426041041C002EE2D0002858
:103E2000E9D1C14515D04F46784201231843E8E750
:103E3000002BF6D04B46584201231843E1E7009F80
:103E400002202743DDD1C5E7674602201743D8D1BA
:103E5000C3E7B14204DD4A46504201231843D0E78C
:103E6000B14207DB00986045E4D80AD0009F0020EB
:103E70006745C6D24F4678427841404201231843F5
:103E8000BFE7019A5245D5D8019A00205245F1D397
:103E9000B7E7C046FF070000F0B5564644465F4608
:103EA0004D46F0B41F1C0B031B0B9A464B0087B00A
:103EB000041C80465B0DC80F161C02938146002B24
:103EC00068D0694B0299994232D0802253465203FE
:103ED0001A43D200630F1A439246644AE0008918DD
:103EE00080460291002400253B031B0B9B46780073
:103EF000FB0F321C400D039300D175E05A4B9842E2
:103F000069D08022594652030A43730FD2001A43E4
:103F1000564B9346C018F200002303994E46714059
:103F20001C430F2C00D9A9E0514EA4003459A746D8
:103F300053461C4300D087E00025AA46A846082423
:103F40000225D1E74946022D6CD0032D00D117E29E
:103F5000012D00D058E10D40EDB20024A946002308
:103F6000A0460020002125030A0D1C052D0B12057B
:103F7000404B2A43134023435B004C465B08E20757
:103F8000191C4046114307B03CBC90469946A246D6
:103F9000AB46F0BD5346234350D05346002B00D1CF
:103FA00084E1504600F0F6FD031E272B00DD76E18C
:103FB00028210D1A211C083B5246E9409A400D1C4D
:103FC0001543221C9A40AA4690462B4B00241B1AEC
:103FD0000293002588E75B461E430323002E9CD1F5
:103FE000B3460022022398E75B46334321D058466C
:103FF000002800D14EE100F0CDFD272800DD42E190
:1040000028210F1A021C311C083A5B46F9409340E4
:104010000F1C1F43331C9340BB461A1C164B181A27
:1040200000237AE701230B4000249946A0460E4B5B
:1040300097E70027BB46002201236EE700210424F6
:104040008A46884601254FE70C2403254CE70025C6
:104050008024A9462403A846034B82E7DA4690460B
:1040600003991D1C6FE7C046FF07000001FCFFFF1E
:10407000E84E0000FFFF0F800DFCFFFF029F160CB3
:10408000381804904046070C0004000C1204120C6F
:10409000031C5343041C3D1C7443554398463B1C6E
:1040A00073436419A44644460293230C63449D421F
:1040B00004D9029D802464022D1902951D0C0395DC
:1040C00045462C041B04240C1C1905945C46230C47
:1040D000051C58432404240C8446381C6043654363
:1040E0005F438146CC44280C6044BB46814502D9DD
:1040F00080277F02BB442D04070C2D0C00044019BF
:104100005546BC462F04E3448446280C3D0C2F1C26
:104110005743B8462F1C77434243B94647463F0CA6
:104120009144BA46D14446434A4502D980225202BC
:10413000B6184F463A0CB6183A0447463F043F0CAF
:10414000B8462F1C67435D434443584365190190AB
:10415000380C2D184244B846AC4204D9019880234B
:104160005B02C0180190039C029F201C6044C01990
:104170006045A44147466442A4462B043C0499464A
:10418000240C4C44A046D8448018C246E2449042D5
:104190009241574652429146F219E245BF417F4251
:1041A0004B46BC46D845BF41D4187F4263461F43A7
:1041B0002D0C7F19B24292414C45AD4152426D42A5
:1041C0001543019E7D19AB19E20D5B02059F134358
:1041D00042023A439A46531E9A41C30D101C18439B
:1041E0006402204380465046C0010DD54546012259
:1041F0005646049C6B082A401A43F30701341A43BD
:10420000760804949046B246049E634FF319002B3F
:1042100061DD404640070BD00F2244462240042A6D
:1042200006D0424604324245804140428244904694
:104230005546ED0107D5594B5646049F80201E4038
:10424000C000B2463B18564A934200DDEAE64446B7
:104250005546E2086807104301226C025B050A40DC
:104260008046240B5B0D91467BE6DA4690461D1C8A
:1042700069E680242403574627421CD13C4324038B
:10428000240B484B6DE6031C283B311C99408B46A0
:104290000022C3E6301C00F07DFC2030ADE6283B58
:1042A000211C994000228A4690468EE6201C00F090
:1042B00071FC203078E65846204207D10443039928
:1042C0002403240B89469046364B4AE63C4324039C
:1042D000240B344B45E6344B049E9B1B382B06DDE8
:1042E00001230B4000249946A046002339E61F2BEA
:1042F00025DC049C2D4D46466019524644468640B6
:10430000DC4082405746301C2243DF40441EA0411F
:1043100002433B1C540709D00F201040042805D04D
:10432000101D9042924152429B18021C1D021AD548
:1043300001230B4000249946A046012311E61C48A6
:10434000049C5546001BC540281C202B16D0194E36
:104350005746A21997403A1C43461A43531E9A41A6
:1043600002430023D6E758075B02D2081C0B012347
:104370000B401043994680460023F2E50022EBE70C
:104380008024240350460123044319402403240BB2
:104390008946044BE5E5C046FF030000FFFFFFFE32
:1043A000FE070000FF07000002FCFFFF1E040000E4
:1043B000E2FBFFFF3E040000F8B55F465646444668
:1043C0004D46F0B40C034D00CF0F610A440F21435A
:1043D000C4001803DE0F8046B44646465800760AED
:1043E000530F3343D600C94A6D0DBA46400DB3464C
:1043F000904200D1EBE06246012672409446674548
:1044000000D1A1E02F1A002F00DC08E100283BD1E9
:104410005846184300D0E8E0600709D00F23234036
:10442000042B05D0231DA342A441644209191C1C7E
:104430000A0200D479E0B54B6A1C9A4200D109E126
:10444000B34BE408194048070443490252050127C9
:1044500050460B0B520D0740002000211B03201C6F
:104460001C0B0B0D1B05AB4D2343520552081D4081
:1044700015436D006D08FF07291C39433CBC90466D
:104480009946A246AB46F8BDA0488542C4D08020DC
:1044900000040343382F00DDF0E01F2F00DD24E18E
:1044A0002020C01B1A1C5E468240FE4032439446C8
:1044B0005A468240101C421E9041FB406246024315
:1044C0001F1CA21A9442A4416442C91B091B141C5C
:1044D0000A02A1D549024F0A002F00D1C9E0381CB9
:1044E00000F058FB021C083A1F2A00DDBCE028211E
:1044F000231C091A9740CB401F439440954200DD8E
:10450000AEE0551B691C1F2900DDDDE01F22551B95
:104510003B1C221CAB40CA40AC40651EAC4113435F
:10452000CF401C43391C002576E74807E4086A059C
:1045300001275646C908520D37400443734B9D422C
:1045400049D009030B0B87E72A1A9446002A00DC9E
:104550009BE0002855D06D48854200D15CE7802063
:10456000000403436046382800DD09E11F2800DD10
:1045700050E162462020801A1E1C8640B1465E46ED
:10458000D6404A4632435E4686409046301C421E24
:104590009041424602436046C3401219A242A441E0
:1045A000644259180919141C080200D434E7574B07
:1045B00001359D4200D142E1554B6008194001236D
:1045C00023401C1C0443CB071C43490824E71E431B
:1045D00000D014E70FE70B1C234300D1CFE1802369
:1045E0001B030B431B031B0B36E7013F002F66D158
:1045F0005E46A21B9442A4416442C91A091B141CC2
:1046000066E75846184300D106E701267642B444CF
:104610006046002800D0CAE05E463219BEE7002F8F
:104620007AD1681C4005400D012800DCE3E05A46C1
:10463000A21A9442BF41C81A7F42C71B3E0200D44F
:1046400092E05846041BA3459241591A52428F1AD0
:10465000E24641E7534601271F4000240023FBE6C2
:104660002B49AD1A3940D7E6271C2838874000244B
:1046700044E7201C00F08EFA203033E75A461A43F4
:10468000531E9A41D2B200271BE7002A00D0E1E076
:10469000681C4605760D012E00DC91E01B4DA842FA
:1046A00000D1F7E05E463219A242A4416442591893
:1046B0000919CC07520814434908051CACE61348F5
:1046C000854200D0E6E6A7E62B1C1F3B3E1CDE40E1
:1046D000331C202970D03F22551BAF403C43601E45
:1046E00084411C430021002596E6381C20381E1CFE
:1046F000C640301C202F61D04022D71BBB405A46F9
:104700001A43531E9A4102430027DAE6FF070000CE
:10471000FFFF7FFFFFFF0F80002D38D0B94DA8426B
:1047200000D192E080252D047F422943382F00DDFF
:10473000AAE01F2F00DD2CE12025ED1B0E1CAE4052
:10474000B046261CFE404246AC401643651EAC41B6
:104750003443F9405A46141BA34592415B1A524216
:10476000991A051CE246B3E6131C3B43141C002BAC
:1047700000D0B1E600270022002500210024DDE65C
:104780005A461A43531E9A41D2B2002305E70D1C24
:1047900025435AD0FF43002F53D15A46141BA3453B
:1047A0009241591A5242891A051CE24690E69548F0
:1047B000854200D0D6E62FE600278FE700239EE74C
:1047C000081C2043002D00D0C3E0002800D1F6E0F3
:1047D0005846184300D11FE658460219A242A44188
:1047E000644259180919141C0A0200D414E6864BB5
:1047F0000125194010E6081C2043002D3AD100285D
:1048000000D089E05946194300D1BFE0191C5C462D
:10481000E24601E6604620381A1CC2406646101C7B
:10482000202E00D1B0E04022921B93405A461A43FA
:10483000531E9A4102430023AFE6724D00272A1C03
:104840009BE7704DA84200D070E7191C5C46051C20
:10485000E246E1E5002D20D10D1C254375D0D5435E
:10486000002D6FD15C445C45924159185242891821
:10487000051C99E6002835D159461943DDD0191C8D
:104880005C46E2465F4DC7E50C43611E8C41E4B2D5
:1048900000215FE7051C021C6FE75A4DA84254D067
:1048A0005542802216043143382D00DD81E01F2D52
:1048B00000DD91E02022561B0A1CB446B240261CA3
:1048C000EE403243904662469440661EB4414246F2
:1048D0001443E9405C445C459241CB18524299181C
:1048E000051C61E6584618434CD04807E4080443C9
:1048F0008020C9080003014208D0DD08054205D127
:104900005946CA085C071443291CE246630FC900D4
:104910001943E4003B4D7FE55846184300D17BE541
:104920005E46A71BBC429241C81A5242801A060238
:104930004CD55846041BA3459241591A5242891A34
:10494000E24669E52F4A9042AED1191C5C46051C2F
:1049500062E5002836D05846184313D08025480712
:10496000E408C9082D0304432942CFD0D8082842BF
:10497000CCD15D46EA085C071443011CC6E700235E
:10498000002469E51F4D47E500234FE7002700227B
:10499000F3E63D1C203D0E1CEE40351C202F2DD093
:1049A0004026F71BB9400C43611E8C412C4300216B
:1049B000D0E60C43611E8C41E4B200218AE7191C49
:1049C0005C4629E5191C5C460E4D25E5031C3B435E
:1049D000DCD0011C3C1C1FE52026764276190A1CFF
:1049E000F2409046202D0BD04026751BA9400C4369
:1049F000611E8C4145462C4300216BE70021D2E724
:104A00000021F4E7FF070000FFFF7FFF70B50B1CDC
:104A1000124C09030E0B5900021C490DDD0F00203A
:104A2000A14211DD0E4881420FDC80204003064385
:104A30000C48401A1F280BDD0B4A521AD640321C74
:104A40005042002D00D1101C70BD084BE818FBE748
:104A5000074BC240C9188E403243F1E7FE03000005
:104A60001D0400003304000013040000FFFFFF7F5B
:104A7000EDFBFFFFF8B5041E31D0C70F00D0444254
:104A8000201C00F087F8184D2D1A0A2819DD0B3864
:104A9000844024036D05240B6D0D3A1C0026002074
:104AA00000210B0D2403240B1B0523430F4C2D0564
:104AB0001C402C4364006408D307211C301C19439C
:104AC000F8BD061C1536231CB3401E1C0B23181AF8
:104AD000C44024036D05240B6D0D3A1CDFE7002252
:104AE000002500240026DAE71E040000FFFF0F80E7
:104AF00043001B0E5A1C4102D2B270B54C0AC50FBE
:104B0000012A17DDE02292006407090B98180022A1
:104B100000231E0D221C34050C431B494005400890
:104B20002140014349004908ED070B1C2B43101C91
:104B3000191C70BD002B15D1002C1CD0201C00F0BE
:104B400029F80A281ADC0B21091A231CCB40191C4E
:104B5000031C15339C400D4B0903181A4005090B23
:104B6000400DD4E7002C03D06407090B0848CEE7BA
:104B700007480021CBE700200021C8E7011C0B39C2
:104B80008C40211C0024E6E7FFFF0F808903000012
:104B9000FF0700001C2101231B04984201D3000CD5
:104BA00010391B0A984201D3000A08391B099842A0
:104BB00001D30009043902A2105C40187047C046B6
:104BC00004030202010101010000000000000000D6
:104BD000F8B5C046F8BC08BC9E467047F8B5C0465C
:104BE000F8BC08BC9E46704743000000000000204F
:104BF0007C1400001A1400001A1400004414000071
:104C0000B4140000DA1400008E14000048130000F1
:104C1000A8130000D4130000A8130000D413000050
:104C20009213000062130000621300006213000080
:104C30006213000062130000041400004813000017
:104C40004813000048130000921300009213000064
:104C5000861600009E1600009E1600001817000021
:104C60003E170000AC170000E417000068170000B2
:104C7000B415000084150000B41500008415000070
:104C8000DE160000E0150000E0150000E015000051
:104C9000E0150000E01500002A160000481600008C
:104CA000F61600008A1700006A1600006A16000057
:104CB00000000010FFFFFFFFFFFFFFFFFFFFFFFFF0
:104CC000FFFFFFFF0300000000000000FB21F93F91
:104CD000FB2109407CD91240FB2119407A6A1F4010
:104CE0007CD92240BBFD2540FB2129403A462C407F
:104CF0007A6A2F405C4731407CD932409C6B34400B
:104D0000BBFD3540DB8F3740FB2139401BB43A40B7
:104D10003A463C405AD83D407A6A3F404C7E40403B
:104D20005C4741406C1042407CD942408CA24340D9
:104D30009C6B4440AC344540BBFD4540CBC646402F
:104D4000DB8F4740EB584840FB21494083F9A200E4
:104D5000444E6E00FC291500D1572700DD34F500C4
:104D600062DBC0003C999500419043006351FE0016
:104D7000BBDEAB00B761C5003A6E2400D24D4200E5
:104D80004906E00009EA2E001C92D100EB1DFE004E
:104D900029B11C00E83EA700F535820044BB2E0077
:104DA0009CE98400B4267000417E5F00D6913900F2
:104DB000538339009CF439008B5F840028F9BD00CF
:104DC000F81F3B00DEFF97000F980500112FEF0042
:104DD0000A5A8B006D1F6D00CF7E360009CB27006D
:104DE000464FB7009E663F002DEA5F00BA27750068
:104DF000E5EBC7003D7BF100F739070092528A00CE
:104E0000FB6BEA001FB15F00085D8D0030035600A8
:104E10007BFC4600F0AB6B0020BCCF0036F49A0060
:104E2000E3A91D005E619100081BE60085996500FD
:104E3000A0145F008D40680080D8FF0027734D00EC
:104E400006063100CA561500C9A873007BE260004F
:104E50006B8CC00002000000030000000400000092
:104E6000060000000000000000000040FB21F93FA8
:104E7000000000002D44743E000000809846F83C7D
:104E80000000006051CC783B00000080831BF039AB
:104E90000000004020257A38000000802282E3369E
:104EA000000000001DF369350834000002340000E2
:104EB00002340000F833000058330000583300007B
:104EC000EE330000F833000058330000EE330000EA
:104ED00058330000F833000056330000563300000A
:104EE00056330000903400007C4000006A4200000D
:104EF0006A4200005C400000463F0000463F000060
:104F00004E4000005C400000463F00004E40000064
:104F1000463F00005C400000443F0000443F00006A
:084F2000443F00007242000052
:084F280098B1FF7F01000000B9
:104F30000000000000000000000000000000000071
:104F40000000000000000000000000000000000061
:104F5000E84B00000000000000000000000000001E
:104F60000000000000000000000000000000000041
:104F70000000000000000000000000000000000031
:104F80000000000000000000000000000000000021
:044F9000010000001C
:0400000300001CD904
:00000001FF
